{
  "contractName": "SimpleStorage",
  "abi": [
    {
      "inputs": [],
      "stateMutability": "nonpayable",
      "type": "constructor"
    },
    {
      "anonymous": false,
      "inputs": [
        {
          "indexed": false,
          "internalType": "string",
          "name": "fileHash",
          "type": "string"
        },
        {
          "indexed": false,
          "internalType": "uint256",
          "name": "fileSize",
          "type": "uint256"
        },
        {
          "indexed": false,
          "internalType": "string",
          "name": "fileType",
          "type": "string"
        },
        {
          "indexed": false,
          "internalType": "string",
          "name": "fileName",
          "type": "string"
        },
        {
          "indexed": false,
          "internalType": "uint256",
          "name": "uploadTime",
          "type": "uint256"
        },
        {
          "indexed": false,
          "internalType": "address",
          "name": "uploader",
          "type": "address"
        },
        {
          "indexed": false,
          "internalType": "uint256",
          "name": "lastChange",
          "type": "uint256"
        },
        {
          "indexed": false,
          "internalType": "uint256",
          "name": "lastSize",
          "type": "uint256"
        },
        {
          "indexed": false,
          "internalType": "bool",
          "name": "isPrivate",
          "type": "bool"
        },
        {
          "indexed": false,
          "internalType": "address[]",
          "name": "allowedUsers",
          "type": "address[]"
        }
      ],
      "name": "FileUpdated",
      "type": "event"
    },
    {
      "anonymous": false,
      "inputs": [
        {
          "indexed": false,
          "internalType": "uint256",
          "name": "fileId",
          "type": "uint256"
        },
        {
          "indexed": false,
          "internalType": "string",
          "name": "fileHash",
          "type": "string"
        },
        {
          "indexed": false,
          "internalType": "uint256",
          "name": "fileSize",
          "type": "uint256"
        },
        {
          "indexed": false,
          "internalType": "string",
          "name": "fileType",
          "type": "string"
        },
        {
          "indexed": false,
          "internalType": "string",
          "name": "fileName",
          "type": "string"
        },
        {
          "indexed": false,
          "internalType": "string",
          "name": "fileDescription",
          "type": "string"
        },
        {
          "indexed": false,
          "internalType": "uint256",
          "name": "uploadTime",
          "type": "uint256"
        },
        {
          "indexed": false,
          "internalType": "address",
          "name": "uploader",
          "type": "address"
        },
        {
          "indexed": false,
          "internalType": "uint256",
          "name": "lastChange",
          "type": "uint256"
        },
        {
          "indexed": false,
          "internalType": "uint256",
          "name": "lastSize",
          "type": "uint256"
        },
        {
          "indexed": false,
          "internalType": "bool",
          "name": "isPrivate",
          "type": "bool"
        },
        {
          "indexed": false,
          "internalType": "address[]",
          "name": "allowedUsers",
          "type": "address[]"
        }
      ],
      "name": "FileUploaded",
      "type": "event"
    },
    {
      "inputs": [],
      "name": "fileIDs",
      "outputs": [
        {
          "internalType": "uint256",
          "name": "",
          "type": "uint256"
        }
      ],
      "stateMutability": "view",
      "type": "function",
      "constant": true
    },
    {
      "inputs": [],
      "name": "fileNum",
      "outputs": [
        {
          "internalType": "uint256",
          "name": "",
          "type": "uint256"
        }
      ],
      "stateMutability": "view",
      "type": "function",
      "constant": true
    },
    {
      "inputs": [
        {
          "internalType": "uint256",
          "name": "",
          "type": "uint256"
        }
      ],
      "name": "files",
      "outputs": [
        {
          "internalType": "uint256",
          "name": "fileId",
          "type": "uint256"
        },
        {
          "internalType": "string",
          "name": "fileHash",
          "type": "string"
        },
        {
          "internalType": "uint256",
          "name": "fileSize",
          "type": "uint256"
        },
        {
          "internalType": "string",
          "name": "fileType",
          "type": "string"
        },
        {
          "internalType": "string",
          "name": "fileName",
          "type": "string"
        },
        {
          "internalType": "string",
          "name": "fileDescription",
          "type": "string"
        },
        {
          "internalType": "uint256",
          "name": "uploadTime",
          "type": "uint256"
        },
        {
          "internalType": "address",
          "name": "uploader",
          "type": "address"
        },
        {
          "internalType": "uint256",
          "name": "lastChange",
          "type": "uint256"
        },
        {
          "internalType": "uint256",
          "name": "lastSize",
          "type": "uint256"
        },
        {
          "internalType": "bool",
          "name": "isPrivate",
          "type": "bool"
        }
      ],
      "stateMutability": "view",
      "type": "function",
      "constant": true
    },
    {
      "inputs": [],
      "name": "name",
      "outputs": [
        {
          "internalType": "string",
          "name": "",
          "type": "string"
        }
      ],
      "stateMutability": "view",
      "type": "function",
      "constant": true
    },
    {
      "inputs": [],
      "name": "transactionCount",
      "outputs": [
        {
          "internalType": "uint256",
          "name": "",
          "type": "uint256"
        }
      ],
      "stateMutability": "view",
      "type": "function",
      "constant": true
    },
    {
      "inputs": [
        {
          "internalType": "string",
          "name": "_fileHash",
          "type": "string"
        },
        {
          "internalType": "uint256",
          "name": "_fileSize",
          "type": "uint256"
        },
        {
          "internalType": "string",
          "name": "_fileType",
          "type": "string"
        },
        {
          "internalType": "string",
          "name": "_fileName",
          "type": "string"
        },
        {
          "internalType": "string",
          "name": "_fileDescription",
          "type": "string"
        },
        {
          "internalType": "bool",
          "name": "filePrivacy",
          "type": "bool"
        },
        {
          "internalType": "address[]",
          "name": "allowedFileUsers",
          "type": "address[]"
        }
      ],
      "name": "uploadFile",
      "outputs": [],
      "stateMutability": "nonpayable",
      "type": "function"
    },
    {
      "inputs": [
        {
          "internalType": "string",
          "name": "_fileHash",
          "type": "string"
        },
        {
          "internalType": "uint256",
          "name": "_fileSize",
          "type": "uint256"
        },
        {
          "internalType": "string",
          "name": "_fileType",
          "type": "string"
        },
        {
          "internalType": "string",
          "name": "_fileName",
          "type": "string"
        },
        {
          "internalType": "uint256",
          "name": "_fileID",
          "type": "uint256"
        },
        {
          "internalType": "uint256",
          "name": "_changeValue",
          "type": "uint256"
        },
        {
          "internalType": "uint256",
          "name": "_lastSize",
          "type": "uint256"
        },
        {
          "internalType": "bool",
          "name": "filePrivacy",
          "type": "bool"
        },
        {
          "internalType": "address[]",
          "name": "allowedFileUsers",
          "type": "address[]"
        },
        {
          "internalType": "string",
          "name": "_fileDescription",
          "type": "string"
        }
      ],
      "name": "updateFile",
      "outputs": [],
      "stateMutability": "nonpayable",
      "type": "function"
    },
    {
      "inputs": [
        {
          "internalType": "uint256",
          "name": "_fileID",
          "type": "uint256"
        }
      ],
      "name": "getFile",
      "outputs": [
        {
          "components": [
            {
              "internalType": "uint256",
              "name": "fileId",
              "type": "uint256"
            },
            {
              "internalType": "string",
              "name": "fileHash",
              "type": "string"
            },
            {
              "internalType": "uint256",
              "name": "fileSize",
              "type": "uint256"
            },
            {
              "internalType": "string",
              "name": "fileType",
              "type": "string"
            },
            {
              "internalType": "string",
              "name": "fileName",
              "type": "string"
            },
            {
              "internalType": "string",
              "name": "fileDescription",
              "type": "string"
            },
            {
              "internalType": "uint256",
              "name": "uploadTime",
              "type": "uint256"
            },
            {
              "internalType": "address",
              "name": "uploader",
              "type": "address"
            },
            {
              "internalType": "uint256",
              "name": "lastChange",
              "type": "uint256"
            },
            {
              "internalType": "uint256",
              "name": "lastSize",
              "type": "uint256"
            },
            {
              "internalType": "bool",
              "name": "isPrivate",
              "type": "bool"
            },
            {
              "internalType": "address[]",
              "name": "allowedUsers",
              "type": "address[]"
            }
          ],
          "internalType": "struct SimpleStorage.File",
          "name": "",
          "type": "tuple"
        }
      ],
      "stateMutability": "view",
      "type": "function",
      "constant": true
    },
    {
      "inputs": [
        {
          "internalType": "uint256",
          "name": "_fileID",
          "type": "uint256"
        }
      ],
      "name": "deleteFile",
      "outputs": [],
      "stateMutability": "nonpayable",
      "type": "function"
    },
    {
      "inputs": [
        {
          "internalType": "address",
          "name": "_address",
          "type": "address"
        },
        {
          "internalType": "string",
          "name": "_name",
          "type": "string"
        },
        {
          "internalType": "string",
          "name": "_password",
          "type": "string"
        }
      ],
      "name": "register",
      "outputs": [
        {
          "internalType": "bool",
          "name": "",
          "type": "bool"
        }
      ],
      "stateMutability": "nonpayable",
      "type": "function"
    },
    {
      "inputs": [
        {
          "internalType": "address",
          "name": "_address",
          "type": "address"
        },
        {
          "internalType": "string",
          "name": "_password",
          "type": "string"
        }
      ],
      "name": "login",
      "outputs": [
        {
          "internalType": "bool",
          "name": "",
          "type": "bool"
        }
      ],
      "stateMutability": "nonpayable",
      "type": "function"
    },
    {
      "inputs": [
        {
          "internalType": "address",
          "name": "_address",
          "type": "address"
        }
      ],
      "name": "checkIsUserLogged",
      "outputs": [
        {
          "internalType": "bool",
          "name": "",
          "type": "bool"
        }
      ],
      "stateMutability": "view",
      "type": "function",
      "constant": true
    },
    {
      "inputs": [
        {
          "internalType": "address",
          "name": "_address",
          "type": "address"
        }
      ],
      "name": "checkUserName",
      "outputs": [
        {
          "internalType": "string",
          "name": "",
          "type": "string"
        }
      ],
      "stateMutability": "view",
      "type": "function",
      "constant": true
    },
    {
      "inputs": [
        {
          "internalType": "address",
          "name": "_address",
          "type": "address"
        }
      ],
      "name": "logout",
      "outputs": [],
      "stateMutability": "nonpayable",
      "type": "function"
    },
    {
      "inputs": [],
      "name": "getAllTransactions",
      "outputs": [
        {
          "components": [
            {
              "internalType": "address",
              "name": "userAddress",
              "type": "address"
            },
            {
              "internalType": "string",
              "name": "userName",
              "type": "string"
            },
            {
              "internalType": "uint256",
              "name": "fileId",
              "type": "uint256"
            },
            {
              "internalType": "string",
              "name": "fileName",
              "type": "string"
            },
            {
              "internalType": "string",
              "name": "fileHash",
              "type": "string"
            },
            {
              "internalType": "uint256",
              "name": "fileSize",
              "type": "uint256"
            },
            {
              "internalType": "string",
              "name": "transactionType",
              "type": "string"
            },
            {
              "internalType": "uint256",
              "name": "changeLevel",
              "type": "uint256"
            },
            {
              "internalType": "uint256",
              "name": "uploadTime",
              "type": "uint256"
            },
            {
              "internalType": "uint256",
              "name": "lastSize",
              "type": "uint256"
            }
          ],
          "internalType": "struct SimpleStorage.Transaction[]",
          "name": "",
          "type": "tuple[]"
        }
      ],
      "stateMutability": "view",
      "type": "function",
      "constant": true
    },
    {
      "inputs": [
        {
          "internalType": "uint256",
          "name": "fileID",
          "type": "uint256"
        }
      ],
      "name": "getAllowedUsers",
      "outputs": [
        {
          "internalType": "address[]",
          "name": "",
          "type": "address[]"
        }
      ],
      "stateMutability": "view",
      "type": "function",
      "constant": true
    }
  ],
  "bytecode": "0x60806040526040518060400160405280600b81526020017f4172636853746f72616765000000000000000000000000000000000000000000815250600090805190602001906200005192919062000075565b506000600155600060025560006003553480156200006e57600080fd5b5062000189565b828054620000839062000154565b90600052602060002090601f016020900481019282620000a75760008555620000f3565b82601f10620000c257805160ff1916838001178555620000f3565b82800160010185558215620000f3579182015b82811115620000f2578251825591602001919060010190620000d5565b5b50905062000102919062000106565b5090565b5b808211156200012157600081600090555060010162000107565b5090565b7f4e487b7100000000000000000000000000000000000000000000000000000000600052602260045260246000fd5b600060028204905060018216806200016d57607f821691505b60208210810362000183576200018262000125565b5b50919050565b6140d980620001996000396000f3fe608060405234801561001057600080fd5b50600436106101005760003560e01c8063832d944e11610097578063c5b4200611610066578063c5b42006146102c3578063c8cc0520146102df578063cc51f9b91461030f578063f4c714b41461032b57610100565b8063832d944e1461023b5780638d59cc02146102575780639fb8070a14610287578063b77bf600146102a557610100565b80632bfda313116100d35780632bfda3131461018f5780632f19d50b146101bf5780634a6c90c4146101ef57806361ea23881461020b57610100565b806306fdde031461010557806325c2e12c1461012357806327506f5314610141578063297f7b391461015f575b600080fd5b61010d610365565b60405161011a9190612e53565b60405180910390f35b61012b6103f3565b6040516101389190612e8e565b60405180910390f35b6101496103f9565b60405161015691906130f4565b60405180910390f35b61017960048036038101906101749190613156565b610729565b604051610186919061319e565b60405180910390f35b6101a960048036038101906101a491906131e5565b610782565b6040516101b691906133f0565b60405180910390f35b6101d960048036038101906101d49190613547565b610b29565b6040516101e6919061319e565b60405180910390f35b61020960048036038101906102049190613697565b610c7c565b005b61022560048036038101906102209190613156565b611306565b6040516102329190612e53565b60405180910390f35b610255600480360381019061025091906137c5565b6113da565b005b610271600480360381019061026c9190613930565b611aa2565b60405161027e919061319e565b60405180910390f35b61028f611cd3565b60405161029c9190612e8e565b60405180910390f35b6102ad611cd9565b6040516102ba9190612e8e565b60405180910390f35b6102dd60048036038101906102d891906131e5565b611cdf565b005b6102f960048036038101906102f491906131e5565b61279c565b6040516103069190613a2a565b60405180910390f35b61032960048036038101906103249190613156565b612845565b005b610345600480360381019061034091906131e5565b6128a3565b60405161035c9b9a99989796959493929190613a5b565b60405180910390f35b6000805461037290613b51565b80601f016020809104026020016040519081016040528092919081815260200182805461039e90613b51565b80156103eb5780601f106103c0576101008083540402835291602001916103eb565b820191906000526020600020905b8154815290600101906020018083116103ce57829003601f168201915b505050505081565b60025481565b60606006805480602002602001604051908101604052809291908181526020016000905b8282101561072057838290600052602060002090600a0201604051806101400160405290816000820160009054906101000a900473ffffffffffffffffffffffffffffffffffffffff1673ffffffffffffffffffffffffffffffffffffffff1673ffffffffffffffffffffffffffffffffffffffff1681526020016001820180546104a790613b51565b80601f01602080910402602001604051908101604052809291908181526020018280546104d390613b51565b80156105205780601f106104f557610100808354040283529160200191610520565b820191906000526020600020905b81548152906001019060200180831161050357829003601f168201915b505050505081526020016002820154815260200160038201805461054390613b51565b80601f016020809104026020016040519081016040528092919081815260200182805461056f90613b51565b80156105bc5780601f10610591576101008083540402835291602001916105bc565b820191906000526020600020905b81548152906001019060200180831161059f57829003601f168201915b505050505081526020016004820180546105d590613b51565b80601f016020809104026020016040519081016040528092919081815260200182805461060190613b51565b801561064e5780601f106106235761010080835404028352916020019161064e565b820191906000526020600020905b81548152906001019060200180831161063157829003601f168201915b505050505081526020016005820154815260200160068201805461067190613b51565b80601f016020809104026020016040519081016040528092919081815260200182805461069d90613b51565b80156106ea5780601f106106bf576101008083540402835291602001916106ea565b820191906000526020600020905b8154815290600101906020018083116106cd57829003601f168201915b5050505050815260200160078201548152602001600882015481526020016009820154815250508152602001906001019061041d565b50505050905090565b6000600560008373ffffffffffffffffffffffffffffffffffffffff1673ffffffffffffffffffffffffffffffffffffffff16815260200190815260200160002060030160009054906101000a900460ff169050919050565b61078a612b4a565b6004600083815260200190815260200160002060405180610180016040529081600082015481526020016001820180546107c390613b51565b80601f01602080910402602001604051908101604052809291908181526020018280546107ef90613b51565b801561083c5780601f106108115761010080835404028352916020019161083c565b820191906000526020600020905b81548152906001019060200180831161081f57829003601f168201915b505050505081526020016002820154815260200160038201805461085f90613b51565b80601f016020809104026020016040519081016040528092919081815260200182805461088b90613b51565b80156108d85780601f106108ad576101008083540402835291602001916108d8565b820191906000526020600020905b8154815290600101906020018083116108bb57829003601f168201915b505050505081526020016004820180546108f190613b51565b80601f016020809104026020016040519081016040528092919081815260200182805461091d90613b51565b801561096a5780601f1061093f5761010080835404028352916020019161096a565b820191906000526020600020905b81548152906001019060200180831161094d57829003601f168201915b5050505050815260200160058201805461098390613b51565b80601f01602080910402602001604051908101604052809291908181526020018280546109af90613b51565b80156109fc5780601f106109d1576101008083540402835291602001916109fc565b820191906000526020600020905b8154815290600101906020018083116109df57829003601f168201915b50505050508152602001600682015481526020016007820160009054906101000a900473ffffffffffffffffffffffffffffffffffffffff1673ffffffffffffffffffffffffffffffffffffffff1673ffffffffffffffffffffffffffffffffffffffff1681526020016008820154815260200160098201548152602001600a820160009054906101000a900460ff16151515158152602001600b8201805480602002602001604051908101604052809291908181526020018280548015610b1957602002820191906000526020600020905b8160009054906101000a900473ffffffffffffffffffffffffffffffffffffffff1673ffffffffffffffffffffffffffffffffffffffff1681526020019060010190808311610acf575b5050505050815250509050919050565b600081604051602001610b3c9190613bbe565b60405160208183030381529060405280519060200120600560008573ffffffffffffffffffffffffffffffffffffffff1673ffffffffffffffffffffffffffffffffffffffff168152602001908152602001600020600201604051602001610ba49190613c69565b6040516020818303038152906040528051906020012003610c71576001600560008573ffffffffffffffffffffffffffffffffffffffff1673ffffffffffffffffffffffffffffffffffffffff16815260200190815260200160002060030160006101000a81548160ff021916908315150217905550600560008473ffffffffffffffffffffffffffffffffffffffff1673ffffffffffffffffffffffffffffffffffffffff16815260200190815260200160002060030160009054906101000a900460ff169050610c76565b600090505b92915050565b6000875111610c8a57600080fd5b6000855111610c9857600080fd5b604051602001610ca790613ccc565b6040516020818303038152906040528051906020012085604051602001610cce9190613bbe565b604051602081830303815290604052805190602001201480610d395750604051602001610cfa90613d79565b6040516020818303038152906040528051906020012085604051602001610d219190613bbe565b60405160208183030381529060405280519060200120145b80610d8d5750604051602001610d4e90613dda565b6040516020818303038152906040528051906020012085604051602001610d759190613bbe565b60405160208183030381529060405280519060200120145b610d9657600080fd5b6000835111610da457600080fd5b6000845111610db257600080fd5b600073ffffffffffffffffffffffffffffffffffffffff163373ffffffffffffffffffffffffffffffffffffffff1603610deb57600080fd5b60008611610df857600080fd5b60016000815480929190610e0b90613e1e565b919050555060026000815480929190610e2390613e1e565b919050555060405180610180016040528060015481526020018881526020018781526020018681526020018581526020018481526020014281526020013373ffffffffffffffffffffffffffffffffffffffff1681526020016000815260200160008152602001831515815260200182815250600460006001548152602001908152602001600020600082015181600001556020820151816001019080519060200190610ed1929190612bc3565b50604082015181600201556060820151816003019080519060200190610ef8929190612bc3565b506080820151816004019080519060200190610f15929190612bc3565b5060a0820151816005019080519060200190610f32929190612bc3565b5060c0820151816006015560e08201518160070160006101000a81548173ffffffffffffffffffffffffffffffffffffffff021916908373ffffffffffffffffffffffffffffffffffffffff1602179055506101008201518160080155610120820151816009015561014082015181600a0160006101000a81548160ff02191690831515021790555061016082015181600b019080519060200190610fd8929190612c49565b50905050610fe4612cd3565b33816000019073ffffffffffffffffffffffffffffffffffffffff16908173ffffffffffffffffffffffffffffffffffffffff1681525050600560003373ffffffffffffffffffffffffffffffffffffffff1673ffffffffffffffffffffffffffffffffffffffff168152602001908152602001600020600101805461106990613b51565b80601f016020809104026020016040519081016040528092919081815260200182805461109590613b51565b80156110e25780601f106110b7576101008083540402835291602001916110e2565b820191906000526020600020905b8154815290600101906020018083116110c557829003601f168201915b50505050508160200181905250600154816040018181525050848160600181905250878160800181905250868160a00181815250506040518060400160405280600381526020017f41444400000000000000000000000000000000000000000000000000000000008152508160c0018190525060008160e0018181525050600081610120018181525050428161010001818152505060068190806001815401808255809150506001900390600052602060002090600a020160009091909190915060008201518160000160006101000a81548173ffffffffffffffffffffffffffffffffffffffff021916908373ffffffffffffffffffffffffffffffffffffffff1602179055506020820151816001019080519060200190611206929190612bc3565b5060408201518160020155606082015181600301908051906020019061122d929190612bc3565b50608082015181600401908051906020019061124a929190612bc3565b5060a0820151816005015560c0820151816006019080519060200190611271929190612bc3565b5060e08201518160070155610100820151816008015561012082015181600901555050600360008154809291906112a790613e1e565b91905055507fe66659d67cf8d5c25445a0d76ce14710d606f8642206f420cf4625b5e07a1899600154898989898942336000808d8d6040516112f49c9b9a99989796959493929190613eab565b60405180910390a15050505050505050565b6060600560008373ffffffffffffffffffffffffffffffffffffffff1673ffffffffffffffffffffffffffffffffffffffff168152602001908152602001600020600101805461135590613b51565b80601f016020809104026020016040519081016040528092919081815260200182805461138190613b51565b80156113ce5780601f106113a3576101008083540402835291602001916113ce565b820191906000526020600020905b8154815290600101906020018083116113b157829003601f168201915b50505050509050919050565b60008a51116113e857600080fd5b60008851116113f657600080fd5b60405160200161140590613ccc565b604051602081830303815290604052805190602001208860405160200161142c9190613bbe565b604051602081830303815290604052805190602001201480611497575060405160200161145890613d79565b604051602081830303815290604052805190602001208860405160200161147f9190613bbe565b60405160208183030381529060405280519060200120145b806114eb57506040516020016114ac90613dda565b60405160208183030381529060405280519060200120886040516020016114d39190613bbe565b60405160208183030381529060405280519060200120145b6114f457600080fd5b600087511161150257600080fd5b600073ffffffffffffffffffffffffffffffffffffffff163373ffffffffffffffffffffffffffffffffffffffff160361153b57600080fd5b6000891161154857600080fd5b60008611801561155a57506001548611155b61156357600080fd5b600085101561157157600080fd5b8960046000888152602001908152602001600020600101908051906020019061159b929190612bc3565b50886004600088815260200190815260200160002060020181905550876004600088815260200190815260200160002060030190805190602001906115e1929190612bc3565b508660046000888152602001908152602001600020600401908051906020019061160c929190612bc3565b504260046000888152602001908152602001600020600601819055508460046000888152602001908152602001600020600801819055508360046000888152602001908152602001600020600901819055508260046000888152602001908152602001600020600a0160006101000a81548160ff0219169083151502179055508160046000888152602001908152602001600020600b0190805190602001906116b6929190612c49565b50806004600088815260200190815260200160002060050190805190602001906116e1929190612bc3565b506116ea612cd3565b33816000019073ffffffffffffffffffffffffffffffffffffffff16908173ffffffffffffffffffffffffffffffffffffffff1681525050600560003373ffffffffffffffffffffffffffffffffffffffff1673ffffffffffffffffffffffffffffffffffffffff168152602001908152602001600020600101805461176f90613b51565b80601f016020809104026020016040519081016040528092919081815260200182805461179b90613b51565b80156117e85780601f106117bd576101008083540402835291602001916117e8565b820191906000526020600020905b8154815290600101906020018083116117cb57829003601f168201915b505050505081602001819052508681604001818152505060046000888152602001908152602001600020600401805461182090613b51565b80601f016020809104026020016040519081016040528092919081815260200182805461184c90613b51565b80156118995780601f1061186e57610100808354040283529160200191611899565b820191906000526020600020905b81548152906001019060200180831161187c57829003601f168201915b505050505081606001819052508a8160800181905250898160a00181815250506040518060400160405280600681526020017f55504441544500000000000000000000000000000000000000000000000000008152508160c00181905250858160e00181815250504281610100018181525050848161012001818152505060068190806001815401808255809150506001900390600052602060002090600a020160009091909190915060008201518160000160006101000a81548173ffffffffffffffffffffffffffffffffffffffff021916908373ffffffffffffffffffffffffffffffffffffffff16021790555060208201518160010190805190602001906119a6929190612bc3565b506040820151816002015560608201518160030190805190602001906119cd929190612bc3565b5060808201518160040190805190602001906119ea929190612bc3565b5060a0820151816005015560c0820151816006019080519060200190611a11929190612bc3565b5060e0820151816007015561010082015181600801556101208201518160090155505060036000815480929190611a4790613e1e565b91905055507fe26efc812a9a6ff1c01c15ea0bc1101921d5ac1e6075a96c41ad87d660250cad8b8b8b8b42338c8c8c8c604051611a8d9a99989796959493929190613f88565b60405180910390a15050505050505050505050565b60003373ffffffffffffffffffffffffffffffffffffffff16600560008673ffffffffffffffffffffffffffffffffffffffff1673ffffffffffffffffffffffffffffffffffffffff16815260200190815260200160002060000160009054906101000a900473ffffffffffffffffffffffffffffffffffffffff1673ffffffffffffffffffffffffffffffffffffffff1603611b3e57600080fd5b83600560008673ffffffffffffffffffffffffffffffffffffffff1673ffffffffffffffffffffffffffffffffffffffff16815260200190815260200160002060000160006101000a81548173ffffffffffffffffffffffffffffffffffffffff021916908373ffffffffffffffffffffffffffffffffffffffff16021790555082600560008673ffffffffffffffffffffffffffffffffffffffff1673ffffffffffffffffffffffffffffffffffffffff1681526020019081526020016000206001019080519060200190611c15929190612bc3565b5081600560008673ffffffffffffffffffffffffffffffffffffffff1673ffffffffffffffffffffffffffffffffffffffff1681526020019081526020016000206002019080519060200190611c6c929190612bc3565b506000600560008673ffffffffffffffffffffffffffffffffffffffff1673ffffffffffffffffffffffffffffffffffffffff16815260200190815260200160002060030160006101000a81548160ff021916908315150217905550600190509392505050565b60015481565b60035481565b611ce7612cd3565b33816000019073ffffffffffffffffffffffffffffffffffffffff16908173ffffffffffffffffffffffffffffffffffffffff1681525050600560003373ffffffffffffffffffffffffffffffffffffffff1673ffffffffffffffffffffffffffffffffffffffff1681526020019081526020016000206001018054611d6c90613b51565b80601f0160208091040260200160405190810160405280929190818152602001828054611d9890613b51565b8015611de55780601f10611dba57610100808354040283529160200191611de5565b820191906000526020600020905b815481529060010190602001808311611dc857829003601f168201915b5050505050816020018190525081816040018181525050600460008381526020019081526020016000206004018054611e1d90613b51565b80601f0160208091040260200160405190810160405280929190818152602001828054611e4990613b51565b8015611e965780601f10611e6b57610100808354040283529160200191611e96565b820191906000526020600020905b815481529060010190602001808311611e7957829003601f168201915b50505050508160600181905250600460008381526020019081526020016000206001018054611ec490613b51565b80601f0160208091040260200160405190810160405280929190818152602001828054611ef090613b51565b8015611f3d5780601f10611f1257610100808354040283529160200191611f3d565b820191906000526020600020905b815481529060010190602001808311611f2057829003601f168201915b5050505050816080018190525060046000838152602001908152602001600020600201548160a00181815250506040518060400160405280600681526020017f44454c45544500000000000000000000000000000000000000000000000000008152508160c0018190525060008160e001818152505042816101000181815250506000151560046000848152602001908152602001600020600a0160009054906101000a900460ff1615150361220a5760068190806001815401808255809150506001900390600052602060002090600a020160009091909190915060008201518160000160006101000a81548173ffffffffffffffffffffffffffffffffffffffff021916908373ffffffffffffffffffffffffffffffffffffffff160217905550602082015181600101908051906020019061207c929190612bc3565b506040820151816002015560608201518160030190805190602001906120a3929190612bc3565b5060808201518160040190805190602001906120c0929190612bc3565b5060a0820151816005015560c08201518160060190805190602001906120e7929190612bc3565b5060e082015181600701556101008201518160080155610120820151816009015550506003600081548092919061211d90613e1e565b91905055506004600083815260200190815260200160002060008082016000905560018201600061214e9190612d3c565b60028201600090556003820160006121669190612d3c565b6004820160006121769190612d3c565b6005820160006121869190612d3c565b60068201600090556007820160006101000a81549073ffffffffffffffffffffffffffffffffffffffff021916905560088201600090556009820160009055600a820160006101000a81549060ff0219169055600b820160006121e99190612d7c565b50506001600260008282546121fe9190614040565b92505081905550612798565b6001151560046000848152602001908152602001600020600a0160009054906101000a900460ff16151503612797573373ffffffffffffffffffffffffffffffffffffffff166004600084815260200190815260200160002060070160009054906101000a900473ffffffffffffffffffffffffffffffffffffffff1673ffffffffffffffffffffffffffffffffffffffff16036124bf5760068190806001815401808255809150506001900390600052602060002090600a020160009091909190915060008201518160000160006101000a81548173ffffffffffffffffffffffffffffffffffffffff021916908373ffffffffffffffffffffffffffffffffffffffff1602179055506020820151816001019080519060200190612331929190612bc3565b50604082015181600201556060820151816003019080519060200190612358929190612bc3565b506080820151816004019080519060200190612375929190612bc3565b5060a0820151816005015560c082015181600601908051906020019061239c929190612bc3565b5060e08201518160070155610100820151816008015561012082015181600901555050600360008154809291906123d290613e1e565b9190505550600460008381526020019081526020016000206000808201600090556001820160006124039190612d3c565b600282016000905560038201600061241b9190612d3c565b60048201600061242b9190612d3c565b60058201600061243b9190612d3c565b60068201600090556007820160006101000a81549073ffffffffffffffffffffffffffffffffffffffff021916905560088201600090556009820160009055600a820160006101000a81549060ff0219169055600b8201600061249e9190612d7c565b50506001600260008282546124b39190614040565b92505081905550612796565b60005b60046000848152602001908152602001600020600b0180549050811015612794573373ffffffffffffffffffffffffffffffffffffffff1660046000858152602001908152602001600020600b01828154811061252257612521614074565b5b9060005260206000200160009054906101000a900473ffffffffffffffffffffffffffffffffffffffff1673ffffffffffffffffffffffffffffffffffffffff16036127815760068290806001815401808255809150506001900390600052602060002090600a020160009091909190915060008201518160000160006101000a81548173ffffffffffffffffffffffffffffffffffffffff021916908373ffffffffffffffffffffffffffffffffffffffff16021790555060208201518160010190805190602001906125f7929190612bc3565b5060408201518160020155606082015181600301908051906020019061261e929190612bc3565b50608082015181600401908051906020019061263b929190612bc3565b5060a0820151816005015560c0820151816006019080519060200190612662929190612bc3565b5060e082015181600701556101008201518160080155610120820151816009015550506003600081548092919061269890613e1e565b9190505550600460008481526020019081526020016000206000808201600090556001820160006126c99190612d3c565b60028201600090556003820160006126e19190612d3c565b6004820160006126f19190612d3c565b6005820160006127019190612d3c565b60068201600090556007820160006101000a81549073ffffffffffffffffffffffffffffffffffffffff021916905560088201600090556009820160009055600a820160006101000a81549060ff0219169055600b820160006127649190612d7c565b50506001600260008282546127799190614040565b925050819055505b808061278c90613e1e565b9150506124c2565b505b5b5b5050565b60608060046000848152602001908152602001600020600b0180548060200260200160405190810160405280929190818152602001828054801561283557602002820191906000526020600020905b8160009054906101000a900473ffffffffffffffffffffffffffffffffffffffff1673ffffffffffffffffffffffffffffffffffffffff16815260200190600101908083116127eb575b5050505050905080915050919050565b6000600560008373ffffffffffffffffffffffffffffffffffffffff1673ffffffffffffffffffffffffffffffffffffffff16815260200190815260200160002060030160006101000a81548160ff02191690831515021790555050565b60046020528060005260406000206000915090508060000154908060010180546128cc90613b51565b80601f01602080910402602001604051908101604052809291908181526020018280546128f890613b51565b80156129455780601f1061291a57610100808354040283529160200191612945565b820191906000526020600020905b81548152906001019060200180831161292857829003601f168201915b50505050509080600201549080600301805461296090613b51565b80601f016020809104026020016040519081016040528092919081815260200182805461298c90613b51565b80156129d95780601f106129ae576101008083540402835291602001916129d9565b820191906000526020600020905b8154815290600101906020018083116129bc57829003601f168201915b5050505050908060040180546129ee90613b51565b80601f0160208091040260200160405190810160405280929190818152602001828054612a1a90613b51565b8015612a675780601f10612a3c57610100808354040283529160200191612a67565b820191906000526020600020905b815481529060010190602001808311612a4a57829003601f168201915b505050505090806005018054612a7c90613b51565b80601f0160208091040260200160405190810160405280929190818152602001828054612aa890613b51565b8015612af55780601f10612aca57610100808354040283529160200191612af5565b820191906000526020600020905b815481529060010190602001808311612ad857829003601f168201915b5050505050908060060154908060070160009054906101000a900473ffffffffffffffffffffffffffffffffffffffff169080600801549080600901549080600a0160009054906101000a900460ff1690508b565b60405180610180016040528060008152602001606081526020016000815260200160608152602001606081526020016060815260200160008152602001600073ffffffffffffffffffffffffffffffffffffffff1681526020016000815260200160008152602001600015158152602001606081525090565b828054612bcf90613b51565b90600052602060002090601f016020900481019282612bf15760008555612c38565b82601f10612c0a57805160ff1916838001178555612c38565b82800160010185558215612c38579182015b82811115612c37578251825591602001919060010190612c1c565b5b509050612c459190612d9d565b5090565b828054828255906000526020600020908101928215612cc2579160200282015b82811115612cc15782518260006101000a81548173ffffffffffffffffffffffffffffffffffffffff021916908373ffffffffffffffffffffffffffffffffffffffff16021790555091602001919060010190612c69565b5b509050612ccf9190612d9d565b5090565b604051806101400160405280600073ffffffffffffffffffffffffffffffffffffffff1681526020016060815260200160008152602001606081526020016060815260200160008152602001606081526020016000815260200160008152602001600081525090565b508054612d4890613b51565b6000825580601f10612d5a5750612d79565b601f016020900490600052602060002090810190612d789190612d9d565b5b50565b5080546000825590600052602060002090810190612d9a9190612d9d565b50565b5b80821115612db6576000816000905550600101612d9e565b5090565b600081519050919050565b600082825260208201905092915050565b60005b83811015612df4578082015181840152602081019050612dd9565b83811115612e03576000848401525b50505050565b6000601f19601f8301169050919050565b6000612e2582612dba565b612e2f8185612dc5565b9350612e3f818560208601612dd6565b612e4881612e09565b840191505092915050565b60006020820190508181036000830152612e6d8184612e1a565b905092915050565b6000819050919050565b612e8881612e75565b82525050565b6000602082019050612ea36000830184612e7f565b92915050565b600081519050919050565b600082825260208201905092915050565b6000819050602082019050919050565b600073ffffffffffffffffffffffffffffffffffffffff82169050919050565b6000612f0082612ed5565b9050919050565b612f1081612ef5565b82525050565b600082825260208201905092915050565b6000612f3282612dba565b612f3c8185612f16565b9350612f4c818560208601612dd6565b612f5581612e09565b840191505092915050565b612f6981612e75565b82525050565b600061014083016000830151612f886000860182612f07565b5060208301518482036020860152612fa08282612f27565b9150506040830151612fb56040860182612f60565b5060608301518482036060860152612fcd8282612f27565b91505060808301518482036080860152612fe78282612f27565b91505060a0830151612ffc60a0860182612f60565b5060c083015184820360c08601526130148282612f27565b91505060e083015161302960e0860182612f60565b5061010083015161303e610100860182612f60565b50610120830151613053610120860182612f60565b508091505092915050565b600061306a8383612f6f565b905092915050565b6000602082019050919050565b600061308a82612ea9565b6130948185612eb4565b9350836020820285016130a685612ec5565b8060005b858110156130e257848403895281516130c3858261305e565b94506130ce83613072565b925060208a019950506001810190506130aa565b50829750879550505050505092915050565b6000602082019050818103600083015261310e818461307f565b905092915050565b6000604051905090565b600080fd5b600080fd5b61313381612ef5565b811461313e57600080fd5b50565b6000813590506131508161312a565b92915050565b60006020828403121561316c5761316b613120565b5b600061317a84828501613141565b91505092915050565b60008115159050919050565b61319881613183565b82525050565b60006020820190506131b3600083018461318f565b92915050565b6131c281612e75565b81146131cd57600080fd5b50565b6000813590506131df816131b9565b92915050565b6000602082840312156131fb576131fa613120565b5b6000613209848285016131d0565b91505092915050565b61321b81613183565b82525050565b600081519050919050565b600082825260208201905092915050565b6000819050602082019050919050565b60006132598383612f07565b60208301905092915050565b6000602082019050919050565b600061327d82613221565b613287818561322c565b93506132928361323d565b8060005b838110156132c35781516132aa888261324d565b97506132b583613265565b925050600181019050613296565b5085935050505092915050565b6000610180830160008301516132e96000860182612f60565b50602083015184820360208601526133018282612f27565b91505060408301516133166040860182612f60565b506060830151848203606086015261332e8282612f27565b915050608083015184820360808601526133488282612f27565b91505060a083015184820360a08601526133628282612f27565b91505060c083015161337760c0860182612f60565b5060e083015161338a60e0860182612f07565b5061010083015161339f610100860182612f60565b506101208301516133b4610120860182612f60565b506101408301516133c9610140860182613212565b506101608301518482036101608601526133e38282613272565b9150508091505092915050565b6000602082019050818103600083015261340a81846132d0565b905092915050565b600080fd5b600080fd5b7f4e487b7100000000000000000000000000000000000000000000000000000000600052604160045260246000fd5b61345482612e09565b810181811067ffffffffffffffff821117156134735761347261341c565b5b80604052505050565b6000613486613116565b9050613492828261344b565b919050565b600067ffffffffffffffff8211156134b2576134b161341c565b5b6134bb82612e09565b9050602081019050919050565b82818337600083830152505050565b60006134ea6134e584613497565b61347c565b90508281526020810184848401111561350657613505613417565b5b6135118482856134c8565b509392505050565b600082601f83011261352e5761352d613412565b5b813561353e8482602086016134d7565b91505092915050565b6000806040838503121561355e5761355d613120565b5b600061356c85828601613141565b925050602083013567ffffffffffffffff81111561358d5761358c613125565b5b61359985828601613519565b9150509250929050565b6135ac81613183565b81146135b757600080fd5b50565b6000813590506135c9816135a3565b92915050565b600067ffffffffffffffff8211156135ea576135e961341c565b5b602082029050602081019050919050565b600080fd5b600061361361360e846135cf565b61347c565b90508083825260208201905060208402830185811115613636576136356135fb565b5b835b8181101561365f578061364b8882613141565b845260208401935050602081019050613638565b5050509392505050565b600082601f83011261367e5761367d613412565b5b813561368e848260208601613600565b91505092915050565b600080600080600080600060e0888a0312156136b6576136b5613120565b5b600088013567ffffffffffffffff8111156136d4576136d3613125565b5b6136e08a828b01613519565b97505060206136f18a828b016131d0565b965050604088013567ffffffffffffffff81111561371257613711613125565b5b61371e8a828b01613519565b955050606088013567ffffffffffffffff81111561373f5761373e613125565b5b61374b8a828b01613519565b945050608088013567ffffffffffffffff81111561376c5761376b613125565b5b6137788a828b01613519565b93505060a06137898a828b016135ba565b92505060c088013567ffffffffffffffff8111156137aa576137a9613125565b5b6137b68a828b01613669565b91505092959891949750929550565b6000806000806000806000806000806101408b8d0312156137e9576137e8613120565b5b60008b013567ffffffffffffffff81111561380757613806613125565b5b6138138d828e01613519565b9a505060206138248d828e016131d0565b99505060408b013567ffffffffffffffff81111561384557613844613125565b5b6138518d828e01613519565b98505060608b013567ffffffffffffffff81111561387257613871613125565b5b61387e8d828e01613519565b975050608061388f8d828e016131d0565b96505060a06138a08d828e016131d0565b95505060c06138b18d828e016131d0565b94505060e06138c28d828e016135ba565b9350506101008b013567ffffffffffffffff8111156138e4576138e3613125565b5b6138f08d828e01613669565b9250506101208b013567ffffffffffffffff81111561391257613911613125565b5b61391e8d828e01613519565b9150509295989b9194979a5092959850565b60008060006060848603121561394957613948613120565b5b600061395786828701613141565b935050602084013567ffffffffffffffff81111561397857613977613125565b5b61398486828701613519565b925050604084013567ffffffffffffffff8111156139a5576139a4613125565b5b6139b186828701613519565b9150509250925092565b600082825260208201905092915050565b60006139d782613221565b6139e181856139bb565b93506139ec8361323d565b8060005b83811015613a1d578151613a04888261324d565b9750613a0f83613265565b9250506001810190506139f0565b5085935050505092915050565b60006020820190508181036000830152613a4481846139cc565b905092915050565b613a5581612ef5565b82525050565b600061016082019050613a71600083018e612e7f565b8181036020830152613a83818d612e1a565b9050613a92604083018c612e7f565b8181036060830152613aa4818b612e1a565b90508181036080830152613ab8818a612e1a565b905081810360a0830152613acc8189612e1a565b9050613adb60c0830188612e7f565b613ae860e0830187613a4c565b613af6610100830186612e7f565b613b04610120830185612e7f565b613b1261014083018461318f565b9c9b505050505050505050505050565b7f4e487b7100000000000000000000000000000000000000000000000000000000600052602260045260246000fd5b60006002820490506001821680613b6957607f821691505b602082108103613b7c57613b7b613b22565b5b50919050565b600081905092915050565b6000613b9882612dba565b613ba28185613b82565b9350613bb2818560208601612dd6565b80840191505092915050565b6000613bca8284613b8d565b915081905092915050565b60008190508160005260206000209050919050565b60008154613bf781613b51565b613c018186613b82565b94506001821660008114613c1c5760018114613c2d57613c60565b60ff19831686528186019350613c60565b613c3685613bd5565b60005b83811015613c5857815481890152600182019150602081019050613c39565b838801955050505b50505092915050565b6000613c758284613bea565b915081905092915050565b7f746578742f706c61696e00000000000000000000000000000000000000000000600082015250565b6000613cb6600a83613b82565b9150613cc182613c80565b600a82019050919050565b6000613cd782613ca9565b9150819050919050565b7f6170706c69636174696f6e2f766e642e6f70656e786d6c666f726d6174732d6f60008201527f6666696365646f63756d656e742e776f726470726f63657373696e676d6c2e6460208201527f6f63756d656e7400000000000000000000000000000000000000000000000000604082015250565b6000613d63604783613b82565b9150613d6e82613ce1565b604782019050919050565b6000613d8482613d56565b9150819050919050565b7f6170706c69636174696f6e2f7064660000000000000000000000000000000000600082015250565b6000613dc4600f83613b82565b9150613dcf82613d8e565b600f82019050919050565b6000613de582613db7565b9150819050919050565b7f4e487b7100000000000000000000000000000000000000000000000000000000600052601160045260246000fd5b6000613e2982612e75565b91507fffffffffffffffffffffffffffffffffffffffffffffffffffffffffffffffff8203613e5b57613e5a613def565b5b600182019050919050565b6000819050919050565b6000819050919050565b6000613e95613e90613e8b84613e66565b613e70565b612e75565b9050919050565b613ea581613e7a565b82525050565b600061018082019050613ec1600083018f612e7f565b8181036020830152613ed3818e612e1a565b9050613ee2604083018d612e7f565b8181036060830152613ef4818c612e1a565b90508181036080830152613f08818b612e1a565b905081810360a0830152613f1c818a612e1a565b9050613f2b60c0830189612e7f565b613f3860e0830188613a4c565b613f46610100830187613e9c565b613f54610120830186613e9c565b613f6261014083018561318f565b818103610160830152613f7581846139cc565b90509d9c50505050505050505050505050565b6000610140820190508181036000830152613fa3818d612e1a565b9050613fb2602083018c612e7f565b8181036040830152613fc4818b612e1a565b90508181036060830152613fd8818a612e1a565b9050613fe76080830189612e7f565b613ff460a0830188613a4c565b61400160c0830187612e7f565b61400e60e0830186612e7f565b61401c61010083018561318f565b81810361012083015261402f81846139cc565b90509b9a5050505050505050505050565b600061404b82612e75565b915061405683612e75565b92508282101561406957614068613def565b5b828203905092915050565b7f4e487b7100000000000000000000000000000000000000000000000000000000600052603260045260246000fdfea2646970667358221220d7196f1795a0966b822f335a61c6538402bddb3eb75429b67a56070bcd228e5d64736f6c634300080e0033",
  "immutableReferences": {},
  "source": "// SPDX-License-Identifier: MIT\r\npragma solidity ^0.8.0;\r\n\r\ncontract SimpleStorage {\r\n    // data\r\n    string public name = \"ArchStorage\";\r\n\r\n    uint256 public fileIDs = 0;\r\n    uint256 public fileNum = 0;\r\n    uint256 public transactionCount = 0;\r\n    mapping(uint256 => File) public files;\r\n    mapping(address => UserDetail) user;\r\n\r\n    struct File {\r\n        uint256 fileId;\r\n        string fileHash;\r\n        uint256 fileSize;\r\n        string fileType;\r\n        string fileName;\r\n        string fileDescription;\r\n        uint256 uploadTime;\r\n        address uploader;\r\n        uint256 lastChange;\r\n        uint256 lastSize;\r\n        bool isPrivate;\r\n        address[] allowedUsers;\r\n    }\r\n\r\n    struct UserDetail {\r\n        address addr;\r\n        string name;\r\n        string password;\r\n        bool isUserLoggedIn;\r\n    }\r\n\r\n    struct Transaction {\r\n        address userAddress;\r\n        string userName;\r\n        uint256 fileId;\r\n        string fileName;\r\n        string fileHash;\r\n        uint256 fileSize;\r\n        string transactionType;\r\n        uint256 changeLevel;\r\n        uint256 uploadTime;\r\n        uint256 lastSize;\r\n    }\r\n    Transaction[] transactions;\r\n\r\n    //events\r\n\r\n    // event transactionAdded(Transaction temp);\r\n\r\n    event FileUploaded(\r\n        uint256 fileId,\r\n        string fileHash,\r\n        uint256 fileSize,\r\n        string fileType,\r\n        string fileName,\r\n        string fileDescription,\r\n        uint256 uploadTime,\r\n        address uploader,\r\n        uint256 lastChange,\r\n        uint256 lastSize,\r\n        bool isPrivate,\r\n        address[] allowedUsers\r\n    );\r\n\r\n    event FileUpdated(\r\n        string fileHash,\r\n        uint256 fileSize,\r\n        string fileType,\r\n        string fileName,\r\n        uint256 uploadTime,\r\n        address uploader,\r\n        uint256 lastChange,\r\n        uint256 lastSize,\r\n        bool isPrivate,\r\n        address[] allowedUsers\r\n    );\r\n\r\n    constructor() public {}\r\n\r\n    function uploadFile(\r\n        string memory _fileHash,\r\n        uint256 _fileSize,\r\n        string memory _fileType,\r\n        string memory _fileName,\r\n        string memory _fileDescription,\r\n        bool filePrivacy,\r\n        address[] memory allowedFileUsers\r\n    ) public {\r\n        // Make sure the file hash exists\r\n        require(bytes(_fileHash).length > 0);\r\n        // Make sure file type exists\r\n        require(bytes(_fileType).length > 0);\r\n        require(\r\n            keccak256(abi.encodePacked(_fileType)) ==\r\n                keccak256(abi.encodePacked(\"text/plain\")) ||\r\n                keccak256(abi.encodePacked(_fileType)) ==\r\n                keccak256(\r\n                    abi.encodePacked(\r\n                        \"application/vnd.openxmlformats-officedocument.wordprocessingml.document\"\r\n                    )\r\n                ) ||\r\n                keccak256(abi.encodePacked(_fileType)) ==\r\n                keccak256(abi.encodePacked(\"application/pdf\"))\r\n        );\r\n        // Make sure file description exists\r\n        require(bytes(_fileDescription).length > 0);\r\n        // Make sure file fileName exists\r\n        require(bytes(_fileName).length > 0);\r\n        // Make sure uploader address exists\r\n        require(msg.sender != address(0));\r\n        // Make sure file size is more than 0\r\n        require(_fileSize > 0);\r\n\r\n        // Increment file id\r\n        fileIDs++;\r\n        fileNum++;\r\n\r\n        // Add File to the contract\r\n        files[fileIDs] = File(\r\n            fileIDs,\r\n            _fileHash,\r\n            _fileSize,\r\n            _fileType,\r\n            _fileName,\r\n            _fileDescription,\r\n            block.timestamp,\r\n            msg.sender,\r\n            0,\r\n            0,\r\n            filePrivacy,\r\n            allowedFileUsers\r\n        );\r\n\r\n        Transaction memory temp;\r\n        temp.userAddress = msg.sender;\r\n        temp.userName = user[msg.sender].name;\r\n        temp.fileId = fileIDs;\r\n        temp.fileName = _fileName;\r\n        temp.fileHash = _fileHash;\r\n        temp.fileSize = _fileSize;\r\n        temp.transactionType = \"ADD\";\r\n        temp.changeLevel = 0;\r\n        temp.lastSize = 0;\r\n        temp.uploadTime = block.timestamp;\r\n        transactions.push(temp);\r\n\r\n        transactionCount++;\r\n        // Trigger an event\r\n        emit FileUploaded(\r\n            fileIDs,\r\n            _fileHash,\r\n            _fileSize,\r\n            _fileType,\r\n            _fileName,\r\n            _fileDescription,\r\n            block.timestamp,\r\n            msg.sender,\r\n            0,\r\n            0,\r\n            filePrivacy,\r\n            allowedFileUsers\r\n        );\r\n    }\r\n\r\n    function updateFile(\r\n        string memory _fileHash,\r\n        uint256 _fileSize,\r\n        string memory _fileType,\r\n        string memory _fileName,\r\n        uint256 _fileID,\r\n        uint256 _changeValue,\r\n        uint256 _lastSize,\r\n        bool filePrivacy,\r\n        address[] memory allowedFileUsers,\r\n        string memory _fileDescription\r\n    ) public {\r\n        // Make sure the file hash exists\r\n        require(bytes(_fileHash).length > 0);\r\n        // Make sure file type exists\r\n        require(bytes(_fileType).length > 0);\r\n        require(\r\n            keccak256(abi.encodePacked(_fileType)) ==\r\n                keccak256(abi.encodePacked(\"text/plain\")) ||\r\n                keccak256(abi.encodePacked(_fileType)) ==\r\n                keccak256(\r\n                    abi.encodePacked(\r\n                        \"application/vnd.openxmlformats-officedocument.wordprocessingml.document\"\r\n                    )\r\n                ) ||\r\n                keccak256(abi.encodePacked(_fileType)) ==\r\n                keccak256(abi.encodePacked(\"application/pdf\"))\r\n        );\r\n        require(bytes(_fileName).length > 0);\r\n        // Make sure uploader address exists\r\n        require(msg.sender != address(0));\r\n        // Make sure file size is more than 0\r\n        require(_fileSize > 0);\r\n        require(_fileID > 0 && _fileID <= fileIDs);\r\n        require(_changeValue >= 0);\r\n\r\n        // update current file\r\n        files[_fileID].fileHash = _fileHash;\r\n        files[_fileID].fileSize = _fileSize;\r\n        files[_fileID].fileType = _fileType;\r\n        files[_fileID].fileName = _fileName;\r\n        files[_fileID].uploadTime = block.timestamp;\r\n        files[_fileID].lastChange = _changeValue;\r\n        files[_fileID].lastSize = _lastSize;\r\n        files[_fileID].isPrivate = filePrivacy;\r\n        files[_fileID].allowedUsers = allowedFileUsers;\r\n        files[_fileID].fileDescription = _fileDescription;\r\n\r\n        Transaction memory temp;\r\n        temp.userAddress = msg.sender;\r\n        temp.userName = user[msg.sender].name;\r\n        temp.fileId = _fileID;\r\n        temp.fileName = files[_fileID].fileName;\r\n        temp.fileHash = _fileHash;\r\n        temp.fileSize = _fileSize;\r\n        temp.transactionType = \"UPDATE\";\r\n        temp.changeLevel = _changeValue;\r\n        temp.uploadTime = block.timestamp;\r\n        temp.lastSize = _lastSize;\r\n        transactions.push(temp);\r\n\r\n        transactionCount++;\r\n        // Trigger an event\r\n        emit FileUpdated(\r\n            _fileHash,\r\n            _fileSize,\r\n            _fileType,\r\n            _fileName,\r\n            block.timestamp,\r\n            msg.sender,\r\n            _changeValue,\r\n            _lastSize,\r\n            filePrivacy,\r\n            allowedFileUsers\r\n        );\r\n    }\r\n\r\n    function getFile(uint256 _fileID) public view returns (File memory) {\r\n        return files[_fileID];\r\n    }\r\n\r\n    function deleteFile(uint256 _fileID) public {\r\n        //require(_fileID.length > 0);\r\n        // for (uint256 i = 0; i < _fileID.length; i++) {\r\n        Transaction memory temp;\r\n        temp.userAddress = msg.sender;\r\n        temp.userName = user[msg.sender].name;\r\n        temp.fileId = _fileID;\r\n        temp.fileName = files[_fileID].fileName;\r\n        temp.fileHash = files[_fileID].fileHash;\r\n        temp.fileSize = files[_fileID].fileSize;\r\n        temp.transactionType = \"DELETE\";\r\n        temp.changeLevel = 0;\r\n        temp.uploadTime = block.timestamp;\r\n\r\n        if (files[_fileID].isPrivate == false) {\r\n            transactions.push(temp);\r\n\r\n            transactionCount++;\r\n            delete files[_fileID];\r\n            fileNum -= 1;\r\n        } else if (files[_fileID].isPrivate == true) {\r\n            if (files[_fileID].uploader == msg.sender) {\r\n                transactions.push(temp);\r\n                transactionCount++;\r\n                delete files[_fileID];\r\n                fileNum -= 1;\r\n            } else {\r\n                for (\r\n                    uint256 i = 0;\r\n                    i < files[_fileID].allowedUsers.length;\r\n                    i++\r\n                ) {\r\n                    if (files[_fileID].allowedUsers[i] == msg.sender) {\r\n                        transactions.push(temp);\r\n                        transactionCount++;\r\n                        delete files[_fileID];\r\n                        fileNum -= 1;\r\n                    }\r\n                }\r\n            }\r\n        }\r\n\r\n        // }\r\n    }\r\n\r\n    // user registration function\r\n    function register(\r\n        address _address,\r\n        string memory _name,\r\n        string memory _password\r\n    ) public returns (bool) {\r\n        require(user[_address].addr != msg.sender);\r\n        user[_address].addr = _address;\r\n        user[_address].name = _name;\r\n        user[_address].password = _password;\r\n        user[_address].isUserLoggedIn = false;\r\n        return true;\r\n    }\r\n\r\n    // user login function\r\n    function login(address _address, string memory _password)\r\n        public\r\n        returns (bool)\r\n    {\r\n        if (\r\n            keccak256(abi.encodePacked(user[_address].password)) ==\r\n            keccak256(abi.encodePacked(_password))\r\n        ) {\r\n            user[_address].isUserLoggedIn = true;\r\n            return user[_address].isUserLoggedIn;\r\n        } else {\r\n            return false;\r\n        }\r\n    }\r\n\r\n    // check the user logged In or not\r\n    function checkIsUserLogged(address _address) public view returns (bool) {\r\n        return (user[_address].isUserLoggedIn);\r\n    }\r\n\r\n    function checkUserName(address _address)\r\n        public\r\n        view\r\n        returns (string memory)\r\n    {\r\n        return (user[_address].name);\r\n    }\r\n\r\n    // logout the user\r\n    function logout(address _address) public {\r\n        user[_address].isUserLoggedIn = false;\r\n    }\r\n\r\n    function getAllTransactions() public view returns (Transaction[] memory) {\r\n        return transactions;\r\n    }\r\n\r\n    function getAllowedUsers(uint256 fileID)\r\n        public\r\n        view\r\n        returns (address[] memory)\r\n    {\r\n        address[] memory gottenAllowedUsers;\r\n        return gottenAllowedUsers = files[fileID].allowedUsers;\r\n    }\r\n}\r\n",
  "sourcePath": "C:\\Users\\Shaun\\Desktop\\THESIS\\thesis- testing-FINAL\\contracts\\SimpleStorage.sol",
  "compiler": {
    "name": "solc",
    "version": "0.8.14+commit.80d49f37.Emscripten.clang"
  },
  "schemaVersion": "3.4.3",
  "updatedAt": "2022-05-25T13:54:05.476Z",
  "networkType": "ethereum",
  "devdoc": {
    "kind": "dev",
    "methods": {},
    "version": 1
  },
  "userdoc": {
    "kind": "user",
    "methods": {},
    "version": 1
  }
}