{
  "contractName": "SimpleStorage",
  "abi": [
    {
      "inputs": [],
      "stateMutability": "nonpayable",
      "type": "constructor"
    },
    {
      "anonymous": false,
      "inputs": [
        {
          "indexed": false,
          "internalType": "uint256",
          "name": "fileId",
          "type": "uint256"
        },
        {
          "indexed": false,
          "internalType": "string",
          "name": "fileHash",
          "type": "string"
        },
        {
          "indexed": false,
          "internalType": "uint256",
          "name": "fileSize",
          "type": "uint256"
        },
        {
          "indexed": false,
          "internalType": "string",
          "name": "fileType",
          "type": "string"
        },
        {
          "indexed": false,
          "internalType": "string",
          "name": "fileName",
          "type": "string"
        },
        {
          "indexed": false,
          "internalType": "string",
          "name": "fileDescription",
          "type": "string"
        },
        {
          "indexed": false,
          "internalType": "uint256",
          "name": "uploadTime",
          "type": "uint256"
        },
        {
          "indexed": false,
          "internalType": "address",
          "name": "uploader",
          "type": "address"
        }
      ],
      "name": "FileUploaded",
      "type": "event"
    },
    {
      "anonymous": false,
      "inputs": [
        {
          "components": [
            {
              "internalType": "address",
              "name": "userAddress",
              "type": "address"
            },
            {
              "internalType": "string",
              "name": "userName",
              "type": "string"
            },
            {
              "internalType": "string",
              "name": "fileName",
              "type": "string"
            },
            {
              "internalType": "string",
              "name": "fileHash",
              "type": "string"
            },
            {
              "internalType": "string",
              "name": "transactionType",
              "type": "string"
            },
            {
              "internalType": "uint256",
              "name": "changeLevel",
              "type": "uint256"
            }
          ],
          "indexed": false,
          "internalType": "struct SimpleStorage.Transaction",
          "name": "temp",
          "type": "tuple"
        }
      ],
      "name": "transactionAdded",
      "type": "event"
    },
    {
      "inputs": [],
      "name": "fileCount",
      "outputs": [
        {
          "internalType": "uint256",
          "name": "",
          "type": "uint256"
        }
      ],
      "stateMutability": "view",
      "type": "function"
    },
    {
      "inputs": [
        {
          "internalType": "uint256",
          "name": "",
          "type": "uint256"
        }
      ],
      "name": "files",
      "outputs": [
        {
          "internalType": "uint256",
          "name": "fileId",
          "type": "uint256"
        },
        {
          "internalType": "string",
          "name": "fileHash",
          "type": "string"
        },
        {
          "internalType": "uint256",
          "name": "fileSize",
          "type": "uint256"
        },
        {
          "internalType": "string",
          "name": "fileType",
          "type": "string"
        },
        {
          "internalType": "string",
          "name": "fileName",
          "type": "string"
        },
        {
          "internalType": "string",
          "name": "fileDescription",
          "type": "string"
        },
        {
          "internalType": "uint256",
          "name": "uploadTime",
          "type": "uint256"
        },
        {
          "internalType": "address",
          "name": "uploader",
          "type": "address"
        }
      ],
      "stateMutability": "view",
      "type": "function"
    },
    {
      "inputs": [],
      "name": "name",
      "outputs": [
        {
          "internalType": "string",
          "name": "",
          "type": "string"
        }
      ],
      "stateMutability": "view",
      "type": "function"
    },
    {
      "inputs": [],
      "name": "transactionCount",
      "outputs": [
        {
          "internalType": "uint256",
          "name": "",
          "type": "uint256"
        }
      ],
      "stateMutability": "view",
      "type": "function"
    },
    {
      "inputs": [
        {
          "internalType": "string",
          "name": "_fileHash",
          "type": "string"
        },
        {
          "internalType": "uint256",
          "name": "_fileSize",
          "type": "uint256"
        },
        {
          "internalType": "string",
          "name": "_fileType",
          "type": "string"
        },
        {
          "internalType": "string",
          "name": "_fileName",
          "type": "string"
        },
        {
          "internalType": "string",
          "name": "_fileDescription",
          "type": "string"
        }
      ],
      "name": "uploadFile",
      "outputs": [],
      "stateMutability": "nonpayable",
      "type": "function"
    },
    {
      "inputs": [
        {
          "internalType": "address",
          "name": "_address",
          "type": "address"
        },
        {
          "internalType": "string",
          "name": "_name",
          "type": "string"
        },
        {
          "internalType": "string",
          "name": "_password",
          "type": "string"
        }
      ],
      "name": "register",
      "outputs": [
        {
          "internalType": "bool",
          "name": "",
          "type": "bool"
        }
      ],
      "stateMutability": "nonpayable",
      "type": "function"
    },
    {
      "inputs": [
        {
          "internalType": "address",
          "name": "_address",
          "type": "address"
        },
        {
          "internalType": "string",
          "name": "_password",
          "type": "string"
        }
      ],
      "name": "login",
      "outputs": [
        {
          "internalType": "bool",
          "name": "",
          "type": "bool"
        }
      ],
      "stateMutability": "nonpayable",
      "type": "function"
    },
    {
      "inputs": [
        {
          "internalType": "address",
          "name": "_address",
          "type": "address"
        }
      ],
      "name": "checkIsUserLogged",
      "outputs": [
        {
          "internalType": "bool",
          "name": "",
          "type": "bool"
        }
      ],
      "stateMutability": "view",
      "type": "function"
    },
    {
      "inputs": [
        {
          "internalType": "address",
          "name": "_address",
          "type": "address"
        }
      ],
      "name": "logout",
      "outputs": [],
      "stateMutability": "nonpayable",
      "type": "function"
    },
    {
      "inputs": [
        {
          "internalType": "address",
          "name": "_userAddress",
          "type": "address"
        },
        {
          "internalType": "string",
          "name": "_userName",
          "type": "string"
        },
        {
          "internalType": "string",
          "name": "_fileName",
          "type": "string"
        },
        {
          "internalType": "string",
          "name": "_fileHash",
          "type": "string"
        },
        {
          "internalType": "string",
          "name": "_transactionType",
          "type": "string"
        },
        {
          "internalType": "uint256",
          "name": "_changeLevel",
          "type": "uint256"
        }
      ],
      "name": "addTransaction",
      "outputs": [],
      "stateMutability": "nonpayable",
      "type": "function"
    },
    {
      "inputs": [
        {
          "internalType": "uint256",
          "name": "x",
          "type": "uint256"
        }
      ],
      "name": "set",
      "outputs": [],
      "stateMutability": "nonpayable",
      "type": "function"
    },
    {
      "inputs": [],
      "name": "get",
      "outputs": [
        {
          "internalType": "uint256",
          "name": "",
          "type": "uint256"
        }
      ],
      "stateMutability": "view",
      "type": "function"
    }
  ],
  "bytecode": "0x60806040526040518060400160405280600b81526020017f4172636853746f72616765000000000000000000000000000000000000000000815250600090805190602001906200005192919062000070565b50600060025560006003553480156200006957600080fd5b5062000185565b8280546200007e906200014f565b90600052602060002090601f016020900481019282620000a25760008555620000ee565b82601f10620000bd57805160ff1916838001178555620000ee565b82800160010185558215620000ee579182015b82811115620000ed578251825591602001919060010190620000d0565b5b509050620000fd919062000101565b5090565b5b808211156200011c57600081600090555060010162000102565b5090565b7f4e487b7100000000000000000000000000000000000000000000000000000000600052602260045260246000fd5b600060028204905060018216806200016857607f821691505b602082108114156200017f576200017e62000120565b5b50919050565b6118aa80620001956000396000f3fe608060405234801561001057600080fd5b50600436106100b45760003560e01c80638d59cc02116100715780638d59cc021461018f578063b77bf600146101bf578063cc51f9b9146101dd578063d4e4b44f146101f9578063e82d9d3314610215578063f4c714b414610231576100b4565b806306fdde03146100b9578063297f7b39146100d75780632f19d50b14610107578063439535191461013757806360fe47b1146101555780636d4ce63c14610171575b600080fd5b6100c1610268565b6040516100ce9190610f44565b60405180910390f35b6100f160048036038101906100ec9190610fd8565b6102f6565b6040516100fe9190611020565b60405180910390f35b610121600480360381019061011c9190611170565b61034f565b60405161012e9190611020565b60405180910390f35b61013f6104a3565b60405161014c91906111e5565b60405180910390f35b61016f600480360381019061016a919061122c565b6104a9565b005b6101796104b3565b60405161018691906111e5565b60405180910390f35b6101a960048036038101906101a49190611259565b6104bd565b6040516101b69190611020565b60405180910390f35b6101c76106ef565b6040516101d491906111e5565b60405180910390f35b6101f760048036038101906101f29190610fd8565b6106f5565b005b610213600480360381019061020e91906112e4565b610753565b005b61022f600480360381019061022a91906113e1565b61090c565b005b61024b6004803603810190610246919061122c565b610b34565b60405161025f9897969594939291906114db565b60405180910390f35b60008054610275906115a4565b80601f01602080910402602001604051908101604052809291908181526020018280546102a1906115a4565b80156102ee5780601f106102c3576101008083540402835291602001916102ee565b820191906000526020600020905b8154815290600101906020018083116102d157829003601f168201915b505050505081565b6000600560008373ffffffffffffffffffffffffffffffffffffffff1673ffffffffffffffffffffffffffffffffffffffff16815260200190815260200160002060030160009054906101000a900460ff169050919050565b6000816040516020016103629190611612565b60405160208183030381529060405280519060200120600560008573ffffffffffffffffffffffffffffffffffffffff1673ffffffffffffffffffffffffffffffffffffffff1681526020019081526020016000206002016040516020016103ca91906116bd565b604051602081830303815290604052805190602001201415610498576001600560008573ffffffffffffffffffffffffffffffffffffffff1673ffffffffffffffffffffffffffffffffffffffff16815260200190815260200160002060030160006101000a81548160ff021916908315150217905550600560008473ffffffffffffffffffffffffffffffffffffffff1673ffffffffffffffffffffffffffffffffffffffff16815260200190815260200160002060030160009054906101000a900460ff16905061049d565b600090505b92915050565b60025481565b8060018190555050565b6000600154905090565b60003373ffffffffffffffffffffffffffffffffffffffff16600560008673ffffffffffffffffffffffffffffffffffffffff1673ffffffffffffffffffffffffffffffffffffffff16815260200190815260200160002060000160009054906101000a900473ffffffffffffffffffffffffffffffffffffffff1673ffffffffffffffffffffffffffffffffffffffff16141561055a57600080fd5b83600560008673ffffffffffffffffffffffffffffffffffffffff1673ffffffffffffffffffffffffffffffffffffffff16815260200190815260200160002060000160006101000a81548173ffffffffffffffffffffffffffffffffffffffff021916908373ffffffffffffffffffffffffffffffffffffffff16021790555082600560008673ffffffffffffffffffffffffffffffffffffffff1673ffffffffffffffffffffffffffffffffffffffff1681526020019081526020016000206001019080519060200190610631929190610dbc565b5081600560008673ffffffffffffffffffffffffffffffffffffffff1673ffffffffffffffffffffffffffffffffffffffff1681526020019081526020016000206002019080519060200190610688929190610dbc565b506000600560008673ffffffffffffffffffffffffffffffffffffffff1673ffffffffffffffffffffffffffffffffffffffff16815260200190815260200160002060030160006101000a81548160ff021916908315150217905550600190509392505050565b60035481565b6000600560008373ffffffffffffffffffffffffffffffffffffffff1673ffffffffffffffffffffffffffffffffffffffff16815260200190815260200160002060030160006101000a81548160ff02191690831515021790555050565b61075b610e42565b86816000019073ffffffffffffffffffffffffffffffffffffffff16908173ffffffffffffffffffffffffffffffffffffffff1681525050858160200181905250848160400181905250838160600181905250828160800181905250818160a0018181525050600681908060018154018082558091505060019003906000526020600020906006020160009091909190915060008201518160000160006101000a81548173ffffffffffffffffffffffffffffffffffffffff021916908373ffffffffffffffffffffffffffffffffffffffff1602179055506020820151816001019080519060200190610850929190610dbc565b50604082015181600201908051906020019061086d929190610dbc565b50606082015181600301908051906020019061088a929190610dbc565b5060808201518160040190805190602001906108a7929190610dbc565b5060a082015181600501555050600360008154809291906108c790611703565b91905055507f897e76da2d94a69f1b5fe49fbfaad74b594c8f6ac305f0e001f46baeb92a0fc8816040516108fb9190611852565b60405180910390a150505050505050565b600085511161091a57600080fd5b600083511161092857600080fd5b600081511161093657600080fd5b600082511161094457600080fd5b600073ffffffffffffffffffffffffffffffffffffffff163373ffffffffffffffffffffffffffffffffffffffff16141561097e57600080fd5b6000841161098b57600080fd5b6002600081548092919061099e90611703565b919050555060405180610100016040528060025481526020018681526020018581526020018481526020018381526020018281526020014281526020013373ffffffffffffffffffffffffffffffffffffffff16815250600460006002548152602001908152602001600020600082015181600001556020820151816001019080519060200190610a30929190610dbc565b50604082015181600201556060820151816003019080519060200190610a57929190610dbc565b506080820151816004019080519060200190610a74929190610dbc565b5060a0820151816005019080519060200190610a91929190610dbc565b5060c0820151816006015560e08201518160070160006101000a81548173ffffffffffffffffffffffffffffffffffffffff021916908373ffffffffffffffffffffffffffffffffffffffff1602179055509050507f6e95bbaa37a5fdec42a312e049dea2fe6160ebe659214d3409b4f91f164c2f5260025486868686864233604051610b259897969594939291906114db565b60405180910390a15050505050565b6004602052806000526040600020600091509050806000015490806001018054610b5d906115a4565b80601f0160208091040260200160405190810160405280929190818152602001828054610b89906115a4565b8015610bd65780601f10610bab57610100808354040283529160200191610bd6565b820191906000526020600020905b815481529060010190602001808311610bb957829003601f168201915b505050505090806002015490806003018054610bf1906115a4565b80601f0160208091040260200160405190810160405280929190818152602001828054610c1d906115a4565b8015610c6a5780601f10610c3f57610100808354040283529160200191610c6a565b820191906000526020600020905b815481529060010190602001808311610c4d57829003601f168201915b505050505090806004018054610c7f906115a4565b80601f0160208091040260200160405190810160405280929190818152602001828054610cab906115a4565b8015610cf85780601f10610ccd57610100808354040283529160200191610cf8565b820191906000526020600020905b815481529060010190602001808311610cdb57829003601f168201915b505050505090806005018054610d0d906115a4565b80601f0160208091040260200160405190810160405280929190818152602001828054610d39906115a4565b8015610d865780601f10610d5b57610100808354040283529160200191610d86565b820191906000526020600020905b815481529060010190602001808311610d6957829003601f168201915b5050505050908060060154908060070160009054906101000a900473ffffffffffffffffffffffffffffffffffffffff16905088565b828054610dc8906115a4565b90600052602060002090601f016020900481019282610dea5760008555610e31565b82601f10610e0357805160ff1916838001178555610e31565b82800160010185558215610e31579182015b82811115610e30578251825591602001919060010190610e15565b5b509050610e3e9190610e8e565b5090565b6040518060c00160405280600073ffffffffffffffffffffffffffffffffffffffff16815260200160608152602001606081526020016060815260200160608152602001600081525090565b5b80821115610ea7576000816000905550600101610e8f565b5090565b600081519050919050565b600082825260208201905092915050565b60005b83811015610ee5578082015181840152602081019050610eca565b83811115610ef4576000848401525b50505050565b6000601f19601f8301169050919050565b6000610f1682610eab565b610f208185610eb6565b9350610f30818560208601610ec7565b610f3981610efa565b840191505092915050565b60006020820190508181036000830152610f5e8184610f0b565b905092915050565b6000604051905090565b600080fd5b600080fd5b600073ffffffffffffffffffffffffffffffffffffffff82169050919050565b6000610fa582610f7a565b9050919050565b610fb581610f9a565b8114610fc057600080fd5b50565b600081359050610fd281610fac565b92915050565b600060208284031215610fee57610fed610f70565b5b6000610ffc84828501610fc3565b91505092915050565b60008115159050919050565b61101a81611005565b82525050565b60006020820190506110356000830184611011565b92915050565b600080fd5b600080fd5b7f4e487b7100000000000000000000000000000000000000000000000000000000600052604160045260246000fd5b61107d82610efa565b810181811067ffffffffffffffff8211171561109c5761109b611045565b5b80604052505050565b60006110af610f66565b90506110bb8282611074565b919050565b600067ffffffffffffffff8211156110db576110da611045565b5b6110e482610efa565b9050602081019050919050565b82818337600083830152505050565b600061111361110e846110c0565b6110a5565b90508281526020810184848401111561112f5761112e611040565b5b61113a8482856110f1565b509392505050565b600082601f8301126111575761115661103b565b5b8135611167848260208601611100565b91505092915050565b6000806040838503121561118757611186610f70565b5b600061119585828601610fc3565b925050602083013567ffffffffffffffff8111156111b6576111b5610f75565b5b6111c285828601611142565b9150509250929050565b6000819050919050565b6111df816111cc565b82525050565b60006020820190506111fa60008301846111d6565b92915050565b611209816111cc565b811461121457600080fd5b50565b60008135905061122681611200565b92915050565b60006020828403121561124257611241610f70565b5b600061125084828501611217565b91505092915050565b60008060006060848603121561127257611271610f70565b5b600061128086828701610fc3565b935050602084013567ffffffffffffffff8111156112a1576112a0610f75565b5b6112ad86828701611142565b925050604084013567ffffffffffffffff8111156112ce576112cd610f75565b5b6112da86828701611142565b9150509250925092565b60008060008060008060c0878903121561130157611300610f70565b5b600061130f89828a01610fc3565b965050602087013567ffffffffffffffff8111156113305761132f610f75565b5b61133c89828a01611142565b955050604087013567ffffffffffffffff81111561135d5761135c610f75565b5b61136989828a01611142565b945050606087013567ffffffffffffffff81111561138a57611389610f75565b5b61139689828a01611142565b935050608087013567ffffffffffffffff8111156113b7576113b6610f75565b5b6113c389828a01611142565b92505060a06113d489828a01611217565b9150509295509295509295565b600080600080600060a086880312156113fd576113fc610f70565b5b600086013567ffffffffffffffff81111561141b5761141a610f75565b5b61142788828901611142565b955050602061143888828901611217565b945050604086013567ffffffffffffffff81111561145957611458610f75565b5b61146588828901611142565b935050606086013567ffffffffffffffff81111561148657611485610f75565b5b61149288828901611142565b925050608086013567ffffffffffffffff8111156114b3576114b2610f75565b5b6114bf88828901611142565b9150509295509295909350565b6114d581610f9a565b82525050565b6000610100820190506114f1600083018b6111d6565b8181036020830152611503818a610f0b565b905061151260408301896111d6565b81810360608301526115248188610f0b565b905081810360808301526115388187610f0b565b905081810360a083015261154c8186610f0b565b905061155b60c08301856111d6565b61156860e08301846114cc565b9998505050505050505050565b7f4e487b7100000000000000000000000000000000000000000000000000000000600052602260045260246000fd5b600060028204905060018216806115bc57607f821691505b602082108114156115d0576115cf611575565b5b50919050565b600081905092915050565b60006115ec82610eab565b6115f681856115d6565b9350611606818560208601610ec7565b80840191505092915050565b600061161e82846115e1565b915081905092915050565b60008190508160005260206000209050919050565b6000815461164b816115a4565b61165581866115d6565b945060018216600081146116705760018114611681576116b4565b60ff198316865281860193506116b4565b61168a85611629565b60005b838110156116ac5781548189015260018201915060208101905061168d565b838801955050505b50505092915050565b60006116c9828461163e565b915081905092915050565b7f4e487b7100000000000000000000000000000000000000000000000000000000600052601160045260246000fd5b600061170e826111cc565b91507fffffffffffffffffffffffffffffffffffffffffffffffffffffffffffffffff821415611741576117406116d4565b5b600182019050919050565b61175581610f9a565b82525050565b600082825260208201905092915050565b600061177782610eab565b611781818561175b565b9350611791818560208601610ec7565b61179a81610efa565b840191505092915050565b6117ae816111cc565b82525050565b600060c0830160008301516117cc600086018261174c565b50602083015184820360208601526117e4828261176c565b915050604083015184820360408601526117fe828261176c565b91505060608301518482036060860152611818828261176c565b91505060808301518482036080860152611832828261176c565b91505060a083015161184760a08601826117a5565b508091505092915050565b6000602082019050818103600083015261186c81846117b4565b90509291505056fea2646970667358221220e01248954e32ec988abd7b7793346d821f28db4a09aaa1c3db5508f289a2757664736f6c634300080b0033",
  "immutableReferences": {},
  "source": "// SPDX-License-Identifier: MIT\npragma solidity ^0.8.0;\n\ncontract SimpleStorage {\n    // data\n    string public name = \"ArchStorage\";\n    uint256 storedData;\n\n    uint256 public fileCount = 0;\n    uint256 public transactionCount = 0;\n    mapping(uint256 => File) public files;\n    mapping(address => UserDetail) user;\n\n    struct File {\n        uint256 fileId;\n        string fileHash;\n        uint256 fileSize;\n        string fileType;\n        string fileName;\n        string fileDescription;\n        uint256 uploadTime;\n        address uploader;\n    }\n\n    struct UserDetail {\n        address addr;\n        string name;\n        string password;\n        bool isUserLoggedIn;\n    }\n\n    struct Transaction {\n        address userAddress;\n        string userName;\n        string fileName;\n        string fileHash;\n        string transactionType;\n        uint256 changeLevel;\n    }\n    Transaction[] transactions;\n\n    //events\n\n    event transactionAdded(Transaction temp);\n\n    event FileUploaded(\n        uint256 fileId,\n        string fileHash,\n        uint256 fileSize,\n        string fileType,\n        string fileName,\n        string fileDescription,\n        uint256 uploadTime,\n        address uploader\n    );\n\n    constructor() public {}\n\n    function uploadFile(\n        string memory _fileHash,\n        uint256 _fileSize,\n        string memory _fileType,\n        string memory _fileName,\n        string memory _fileDescription\n    ) public {\n        // Make sure the file hash exists\n        require(bytes(_fileHash).length > 0);\n        // Make sure file type exists\n        require(bytes(_fileType).length > 0);\n        // Make sure file description exists\n        require(bytes(_fileDescription).length > 0);\n        // Make sure file fileName exists\n        require(bytes(_fileName).length > 0);\n        // Make sure uploader address exists\n        require(msg.sender != address(0));\n        // Make sure file size is more than 0\n        require(_fileSize > 0);\n\n        // Increment file id\n        fileCount++;\n\n        // Add File to the contract\n        files[fileCount] = File(\n            fileCount,\n            _fileHash,\n            _fileSize,\n            _fileType,\n            _fileName,\n            _fileDescription,\n            block.timestamp,\n            msg.sender\n        );\n        // Trigger an event\n        emit FileUploaded(\n            fileCount,\n            _fileHash,\n            _fileSize,\n            _fileType,\n            _fileName,\n            _fileDescription,\n            block.timestamp,\n            msg.sender\n        );\n    }\n\n    // user registration function\n    function register(\n        address _address,\n        string memory _name,\n        string memory _password\n    ) public returns (bool) {\n        require(user[_address].addr != msg.sender);\n        user[_address].addr = _address;\n        user[_address].name = _name;\n        user[_address].password = _password;\n        user[_address].isUserLoggedIn = false;\n        return true;\n    }\n\n    // user login function\n    function login(address _address, string memory _password)\n        public\n        returns (bool)\n    {\n        if (\n            keccak256(abi.encodePacked(user[_address].password)) ==\n            keccak256(abi.encodePacked(_password))\n        ) {\n            user[_address].isUserLoggedIn = true;\n            return user[_address].isUserLoggedIn;\n        } else {\n            return false;\n        }\n    }\n\n    // check the user logged In or not\n    function checkIsUserLogged(address _address) public view returns (bool) {\n        return (user[_address].isUserLoggedIn);\n    }\n\n    // logout the user\n    function logout(address _address) public {\n        user[_address].isUserLoggedIn = false;\n    }\n\n    function addTransaction(\n        address _userAddress,\n        string memory _userName,\n        string memory _fileName,\n        string memory _fileHash,\n        string memory _transactionType,\n        uint256 _changeLevel\n    ) public {\n        Transaction memory temp;\n        temp.userAddress = _userAddress;\n        temp.userName = _userName;\n        temp.fileName = _fileName;\n        temp.fileHash = _fileHash;\n        temp.transactionType = _transactionType;\n        temp.changeLevel = _changeLevel;\n        transactions.push(temp);\n        transactionCount++;\n        emit transactionAdded(temp);\n        /*\n        emit transactionAdded(\n            _userAddress,\n            _userName,\n            _fileName,\n            _fileHash,\n            _transactionType,\n            _changeLevel\n        );\n        */\n    }\n\n    function set(uint256 x) public {\n        storedData = x;\n    }\n\n    function get() public view returns (uint256) {\n        return storedData;\n    }\n}\n",
  "sourcePath": "C:\\Users\\Shaun\\Desktop\\THESIS\\eth-archive-test\\contracts\\SimpleStorage.sol",
  "compiler": {
    "name": "solc",
    "version": "0.8.11+commit.d7f03943.Emscripten.clang"
  },
  "schemaVersion": "3.4.3",
  "updatedAt": "2021-12-28T09:29:18.545Z",
  "devdoc": {
    "kind": "dev",
    "methods": {},
    "version": 1
  },
  "userdoc": {
    "kind": "user",
    "methods": {},
    "version": 1
  }
}