{
  "contractName": "SimpleStorage",
  "abi": [
    {
      "inputs": [],
      "stateMutability": "nonpayable",
      "type": "constructor"
    },
    {
      "anonymous": false,
      "inputs": [
        {
          "indexed": false,
          "internalType": "string",
          "name": "fileHash",
          "type": "string"
        },
        {
          "indexed": false,
          "internalType": "uint256",
          "name": "fileSize",
          "type": "uint256"
        },
        {
          "indexed": false,
          "internalType": "string",
          "name": "fileType",
          "type": "string"
        },
        {
          "indexed": false,
          "internalType": "string",
          "name": "fileName",
          "type": "string"
        },
        {
          "indexed": false,
          "internalType": "uint256",
          "name": "uploadTime",
          "type": "uint256"
        },
        {
          "indexed": false,
          "internalType": "address",
          "name": "uploader",
          "type": "address"
        },
        {
          "indexed": false,
          "internalType": "uint256",
          "name": "lastChange",
          "type": "uint256"
        },
        {
          "indexed": false,
          "internalType": "uint256",
          "name": "lastSize",
          "type": "uint256"
        }
      ],
      "name": "FileUpdated",
      "type": "event"
    },
    {
      "anonymous": false,
      "inputs": [
        {
          "indexed": false,
          "internalType": "uint256",
          "name": "fileId",
          "type": "uint256"
        },
        {
          "indexed": false,
          "internalType": "string",
          "name": "fileHash",
          "type": "string"
        },
        {
          "indexed": false,
          "internalType": "uint256",
          "name": "fileSize",
          "type": "uint256"
        },
        {
          "indexed": false,
          "internalType": "string",
          "name": "fileType",
          "type": "string"
        },
        {
          "indexed": false,
          "internalType": "string",
          "name": "fileName",
          "type": "string"
        },
        {
          "indexed": false,
          "internalType": "string",
          "name": "fileDescription",
          "type": "string"
        },
        {
          "indexed": false,
          "internalType": "uint256",
          "name": "uploadTime",
          "type": "uint256"
        },
        {
          "indexed": false,
          "internalType": "address",
          "name": "uploader",
          "type": "address"
        },
        {
          "indexed": false,
          "internalType": "uint256",
          "name": "lastChange",
          "type": "uint256"
        },
        {
          "indexed": false,
          "internalType": "uint256",
          "name": "lastSize",
          "type": "uint256"
        }
      ],
      "name": "FileUploaded",
      "type": "event"
    },
    {
      "inputs": [],
      "name": "fileIDs",
      "outputs": [
        {
          "internalType": "uint256",
          "name": "",
          "type": "uint256"
        }
      ],
      "stateMutability": "view",
      "type": "function",
      "constant": true
    },
    {
      "inputs": [],
      "name": "fileNum",
      "outputs": [
        {
          "internalType": "uint256",
          "name": "",
          "type": "uint256"
        }
      ],
      "stateMutability": "view",
      "type": "function",
      "constant": true
    },
    {
      "inputs": [
        {
          "internalType": "uint256",
          "name": "",
          "type": "uint256"
        }
      ],
      "name": "files",
      "outputs": [
        {
          "internalType": "uint256",
          "name": "fileId",
          "type": "uint256"
        },
        {
          "internalType": "string",
          "name": "fileHash",
          "type": "string"
        },
        {
          "internalType": "uint256",
          "name": "fileSize",
          "type": "uint256"
        },
        {
          "internalType": "string",
          "name": "fileType",
          "type": "string"
        },
        {
          "internalType": "string",
          "name": "fileName",
          "type": "string"
        },
        {
          "internalType": "string",
          "name": "fileDescription",
          "type": "string"
        },
        {
          "internalType": "uint256",
          "name": "uploadTime",
          "type": "uint256"
        },
        {
          "internalType": "address",
          "name": "uploader",
          "type": "address"
        },
        {
          "internalType": "uint256",
          "name": "lastChange",
          "type": "uint256"
        },
        {
          "internalType": "uint256",
          "name": "lastSize",
          "type": "uint256"
        },
        {
          "internalType": "bool",
          "name": "isPrivate",
          "type": "bool"
        }
      ],
      "stateMutability": "view",
      "type": "function",
      "constant": true
    },
    {
      "inputs": [],
      "name": "name",
      "outputs": [
        {
          "internalType": "string",
          "name": "",
          "type": "string"
        }
      ],
      "stateMutability": "view",
      "type": "function",
      "constant": true
    },
    {
      "inputs": [],
      "name": "transactionCount",
      "outputs": [
        {
          "internalType": "uint256",
          "name": "",
          "type": "uint256"
        }
      ],
      "stateMutability": "view",
      "type": "function",
      "constant": true
    },
    {
      "inputs": [
        {
          "internalType": "string",
          "name": "_fileHash",
          "type": "string"
        },
        {
          "internalType": "uint256",
          "name": "_fileSize",
          "type": "uint256"
        },
        {
          "internalType": "string",
          "name": "_fileType",
          "type": "string"
        },
        {
          "internalType": "string",
          "name": "_fileName",
          "type": "string"
        },
        {
          "internalType": "string",
          "name": "_fileDescription",
          "type": "string"
        },
        {
          "internalType": "bool",
          "name": "filePrivacy",
          "type": "bool"
        },
        {
          "internalType": "address[]",
          "name": "allowedFileUsers",
          "type": "address[]"
        }
      ],
      "name": "uploadFile",
      "outputs": [],
      "stateMutability": "nonpayable",
      "type": "function"
    },
    {
      "inputs": [
        {
          "internalType": "string",
          "name": "_fileHash",
          "type": "string"
        },
        {
          "internalType": "uint256",
          "name": "_fileSize",
          "type": "uint256"
        },
        {
          "internalType": "string",
          "name": "_fileType",
          "type": "string"
        },
        {
          "internalType": "string",
          "name": "_fileName",
          "type": "string"
        },
        {
          "internalType": "uint256",
          "name": "_fileID",
          "type": "uint256"
        },
        {
          "internalType": "uint256",
          "name": "_changeValue",
          "type": "uint256"
        },
        {
          "internalType": "uint256",
          "name": "_lastSize",
          "type": "uint256"
        }
      ],
      "name": "updateFile",
      "outputs": [],
      "stateMutability": "nonpayable",
      "type": "function"
    },
    {
      "inputs": [
        {
          "internalType": "uint256",
          "name": "_fileID",
          "type": "uint256"
        }
      ],
      "name": "getFile",
      "outputs": [
        {
          "components": [
            {
              "internalType": "uint256",
              "name": "fileId",
              "type": "uint256"
            },
            {
              "internalType": "string",
              "name": "fileHash",
              "type": "string"
            },
            {
              "internalType": "uint256",
              "name": "fileSize",
              "type": "uint256"
            },
            {
              "internalType": "string",
              "name": "fileType",
              "type": "string"
            },
            {
              "internalType": "string",
              "name": "fileName",
              "type": "string"
            },
            {
              "internalType": "string",
              "name": "fileDescription",
              "type": "string"
            },
            {
              "internalType": "uint256",
              "name": "uploadTime",
              "type": "uint256"
            },
            {
              "internalType": "address",
              "name": "uploader",
              "type": "address"
            },
            {
              "internalType": "uint256",
              "name": "lastChange",
              "type": "uint256"
            },
            {
              "internalType": "uint256",
              "name": "lastSize",
              "type": "uint256"
            },
            {
              "internalType": "bool",
              "name": "isPrivate",
              "type": "bool"
            },
            {
              "internalType": "address[]",
              "name": "allowedUsers",
              "type": "address[]"
            }
          ],
          "internalType": "struct SimpleStorage.File",
          "name": "",
          "type": "tuple"
        }
      ],
      "stateMutability": "view",
      "type": "function",
      "constant": true
    },
    {
      "inputs": [
        {
          "internalType": "uint256",
          "name": "_fileID",
          "type": "uint256"
        }
      ],
      "name": "deleteFile",
      "outputs": [],
      "stateMutability": "nonpayable",
      "type": "function"
    },
    {
      "inputs": [
        {
          "internalType": "address",
          "name": "_address",
          "type": "address"
        },
        {
          "internalType": "string",
          "name": "_name",
          "type": "string"
        },
        {
          "internalType": "string",
          "name": "_password",
          "type": "string"
        }
      ],
      "name": "register",
      "outputs": [
        {
          "internalType": "bool",
          "name": "",
          "type": "bool"
        }
      ],
      "stateMutability": "nonpayable",
      "type": "function"
    },
    {
      "inputs": [
        {
          "internalType": "address",
          "name": "_address",
          "type": "address"
        },
        {
          "internalType": "string",
          "name": "_password",
          "type": "string"
        }
      ],
      "name": "login",
      "outputs": [
        {
          "internalType": "bool",
          "name": "",
          "type": "bool"
        }
      ],
      "stateMutability": "nonpayable",
      "type": "function"
    },
    {
      "inputs": [
        {
          "internalType": "address",
          "name": "_address",
          "type": "address"
        }
      ],
      "name": "checkIsUserLogged",
      "outputs": [
        {
          "internalType": "bool",
          "name": "",
          "type": "bool"
        }
      ],
      "stateMutability": "view",
      "type": "function",
      "constant": true
    },
    {
      "inputs": [
        {
          "internalType": "address",
          "name": "_address",
          "type": "address"
        }
      ],
      "name": "checkUserName",
      "outputs": [
        {
          "internalType": "string",
          "name": "",
          "type": "string"
        }
      ],
      "stateMutability": "view",
      "type": "function",
      "constant": true
    },
    {
      "inputs": [
        {
          "internalType": "address",
          "name": "_address",
          "type": "address"
        }
      ],
      "name": "logout",
      "outputs": [],
      "stateMutability": "nonpayable",
      "type": "function"
    },
    {
      "inputs": [],
      "name": "getAllTransactions",
      "outputs": [
        {
          "components": [
            {
              "internalType": "address",
              "name": "userAddress",
              "type": "address"
            },
            {
              "internalType": "string",
              "name": "userName",
              "type": "string"
            },
            {
              "internalType": "uint256",
              "name": "fileId",
              "type": "uint256"
            },
            {
              "internalType": "string",
              "name": "fileName",
              "type": "string"
            },
            {
              "internalType": "string",
              "name": "fileHash",
              "type": "string"
            },
            {
              "internalType": "uint256",
              "name": "fileSize",
              "type": "uint256"
            },
            {
              "internalType": "string",
              "name": "transactionType",
              "type": "string"
            },
            {
              "internalType": "uint256",
              "name": "changeLevel",
              "type": "uint256"
            },
            {
              "internalType": "uint256",
              "name": "uploadTime",
              "type": "uint256"
            },
            {
              "internalType": "uint256",
              "name": "lastSize",
              "type": "uint256"
            }
          ],
          "internalType": "struct SimpleStorage.Transaction[]",
          "name": "",
          "type": "tuple[]"
        }
      ],
      "stateMutability": "view",
      "type": "function",
      "constant": true
    },
    {
      "inputs": [
        {
          "internalType": "uint256",
          "name": "fileID",
          "type": "uint256"
        }
      ],
      "name": "getAllowedUsers",
      "outputs": [
        {
          "internalType": "address[]",
          "name": "",
          "type": "address[]"
        }
      ],
      "stateMutability": "view",
      "type": "function",
      "constant": true
    }
  ],
  "bytecode": "0x60806040526040518060400160405280600b81526020017f4172636853746f72616765000000000000000000000000000000000000000000815250600090805190602001906200005192919062000075565b506000600155600060025560006003553480156200006e57600080fd5b5062000189565b828054620000839062000154565b90600052602060002090601f016020900481019282620000a75760008555620000f3565b82601f10620000c257805160ff1916838001178555620000f3565b82800160010185558215620000f3579182015b82811115620000f2578251825591602001919060010190620000d5565b5b50905062000102919062000106565b5090565b5b808211156200012157600081600090555060010162000107565b5090565b7f4e487b7100000000000000000000000000000000000000000000000000000000600052602260045260246000fd5b600060028204905060018216806200016d57607f821691505b60208210810362000183576200018262000125565b5b50919050565b613fe080620001996000396000f3fe608060405234801561001057600080fd5b50600436106101005760003560e01c806361ea238811610097578063c5b4200611610066578063c5b42006146102c3578063c8cc0520146102df578063cc51f9b91461030f578063f4c714b41461032b57610100565b806361ea2388146102275780638d59cc02146102575780639fb8070a14610287578063b77bf600146102a557610100565b80632bfda313116100d35780632bfda3131461018f5780632f19d50b146101bf5780634a6c90c4146101ef578063567b6c131461020b57610100565b806306fdde031461010557806325c2e12c1461012357806327506f5314610141578063297f7b391461015f575b600080fd5b61010d610365565b60405161011a9190612e19565b60405180910390f35b61012b6103f3565b6040516101389190612e54565b60405180910390f35b6101496103f9565b60405161015691906130ba565b60405180910390f35b6101796004803603810190610174919061311c565b610729565b6040516101869190613164565b60405180910390f35b6101a960048036038101906101a491906131ab565b610782565b6040516101b691906133b6565b60405180910390f35b6101d960048036038101906101d4919061350d565b610b29565b6040516101e69190613164565b60405180910390f35b6102096004803603810190610204919061365d565b610c7c565b005b6102256004803603810190610220919061378b565b611302565b005b610241600480360381019061023c919061311c565b611994565b60405161024e9190612e19565b60405180910390f35b610271600480360381019061026c9190613881565b611a68565b60405161027e9190613164565b60405180910390f35b61028f611c99565b60405161029c9190612e54565b60405180910390f35b6102ad611c9f565b6040516102ba9190612e54565b60405180910390f35b6102dd60048036038101906102d891906131ab565b611ca5565b005b6102f960048036038101906102f491906131ab565b612762565b604051610306919061397b565b60405180910390f35b6103296004803603810190610324919061311c565b61280b565b005b610345600480360381019061034091906131ab565b612869565b60405161035c9b9a999897969594939291906139ac565b60405180910390f35b6000805461037290613aa2565b80601f016020809104026020016040519081016040528092919081815260200182805461039e90613aa2565b80156103eb5780601f106103c0576101008083540402835291602001916103eb565b820191906000526020600020905b8154815290600101906020018083116103ce57829003601f168201915b505050505081565b60025481565b60606006805480602002602001604051908101604052809291908181526020016000905b8282101561072057838290600052602060002090600a0201604051806101400160405290816000820160009054906101000a900473ffffffffffffffffffffffffffffffffffffffff1673ffffffffffffffffffffffffffffffffffffffff1673ffffffffffffffffffffffffffffffffffffffff1681526020016001820180546104a790613aa2565b80601f01602080910402602001604051908101604052809291908181526020018280546104d390613aa2565b80156105205780601f106104f557610100808354040283529160200191610520565b820191906000526020600020905b81548152906001019060200180831161050357829003601f168201915b505050505081526020016002820154815260200160038201805461054390613aa2565b80601f016020809104026020016040519081016040528092919081815260200182805461056f90613aa2565b80156105bc5780601f10610591576101008083540402835291602001916105bc565b820191906000526020600020905b81548152906001019060200180831161059f57829003601f168201915b505050505081526020016004820180546105d590613aa2565b80601f016020809104026020016040519081016040528092919081815260200182805461060190613aa2565b801561064e5780601f106106235761010080835404028352916020019161064e565b820191906000526020600020905b81548152906001019060200180831161063157829003601f168201915b505050505081526020016005820154815260200160068201805461067190613aa2565b80601f016020809104026020016040519081016040528092919081815260200182805461069d90613aa2565b80156106ea5780601f106106bf576101008083540402835291602001916106ea565b820191906000526020600020905b8154815290600101906020018083116106cd57829003601f168201915b5050505050815260200160078201548152602001600882015481526020016009820154815250508152602001906001019061041d565b50505050905090565b6000600560008373ffffffffffffffffffffffffffffffffffffffff1673ffffffffffffffffffffffffffffffffffffffff16815260200190815260200160002060030160009054906101000a900460ff169050919050565b61078a612b10565b6004600083815260200190815260200160002060405180610180016040529081600082015481526020016001820180546107c390613aa2565b80601f01602080910402602001604051908101604052809291908181526020018280546107ef90613aa2565b801561083c5780601f106108115761010080835404028352916020019161083c565b820191906000526020600020905b81548152906001019060200180831161081f57829003601f168201915b505050505081526020016002820154815260200160038201805461085f90613aa2565b80601f016020809104026020016040519081016040528092919081815260200182805461088b90613aa2565b80156108d85780601f106108ad576101008083540402835291602001916108d8565b820191906000526020600020905b8154815290600101906020018083116108bb57829003601f168201915b505050505081526020016004820180546108f190613aa2565b80601f016020809104026020016040519081016040528092919081815260200182805461091d90613aa2565b801561096a5780601f1061093f5761010080835404028352916020019161096a565b820191906000526020600020905b81548152906001019060200180831161094d57829003601f168201915b5050505050815260200160058201805461098390613aa2565b80601f01602080910402602001604051908101604052809291908181526020018280546109af90613aa2565b80156109fc5780601f106109d1576101008083540402835291602001916109fc565b820191906000526020600020905b8154815290600101906020018083116109df57829003601f168201915b50505050508152602001600682015481526020016007820160009054906101000a900473ffffffffffffffffffffffffffffffffffffffff1673ffffffffffffffffffffffffffffffffffffffff1673ffffffffffffffffffffffffffffffffffffffff1681526020016008820154815260200160098201548152602001600a820160009054906101000a900460ff16151515158152602001600b8201805480602002602001604051908101604052809291908181526020018280548015610b1957602002820191906000526020600020905b8160009054906101000a900473ffffffffffffffffffffffffffffffffffffffff1673ffffffffffffffffffffffffffffffffffffffff1681526020019060010190808311610acf575b5050505050815250509050919050565b600081604051602001610b3c9190613b0f565b60405160208183030381529060405280519060200120600560008573ffffffffffffffffffffffffffffffffffffffff1673ffffffffffffffffffffffffffffffffffffffff168152602001908152602001600020600201604051602001610ba49190613bba565b6040516020818303038152906040528051906020012003610c71576001600560008573ffffffffffffffffffffffffffffffffffffffff1673ffffffffffffffffffffffffffffffffffffffff16815260200190815260200160002060030160006101000a81548160ff021916908315150217905550600560008473ffffffffffffffffffffffffffffffffffffffff1673ffffffffffffffffffffffffffffffffffffffff16815260200190815260200160002060030160009054906101000a900460ff169050610c76565b600090505b92915050565b6000875111610c8a57600080fd5b6000855111610c9857600080fd5b604051602001610ca790613c1d565b6040516020818303038152906040528051906020012085604051602001610cce9190613b0f565b604051602081830303815290604052805190602001201480610d395750604051602001610cfa90613cca565b6040516020818303038152906040528051906020012085604051602001610d219190613b0f565b60405160208183030381529060405280519060200120145b80610d8d5750604051602001610d4e90613d2b565b6040516020818303038152906040528051906020012085604051602001610d759190613b0f565b60405160208183030381529060405280519060200120145b610d9657600080fd5b6000835111610da457600080fd5b6000845111610db257600080fd5b600073ffffffffffffffffffffffffffffffffffffffff163373ffffffffffffffffffffffffffffffffffffffff1603610deb57600080fd5b60008611610df857600080fd5b60016000815480929190610e0b90613d6f565b919050555060026000815480929190610e2390613d6f565b919050555060405180610180016040528060015481526020018881526020018781526020018681526020018581526020018481526020014281526020013373ffffffffffffffffffffffffffffffffffffffff1681526020016000815260200160008152602001831515815260200182815250600460006001548152602001908152602001600020600082015181600001556020820151816001019080519060200190610ed1929190612b89565b50604082015181600201556060820151816003019080519060200190610ef8929190612b89565b506080820151816004019080519060200190610f15929190612b89565b5060a0820151816005019080519060200190610f32929190612b89565b5060c0820151816006015560e08201518160070160006101000a81548173ffffffffffffffffffffffffffffffffffffffff021916908373ffffffffffffffffffffffffffffffffffffffff1602179055506101008201518160080155610120820151816009015561014082015181600a0160006101000a81548160ff02191690831515021790555061016082015181600b019080519060200190610fd8929190612c0f565b50905050610fe4612c99565b33816000019073ffffffffffffffffffffffffffffffffffffffff16908173ffffffffffffffffffffffffffffffffffffffff1681525050600560003373ffffffffffffffffffffffffffffffffffffffff1673ffffffffffffffffffffffffffffffffffffffff168152602001908152602001600020600101805461106990613aa2565b80601f016020809104026020016040519081016040528092919081815260200182805461109590613aa2565b80156110e25780601f106110b7576101008083540402835291602001916110e2565b820191906000526020600020905b8154815290600101906020018083116110c557829003601f168201915b50505050508160200181905250600154816040018181525050848160600181905250878160800181905250868160a00181815250506040518060400160405280600381526020017f41444400000000000000000000000000000000000000000000000000000000008152508160c0018190525060008160e0018181525050600081610120018181525050428161010001818152505060068190806001815401808255809150506001900390600052602060002090600a020160009091909190915060008201518160000160006101000a81548173ffffffffffffffffffffffffffffffffffffffff021916908373ffffffffffffffffffffffffffffffffffffffff1602179055506020820151816001019080519060200190611206929190612b89565b5060408201518160020155606082015181600301908051906020019061122d929190612b89565b50608082015181600401908051906020019061124a929190612b89565b5060a0820151816005015560c0820151816006019080519060200190611271929190612b89565b5060e08201518160070155610100820151816008015561012082015181600901555050600360008154809291906112a790613d6f565b91905055507f4ac95c3f22439238bd535f2f940912d5f3601ea973564b7a2d9d4547203af05c600154898989898942336000806040516112f09a99989796959493929190613dfc565b60405180910390a15050505050505050565b600087511161131057600080fd5b600085511161131e57600080fd5b60405160200161132d90613c1d565b60405160208183030381529060405280519060200120856040516020016113549190613b0f565b6040516020818303038152906040528051906020012014806113bf575060405160200161138090613cca565b60405160208183030381529060405280519060200120856040516020016113a79190613b0f565b60405160208183030381529060405280519060200120145b8061141357506040516020016113d490613d2b565b60405160208183030381529060405280519060200120856040516020016113fb9190613b0f565b60405160208183030381529060405280519060200120145b61141c57600080fd5b600084511161142a57600080fd5b600073ffffffffffffffffffffffffffffffffffffffff163373ffffffffffffffffffffffffffffffffffffffff160361146357600080fd5b6000861161147057600080fd5b60008311801561148257506001548311155b61148b57600080fd5b600082101561149957600080fd5b866004600085815260200190815260200160002060010190805190602001906114c3929190612b89565b5085600460008581526020019081526020016000206002018190555084600460008581526020019081526020016000206003019080519060200190611509929190612b89565b5083600460008581526020019081526020016000206004019080519060200190611534929190612b89565b50426004600085815260200190815260200160002060060181905550336004600085815260200190815260200160002060070160006101000a81548173ffffffffffffffffffffffffffffffffffffffff021916908373ffffffffffffffffffffffffffffffffffffffff1602179055508160046000858152602001908152602001600020600801819055508060046000858152602001908152602001600020600901819055506115e3612c99565b33816000019073ffffffffffffffffffffffffffffffffffffffff16908173ffffffffffffffffffffffffffffffffffffffff1681525050600560003373ffffffffffffffffffffffffffffffffffffffff1673ffffffffffffffffffffffffffffffffffffffff168152602001908152602001600020600101805461166890613aa2565b80601f016020809104026020016040519081016040528092919081815260200182805461169490613aa2565b80156116e15780601f106116b6576101008083540402835291602001916116e1565b820191906000526020600020905b8154815290600101906020018083116116c457829003601f168201915b505050505081602001819052508381604001818152505060046000858152602001908152602001600020600401805461171990613aa2565b80601f016020809104026020016040519081016040528092919081815260200182805461174590613aa2565b80156117925780601f1061176757610100808354040283529160200191611792565b820191906000526020600020905b81548152906001019060200180831161177557829003601f168201915b50505050508160600181905250878160800181905250868160a00181815250506040518060400160405280600681526020017f55504441544500000000000000000000000000000000000000000000000000008152508160c00181905250828160e00181815250504281610100018181525050818161012001818152505060068190806001815401808255809150506001900390600052602060002090600a020160009091909190915060008201518160000160006101000a81548173ffffffffffffffffffffffffffffffffffffffff021916908373ffffffffffffffffffffffffffffffffffffffff160217905550602082015181600101908051906020019061189f929190612b89565b506040820151816002015560608201518160030190805190602001906118c6929190612b89565b5060808201518160040190805190602001906118e3929190612b89565b5060a0820151816005015560c082015181600601908051906020019061190a929190612b89565b5060e082015181600701556101008201518160080155610120820151816009015550506003600081548092919061194090613d6f565b91905055507f24ba57b53df673cdc28df08112002b7a30bbcd5d3da848543b98cf84174b75948888888842338989604051611982989796959493929190613eb4565b60405180910390a15050505050505050565b6060600560008373ffffffffffffffffffffffffffffffffffffffff1673ffffffffffffffffffffffffffffffffffffffff16815260200190815260200160002060010180546119e390613aa2565b80601f0160208091040260200160405190810160405280929190818152602001828054611a0f90613aa2565b8015611a5c5780601f10611a3157610100808354040283529160200191611a5c565b820191906000526020600020905b815481529060010190602001808311611a3f57829003601f168201915b50505050509050919050565b60003373ffffffffffffffffffffffffffffffffffffffff16600560008673ffffffffffffffffffffffffffffffffffffffff1673ffffffffffffffffffffffffffffffffffffffff16815260200190815260200160002060000160009054906101000a900473ffffffffffffffffffffffffffffffffffffffff1673ffffffffffffffffffffffffffffffffffffffff1603611b0457600080fd5b83600560008673ffffffffffffffffffffffffffffffffffffffff1673ffffffffffffffffffffffffffffffffffffffff16815260200190815260200160002060000160006101000a81548173ffffffffffffffffffffffffffffffffffffffff021916908373ffffffffffffffffffffffffffffffffffffffff16021790555082600560008673ffffffffffffffffffffffffffffffffffffffff1673ffffffffffffffffffffffffffffffffffffffff1681526020019081526020016000206001019080519060200190611bdb929190612b89565b5081600560008673ffffffffffffffffffffffffffffffffffffffff1673ffffffffffffffffffffffffffffffffffffffff1681526020019081526020016000206002019080519060200190611c32929190612b89565b506000600560008673ffffffffffffffffffffffffffffffffffffffff1673ffffffffffffffffffffffffffffffffffffffff16815260200190815260200160002060030160006101000a81548160ff021916908315150217905550600190509392505050565b60015481565b60035481565b611cad612c99565b33816000019073ffffffffffffffffffffffffffffffffffffffff16908173ffffffffffffffffffffffffffffffffffffffff1681525050600560003373ffffffffffffffffffffffffffffffffffffffff1673ffffffffffffffffffffffffffffffffffffffff1681526020019081526020016000206001018054611d3290613aa2565b80601f0160208091040260200160405190810160405280929190818152602001828054611d5e90613aa2565b8015611dab5780601f10611d8057610100808354040283529160200191611dab565b820191906000526020600020905b815481529060010190602001808311611d8e57829003601f168201915b5050505050816020018190525081816040018181525050600460008381526020019081526020016000206004018054611de390613aa2565b80601f0160208091040260200160405190810160405280929190818152602001828054611e0f90613aa2565b8015611e5c5780601f10611e3157610100808354040283529160200191611e5c565b820191906000526020600020905b815481529060010190602001808311611e3f57829003601f168201915b50505050508160600181905250600460008381526020019081526020016000206001018054611e8a90613aa2565b80601f0160208091040260200160405190810160405280929190818152602001828054611eb690613aa2565b8015611f035780601f10611ed857610100808354040283529160200191611f03565b820191906000526020600020905b815481529060010190602001808311611ee657829003601f168201915b5050505050816080018190525060046000838152602001908152602001600020600201548160a00181815250506040518060400160405280600681526020017f44454c45544500000000000000000000000000000000000000000000000000008152508160c0018190525060008160e001818152505042816101000181815250506000151560046000848152602001908152602001600020600a0160009054906101000a900460ff161515036121d05760068190806001815401808255809150506001900390600052602060002090600a020160009091909190915060008201518160000160006101000a81548173ffffffffffffffffffffffffffffffffffffffff021916908373ffffffffffffffffffffffffffffffffffffffff1602179055506020820151816001019080519060200190612042929190612b89565b50604082015181600201556060820151816003019080519060200190612069929190612b89565b506080820151816004019080519060200190612086929190612b89565b5060a0820151816005015560c08201518160060190805190602001906120ad929190612b89565b5060e08201518160070155610100820151816008015561012082015181600901555050600360008154809291906120e390613d6f565b9190505550600460008381526020019081526020016000206000808201600090556001820160006121149190612d02565b600282016000905560038201600061212c9190612d02565b60048201600061213c9190612d02565b60058201600061214c9190612d02565b60068201600090556007820160006101000a81549073ffffffffffffffffffffffffffffffffffffffff021916905560088201600090556009820160009055600a820160006101000a81549060ff0219169055600b820160006121af9190612d42565b50506001600260008282546121c49190613f47565b9250508190555061275e565b6001151560046000848152602001908152602001600020600a0160009054906101000a900460ff1615150361275d573373ffffffffffffffffffffffffffffffffffffffff166004600084815260200190815260200160002060070160009054906101000a900473ffffffffffffffffffffffffffffffffffffffff1673ffffffffffffffffffffffffffffffffffffffff16036124855760068190806001815401808255809150506001900390600052602060002090600a020160009091909190915060008201518160000160006101000a81548173ffffffffffffffffffffffffffffffffffffffff021916908373ffffffffffffffffffffffffffffffffffffffff16021790555060208201518160010190805190602001906122f7929190612b89565b5060408201518160020155606082015181600301908051906020019061231e929190612b89565b50608082015181600401908051906020019061233b929190612b89565b5060a0820151816005015560c0820151816006019080519060200190612362929190612b89565b5060e082015181600701556101008201518160080155610120820151816009015550506003600081548092919061239890613d6f565b9190505550600460008381526020019081526020016000206000808201600090556001820160006123c99190612d02565b60028201600090556003820160006123e19190612d02565b6004820160006123f19190612d02565b6005820160006124019190612d02565b60068201600090556007820160006101000a81549073ffffffffffffffffffffffffffffffffffffffff021916905560088201600090556009820160009055600a820160006101000a81549060ff0219169055600b820160006124649190612d42565b50506001600260008282546124799190613f47565b9250508190555061275c565b60005b60046000848152602001908152602001600020600b018054905081101561275a573373ffffffffffffffffffffffffffffffffffffffff1660046000858152602001908152602001600020600b0182815481106124e8576124e7613f7b565b5b9060005260206000200160009054906101000a900473ffffffffffffffffffffffffffffffffffffffff1673ffffffffffffffffffffffffffffffffffffffff16036127475760068290806001815401808255809150506001900390600052602060002090600a020160009091909190915060008201518160000160006101000a81548173ffffffffffffffffffffffffffffffffffffffff021916908373ffffffffffffffffffffffffffffffffffffffff16021790555060208201518160010190805190602001906125bd929190612b89565b506040820151816002015560608201518160030190805190602001906125e4929190612b89565b506080820151816004019080519060200190612601929190612b89565b5060a0820151816005015560c0820151816006019080519060200190612628929190612b89565b5060e082015181600701556101008201518160080155610120820151816009015550506003600081548092919061265e90613d6f565b91905055506004600084815260200190815260200160002060008082016000905560018201600061268f9190612d02565b60028201600090556003820160006126a79190612d02565b6004820160006126b79190612d02565b6005820160006126c79190612d02565b60068201600090556007820160006101000a81549073ffffffffffffffffffffffffffffffffffffffff021916905560088201600090556009820160009055600a820160006101000a81549060ff0219169055600b8201600061272a9190612d42565b505060016002600082825461273f9190613f47565b925050819055505b808061275290613d6f565b915050612488565b505b5b5b5050565b60608060046000848152602001908152602001600020600b018054806020026020016040519081016040528092919081815260200182805480156127fb57602002820191906000526020600020905b8160009054906101000a900473ffffffffffffffffffffffffffffffffffffffff1673ffffffffffffffffffffffffffffffffffffffff16815260200190600101908083116127b1575b5050505050905080915050919050565b6000600560008373ffffffffffffffffffffffffffffffffffffffff1673ffffffffffffffffffffffffffffffffffffffff16815260200190815260200160002060030160006101000a81548160ff02191690831515021790555050565b600460205280600052604060002060009150905080600001549080600101805461289290613aa2565b80601f01602080910402602001604051908101604052809291908181526020018280546128be90613aa2565b801561290b5780601f106128e05761010080835404028352916020019161290b565b820191906000526020600020905b8154815290600101906020018083116128ee57829003601f168201915b50505050509080600201549080600301805461292690613aa2565b80601f016020809104026020016040519081016040528092919081815260200182805461295290613aa2565b801561299f5780601f106129745761010080835404028352916020019161299f565b820191906000526020600020905b81548152906001019060200180831161298257829003601f168201915b5050505050908060040180546129b490613aa2565b80601f01602080910402602001604051908101604052809291908181526020018280546129e090613aa2565b8015612a2d5780601f10612a0257610100808354040283529160200191612a2d565b820191906000526020600020905b815481529060010190602001808311612a1057829003601f168201915b505050505090806005018054612a4290613aa2565b80601f0160208091040260200160405190810160405280929190818152602001828054612a6e90613aa2565b8015612abb5780601f10612a9057610100808354040283529160200191612abb565b820191906000526020600020905b815481529060010190602001808311612a9e57829003601f168201915b5050505050908060060154908060070160009054906101000a900473ffffffffffffffffffffffffffffffffffffffff169080600801549080600901549080600a0160009054906101000a900460ff1690508b565b60405180610180016040528060008152602001606081526020016000815260200160608152602001606081526020016060815260200160008152602001600073ffffffffffffffffffffffffffffffffffffffff1681526020016000815260200160008152602001600015158152602001606081525090565b828054612b9590613aa2565b90600052602060002090601f016020900481019282612bb75760008555612bfe565b82601f10612bd057805160ff1916838001178555612bfe565b82800160010185558215612bfe579182015b82811115612bfd578251825591602001919060010190612be2565b5b509050612c0b9190612d63565b5090565b828054828255906000526020600020908101928215612c88579160200282015b82811115612c875782518260006101000a81548173ffffffffffffffffffffffffffffffffffffffff021916908373ffffffffffffffffffffffffffffffffffffffff16021790555091602001919060010190612c2f565b5b509050612c959190612d63565b5090565b604051806101400160405280600073ffffffffffffffffffffffffffffffffffffffff1681526020016060815260200160008152602001606081526020016060815260200160008152602001606081526020016000815260200160008152602001600081525090565b508054612d0e90613aa2565b6000825580601f10612d205750612d3f565b601f016020900490600052602060002090810190612d3e9190612d63565b5b50565b5080546000825590600052602060002090810190612d609190612d63565b50565b5b80821115612d7c576000816000905550600101612d64565b5090565b600081519050919050565b600082825260208201905092915050565b60005b83811015612dba578082015181840152602081019050612d9f565b83811115612dc9576000848401525b50505050565b6000601f19601f8301169050919050565b6000612deb82612d80565b612df58185612d8b565b9350612e05818560208601612d9c565b612e0e81612dcf565b840191505092915050565b60006020820190508181036000830152612e338184612de0565b905092915050565b6000819050919050565b612e4e81612e3b565b82525050565b6000602082019050612e696000830184612e45565b92915050565b600081519050919050565b600082825260208201905092915050565b6000819050602082019050919050565b600073ffffffffffffffffffffffffffffffffffffffff82169050919050565b6000612ec682612e9b565b9050919050565b612ed681612ebb565b82525050565b600082825260208201905092915050565b6000612ef882612d80565b612f028185612edc565b9350612f12818560208601612d9c565b612f1b81612dcf565b840191505092915050565b612f2f81612e3b565b82525050565b600061014083016000830151612f4e6000860182612ecd565b5060208301518482036020860152612f668282612eed565b9150506040830151612f7b6040860182612f26565b5060608301518482036060860152612f938282612eed565b91505060808301518482036080860152612fad8282612eed565b91505060a0830151612fc260a0860182612f26565b5060c083015184820360c0860152612fda8282612eed565b91505060e0830151612fef60e0860182612f26565b50610100830151613004610100860182612f26565b50610120830151613019610120860182612f26565b508091505092915050565b60006130308383612f35565b905092915050565b6000602082019050919050565b600061305082612e6f565b61305a8185612e7a565b93508360208202850161306c85612e8b565b8060005b858110156130a857848403895281516130898582613024565b945061309483613038565b925060208a01995050600181019050613070565b50829750879550505050505092915050565b600060208201905081810360008301526130d48184613045565b905092915050565b6000604051905090565b600080fd5b600080fd5b6130f981612ebb565b811461310457600080fd5b50565b600081359050613116816130f0565b92915050565b600060208284031215613132576131316130e6565b5b600061314084828501613107565b91505092915050565b60008115159050919050565b61315e81613149565b82525050565b60006020820190506131796000830184613155565b92915050565b61318881612e3b565b811461319357600080fd5b50565b6000813590506131a58161317f565b92915050565b6000602082840312156131c1576131c06130e6565b5b60006131cf84828501613196565b91505092915050565b6131e181613149565b82525050565b600081519050919050565b600082825260208201905092915050565b6000819050602082019050919050565b600061321f8383612ecd565b60208301905092915050565b6000602082019050919050565b6000613243826131e7565b61324d81856131f2565b935061325883613203565b8060005b838110156132895781516132708882613213565b975061327b8361322b565b92505060018101905061325c565b5085935050505092915050565b6000610180830160008301516132af6000860182612f26565b50602083015184820360208601526132c78282612eed565b91505060408301516132dc6040860182612f26565b50606083015184820360608601526132f48282612eed565b9150506080830151848203608086015261330e8282612eed565b91505060a083015184820360a08601526133288282612eed565b91505060c083015161333d60c0860182612f26565b5060e083015161335060e0860182612ecd565b50610100830151613365610100860182612f26565b5061012083015161337a610120860182612f26565b5061014083015161338f6101408601826131d8565b506101608301518482036101608601526133a98282613238565b9150508091505092915050565b600060208201905081810360008301526133d08184613296565b905092915050565b600080fd5b600080fd5b7f4e487b7100000000000000000000000000000000000000000000000000000000600052604160045260246000fd5b61341a82612dcf565b810181811067ffffffffffffffff82111715613439576134386133e2565b5b80604052505050565b600061344c6130dc565b90506134588282613411565b919050565b600067ffffffffffffffff821115613478576134776133e2565b5b61348182612dcf565b9050602081019050919050565b82818337600083830152505050565b60006134b06134ab8461345d565b613442565b9050828152602081018484840111156134cc576134cb6133dd565b5b6134d784828561348e565b509392505050565b600082601f8301126134f4576134f36133d8565b5b813561350484826020860161349d565b91505092915050565b60008060408385031215613524576135236130e6565b5b600061353285828601613107565b925050602083013567ffffffffffffffff811115613553576135526130eb565b5b61355f858286016134df565b9150509250929050565b61357281613149565b811461357d57600080fd5b50565b60008135905061358f81613569565b92915050565b600067ffffffffffffffff8211156135b0576135af6133e2565b5b602082029050602081019050919050565b600080fd5b60006135d96135d484613595565b613442565b905080838252602082019050602084028301858111156135fc576135fb6135c1565b5b835b8181101561362557806136118882613107565b8452602084019350506020810190506135fe565b5050509392505050565b600082601f830112613644576136436133d8565b5b81356136548482602086016135c6565b91505092915050565b600080600080600080600060e0888a03121561367c5761367b6130e6565b5b600088013567ffffffffffffffff81111561369a576136996130eb565b5b6136a68a828b016134df565b97505060206136b78a828b01613196565b965050604088013567ffffffffffffffff8111156136d8576136d76130eb565b5b6136e48a828b016134df565b955050606088013567ffffffffffffffff811115613705576137046130eb565b5b6137118a828b016134df565b945050608088013567ffffffffffffffff811115613732576137316130eb565b5b61373e8a828b016134df565b93505060a061374f8a828b01613580565b92505060c088013567ffffffffffffffff8111156137705761376f6130eb565b5b61377c8a828b0161362f565b91505092959891949750929550565b600080600080600080600060e0888a0312156137aa576137a96130e6565b5b600088013567ffffffffffffffff8111156137c8576137c76130eb565b5b6137d48a828b016134df565b97505060206137e58a828b01613196565b965050604088013567ffffffffffffffff811115613806576138056130eb565b5b6138128a828b016134df565b955050606088013567ffffffffffffffff811115613833576138326130eb565b5b61383f8a828b016134df565b94505060806138508a828b01613196565b93505060a06138618a828b01613196565b92505060c06138728a828b01613196565b91505092959891949750929550565b60008060006060848603121561389a576138996130e6565b5b60006138a886828701613107565b935050602084013567ffffffffffffffff8111156138c9576138c86130eb565b5b6138d5868287016134df565b925050604084013567ffffffffffffffff8111156138f6576138f56130eb565b5b613902868287016134df565b9150509250925092565b600082825260208201905092915050565b6000613928826131e7565b613932818561390c565b935061393d83613203565b8060005b8381101561396e5781516139558882613213565b97506139608361322b565b925050600181019050613941565b5085935050505092915050565b60006020820190508181036000830152613995818461391d565b905092915050565b6139a681612ebb565b82525050565b6000610160820190506139c2600083018e612e45565b81810360208301526139d4818d612de0565b90506139e3604083018c612e45565b81810360608301526139f5818b612de0565b90508181036080830152613a09818a612de0565b905081810360a0830152613a1d8189612de0565b9050613a2c60c0830188612e45565b613a3960e083018761399d565b613a47610100830186612e45565b613a55610120830185612e45565b613a63610140830184613155565b9c9b505050505050505050505050565b7f4e487b7100000000000000000000000000000000000000000000000000000000600052602260045260246000fd5b60006002820490506001821680613aba57607f821691505b602082108103613acd57613acc613a73565b5b50919050565b600081905092915050565b6000613ae982612d80565b613af38185613ad3565b9350613b03818560208601612d9c565b80840191505092915050565b6000613b1b8284613ade565b915081905092915050565b60008190508160005260206000209050919050565b60008154613b4881613aa2565b613b528186613ad3565b94506001821660008114613b6d5760018114613b7e57613bb1565b60ff19831686528186019350613bb1565b613b8785613b26565b60005b83811015613ba957815481890152600182019150602081019050613b8a565b838801955050505b50505092915050565b6000613bc68284613b3b565b915081905092915050565b7f746578742f706c61696e00000000000000000000000000000000000000000000600082015250565b6000613c07600a83613ad3565b9150613c1282613bd1565b600a82019050919050565b6000613c2882613bfa565b9150819050919050565b7f6170706c69636174696f6e2f766e642e6f70656e786d6c666f726d6174732d6f60008201527f6666696365646f63756d656e742e776f726470726f63657373696e676d6c2e6460208201527f6f63756d656e7400000000000000000000000000000000000000000000000000604082015250565b6000613cb4604783613ad3565b9150613cbf82613c32565b604782019050919050565b6000613cd582613ca7565b9150819050919050565b7f6170706c69636174696f6e2f7064660000000000000000000000000000000000600082015250565b6000613d15600f83613ad3565b9150613d2082613cdf565b600f82019050919050565b6000613d3682613d08565b9150819050919050565b7f4e487b7100000000000000000000000000000000000000000000000000000000600052601160045260246000fd5b6000613d7a82612e3b565b91507fffffffffffffffffffffffffffffffffffffffffffffffffffffffffffffffff8203613dac57613dab613d40565b5b600182019050919050565b6000819050919050565b6000819050919050565b6000613de6613de1613ddc84613db7565b613dc1565b612e3b565b9050919050565b613df681613dcb565b82525050565b600061014082019050613e12600083018d612e45565b8181036020830152613e24818c612de0565b9050613e33604083018b612e45565b8181036060830152613e45818a612de0565b90508181036080830152613e598189612de0565b905081810360a0830152613e6d8188612de0565b9050613e7c60c0830187612e45565b613e8960e083018661399d565b613e97610100830185613ded565b613ea5610120830184613ded565b9b9a5050505050505050505050565b6000610100820190508181036000830152613ecf818b612de0565b9050613ede602083018a612e45565b8181036040830152613ef08189612de0565b90508181036060830152613f048188612de0565b9050613f136080830187612e45565b613f2060a083018661399d565b613f2d60c0830185612e45565b613f3a60e0830184612e45565b9998505050505050505050565b6000613f5282612e3b565b9150613f5d83612e3b565b925082821015613f7057613f6f613d40565b5b828203905092915050565b7f4e487b7100000000000000000000000000000000000000000000000000000000600052603260045260246000fdfea2646970667358221220c0c5da3bea5028f90707f7338216b953eb87b2026c0c6f27977a2bd309624bb364736f6c634300080e0033",
  "immutableReferences": {},
  "source": "// SPDX-License-Identifier: MIT\r\npragma solidity ^0.8.0;\r\n\r\ncontract SimpleStorage {\r\n    // data\r\n    string public name = \"ArchStorage\";\r\n\r\n    uint256 public fileIDs = 0;\r\n    uint256 public fileNum = 0;\r\n    uint256 public transactionCount = 0;\r\n    mapping(uint256 => File) public files;\r\n    mapping(address => UserDetail) user;\r\n\r\n    struct File {\r\n        uint256 fileId;\r\n        string fileHash;\r\n        uint256 fileSize;\r\n        string fileType;\r\n        string fileName;\r\n        string fileDescription;\r\n        uint256 uploadTime;\r\n        address uploader;\r\n        uint256 lastChange;\r\n        uint256 lastSize;\r\n        bool isPrivate;\r\n        address[] allowedUsers;\r\n    }\r\n\r\n    struct UserDetail {\r\n        address addr;\r\n        string name;\r\n        string password;\r\n        bool isUserLoggedIn;\r\n    }\r\n\r\n    struct Transaction {\r\n        address userAddress;\r\n        string userName;\r\n        uint256 fileId;\r\n        string fileName;\r\n        string fileHash;\r\n        uint256 fileSize;\r\n        string transactionType;\r\n        uint256 changeLevel;\r\n        uint256 uploadTime;\r\n        uint256 lastSize;\r\n    }\r\n    Transaction[] transactions;\r\n\r\n    //events\r\n\r\n    // event transactionAdded(Transaction temp);\r\n\r\n    event FileUploaded(\r\n        uint256 fileId,\r\n        string fileHash,\r\n        uint256 fileSize,\r\n        string fileType,\r\n        string fileName,\r\n        string fileDescription,\r\n        uint256 uploadTime,\r\n        address uploader,\r\n        uint256 lastChange,\r\n        uint256 lastSize\r\n    );\r\n\r\n    event FileUpdated(\r\n        string fileHash,\r\n        uint256 fileSize,\r\n        string fileType,\r\n        string fileName,\r\n        uint256 uploadTime,\r\n        address uploader,\r\n        uint256 lastChange,\r\n        uint256 lastSize\r\n    );\r\n\r\n    constructor() public {}\r\n\r\n    function uploadFile(\r\n        string memory _fileHash,\r\n        uint256 _fileSize,\r\n        string memory _fileType,\r\n        string memory _fileName,\r\n        string memory _fileDescription,\r\n        bool filePrivacy,\r\n        address[] memory allowedFileUsers\r\n    ) public {\r\n        // Make sure the file hash exists\r\n        require(bytes(_fileHash).length > 0);\r\n        // Make sure file type exists\r\n        require(bytes(_fileType).length > 0);\r\n        require(\r\n            keccak256(abi.encodePacked(_fileType)) ==\r\n                keccak256(abi.encodePacked(\"text/plain\")) ||\r\n                keccak256(abi.encodePacked(_fileType)) ==\r\n                keccak256(\r\n                    abi.encodePacked(\r\n                        \"application/vnd.openxmlformats-officedocument.wordprocessingml.document\"\r\n                    )\r\n                ) ||\r\n                keccak256(abi.encodePacked(_fileType)) ==\r\n                keccak256(abi.encodePacked(\"application/pdf\"))\r\n        );\r\n        // Make sure file description exists\r\n        require(bytes(_fileDescription).length > 0);\r\n        // Make sure file fileName exists\r\n        require(bytes(_fileName).length > 0);\r\n        // Make sure uploader address exists\r\n        require(msg.sender != address(0));\r\n        // Make sure file size is more than 0\r\n        require(_fileSize > 0);\r\n\r\n        // Increment file id\r\n        fileIDs++;\r\n        fileNum++;\r\n\r\n        // Add File to the contract\r\n        files[fileIDs] = File(\r\n            fileIDs,\r\n            _fileHash,\r\n            _fileSize,\r\n            _fileType,\r\n            _fileName,\r\n            _fileDescription,\r\n            block.timestamp,\r\n            msg.sender,\r\n            0,\r\n            0,\r\n            filePrivacy,\r\n            allowedFileUsers\r\n        );\r\n\r\n        Transaction memory temp;\r\n        temp.userAddress = msg.sender;\r\n        temp.userName = user[msg.sender].name;\r\n        temp.fileId = fileIDs;\r\n        temp.fileName = _fileName;\r\n        temp.fileHash = _fileHash;\r\n        temp.fileSize = _fileSize;\r\n        temp.transactionType = \"ADD\";\r\n        temp.changeLevel = 0;\r\n        temp.lastSize = 0;\r\n        temp.uploadTime = block.timestamp;\r\n        transactions.push(temp);\r\n\r\n        transactionCount++;\r\n        // Trigger an event\r\n        emit FileUploaded(\r\n            fileIDs,\r\n            _fileHash,\r\n            _fileSize,\r\n            _fileType,\r\n            _fileName,\r\n            _fileDescription,\r\n            block.timestamp,\r\n            msg.sender,\r\n            0,\r\n            0\r\n        );\r\n    }\r\n\r\n    function updateFile(\r\n        string memory _fileHash,\r\n        uint256 _fileSize,\r\n        string memory _fileType,\r\n        string memory _fileName,\r\n        uint256 _fileID,\r\n        uint256 _changeValue,\r\n        uint256 _lastSize\r\n    ) public {\r\n        // Make sure the file hash exists\r\n        require(bytes(_fileHash).length > 0);\r\n        // Make sure file type exists\r\n        require(bytes(_fileType).length > 0);\r\n        require(\r\n            keccak256(abi.encodePacked(_fileType)) ==\r\n                keccak256(abi.encodePacked(\"text/plain\")) ||\r\n                keccak256(abi.encodePacked(_fileType)) ==\r\n                keccak256(\r\n                    abi.encodePacked(\r\n                        \"application/vnd.openxmlformats-officedocument.wordprocessingml.document\"\r\n                    )\r\n                ) ||\r\n                keccak256(abi.encodePacked(_fileType)) ==\r\n                keccak256(abi.encodePacked(\"application/pdf\"))\r\n        );\r\n        require(bytes(_fileName).length > 0);\r\n        // Make sure uploader address exists\r\n        require(msg.sender != address(0));\r\n        // Make sure file size is more than 0\r\n        require(_fileSize > 0);\r\n        require(_fileID > 0 && _fileID <= fileIDs);\r\n        require(_changeValue >= 0);\r\n\r\n        // update current file\r\n        files[_fileID].fileHash = _fileHash;\r\n        files[_fileID].fileSize = _fileSize;\r\n        files[_fileID].fileType = _fileType;\r\n        files[_fileID].fileName = _fileName;\r\n        files[_fileID].uploadTime = block.timestamp;\r\n        files[_fileID].uploader = msg.sender;\r\n        files[_fileID].lastChange = _changeValue;\r\n        files[_fileID].lastSize = _lastSize;\r\n\r\n        Transaction memory temp;\r\n        temp.userAddress = msg.sender;\r\n        temp.userName = user[msg.sender].name;\r\n        temp.fileId = _fileID;\r\n        temp.fileName = files[_fileID].fileName;\r\n        temp.fileHash = _fileHash;\r\n        temp.fileSize = _fileSize;\r\n        temp.transactionType = \"UPDATE\";\r\n        temp.changeLevel = _changeValue;\r\n        temp.uploadTime = block.timestamp;\r\n        temp.lastSize = _lastSize;\r\n        transactions.push(temp);\r\n\r\n        transactionCount++;\r\n        // Trigger an event\r\n        emit FileUpdated(\r\n            _fileHash,\r\n            _fileSize,\r\n            _fileType,\r\n            _fileName,\r\n            block.timestamp,\r\n            msg.sender,\r\n            _changeValue,\r\n            _lastSize\r\n        );\r\n    }\r\n\r\n    function getFile(uint256 _fileID) public view returns (File memory) {\r\n        return files[_fileID];\r\n    }\r\n\r\n    function deleteFile(uint256 _fileID) public {\r\n        //require(_fileID.length > 0);\r\n        // for (uint256 i = 0; i < _fileID.length; i++) {\r\n        Transaction memory temp;\r\n        temp.userAddress = msg.sender;\r\n        temp.userName = user[msg.sender].name;\r\n        temp.fileId = _fileID;\r\n        temp.fileName = files[_fileID].fileName;\r\n        temp.fileHash = files[_fileID].fileHash;\r\n        temp.fileSize = files[_fileID].fileSize;\r\n        temp.transactionType = \"DELETE\";\r\n        temp.changeLevel = 0;\r\n        temp.uploadTime = block.timestamp;\r\n\r\n        if (files[_fileID].isPrivate == false) {\r\n            transactions.push(temp);\r\n\r\n            transactionCount++;\r\n            delete files[_fileID];\r\n            fileNum -= 1;\r\n        } else if (files[_fileID].isPrivate == true) {\r\n            if (files[_fileID].uploader == msg.sender) {\r\n                transactions.push(temp);\r\n                transactionCount++;\r\n                delete files[_fileID];\r\n                fileNum -= 1;\r\n            } else {\r\n                for (\r\n                    uint256 i = 0;\r\n                    i < files[_fileID].allowedUsers.length;\r\n                    i++\r\n                ) {\r\n                    if (files[_fileID].allowedUsers[i] == msg.sender) {\r\n                        transactions.push(temp);\r\n                        transactionCount++;\r\n                        delete files[_fileID];\r\n                        fileNum -= 1;\r\n                    }\r\n                }\r\n            }\r\n        }\r\n\r\n        // }\r\n    }\r\n\r\n    // user registration function\r\n    function register(\r\n        address _address,\r\n        string memory _name,\r\n        string memory _password\r\n    ) public returns (bool) {\r\n        require(user[_address].addr != msg.sender);\r\n        user[_address].addr = _address;\r\n        user[_address].name = _name;\r\n        user[_address].password = _password;\r\n        user[_address].isUserLoggedIn = false;\r\n        return true;\r\n    }\r\n\r\n    // user login function\r\n    function login(address _address, string memory _password)\r\n        public\r\n        returns (bool)\r\n    {\r\n        if (\r\n            keccak256(abi.encodePacked(user[_address].password)) ==\r\n            keccak256(abi.encodePacked(_password))\r\n        ) {\r\n            user[_address].isUserLoggedIn = true;\r\n            return user[_address].isUserLoggedIn;\r\n        } else {\r\n            return false;\r\n        }\r\n    }\r\n\r\n    // check the user logged In or not\r\n    function checkIsUserLogged(address _address) public view returns (bool) {\r\n        return (user[_address].isUserLoggedIn);\r\n    }\r\n\r\n    function checkUserName(address _address)\r\n        public\r\n        view\r\n        returns (string memory)\r\n    {\r\n        return (user[_address].name);\r\n    }\r\n\r\n    // logout the user\r\n    function logout(address _address) public {\r\n        user[_address].isUserLoggedIn = false;\r\n    }\r\n\r\n    function getAllTransactions() public view returns (Transaction[] memory) {\r\n        return transactions;\r\n    }\r\n\r\n    function getAllowedUsers(uint256 fileID)\r\n        public\r\n        view\r\n        returns (address[] memory)\r\n    {\r\n        address[] memory gottenAllowedUsers;\r\n        return gottenAllowedUsers = files[fileID].allowedUsers;\r\n    }\r\n}\r\n",
  "sourcePath": "C:\\Users\\Shaun\\Desktop\\THESIS\\thesis- testing-FINAL\\contracts\\SimpleStorage.sol",
  "compiler": {
    "name": "solc",
    "version": "0.8.14+commit.80d49f37.Emscripten.clang"
  },
  "schemaVersion": "3.4.3",
  "updatedAt": "2022-05-19T08:45:00.988Z",
  "networkType": "ethereum",
  "devdoc": {
    "kind": "dev",
    "methods": {},
    "version": 1
  },
  "userdoc": {
    "kind": "user",
    "methods": {},
    "version": 1
  }
}