{
  "contractName": "SimpleStorage",
  "abi": [
    {
      "inputs": [],
      "stateMutability": "nonpayable",
      "type": "constructor"
    },
    {
      "anonymous": false,
      "inputs": [
        {
          "indexed": false,
          "internalType": "string",
          "name": "fileHash",
          "type": "string"
        },
        {
          "indexed": false,
          "internalType": "uint256",
          "name": "fileSize",
          "type": "uint256"
        },
        {
          "indexed": false,
          "internalType": "string",
          "name": "fileType",
          "type": "string"
        },
        {
          "indexed": false,
          "internalType": "string",
          "name": "fileName",
          "type": "string"
        },
        {
          "indexed": false,
          "internalType": "uint256",
          "name": "uploadTime",
          "type": "uint256"
        },
        {
          "indexed": false,
          "internalType": "address",
          "name": "uploader",
          "type": "address"
        },
        {
          "indexed": false,
          "internalType": "uint256",
          "name": "lastChange",
          "type": "uint256"
        },
        {
          "indexed": false,
          "internalType": "uint256",
          "name": "lastSize",
          "type": "uint256"
        }
      ],
      "name": "FileUpdated",
      "type": "event"
    },
    {
      "anonymous": false,
      "inputs": [
        {
          "indexed": false,
          "internalType": "uint256",
          "name": "fileId",
          "type": "uint256"
        },
        {
          "indexed": false,
          "internalType": "string",
          "name": "fileHash",
          "type": "string"
        },
        {
          "indexed": false,
          "internalType": "uint256",
          "name": "fileSize",
          "type": "uint256"
        },
        {
          "indexed": false,
          "internalType": "string",
          "name": "fileType",
          "type": "string"
        },
        {
          "indexed": false,
          "internalType": "string",
          "name": "fileName",
          "type": "string"
        },
        {
          "indexed": false,
          "internalType": "string",
          "name": "fileDescription",
          "type": "string"
        },
        {
          "indexed": false,
          "internalType": "uint256",
          "name": "uploadTime",
          "type": "uint256"
        },
        {
          "indexed": false,
          "internalType": "address",
          "name": "uploader",
          "type": "address"
        },
        {
          "indexed": false,
          "internalType": "uint256",
          "name": "lastChange",
          "type": "uint256"
        },
        {
          "indexed": false,
          "internalType": "uint256",
          "name": "lastSize",
          "type": "uint256"
        }
      ],
      "name": "FileUploaded",
      "type": "event"
    },
    {
      "inputs": [],
      "name": "fileIDs",
      "outputs": [
        {
          "internalType": "uint256",
          "name": "",
          "type": "uint256"
        }
      ],
      "stateMutability": "view",
      "type": "function",
      "constant": true
    },
    {
      "inputs": [],
      "name": "fileNum",
      "outputs": [
        {
          "internalType": "uint256",
          "name": "",
          "type": "uint256"
        }
      ],
      "stateMutability": "view",
      "type": "function",
      "constant": true
    },
    {
      "inputs": [
        {
          "internalType": "uint256",
          "name": "",
          "type": "uint256"
        }
      ],
      "name": "files",
      "outputs": [
        {
          "internalType": "uint256",
          "name": "fileId",
          "type": "uint256"
        },
        {
          "internalType": "string",
          "name": "fileHash",
          "type": "string"
        },
        {
          "internalType": "uint256",
          "name": "fileSize",
          "type": "uint256"
        },
        {
          "internalType": "string",
          "name": "fileType",
          "type": "string"
        },
        {
          "internalType": "string",
          "name": "fileName",
          "type": "string"
        },
        {
          "internalType": "string",
          "name": "fileDescription",
          "type": "string"
        },
        {
          "internalType": "uint256",
          "name": "uploadTime",
          "type": "uint256"
        },
        {
          "internalType": "address",
          "name": "uploader",
          "type": "address"
        },
        {
          "internalType": "uint256",
          "name": "lastChange",
          "type": "uint256"
        },
        {
          "internalType": "uint256",
          "name": "lastSize",
          "type": "uint256"
        },
        {
          "internalType": "bool",
          "name": "isPrivate",
          "type": "bool"
        }
      ],
      "stateMutability": "view",
      "type": "function",
      "constant": true
    },
    {
      "inputs": [],
      "name": "name",
      "outputs": [
        {
          "internalType": "string",
          "name": "",
          "type": "string"
        }
      ],
      "stateMutability": "view",
      "type": "function",
      "constant": true
    },
    {
      "inputs": [],
      "name": "transactionCount",
      "outputs": [
        {
          "internalType": "uint256",
          "name": "",
          "type": "uint256"
        }
      ],
      "stateMutability": "view",
      "type": "function",
      "constant": true
    },
    {
      "inputs": [
        {
          "internalType": "string",
          "name": "_fileHash",
          "type": "string"
        },
        {
          "internalType": "uint256",
          "name": "_fileSize",
          "type": "uint256"
        },
        {
          "internalType": "string",
          "name": "_fileType",
          "type": "string"
        },
        {
          "internalType": "string",
          "name": "_fileName",
          "type": "string"
        },
        {
          "internalType": "string",
          "name": "_fileDescription",
          "type": "string"
        },
        {
          "internalType": "bool",
          "name": "filePrivacy",
          "type": "bool"
        },
        {
          "internalType": "address[]",
          "name": "allowedFileUsers",
          "type": "address[]"
        }
      ],
      "name": "uploadFile",
      "outputs": [],
      "stateMutability": "nonpayable",
      "type": "function"
    },
    {
      "inputs": [
        {
          "internalType": "string",
          "name": "_fileHash",
          "type": "string"
        },
        {
          "internalType": "uint256",
          "name": "_fileSize",
          "type": "uint256"
        },
        {
          "internalType": "string",
          "name": "_fileType",
          "type": "string"
        },
        {
          "internalType": "string",
          "name": "_fileName",
          "type": "string"
        },
        {
          "internalType": "uint256",
          "name": "_fileID",
          "type": "uint256"
        },
        {
          "internalType": "uint256",
          "name": "_changeValue",
          "type": "uint256"
        },
        {
          "internalType": "uint256",
          "name": "_lastSize",
          "type": "uint256"
        }
      ],
      "name": "updateFile",
      "outputs": [],
      "stateMutability": "nonpayable",
      "type": "function"
    },
    {
      "inputs": [
        {
          "internalType": "uint256",
          "name": "_fileID",
          "type": "uint256"
        }
      ],
      "name": "getFile",
      "outputs": [
        {
          "components": [
            {
              "internalType": "uint256",
              "name": "fileId",
              "type": "uint256"
            },
            {
              "internalType": "string",
              "name": "fileHash",
              "type": "string"
            },
            {
              "internalType": "uint256",
              "name": "fileSize",
              "type": "uint256"
            },
            {
              "internalType": "string",
              "name": "fileType",
              "type": "string"
            },
            {
              "internalType": "string",
              "name": "fileName",
              "type": "string"
            },
            {
              "internalType": "string",
              "name": "fileDescription",
              "type": "string"
            },
            {
              "internalType": "uint256",
              "name": "uploadTime",
              "type": "uint256"
            },
            {
              "internalType": "address",
              "name": "uploader",
              "type": "address"
            },
            {
              "internalType": "uint256",
              "name": "lastChange",
              "type": "uint256"
            },
            {
              "internalType": "uint256",
              "name": "lastSize",
              "type": "uint256"
            },
            {
              "internalType": "bool",
              "name": "isPrivate",
              "type": "bool"
            },
            {
              "internalType": "address[]",
              "name": "allowedUsers",
              "type": "address[]"
            }
          ],
          "internalType": "struct SimpleStorage.File",
          "name": "",
          "type": "tuple"
        }
      ],
      "stateMutability": "view",
      "type": "function",
      "constant": true
    },
    {
      "inputs": [
        {
          "internalType": "uint256",
          "name": "_fileID",
          "type": "uint256"
        }
      ],
      "name": "deleteFile",
      "outputs": [],
      "stateMutability": "nonpayable",
      "type": "function"
    },
    {
      "inputs": [
        {
          "internalType": "address",
          "name": "_address",
          "type": "address"
        },
        {
          "internalType": "string",
          "name": "_name",
          "type": "string"
        },
        {
          "internalType": "string",
          "name": "_password",
          "type": "string"
        }
      ],
      "name": "register",
      "outputs": [
        {
          "internalType": "bool",
          "name": "",
          "type": "bool"
        }
      ],
      "stateMutability": "nonpayable",
      "type": "function"
    },
    {
      "inputs": [
        {
          "internalType": "address",
          "name": "_address",
          "type": "address"
        },
        {
          "internalType": "string",
          "name": "_password",
          "type": "string"
        }
      ],
      "name": "login",
      "outputs": [
        {
          "internalType": "bool",
          "name": "",
          "type": "bool"
        }
      ],
      "stateMutability": "nonpayable",
      "type": "function"
    },
    {
      "inputs": [
        {
          "internalType": "address",
          "name": "_address",
          "type": "address"
        }
      ],
      "name": "checkIsUserLogged",
      "outputs": [
        {
          "internalType": "bool",
          "name": "",
          "type": "bool"
        }
      ],
      "stateMutability": "view",
      "type": "function",
      "constant": true
    },
    {
      "inputs": [
        {
          "internalType": "address",
          "name": "_address",
          "type": "address"
        }
      ],
      "name": "checkUserName",
      "outputs": [
        {
          "internalType": "string",
          "name": "",
          "type": "string"
        }
      ],
      "stateMutability": "view",
      "type": "function",
      "constant": true
    },
    {
      "inputs": [
        {
          "internalType": "address",
          "name": "_address",
          "type": "address"
        }
      ],
      "name": "logout",
      "outputs": [],
      "stateMutability": "nonpayable",
      "type": "function"
    },
    {
      "inputs": [],
      "name": "getAllTransactions",
      "outputs": [
        {
          "components": [
            {
              "internalType": "address",
              "name": "userAddress",
              "type": "address"
            },
            {
              "internalType": "string",
              "name": "userName",
              "type": "string"
            },
            {
              "internalType": "uint256",
              "name": "fileId",
              "type": "uint256"
            },
            {
              "internalType": "string",
              "name": "fileName",
              "type": "string"
            },
            {
              "internalType": "string",
              "name": "fileHash",
              "type": "string"
            },
            {
              "internalType": "uint256",
              "name": "fileSize",
              "type": "uint256"
            },
            {
              "internalType": "string",
              "name": "transactionType",
              "type": "string"
            },
            {
              "internalType": "uint256",
              "name": "changeLevel",
              "type": "uint256"
            },
            {
              "internalType": "uint256",
              "name": "uploadTime",
              "type": "uint256"
            },
            {
              "internalType": "uint256",
              "name": "lastSize",
              "type": "uint256"
            }
          ],
          "internalType": "struct SimpleStorage.Transaction[]",
          "name": "",
          "type": "tuple[]"
        }
      ],
      "stateMutability": "view",
      "type": "function",
      "constant": true
    }
  ],
  "bytecode": "0x60806040526040518060400160405280600b81526020017f4172636853746f72616765000000000000000000000000000000000000000000815250600090805190602001906200005192919062000075565b506000600155600060025560006003553480156200006e57600080fd5b5062000189565b828054620000839062000154565b90600052602060002090601f016020900481019282620000a75760008555620000f3565b82601f10620000c257805160ff1916838001178555620000f3565b82800160010185558215620000f3579182015b82811115620000f2578251825591602001919060010190620000d5565b5b50905062000102919062000106565b5090565b5b808211156200012157600081600090555060010162000107565b5090565b7f4e487b7100000000000000000000000000000000000000000000000000000000600052602260045260246000fd5b600060028204905060018216806200016d57607f821691505b60208210810362000183576200018262000125565b5b50919050565b613e6b80620001996000396000f3fe608060405234801561001057600080fd5b50600436106100f55760003560e01c8063567b6c1311610097578063b77bf60011610066578063b77bf6001461029a578063c5b42006146102b8578063cc51f9b9146102d4578063f4c714b4146102f0576100f5565b8063567b6c131461020057806361ea23881461021c5780638d59cc021461024c5780639fb8070a1461027c576100f5565b8063297f7b39116100d3578063297f7b39146101545780632bfda313146101845780632f19d50b146101b45780634a6c90c4146101e4576100f5565b806306fdde03146100fa57806325c2e12c1461011857806327506f5314610136575b600080fd5b61010261032a565b60405161010f9190612d35565b60405180910390f35b6101206103b8565b60405161012d9190612d70565b60405180910390f35b61013e6103be565b60405161014b9190612fd6565b60405180910390f35b61016e60048036038101906101699190613038565b6106ee565b60405161017b9190613080565b60405180910390f35b61019e600480360381019061019991906130c7565b610747565b6040516101ab91906132d2565b60405180910390f35b6101ce60048036038101906101c99190613429565b610aee565b6040516101db9190613080565b60405180910390f35b6101fe60048036038101906101f99190613579565b610c41565b005b61021a600480360381019061021591906136a7565b6112c7565b005b61023660048036038101906102319190613038565b611959565b6040516102439190612d35565b60405180910390f35b6102666004803603810190610261919061379d565b611a2d565b6040516102739190613080565b60405180910390f35b610284611c5e565b6040516102919190612d70565b60405180910390f35b6102a2611c64565b6040516102af9190612d70565b60405180910390f35b6102d260048036038101906102cd91906130c7565b611c6a565b005b6102ee60048036038101906102e99190613038565b612727565b005b61030a600480360381019061030591906130c7565b612785565b6040516103219b9a99989796959493929190613837565b60405180910390f35b600080546103379061392d565b80601f01602080910402602001604051908101604052809291908181526020018280546103639061392d565b80156103b05780601f10610385576101008083540402835291602001916103b0565b820191906000526020600020905b81548152906001019060200180831161039357829003601f168201915b505050505081565b60025481565b60606006805480602002602001604051908101604052809291908181526020016000905b828210156106e557838290600052602060002090600a0201604051806101400160405290816000820160009054906101000a900473ffffffffffffffffffffffffffffffffffffffff1673ffffffffffffffffffffffffffffffffffffffff1673ffffffffffffffffffffffffffffffffffffffff16815260200160018201805461046c9061392d565b80601f01602080910402602001604051908101604052809291908181526020018280546104989061392d565b80156104e55780601f106104ba576101008083540402835291602001916104e5565b820191906000526020600020905b8154815290600101906020018083116104c857829003601f168201915b50505050508152602001600282015481526020016003820180546105089061392d565b80601f01602080910402602001604051908101604052809291908181526020018280546105349061392d565b80156105815780601f1061055657610100808354040283529160200191610581565b820191906000526020600020905b81548152906001019060200180831161056457829003601f168201915b5050505050815260200160048201805461059a9061392d565b80601f01602080910402602001604051908101604052809291908181526020018280546105c69061392d565b80156106135780601f106105e857610100808354040283529160200191610613565b820191906000526020600020905b8154815290600101906020018083116105f657829003601f168201915b50505050508152602001600582015481526020016006820180546106369061392d565b80601f01602080910402602001604051908101604052809291908181526020018280546106629061392d565b80156106af5780601f10610684576101008083540402835291602001916106af565b820191906000526020600020905b81548152906001019060200180831161069257829003601f168201915b505050505081526020016007820154815260200160088201548152602001600982015481525050815260200190600101906103e2565b50505050905090565b6000600560008373ffffffffffffffffffffffffffffffffffffffff1673ffffffffffffffffffffffffffffffffffffffff16815260200190815260200160002060030160009054906101000a900460ff169050919050565b61074f612a2c565b6004600083815260200190815260200160002060405180610180016040529081600082015481526020016001820180546107889061392d565b80601f01602080910402602001604051908101604052809291908181526020018280546107b49061392d565b80156108015780601f106107d657610100808354040283529160200191610801565b820191906000526020600020905b8154815290600101906020018083116107e457829003601f168201915b50505050508152602001600282015481526020016003820180546108249061392d565b80601f01602080910402602001604051908101604052809291908181526020018280546108509061392d565b801561089d5780601f106108725761010080835404028352916020019161089d565b820191906000526020600020905b81548152906001019060200180831161088057829003601f168201915b505050505081526020016004820180546108b69061392d565b80601f01602080910402602001604051908101604052809291908181526020018280546108e29061392d565b801561092f5780601f106109045761010080835404028352916020019161092f565b820191906000526020600020905b81548152906001019060200180831161091257829003601f168201915b505050505081526020016005820180546109489061392d565b80601f01602080910402602001604051908101604052809291908181526020018280546109749061392d565b80156109c15780601f10610996576101008083540402835291602001916109c1565b820191906000526020600020905b8154815290600101906020018083116109a457829003601f168201915b50505050508152602001600682015481526020016007820160009054906101000a900473ffffffffffffffffffffffffffffffffffffffff1673ffffffffffffffffffffffffffffffffffffffff1673ffffffffffffffffffffffffffffffffffffffff1681526020016008820154815260200160098201548152602001600a820160009054906101000a900460ff16151515158152602001600b8201805480602002602001604051908101604052809291908181526020018280548015610ade57602002820191906000526020600020905b8160009054906101000a900473ffffffffffffffffffffffffffffffffffffffff1673ffffffffffffffffffffffffffffffffffffffff1681526020019060010190808311610a94575b5050505050815250509050919050565b600081604051602001610b01919061399a565b60405160208183030381529060405280519060200120600560008573ffffffffffffffffffffffffffffffffffffffff1673ffffffffffffffffffffffffffffffffffffffff168152602001908152602001600020600201604051602001610b699190613a45565b6040516020818303038152906040528051906020012003610c36576001600560008573ffffffffffffffffffffffffffffffffffffffff1673ffffffffffffffffffffffffffffffffffffffff16815260200190815260200160002060030160006101000a81548160ff021916908315150217905550600560008473ffffffffffffffffffffffffffffffffffffffff1673ffffffffffffffffffffffffffffffffffffffff16815260200190815260200160002060030160009054906101000a900460ff169050610c3b565b600090505b92915050565b6000875111610c4f57600080fd5b6000855111610c5d57600080fd5b604051602001610c6c90613aa8565b6040516020818303038152906040528051906020012085604051602001610c93919061399a565b604051602081830303815290604052805190602001201480610cfe5750604051602001610cbf90613b55565b6040516020818303038152906040528051906020012085604051602001610ce6919061399a565b60405160208183030381529060405280519060200120145b80610d525750604051602001610d1390613bb6565b6040516020818303038152906040528051906020012085604051602001610d3a919061399a565b60405160208183030381529060405280519060200120145b610d5b57600080fd5b6000835111610d6957600080fd5b6000845111610d7757600080fd5b600073ffffffffffffffffffffffffffffffffffffffff163373ffffffffffffffffffffffffffffffffffffffff1603610db057600080fd5b60008611610dbd57600080fd5b60016000815480929190610dd090613bfa565b919050555060026000815480929190610de890613bfa565b919050555060405180610180016040528060015481526020018881526020018781526020018681526020018581526020018481526020014281526020013373ffffffffffffffffffffffffffffffffffffffff1681526020016000815260200160008152602001831515815260200182815250600460006001548152602001908152602001600020600082015181600001556020820151816001019080519060200190610e96929190612aa5565b50604082015181600201556060820151816003019080519060200190610ebd929190612aa5565b506080820151816004019080519060200190610eda929190612aa5565b5060a0820151816005019080519060200190610ef7929190612aa5565b5060c0820151816006015560e08201518160070160006101000a81548173ffffffffffffffffffffffffffffffffffffffff021916908373ffffffffffffffffffffffffffffffffffffffff1602179055506101008201518160080155610120820151816009015561014082015181600a0160006101000a81548160ff02191690831515021790555061016082015181600b019080519060200190610f9d929190612b2b565b50905050610fa9612bb5565b33816000019073ffffffffffffffffffffffffffffffffffffffff16908173ffffffffffffffffffffffffffffffffffffffff1681525050600560003373ffffffffffffffffffffffffffffffffffffffff1673ffffffffffffffffffffffffffffffffffffffff168152602001908152602001600020600101805461102e9061392d565b80601f016020809104026020016040519081016040528092919081815260200182805461105a9061392d565b80156110a75780601f1061107c576101008083540402835291602001916110a7565b820191906000526020600020905b81548152906001019060200180831161108a57829003601f168201915b50505050508160200181905250600154816040018181525050848160600181905250878160800181905250868160a00181815250506040518060400160405280600381526020017f41444400000000000000000000000000000000000000000000000000000000008152508160c0018190525060008160e0018181525050600081610120018181525050428161010001818152505060068190806001815401808255809150506001900390600052602060002090600a020160009091909190915060008201518160000160006101000a81548173ffffffffffffffffffffffffffffffffffffffff021916908373ffffffffffffffffffffffffffffffffffffffff16021790555060208201518160010190805190602001906111cb929190612aa5565b506040820151816002015560608201518160030190805190602001906111f2929190612aa5565b50608082015181600401908051906020019061120f929190612aa5565b5060a0820151816005015560c0820151816006019080519060200190611236929190612aa5565b5060e082015181600701556101008201518160080155610120820151816009015550506003600081548092919061126c90613bfa565b91905055507f4ac95c3f22439238bd535f2f940912d5f3601ea973564b7a2d9d4547203af05c600154898989898942336000806040516112b59a99989796959493929190613c87565b60405180910390a15050505050505050565b60008751116112d557600080fd5b60008551116112e357600080fd5b6040516020016112f290613aa8565b6040516020818303038152906040528051906020012085604051602001611319919061399a565b604051602081830303815290604052805190602001201480611384575060405160200161134590613b55565b604051602081830303815290604052805190602001208560405160200161136c919061399a565b60405160208183030381529060405280519060200120145b806113d8575060405160200161139990613bb6565b60405160208183030381529060405280519060200120856040516020016113c0919061399a565b60405160208183030381529060405280519060200120145b6113e157600080fd5b60008451116113ef57600080fd5b600073ffffffffffffffffffffffffffffffffffffffff163373ffffffffffffffffffffffffffffffffffffffff160361142857600080fd5b6000861161143557600080fd5b60008311801561144757506001548311155b61145057600080fd5b600082101561145e57600080fd5b86600460008581526020019081526020016000206001019080519060200190611488929190612aa5565b50856004600085815260200190815260200160002060020181905550846004600085815260200190815260200160002060030190805190602001906114ce929190612aa5565b50836004600085815260200190815260200160002060040190805190602001906114f9929190612aa5565b50426004600085815260200190815260200160002060060181905550336004600085815260200190815260200160002060070160006101000a81548173ffffffffffffffffffffffffffffffffffffffff021916908373ffffffffffffffffffffffffffffffffffffffff1602179055508160046000858152602001908152602001600020600801819055508060046000858152602001908152602001600020600901819055506115a8612bb5565b33816000019073ffffffffffffffffffffffffffffffffffffffff16908173ffffffffffffffffffffffffffffffffffffffff1681525050600560003373ffffffffffffffffffffffffffffffffffffffff1673ffffffffffffffffffffffffffffffffffffffff168152602001908152602001600020600101805461162d9061392d565b80601f01602080910402602001604051908101604052809291908181526020018280546116599061392d565b80156116a65780601f1061167b576101008083540402835291602001916116a6565b820191906000526020600020905b81548152906001019060200180831161168957829003601f168201915b50505050508160200181905250838160400181815250506004600085815260200190815260200160002060040180546116de9061392d565b80601f016020809104026020016040519081016040528092919081815260200182805461170a9061392d565b80156117575780601f1061172c57610100808354040283529160200191611757565b820191906000526020600020905b81548152906001019060200180831161173a57829003601f168201915b50505050508160600181905250878160800181905250868160a00181815250506040518060400160405280600681526020017f55504441544500000000000000000000000000000000000000000000000000008152508160c00181905250828160e00181815250504281610100018181525050818161012001818152505060068190806001815401808255809150506001900390600052602060002090600a020160009091909190915060008201518160000160006101000a81548173ffffffffffffffffffffffffffffffffffffffff021916908373ffffffffffffffffffffffffffffffffffffffff1602179055506020820151816001019080519060200190611864929190612aa5565b5060408201518160020155606082015181600301908051906020019061188b929190612aa5565b5060808201518160040190805190602001906118a8929190612aa5565b5060a0820151816005015560c08201518160060190805190602001906118cf929190612aa5565b5060e082015181600701556101008201518160080155610120820151816009015550506003600081548092919061190590613bfa565b91905055507f24ba57b53df673cdc28df08112002b7a30bbcd5d3da848543b98cf84174b75948888888842338989604051611947989796959493929190613d3f565b60405180910390a15050505050505050565b6060600560008373ffffffffffffffffffffffffffffffffffffffff1673ffffffffffffffffffffffffffffffffffffffff16815260200190815260200160002060010180546119a89061392d565b80601f01602080910402602001604051908101604052809291908181526020018280546119d49061392d565b8015611a215780601f106119f657610100808354040283529160200191611a21565b820191906000526020600020905b815481529060010190602001808311611a0457829003601f168201915b50505050509050919050565b60003373ffffffffffffffffffffffffffffffffffffffff16600560008673ffffffffffffffffffffffffffffffffffffffff1673ffffffffffffffffffffffffffffffffffffffff16815260200190815260200160002060000160009054906101000a900473ffffffffffffffffffffffffffffffffffffffff1673ffffffffffffffffffffffffffffffffffffffff1603611ac957600080fd5b83600560008673ffffffffffffffffffffffffffffffffffffffff1673ffffffffffffffffffffffffffffffffffffffff16815260200190815260200160002060000160006101000a81548173ffffffffffffffffffffffffffffffffffffffff021916908373ffffffffffffffffffffffffffffffffffffffff16021790555082600560008673ffffffffffffffffffffffffffffffffffffffff1673ffffffffffffffffffffffffffffffffffffffff1681526020019081526020016000206001019080519060200190611ba0929190612aa5565b5081600560008673ffffffffffffffffffffffffffffffffffffffff1673ffffffffffffffffffffffffffffffffffffffff1681526020019081526020016000206002019080519060200190611bf7929190612aa5565b506000600560008673ffffffffffffffffffffffffffffffffffffffff1673ffffffffffffffffffffffffffffffffffffffff16815260200190815260200160002060030160006101000a81548160ff021916908315150217905550600190509392505050565b60015481565b60035481565b611c72612bb5565b33816000019073ffffffffffffffffffffffffffffffffffffffff16908173ffffffffffffffffffffffffffffffffffffffff1681525050600560003373ffffffffffffffffffffffffffffffffffffffff1673ffffffffffffffffffffffffffffffffffffffff1681526020019081526020016000206001018054611cf79061392d565b80601f0160208091040260200160405190810160405280929190818152602001828054611d239061392d565b8015611d705780601f10611d4557610100808354040283529160200191611d70565b820191906000526020600020905b815481529060010190602001808311611d5357829003601f168201915b5050505050816020018190525081816040018181525050600460008381526020019081526020016000206004018054611da89061392d565b80601f0160208091040260200160405190810160405280929190818152602001828054611dd49061392d565b8015611e215780601f10611df657610100808354040283529160200191611e21565b820191906000526020600020905b815481529060010190602001808311611e0457829003601f168201915b50505050508160600181905250600460008381526020019081526020016000206001018054611e4f9061392d565b80601f0160208091040260200160405190810160405280929190818152602001828054611e7b9061392d565b8015611ec85780601f10611e9d57610100808354040283529160200191611ec8565b820191906000526020600020905b815481529060010190602001808311611eab57829003601f168201915b5050505050816080018190525060046000838152602001908152602001600020600201548160a00181815250506040518060400160405280600681526020017f44454c45544500000000000000000000000000000000000000000000000000008152508160c0018190525060008160e001818152505042816101000181815250506000151560046000848152602001908152602001600020600a0160009054906101000a900460ff161515036121955760068190806001815401808255809150506001900390600052602060002090600a020160009091909190915060008201518160000160006101000a81548173ffffffffffffffffffffffffffffffffffffffff021916908373ffffffffffffffffffffffffffffffffffffffff1602179055506020820151816001019080519060200190612007929190612aa5565b5060408201518160020155606082015181600301908051906020019061202e929190612aa5565b50608082015181600401908051906020019061204b929190612aa5565b5060a0820151816005015560c0820151816006019080519060200190612072929190612aa5565b5060e08201518160070155610100820151816008015561012082015181600901555050600360008154809291906120a890613bfa565b9190505550600460008381526020019081526020016000206000808201600090556001820160006120d99190612c1e565b60028201600090556003820160006120f19190612c1e565b6004820160006121019190612c1e565b6005820160006121119190612c1e565b60068201600090556007820160006101000a81549073ffffffffffffffffffffffffffffffffffffffff021916905560088201600090556009820160009055600a820160006101000a81549060ff0219169055600b820160006121749190612c5e565b50506001600260008282546121899190613dd2565b92505081905550612723565b6001151560046000848152602001908152602001600020600a0160009054906101000a900460ff16151503612722573373ffffffffffffffffffffffffffffffffffffffff166004600084815260200190815260200160002060070160009054906101000a900473ffffffffffffffffffffffffffffffffffffffff1673ffffffffffffffffffffffffffffffffffffffff160361244a5760068190806001815401808255809150506001900390600052602060002090600a020160009091909190915060008201518160000160006101000a81548173ffffffffffffffffffffffffffffffffffffffff021916908373ffffffffffffffffffffffffffffffffffffffff16021790555060208201518160010190805190602001906122bc929190612aa5565b506040820151816002015560608201518160030190805190602001906122e3929190612aa5565b506080820151816004019080519060200190612300929190612aa5565b5060a0820151816005015560c0820151816006019080519060200190612327929190612aa5565b5060e082015181600701556101008201518160080155610120820151816009015550506003600081548092919061235d90613bfa565b91905055506004600083815260200190815260200160002060008082016000905560018201600061238e9190612c1e565b60028201600090556003820160006123a69190612c1e565b6004820160006123b69190612c1e565b6005820160006123c69190612c1e565b60068201600090556007820160006101000a81549073ffffffffffffffffffffffffffffffffffffffff021916905560088201600090556009820160009055600a820160006101000a81549060ff0219169055600b820160006124299190612c5e565b505060016002600082825461243e9190613dd2565b92505081905550612721565b60005b60046000848152602001908152602001600020600b018054905081101561271f573373ffffffffffffffffffffffffffffffffffffffff1660046000858152602001908152602001600020600b0182815481106124ad576124ac613e06565b5b9060005260206000200160009054906101000a900473ffffffffffffffffffffffffffffffffffffffff1673ffffffffffffffffffffffffffffffffffffffff160361270c5760068290806001815401808255809150506001900390600052602060002090600a020160009091909190915060008201518160000160006101000a81548173ffffffffffffffffffffffffffffffffffffffff021916908373ffffffffffffffffffffffffffffffffffffffff1602179055506020820151816001019080519060200190612582929190612aa5565b506040820151816002015560608201518160030190805190602001906125a9929190612aa5565b5060808201518160040190805190602001906125c6929190612aa5565b5060a0820151816005015560c08201518160060190805190602001906125ed929190612aa5565b5060e082015181600701556101008201518160080155610120820151816009015550506003600081548092919061262390613bfa565b9190505550600460008481526020019081526020016000206000808201600090556001820160006126549190612c1e565b600282016000905560038201600061266c9190612c1e565b60048201600061267c9190612c1e565b60058201600061268c9190612c1e565b60068201600090556007820160006101000a81549073ffffffffffffffffffffffffffffffffffffffff021916905560088201600090556009820160009055600a820160006101000a81549060ff0219169055600b820160006126ef9190612c5e565b50506001600260008282546127049190613dd2565b925050819055505b808061271790613bfa565b91505061244d565b505b5b5b5050565b6000600560008373ffffffffffffffffffffffffffffffffffffffff1673ffffffffffffffffffffffffffffffffffffffff16815260200190815260200160002060030160006101000a81548160ff02191690831515021790555050565b60046020528060005260406000206000915090508060000154908060010180546127ae9061392d565b80601f01602080910402602001604051908101604052809291908181526020018280546127da9061392d565b80156128275780601f106127fc57610100808354040283529160200191612827565b820191906000526020600020905b81548152906001019060200180831161280a57829003601f168201915b5050505050908060020154908060030180546128429061392d565b80601f016020809104026020016040519081016040528092919081815260200182805461286e9061392d565b80156128bb5780601f10612890576101008083540402835291602001916128bb565b820191906000526020600020905b81548152906001019060200180831161289e57829003601f168201915b5050505050908060040180546128d09061392d565b80601f01602080910402602001604051908101604052809291908181526020018280546128fc9061392d565b80156129495780601f1061291e57610100808354040283529160200191612949565b820191906000526020600020905b81548152906001019060200180831161292c57829003601f168201915b50505050509080600501805461295e9061392d565b80601f016020809104026020016040519081016040528092919081815260200182805461298a9061392d565b80156129d75780601f106129ac576101008083540402835291602001916129d7565b820191906000526020600020905b8154815290600101906020018083116129ba57829003601f168201915b5050505050908060060154908060070160009054906101000a900473ffffffffffffffffffffffffffffffffffffffff169080600801549080600901549080600a0160009054906101000a900460ff1690508b565b60405180610180016040528060008152602001606081526020016000815260200160608152602001606081526020016060815260200160008152602001600073ffffffffffffffffffffffffffffffffffffffff1681526020016000815260200160008152602001600015158152602001606081525090565b828054612ab19061392d565b90600052602060002090601f016020900481019282612ad35760008555612b1a565b82601f10612aec57805160ff1916838001178555612b1a565b82800160010185558215612b1a579182015b82811115612b19578251825591602001919060010190612afe565b5b509050612b279190612c7f565b5090565b828054828255906000526020600020908101928215612ba4579160200282015b82811115612ba35782518260006101000a81548173ffffffffffffffffffffffffffffffffffffffff021916908373ffffffffffffffffffffffffffffffffffffffff16021790555091602001919060010190612b4b565b5b509050612bb19190612c7f565b5090565b604051806101400160405280600073ffffffffffffffffffffffffffffffffffffffff1681526020016060815260200160008152602001606081526020016060815260200160008152602001606081526020016000815260200160008152602001600081525090565b508054612c2a9061392d565b6000825580601f10612c3c5750612c5b565b601f016020900490600052602060002090810190612c5a9190612c7f565b5b50565b5080546000825590600052602060002090810190612c7c9190612c7f565b50565b5b80821115612c98576000816000905550600101612c80565b5090565b600081519050919050565b600082825260208201905092915050565b60005b83811015612cd6578082015181840152602081019050612cbb565b83811115612ce5576000848401525b50505050565b6000601f19601f8301169050919050565b6000612d0782612c9c565b612d118185612ca7565b9350612d21818560208601612cb8565b612d2a81612ceb565b840191505092915050565b60006020820190508181036000830152612d4f8184612cfc565b905092915050565b6000819050919050565b612d6a81612d57565b82525050565b6000602082019050612d856000830184612d61565b92915050565b600081519050919050565b600082825260208201905092915050565b6000819050602082019050919050565b600073ffffffffffffffffffffffffffffffffffffffff82169050919050565b6000612de282612db7565b9050919050565b612df281612dd7565b82525050565b600082825260208201905092915050565b6000612e1482612c9c565b612e1e8185612df8565b9350612e2e818560208601612cb8565b612e3781612ceb565b840191505092915050565b612e4b81612d57565b82525050565b600061014083016000830151612e6a6000860182612de9565b5060208301518482036020860152612e828282612e09565b9150506040830151612e976040860182612e42565b5060608301518482036060860152612eaf8282612e09565b91505060808301518482036080860152612ec98282612e09565b91505060a0830151612ede60a0860182612e42565b5060c083015184820360c0860152612ef68282612e09565b91505060e0830151612f0b60e0860182612e42565b50610100830151612f20610100860182612e42565b50610120830151612f35610120860182612e42565b508091505092915050565b6000612f4c8383612e51565b905092915050565b6000602082019050919050565b6000612f6c82612d8b565b612f768185612d96565b935083602082028501612f8885612da7565b8060005b85811015612fc45784840389528151612fa58582612f40565b9450612fb083612f54565b925060208a01995050600181019050612f8c565b50829750879550505050505092915050565b60006020820190508181036000830152612ff08184612f61565b905092915050565b6000604051905090565b600080fd5b600080fd5b61301581612dd7565b811461302057600080fd5b50565b6000813590506130328161300c565b92915050565b60006020828403121561304e5761304d613002565b5b600061305c84828501613023565b91505092915050565b60008115159050919050565b61307a81613065565b82525050565b60006020820190506130956000830184613071565b92915050565b6130a481612d57565b81146130af57600080fd5b50565b6000813590506130c18161309b565b92915050565b6000602082840312156130dd576130dc613002565b5b60006130eb848285016130b2565b91505092915050565b6130fd81613065565b82525050565b600081519050919050565b600082825260208201905092915050565b6000819050602082019050919050565b600061313b8383612de9565b60208301905092915050565b6000602082019050919050565b600061315f82613103565b613169818561310e565b93506131748361311f565b8060005b838110156131a557815161318c888261312f565b975061319783613147565b925050600181019050613178565b5085935050505092915050565b6000610180830160008301516131cb6000860182612e42565b50602083015184820360208601526131e38282612e09565b91505060408301516131f86040860182612e42565b50606083015184820360608601526132108282612e09565b9150506080830151848203608086015261322a8282612e09565b91505060a083015184820360a08601526132448282612e09565b91505060c083015161325960c0860182612e42565b5060e083015161326c60e0860182612de9565b50610100830151613281610100860182612e42565b50610120830151613296610120860182612e42565b506101408301516132ab6101408601826130f4565b506101608301518482036101608601526132c58282613154565b9150508091505092915050565b600060208201905081810360008301526132ec81846131b2565b905092915050565b600080fd5b600080fd5b7f4e487b7100000000000000000000000000000000000000000000000000000000600052604160045260246000fd5b61333682612ceb565b810181811067ffffffffffffffff82111715613355576133546132fe565b5b80604052505050565b6000613368612ff8565b9050613374828261332d565b919050565b600067ffffffffffffffff821115613394576133936132fe565b5b61339d82612ceb565b9050602081019050919050565b82818337600083830152505050565b60006133cc6133c784613379565b61335e565b9050828152602081018484840111156133e8576133e76132f9565b5b6133f38482856133aa565b509392505050565b600082601f8301126134105761340f6132f4565b5b81356134208482602086016133b9565b91505092915050565b600080604083850312156134405761343f613002565b5b600061344e85828601613023565b925050602083013567ffffffffffffffff81111561346f5761346e613007565b5b61347b858286016133fb565b9150509250929050565b61348e81613065565b811461349957600080fd5b50565b6000813590506134ab81613485565b92915050565b600067ffffffffffffffff8211156134cc576134cb6132fe565b5b602082029050602081019050919050565b600080fd5b60006134f56134f0846134b1565b61335e565b90508083825260208201905060208402830185811115613518576135176134dd565b5b835b81811015613541578061352d8882613023565b84526020840193505060208101905061351a565b5050509392505050565b600082601f8301126135605761355f6132f4565b5b81356135708482602086016134e2565b91505092915050565b600080600080600080600060e0888a03121561359857613597613002565b5b600088013567ffffffffffffffff8111156135b6576135b5613007565b5b6135c28a828b016133fb565b97505060206135d38a828b016130b2565b965050604088013567ffffffffffffffff8111156135f4576135f3613007565b5b6136008a828b016133fb565b955050606088013567ffffffffffffffff81111561362157613620613007565b5b61362d8a828b016133fb565b945050608088013567ffffffffffffffff81111561364e5761364d613007565b5b61365a8a828b016133fb565b93505060a061366b8a828b0161349c565b92505060c088013567ffffffffffffffff81111561368c5761368b613007565b5b6136988a828b0161354b565b91505092959891949750929550565b600080600080600080600060e0888a0312156136c6576136c5613002565b5b600088013567ffffffffffffffff8111156136e4576136e3613007565b5b6136f08a828b016133fb565b97505060206137018a828b016130b2565b965050604088013567ffffffffffffffff81111561372257613721613007565b5b61372e8a828b016133fb565b955050606088013567ffffffffffffffff81111561374f5761374e613007565b5b61375b8a828b016133fb565b945050608061376c8a828b016130b2565b93505060a061377d8a828b016130b2565b92505060c061378e8a828b016130b2565b91505092959891949750929550565b6000806000606084860312156137b6576137b5613002565b5b60006137c486828701613023565b935050602084013567ffffffffffffffff8111156137e5576137e4613007565b5b6137f1868287016133fb565b925050604084013567ffffffffffffffff81111561381257613811613007565b5b61381e868287016133fb565b9150509250925092565b61383181612dd7565b82525050565b60006101608201905061384d600083018e612d61565b818103602083015261385f818d612cfc565b905061386e604083018c612d61565b8181036060830152613880818b612cfc565b90508181036080830152613894818a612cfc565b905081810360a08301526138a88189612cfc565b90506138b760c0830188612d61565b6138c460e0830187613828565b6138d2610100830186612d61565b6138e0610120830185612d61565b6138ee610140830184613071565b9c9b505050505050505050505050565b7f4e487b7100000000000000000000000000000000000000000000000000000000600052602260045260246000fd5b6000600282049050600182168061394557607f821691505b602082108103613958576139576138fe565b5b50919050565b600081905092915050565b600061397482612c9c565b61397e818561395e565b935061398e818560208601612cb8565b80840191505092915050565b60006139a68284613969565b915081905092915050565b60008190508160005260206000209050919050565b600081546139d38161392d565b6139dd818661395e565b945060018216600081146139f85760018114613a0957613a3c565b60ff19831686528186019350613a3c565b613a12856139b1565b60005b83811015613a3457815481890152600182019150602081019050613a15565b838801955050505b50505092915050565b6000613a5182846139c6565b915081905092915050565b7f746578742f706c61696e00000000000000000000000000000000000000000000600082015250565b6000613a92600a8361395e565b9150613a9d82613a5c565b600a82019050919050565b6000613ab382613a85565b9150819050919050565b7f6170706c69636174696f6e2f766e642e6f70656e786d6c666f726d6174732d6f60008201527f6666696365646f63756d656e742e776f726470726f63657373696e676d6c2e6460208201527f6f63756d656e7400000000000000000000000000000000000000000000000000604082015250565b6000613b3f60478361395e565b9150613b4a82613abd565b604782019050919050565b6000613b6082613b32565b9150819050919050565b7f6170706c69636174696f6e2f7064660000000000000000000000000000000000600082015250565b6000613ba0600f8361395e565b9150613bab82613b6a565b600f82019050919050565b6000613bc182613b93565b9150819050919050565b7f4e487b7100000000000000000000000000000000000000000000000000000000600052601160045260246000fd5b6000613c0582612d57565b91507fffffffffffffffffffffffffffffffffffffffffffffffffffffffffffffffff8203613c3757613c36613bcb565b5b600182019050919050565b6000819050919050565b6000819050919050565b6000613c71613c6c613c6784613c42565b613c4c565b612d57565b9050919050565b613c8181613c56565b82525050565b600061014082019050613c9d600083018d612d61565b8181036020830152613caf818c612cfc565b9050613cbe604083018b612d61565b8181036060830152613cd0818a612cfc565b90508181036080830152613ce48189612cfc565b905081810360a0830152613cf88188612cfc565b9050613d0760c0830187612d61565b613d1460e0830186613828565b613d22610100830185613c78565b613d30610120830184613c78565b9b9a5050505050505050505050565b6000610100820190508181036000830152613d5a818b612cfc565b9050613d69602083018a612d61565b8181036040830152613d7b8189612cfc565b90508181036060830152613d8f8188612cfc565b9050613d9e6080830187612d61565b613dab60a0830186613828565b613db860c0830185612d61565b613dc560e0830184612d61565b9998505050505050505050565b6000613ddd82612d57565b9150613de883612d57565b925082821015613dfb57613dfa613bcb565b5b828203905092915050565b7f4e487b7100000000000000000000000000000000000000000000000000000000600052603260045260246000fdfea2646970667358221220c3cbfbf6b9daa3798df56268593aa5e31a47a5eff23b7dd5b8e4a38be9cc5ae064736f6c634300080d0033",
  "immutableReferences": {},
  "source": "// SPDX-License-Identifier: MIT\r\npragma solidity ^0.8.0;\r\n\r\ncontract SimpleStorage {\r\n    // data\r\n    string public name = \"ArchStorage\";\r\n\r\n    uint256 public fileIDs = 0;\r\n    uint256 public fileNum = 0;\r\n    uint256 public transactionCount = 0;\r\n    mapping(uint256 => File) public files;\r\n    mapping(address => UserDetail) user;\r\n\r\n    struct File {\r\n        uint256 fileId;\r\n        string fileHash;\r\n        uint256 fileSize;\r\n        string fileType;\r\n        string fileName;\r\n        string fileDescription;\r\n        uint256 uploadTime;\r\n        address uploader;\r\n        uint256 lastChange;\r\n        uint256 lastSize;\r\n        bool isPrivate;\r\n        address[] allowedUsers;\r\n    }\r\n\r\n    struct UserDetail {\r\n        address addr;\r\n        string name;\r\n        string password;\r\n        bool isUserLoggedIn;\r\n    }\r\n\r\n    struct Transaction {\r\n        address userAddress;\r\n        string userName;\r\n        uint256 fileId;\r\n        string fileName;\r\n        string fileHash;\r\n        uint256 fileSize;\r\n        string transactionType;\r\n        uint256 changeLevel;\r\n        uint256 uploadTime;\r\n        uint256 lastSize;\r\n    }\r\n    Transaction[] transactions;\r\n\r\n    //events\r\n\r\n    // event transactionAdded(Transaction temp);\r\n\r\n    event FileUploaded(\r\n        uint256 fileId,\r\n        string fileHash,\r\n        uint256 fileSize,\r\n        string fileType,\r\n        string fileName,\r\n        string fileDescription,\r\n        uint256 uploadTime,\r\n        address uploader,\r\n        uint256 lastChange,\r\n        uint256 lastSize\r\n    );\r\n\r\n    event FileUpdated(\r\n        string fileHash,\r\n        uint256 fileSize,\r\n        string fileType,\r\n        string fileName,\r\n        uint256 uploadTime,\r\n        address uploader,\r\n        uint256 lastChange,\r\n        uint256 lastSize\r\n    );\r\n\r\n    constructor() public {}\r\n\r\n    function uploadFile(\r\n        string memory _fileHash,\r\n        uint256 _fileSize,\r\n        string memory _fileType,\r\n        string memory _fileName,\r\n        string memory _fileDescription,\r\n        bool filePrivacy,\r\n        address[] memory allowedFileUsers\r\n    ) public {\r\n        // Make sure the file hash exists\r\n        require(bytes(_fileHash).length > 0);\r\n        // Make sure file type exists\r\n        require(bytes(_fileType).length > 0);\r\n        require(\r\n            keccak256(abi.encodePacked(_fileType)) ==\r\n                keccak256(abi.encodePacked(\"text/plain\")) ||\r\n                keccak256(abi.encodePacked(_fileType)) ==\r\n                keccak256(\r\n                    abi.encodePacked(\r\n                        \"application/vnd.openxmlformats-officedocument.wordprocessingml.document\"\r\n                    )\r\n                ) ||\r\n                keccak256(abi.encodePacked(_fileType)) ==\r\n                keccak256(abi.encodePacked(\"application/pdf\"))\r\n        );\r\n        // Make sure file description exists\r\n        require(bytes(_fileDescription).length > 0);\r\n        // Make sure file fileName exists\r\n        require(bytes(_fileName).length > 0);\r\n        // Make sure uploader address exists\r\n        require(msg.sender != address(0));\r\n        // Make sure file size is more than 0\r\n        require(_fileSize > 0);\r\n\r\n        // Increment file id\r\n        fileIDs++;\r\n        fileNum++;\r\n\r\n        // Add File to the contract\r\n        files[fileIDs] = File(\r\n            fileIDs,\r\n            _fileHash,\r\n            _fileSize,\r\n            _fileType,\r\n            _fileName,\r\n            _fileDescription,\r\n            block.timestamp,\r\n            msg.sender,\r\n            0,\r\n            0,\r\n            filePrivacy,\r\n            allowedFileUsers\r\n        );\r\n\r\n        Transaction memory temp;\r\n        temp.userAddress = msg.sender;\r\n        temp.userName = user[msg.sender].name;\r\n        temp.fileId = fileIDs;\r\n        temp.fileName = _fileName;\r\n        temp.fileHash = _fileHash;\r\n        temp.fileSize = _fileSize;\r\n        temp.transactionType = \"ADD\";\r\n        temp.changeLevel = 0;\r\n        temp.lastSize = 0;\r\n        temp.uploadTime = block.timestamp;\r\n        transactions.push(temp);\r\n\r\n        transactionCount++;\r\n        // Trigger an event\r\n        emit FileUploaded(\r\n            fileIDs,\r\n            _fileHash,\r\n            _fileSize,\r\n            _fileType,\r\n            _fileName,\r\n            _fileDescription,\r\n            block.timestamp,\r\n            msg.sender,\r\n            0,\r\n            0\r\n        );\r\n    }\r\n\r\n    function updateFile(\r\n        string memory _fileHash,\r\n        uint256 _fileSize,\r\n        string memory _fileType,\r\n        string memory _fileName,\r\n        uint256 _fileID,\r\n        uint256 _changeValue,\r\n        uint256 _lastSize\r\n    ) public {\r\n        // Make sure the file hash exists\r\n        require(bytes(_fileHash).length > 0);\r\n        // Make sure file type exists\r\n        require(bytes(_fileType).length > 0);\r\n        require(\r\n            keccak256(abi.encodePacked(_fileType)) ==\r\n                keccak256(abi.encodePacked(\"text/plain\")) ||\r\n                keccak256(abi.encodePacked(_fileType)) ==\r\n                keccak256(\r\n                    abi.encodePacked(\r\n                        \"application/vnd.openxmlformats-officedocument.wordprocessingml.document\"\r\n                    )\r\n                ) ||\r\n                keccak256(abi.encodePacked(_fileType)) ==\r\n                keccak256(abi.encodePacked(\"application/pdf\"))\r\n        );\r\n        require(bytes(_fileName).length > 0);\r\n        // Make sure uploader address exists\r\n        require(msg.sender != address(0));\r\n        // Make sure file size is more than 0\r\n        require(_fileSize > 0);\r\n        require(_fileID > 0 && _fileID <= fileIDs);\r\n        require(_changeValue >= 0);\r\n\r\n        // update current file\r\n        files[_fileID].fileHash = _fileHash;\r\n        files[_fileID].fileSize = _fileSize;\r\n        files[_fileID].fileType = _fileType;\r\n        files[_fileID].fileName = _fileName;\r\n        files[_fileID].uploadTime = block.timestamp;\r\n        files[_fileID].uploader = msg.sender;\r\n        files[_fileID].lastChange = _changeValue;\r\n        files[_fileID].lastSize = _lastSize;\r\n\r\n        Transaction memory temp;\r\n        temp.userAddress = msg.sender;\r\n        temp.userName = user[msg.sender].name;\r\n        temp.fileId = _fileID;\r\n        temp.fileName = files[_fileID].fileName;\r\n        temp.fileHash = _fileHash;\r\n        temp.fileSize = _fileSize;\r\n        temp.transactionType = \"UPDATE\";\r\n        temp.changeLevel = _changeValue;\r\n        temp.uploadTime = block.timestamp;\r\n        temp.lastSize = _lastSize;\r\n        transactions.push(temp);\r\n\r\n        transactionCount++;\r\n        // Trigger an event\r\n        emit FileUpdated(\r\n            _fileHash,\r\n            _fileSize,\r\n            _fileType,\r\n            _fileName,\r\n            block.timestamp,\r\n            msg.sender,\r\n            _changeValue,\r\n            _lastSize\r\n        );\r\n    }\r\n\r\n    function getFile(uint256 _fileID) public view returns (File memory) {\r\n        return files[_fileID];\r\n    }\r\n\r\n    function deleteFile(uint256 _fileID) public {\r\n        //require(_fileID.length > 0);\r\n        // for (uint256 i = 0; i < _fileID.length; i++) {\r\n        Transaction memory temp;\r\n        temp.userAddress = msg.sender;\r\n        temp.userName = user[msg.sender].name;\r\n        temp.fileId = _fileID;\r\n        temp.fileName = files[_fileID].fileName;\r\n        temp.fileHash = files[_fileID].fileHash;\r\n        temp.fileSize = files[_fileID].fileSize;\r\n        temp.transactionType = \"DELETE\";\r\n        temp.changeLevel = 0;\r\n        temp.uploadTime = block.timestamp;\r\n\r\n        if (files[_fileID].isPrivate == false) {\r\n            transactions.push(temp);\r\n\r\n            transactionCount++;\r\n            delete files[_fileID];\r\n            fileNum -= 1;\r\n        } else if (files[_fileID].isPrivate == true) {\r\n            if (files[_fileID].uploader == msg.sender) {\r\n                transactions.push(temp);\r\n                transactionCount++;\r\n                delete files[_fileID];\r\n                fileNum -= 1;\r\n            } else {\r\n                for (\r\n                    uint256 i = 0;\r\n                    i < files[_fileID].allowedUsers.length;\r\n                    i++\r\n                ) {\r\n                    if (files[_fileID].allowedUsers[i] == msg.sender) {\r\n                        transactions.push(temp);\r\n                        transactionCount++;\r\n                        delete files[_fileID];\r\n                        fileNum -= 1;\r\n                    }\r\n                }\r\n            }\r\n        }\r\n\r\n        // }\r\n    }\r\n\r\n    // user registration function\r\n    function register(\r\n        address _address,\r\n        string memory _name,\r\n        string memory _password\r\n    ) public returns (bool) {\r\n        require(user[_address].addr != msg.sender);\r\n        user[_address].addr = _address;\r\n        user[_address].name = _name;\r\n        user[_address].password = _password;\r\n        user[_address].isUserLoggedIn = false;\r\n        return true;\r\n    }\r\n\r\n    // user login function\r\n    function login(address _address, string memory _password)\r\n        public\r\n        returns (bool)\r\n    {\r\n        if (\r\n            keccak256(abi.encodePacked(user[_address].password)) ==\r\n            keccak256(abi.encodePacked(_password))\r\n        ) {\r\n            user[_address].isUserLoggedIn = true;\r\n            return user[_address].isUserLoggedIn;\r\n        } else {\r\n            return false;\r\n        }\r\n    }\r\n\r\n    // check the user logged In or not\r\n    function checkIsUserLogged(address _address) public view returns (bool) {\r\n        return (user[_address].isUserLoggedIn);\r\n    }\r\n\r\n    function checkUserName(address _address)\r\n        public\r\n        view\r\n        returns (string memory)\r\n    {\r\n        return (user[_address].name);\r\n    }\r\n\r\n    // logout the user\r\n    function logout(address _address) public {\r\n        user[_address].isUserLoggedIn = false;\r\n    }\r\n\r\n    function getAllTransactions() public view returns (Transaction[] memory) {\r\n        return transactions;\r\n    }\r\n}\r\n",
  "sourcePath": "C:\\Users\\Shaun\\Desktop\\THESIS\\thesis- testing-FINAL\\contracts\\SimpleStorage.sol",
  "compiler": {
    "name": "solc",
    "version": "0.8.13+commit.abaa5c0e.Emscripten.clang"
  },
  "schemaVersion": "3.4.3",
  "updatedAt": "2022-05-14T14:38:51.176Z",
  "networkType": "ethereum",
  "devdoc": {
    "kind": "dev",
    "methods": {},
    "version": 1
  },
  "userdoc": {
    "kind": "user",
    "methods": {},
    "version": 1
  }
}