{
  "contractName": "SimpleStorage",
  "abi": [
    {
      "inputs": [],
      "stateMutability": "nonpayable",
      "type": "constructor"
    },
    {
      "anonymous": false,
      "inputs": [
        {
          "indexed": false,
          "internalType": "uint256",
          "name": "fileId",
          "type": "uint256"
        },
        {
          "indexed": false,
          "internalType": "string",
          "name": "fileHash",
          "type": "string"
        },
        {
          "indexed": false,
          "internalType": "uint256",
          "name": "fileSize",
          "type": "uint256"
        },
        {
          "indexed": false,
          "internalType": "string",
          "name": "fileType",
          "type": "string"
        },
        {
          "indexed": false,
          "internalType": "string",
          "name": "fileName",
          "type": "string"
        },
        {
          "indexed": false,
          "internalType": "string",
          "name": "fileDescription",
          "type": "string"
        },
        {
          "indexed": false,
          "internalType": "uint256",
          "name": "uploadTime",
          "type": "uint256"
        },
        {
          "indexed": false,
          "internalType": "address",
          "name": "uploader",
          "type": "address"
        }
      ],
      "name": "FileUploaded",
      "type": "event"
    },
    {
      "anonymous": false,
      "inputs": [
        {
          "components": [
            {
              "internalType": "address",
              "name": "userAddress",
              "type": "address"
            },
            {
              "internalType": "string",
              "name": "userName",
              "type": "string"
            },
            {
              "internalType": "string",
              "name": "fileName",
              "type": "string"
            },
            {
              "internalType": "string",
              "name": "fileHash",
              "type": "string"
            },
            {
              "internalType": "string",
              "name": "transactionType",
              "type": "string"
            },
            {
              "internalType": "uint256",
              "name": "changeLevel",
              "type": "uint256"
            }
          ],
          "indexed": false,
          "internalType": "struct SimpleStorage.Transaction",
          "name": "temp",
          "type": "tuple"
        }
      ],
      "name": "transactionAdded",
      "type": "event"
    },
    {
      "inputs": [],
      "name": "fileCount",
      "outputs": [
        {
          "internalType": "uint256",
          "name": "",
          "type": "uint256"
        }
      ],
      "stateMutability": "view",
      "type": "function"
    },
    {
      "inputs": [
        {
          "internalType": "uint256",
          "name": "",
          "type": "uint256"
        }
      ],
      "name": "files",
      "outputs": [
        {
          "internalType": "uint256",
          "name": "fileId",
          "type": "uint256"
        },
        {
          "internalType": "string",
          "name": "fileHash",
          "type": "string"
        },
        {
          "internalType": "uint256",
          "name": "fileSize",
          "type": "uint256"
        },
        {
          "internalType": "string",
          "name": "fileType",
          "type": "string"
        },
        {
          "internalType": "string",
          "name": "fileName",
          "type": "string"
        },
        {
          "internalType": "string",
          "name": "fileDescription",
          "type": "string"
        },
        {
          "internalType": "uint256",
          "name": "uploadTime",
          "type": "uint256"
        },
        {
          "internalType": "address",
          "name": "uploader",
          "type": "address"
        }
      ],
      "stateMutability": "view",
      "type": "function"
    },
    {
      "inputs": [],
      "name": "name",
      "outputs": [
        {
          "internalType": "string",
          "name": "",
          "type": "string"
        }
      ],
      "stateMutability": "view",
      "type": "function"
    },
    {
      "inputs": [],
      "name": "transactionCount",
      "outputs": [
        {
          "internalType": "uint256",
          "name": "",
          "type": "uint256"
        }
      ],
      "stateMutability": "view",
      "type": "function"
    },
    {
      "inputs": [
        {
          "internalType": "string",
          "name": "_fileHash",
          "type": "string"
        },
        {
          "internalType": "uint256",
          "name": "_fileSize",
          "type": "uint256"
        },
        {
          "internalType": "string",
          "name": "_fileType",
          "type": "string"
        },
        {
          "internalType": "string",
          "name": "_fileName",
          "type": "string"
        },
        {
          "internalType": "string",
          "name": "_fileDescription",
          "type": "string"
        }
      ],
      "name": "uploadFile",
      "outputs": [],
      "stateMutability": "nonpayable",
      "type": "function"
    },
    {
      "inputs": [
        {
          "internalType": "address",
          "name": "_address",
          "type": "address"
        },
        {
          "internalType": "string",
          "name": "_name",
          "type": "string"
        },
        {
          "internalType": "string",
          "name": "_password",
          "type": "string"
        }
      ],
      "name": "register",
      "outputs": [
        {
          "internalType": "bool",
          "name": "",
          "type": "bool"
        }
      ],
      "stateMutability": "nonpayable",
      "type": "function"
    },
    {
      "inputs": [
        {
          "internalType": "address",
          "name": "_address",
          "type": "address"
        },
        {
          "internalType": "string",
          "name": "_password",
          "type": "string"
        }
      ],
      "name": "login",
      "outputs": [
        {
          "internalType": "bool",
          "name": "",
          "type": "bool"
        }
      ],
      "stateMutability": "nonpayable",
      "type": "function"
    },
    {
      "inputs": [
        {
          "internalType": "address",
          "name": "_address",
          "type": "address"
        }
      ],
      "name": "checkIsUserLogged",
      "outputs": [
        {
          "internalType": "bool",
          "name": "",
          "type": "bool"
        }
      ],
      "stateMutability": "view",
      "type": "function"
    },
    {
      "inputs": [
        {
          "internalType": "address",
          "name": "_address",
          "type": "address"
        }
      ],
      "name": "logout",
      "outputs": [],
      "stateMutability": "nonpayable",
      "type": "function"
    },
    {
      "inputs": [
        {
          "internalType": "address",
          "name": "_userAddress",
          "type": "address"
        },
        {
          "internalType": "string",
          "name": "_userName",
          "type": "string"
        },
        {
          "internalType": "string",
          "name": "_fileName",
          "type": "string"
        },
        {
          "internalType": "string",
          "name": "_fileHash",
          "type": "string"
        },
        {
          "internalType": "string",
          "name": "_transactionType",
          "type": "string"
        },
        {
          "internalType": "uint256",
          "name": "_changeLevel",
          "type": "uint256"
        }
      ],
      "name": "addTransaction",
      "outputs": [],
      "stateMutability": "nonpayable",
      "type": "function"
    },
    {
      "inputs": [
        {
          "internalType": "uint256",
          "name": "x",
          "type": "uint256"
        }
      ],
      "name": "set",
      "outputs": [],
      "stateMutability": "nonpayable",
      "type": "function"
    },
    {
      "inputs": [],
      "name": "get",
      "outputs": [
        {
          "internalType": "uint256",
          "name": "",
          "type": "uint256"
        }
      ],
      "stateMutability": "view",
      "type": "function"
    }
  ],
  "bytecode": "0x60806040526040518060400160405280600b81526020017f4172636853746f72616765000000000000000000000000000000000000000000815250600090805190602001906200005192919062000070565b50600060025560006003553480156200006957600080fd5b5062000185565b8280546200007e906200014f565b90600052602060002090601f016020900481019282620000a25760008555620000ee565b82601f10620000bd57805160ff1916838001178555620000ee565b82800160010185558215620000ee579182015b82811115620000ed578251825591602001919060010190620000d0565b5b509050620000fd919062000101565b5090565b5b808211156200011c57600081600090555060010162000102565b5090565b7f4e487b7100000000000000000000000000000000000000000000000000000000600052602260045260246000fd5b600060028204905060018216806200016857607f821691505b602082108114156200017f576200017e62000120565b5b50919050565b61189280620001956000396000f3fe608060405234801561001057600080fd5b50600436106100b45760003560e01c80638d59cc02116100715780638d59cc021461018f578063b77bf600146101bf578063cc51f9b9146101dd578063d4e4b44f146101f9578063e82d9d3314610215578063f4c714b414610231576100b4565b806306fdde03146100b9578063297f7b39146100d75780632f19d50b14610107578063439535191461013757806360fe47b1146101555780636d4ce63c14610171575b600080fd5b6100c1610268565b6040516100ce9190610f2c565b60405180910390f35b6100f160048036038101906100ec9190610fc0565b6102f6565b6040516100fe9190611008565b60405180910390f35b610121600480360381019061011c9190611158565b61034f565b60405161012e9190611008565b60405180910390f35b61013f6104a3565b60405161014c91906111cd565b60405180910390f35b61016f600480360381019061016a9190611214565b6104a9565b005b6101796104b3565b60405161018691906111cd565b60405180910390f35b6101a960048036038101906101a49190611241565b6104bd565b6040516101b69190611008565b60405180910390f35b6101c76106ef565b6040516101d491906111cd565b60405180910390f35b6101f760048036038101906101f29190610fc0565b6106f5565b005b610213600480360381019061020e91906112cc565b610753565b005b61022f600480360381019061022a91906113c9565b6108f4565b005b61024b60048036038101906102469190611214565b610b1c565b60405161025f9897969594939291906114c3565b60405180910390f35b600080546102759061158c565b80601f01602080910402602001604051908101604052809291908181526020018280546102a19061158c565b80156102ee5780601f106102c3576101008083540402835291602001916102ee565b820191906000526020600020905b8154815290600101906020018083116102d157829003601f168201915b505050505081565b6000600560008373ffffffffffffffffffffffffffffffffffffffff1673ffffffffffffffffffffffffffffffffffffffff16815260200190815260200160002060030160009054906101000a900460ff169050919050565b60008160405160200161036291906115fa565b60405160208183030381529060405280519060200120600560008573ffffffffffffffffffffffffffffffffffffffff1673ffffffffffffffffffffffffffffffffffffffff1681526020019081526020016000206002016040516020016103ca91906116a5565b604051602081830303815290604052805190602001201415610498576001600560008573ffffffffffffffffffffffffffffffffffffffff1673ffffffffffffffffffffffffffffffffffffffff16815260200190815260200160002060030160006101000a81548160ff021916908315150217905550600560008473ffffffffffffffffffffffffffffffffffffffff1673ffffffffffffffffffffffffffffffffffffffff16815260200190815260200160002060030160009054906101000a900460ff16905061049d565b600090505b92915050565b60025481565b8060018190555050565b6000600154905090565b60003373ffffffffffffffffffffffffffffffffffffffff16600560008673ffffffffffffffffffffffffffffffffffffffff1673ffffffffffffffffffffffffffffffffffffffff16815260200190815260200160002060000160009054906101000a900473ffffffffffffffffffffffffffffffffffffffff1673ffffffffffffffffffffffffffffffffffffffff16141561055a57600080fd5b83600560008673ffffffffffffffffffffffffffffffffffffffff1673ffffffffffffffffffffffffffffffffffffffff16815260200190815260200160002060000160006101000a81548173ffffffffffffffffffffffffffffffffffffffff021916908373ffffffffffffffffffffffffffffffffffffffff16021790555082600560008673ffffffffffffffffffffffffffffffffffffffff1673ffffffffffffffffffffffffffffffffffffffff1681526020019081526020016000206001019080519060200190610631929190610da4565b5081600560008673ffffffffffffffffffffffffffffffffffffffff1673ffffffffffffffffffffffffffffffffffffffff1681526020019081526020016000206002019080519060200190610688929190610da4565b506000600560008673ffffffffffffffffffffffffffffffffffffffff1673ffffffffffffffffffffffffffffffffffffffff16815260200190815260200160002060030160006101000a81548160ff021916908315150217905550600190509392505050565b60035481565b6000600560008373ffffffffffffffffffffffffffffffffffffffff1673ffffffffffffffffffffffffffffffffffffffff16815260200190815260200160002060030160006101000a81548160ff02191690831515021790555050565b61075b610e2a565b86816000019073ffffffffffffffffffffffffffffffffffffffff16908173ffffffffffffffffffffffffffffffffffffffff1681525050858160200181905250848160400181905250838160600181905250828160800181905250818160a0018181525050600681908060018154018082558091505060019003906000526020600020906006020160009091909190915060008201518160000160006101000a81548173ffffffffffffffffffffffffffffffffffffffff021916908373ffffffffffffffffffffffffffffffffffffffff1602179055506020820151816001019080519060200190610850929190610da4565b50604082015181600201908051906020019061086d929190610da4565b50606082015181600301908051906020019061088a929190610da4565b5060808201518160040190805190602001906108a7929190610da4565b5060a0820151816005015550507f897e76da2d94a69f1b5fe49fbfaad74b594c8f6ac305f0e001f46baeb92a0fc8816040516108e391906117c2565b60405180910390a150505050505050565b600085511161090257600080fd5b600083511161091057600080fd5b600081511161091e57600080fd5b600082511161092c57600080fd5b600073ffffffffffffffffffffffffffffffffffffffff163373ffffffffffffffffffffffffffffffffffffffff16141561096657600080fd5b6000841161097357600080fd5b6002600081548092919061098690611813565b919050555060405180610100016040528060025481526020018681526020018581526020018481526020018381526020018281526020014281526020013373ffffffffffffffffffffffffffffffffffffffff16815250600460006002548152602001908152602001600020600082015181600001556020820151816001019080519060200190610a18929190610da4565b50604082015181600201556060820151816003019080519060200190610a3f929190610da4565b506080820151816004019080519060200190610a5c929190610da4565b5060a0820151816005019080519060200190610a79929190610da4565b5060c0820151816006015560e08201518160070160006101000a81548173ffffffffffffffffffffffffffffffffffffffff021916908373ffffffffffffffffffffffffffffffffffffffff1602179055509050507f6e95bbaa37a5fdec42a312e049dea2fe6160ebe659214d3409b4f91f164c2f5260025486868686864233604051610b0d9897969594939291906114c3565b60405180910390a15050505050565b6004602052806000526040600020600091509050806000015490806001018054610b459061158c565b80601f0160208091040260200160405190810160405280929190818152602001828054610b719061158c565b8015610bbe5780601f10610b9357610100808354040283529160200191610bbe565b820191906000526020600020905b815481529060010190602001808311610ba157829003601f168201915b505050505090806002015490806003018054610bd99061158c565b80601f0160208091040260200160405190810160405280929190818152602001828054610c059061158c565b8015610c525780601f10610c2757610100808354040283529160200191610c52565b820191906000526020600020905b815481529060010190602001808311610c3557829003601f168201915b505050505090806004018054610c679061158c565b80601f0160208091040260200160405190810160405280929190818152602001828054610c939061158c565b8015610ce05780601f10610cb557610100808354040283529160200191610ce0565b820191906000526020600020905b815481529060010190602001808311610cc357829003601f168201915b505050505090806005018054610cf59061158c565b80601f0160208091040260200160405190810160405280929190818152602001828054610d219061158c565b8015610d6e5780601f10610d4357610100808354040283529160200191610d6e565b820191906000526020600020905b815481529060010190602001808311610d5157829003601f168201915b5050505050908060060154908060070160009054906101000a900473ffffffffffffffffffffffffffffffffffffffff16905088565b828054610db09061158c565b90600052602060002090601f016020900481019282610dd25760008555610e19565b82601f10610deb57805160ff1916838001178555610e19565b82800160010185558215610e19579182015b82811115610e18578251825591602001919060010190610dfd565b5b509050610e269190610e76565b5090565b6040518060c00160405280600073ffffffffffffffffffffffffffffffffffffffff16815260200160608152602001606081526020016060815260200160608152602001600081525090565b5b80821115610e8f576000816000905550600101610e77565b5090565b600081519050919050565b600082825260208201905092915050565b60005b83811015610ecd578082015181840152602081019050610eb2565b83811115610edc576000848401525b50505050565b6000601f19601f8301169050919050565b6000610efe82610e93565b610f088185610e9e565b9350610f18818560208601610eaf565b610f2181610ee2565b840191505092915050565b60006020820190508181036000830152610f468184610ef3565b905092915050565b6000604051905090565b600080fd5b600080fd5b600073ffffffffffffffffffffffffffffffffffffffff82169050919050565b6000610f8d82610f62565b9050919050565b610f9d81610f82565b8114610fa857600080fd5b50565b600081359050610fba81610f94565b92915050565b600060208284031215610fd657610fd5610f58565b5b6000610fe484828501610fab565b91505092915050565b60008115159050919050565b61100281610fed565b82525050565b600060208201905061101d6000830184610ff9565b92915050565b600080fd5b600080fd5b7f4e487b7100000000000000000000000000000000000000000000000000000000600052604160045260246000fd5b61106582610ee2565b810181811067ffffffffffffffff821117156110845761108361102d565b5b80604052505050565b6000611097610f4e565b90506110a3828261105c565b919050565b600067ffffffffffffffff8211156110c3576110c261102d565b5b6110cc82610ee2565b9050602081019050919050565b82818337600083830152505050565b60006110fb6110f6846110a8565b61108d565b90508281526020810184848401111561111757611116611028565b5b6111228482856110d9565b509392505050565b600082601f83011261113f5761113e611023565b5b813561114f8482602086016110e8565b91505092915050565b6000806040838503121561116f5761116e610f58565b5b600061117d85828601610fab565b925050602083013567ffffffffffffffff81111561119e5761119d610f5d565b5b6111aa8582860161112a565b9150509250929050565b6000819050919050565b6111c7816111b4565b82525050565b60006020820190506111e260008301846111be565b92915050565b6111f1816111b4565b81146111fc57600080fd5b50565b60008135905061120e816111e8565b92915050565b60006020828403121561122a57611229610f58565b5b6000611238848285016111ff565b91505092915050565b60008060006060848603121561125a57611259610f58565b5b600061126886828701610fab565b935050602084013567ffffffffffffffff81111561128957611288610f5d565b5b6112958682870161112a565b925050604084013567ffffffffffffffff8111156112b6576112b5610f5d565b5b6112c28682870161112a565b9150509250925092565b60008060008060008060c087890312156112e9576112e8610f58565b5b60006112f789828a01610fab565b965050602087013567ffffffffffffffff81111561131857611317610f5d565b5b61132489828a0161112a565b955050604087013567ffffffffffffffff81111561134557611344610f5d565b5b61135189828a0161112a565b945050606087013567ffffffffffffffff81111561137257611371610f5d565b5b61137e89828a0161112a565b935050608087013567ffffffffffffffff81111561139f5761139e610f5d565b5b6113ab89828a0161112a565b92505060a06113bc89828a016111ff565b9150509295509295509295565b600080600080600060a086880312156113e5576113e4610f58565b5b600086013567ffffffffffffffff81111561140357611402610f5d565b5b61140f8882890161112a565b9550506020611420888289016111ff565b945050604086013567ffffffffffffffff81111561144157611440610f5d565b5b61144d8882890161112a565b935050606086013567ffffffffffffffff81111561146e5761146d610f5d565b5b61147a8882890161112a565b925050608086013567ffffffffffffffff81111561149b5761149a610f5d565b5b6114a78882890161112a565b9150509295509295909350565b6114bd81610f82565b82525050565b6000610100820190506114d9600083018b6111be565b81810360208301526114eb818a610ef3565b90506114fa60408301896111be565b818103606083015261150c8188610ef3565b905081810360808301526115208187610ef3565b905081810360a08301526115348186610ef3565b905061154360c08301856111be565b61155060e08301846114b4565b9998505050505050505050565b7f4e487b7100000000000000000000000000000000000000000000000000000000600052602260045260246000fd5b600060028204905060018216806115a457607f821691505b602082108114156115b8576115b761155d565b5b50919050565b600081905092915050565b60006115d482610e93565b6115de81856115be565b93506115ee818560208601610eaf565b80840191505092915050565b600061160682846115c9565b915081905092915050565b60008190508160005260206000209050919050565b600081546116338161158c565b61163d81866115be565b9450600182166000811461165857600181146116695761169c565b60ff1983168652818601935061169c565b61167285611611565b60005b8381101561169457815481890152600182019150602081019050611675565b838801955050505b50505092915050565b60006116b18284611626565b915081905092915050565b6116c581610f82565b82525050565b600082825260208201905092915050565b60006116e782610e93565b6116f181856116cb565b9350611701818560208601610eaf565b61170a81610ee2565b840191505092915050565b61171e816111b4565b82525050565b600060c08301600083015161173c60008601826116bc565b506020830151848203602086015261175482826116dc565b9150506040830151848203604086015261176e82826116dc565b9150506060830151848203606086015261178882826116dc565b915050608083015184820360808601526117a282826116dc565b91505060a08301516117b760a0860182611715565b508091505092915050565b600060208201905081810360008301526117dc8184611724565b905092915050565b7f4e487b7100000000000000000000000000000000000000000000000000000000600052601160045260246000fd5b600061181e826111b4565b91507fffffffffffffffffffffffffffffffffffffffffffffffffffffffffffffffff821415611851576118506117e4565b5b60018201905091905056fea2646970667358221220b68e0c2949d326f07accb6c72d65991a1a67ccfa533b97c0bb08cc5929c9247564736f6c634300080b0033",
  "immutableReferences": {},
  "source": "// SPDX-License-Identifier: MIT\npragma solidity ^0.8.0;\n\ncontract SimpleStorage {\n    // data\n    string public name = \"ArchStorage\";\n    uint256 storedData;\n\n    uint256 public fileCount = 0;\n    uint256 public transactionCount = 0;\n    mapping(uint256 => File) public files;\n    mapping(address => UserDetail) user;\n\n    struct File {\n        uint256 fileId;\n        string fileHash;\n        uint256 fileSize;\n        string fileType;\n        string fileName;\n        string fileDescription;\n        uint256 uploadTime;\n        address uploader;\n    }\n\n    struct UserDetail {\n        address addr;\n        string name;\n        string password;\n        bool isUserLoggedIn;\n    }\n\n    struct Transaction {\n        address userAddress;\n        string userName;\n        string fileName;\n        string fileHash;\n        string transactionType;\n        uint256 changeLevel;\n    }\n    Transaction[] transactions;\n\n    //events\n\n    event transactionAdded(Transaction temp);\n\n    event FileUploaded(\n        uint256 fileId,\n        string fileHash,\n        uint256 fileSize,\n        string fileType,\n        string fileName,\n        string fileDescription,\n        uint256 uploadTime,\n        address uploader\n    );\n\n    constructor() public {}\n\n    function uploadFile(\n        string memory _fileHash,\n        uint256 _fileSize,\n        string memory _fileType,\n        string memory _fileName,\n        string memory _fileDescription\n    ) public {\n        // Make sure the file hash exists\n        require(bytes(_fileHash).length > 0);\n        // Make sure file type exists\n        require(bytes(_fileType).length > 0);\n        // Make sure file description exists\n        require(bytes(_fileDescription).length > 0);\n        // Make sure file fileName exists\n        require(bytes(_fileName).length > 0);\n        // Make sure uploader address exists\n        require(msg.sender != address(0));\n        // Make sure file size is more than 0\n        require(_fileSize > 0);\n\n        // Increment file id\n        fileCount++;\n\n        // Add File to the contract\n        files[fileCount] = File(\n            fileCount,\n            _fileHash,\n            _fileSize,\n            _fileType,\n            _fileName,\n            _fileDescription,\n            block.timestamp,\n            msg.sender\n        );\n        // Trigger an event\n        emit FileUploaded(\n            fileCount,\n            _fileHash,\n            _fileSize,\n            _fileType,\n            _fileName,\n            _fileDescription,\n            block.timestamp,\n            msg.sender\n        );\n    }\n\n    // user registration function\n    function register(\n        address _address,\n        string memory _name,\n        string memory _password\n    ) public returns (bool) {\n        require(user[_address].addr != msg.sender);\n        user[_address].addr = _address;\n        user[_address].name = _name;\n        user[_address].password = _password;\n        user[_address].isUserLoggedIn = false;\n        return true;\n    }\n\n    // user login function\n    function login(address _address, string memory _password)\n        public\n        returns (bool)\n    {\n        if (\n            keccak256(abi.encodePacked(user[_address].password)) ==\n            keccak256(abi.encodePacked(_password))\n        ) {\n            user[_address].isUserLoggedIn = true;\n            return user[_address].isUserLoggedIn;\n        } else {\n            return false;\n        }\n    }\n\n    // check the user logged In or not\n    function checkIsUserLogged(address _address) public view returns (bool) {\n        return (user[_address].isUserLoggedIn);\n    }\n\n    // logout the user\n    function logout(address _address) public {\n        user[_address].isUserLoggedIn = false;\n    }\n\n    function addTransaction(\n        address _userAddress,\n        string memory _userName,\n        string memory _fileName,\n        string memory _fileHash,\n        string memory _transactionType,\n        uint256 _changeLevel\n    ) public {\n        Transaction memory temp;\n        temp.userAddress = _userAddress;\n        temp.userName = _userName;\n        temp.fileName = _fileName;\n        temp.fileHash = _fileHash;\n        temp.transactionType = _transactionType;\n        temp.changeLevel = _changeLevel;\n        transactions.push(temp);\n\n        emit transactionAdded(temp);\n        /*\n        emit transactionAdded(\n            _userAddress,\n            _userName,\n            _fileName,\n            _fileHash,\n            _transactionType,\n            _changeLevel\n        );\n        */\n    }\n\n    function set(uint256 x) public {\n        storedData = x;\n    }\n\n    function get() public view returns (uint256) {\n        return storedData;\n    }\n}\n",
  "sourcePath": "C:\\Users\\Shaun\\Desktop\\THESIS\\eth-archive-test\\contracts\\SimpleStorage.sol",
  "compiler": {
    "name": "solc",
    "version": "0.8.11+commit.d7f03943.Emscripten.clang"
  },
  "schemaVersion": "3.4.3",
  "updatedAt": "2021-12-24T10:27:46.998Z",
  "devdoc": {
    "kind": "dev",
    "methods": {},
    "version": 1
  },
  "userdoc": {
    "kind": "user",
    "methods": {},
    "version": 1
  }
}