{
  "contractName": "SimpleStorage",
  "abi": [
    {
      "inputs": [],
      "stateMutability": "nonpayable",
      "type": "constructor"
    },
    {
      "anonymous": false,
      "inputs": [
        {
          "indexed": false,
          "internalType": "string",
          "name": "fileHash",
          "type": "string"
        },
        {
          "indexed": false,
          "internalType": "uint256",
          "name": "fileSize",
          "type": "uint256"
        },
        {
          "indexed": false,
          "internalType": "string",
          "name": "fileType",
          "type": "string"
        },
        {
          "indexed": false,
          "internalType": "string",
          "name": "fileName",
          "type": "string"
        },
        {
          "indexed": false,
          "internalType": "uint256",
          "name": "uploadTime",
          "type": "uint256"
        },
        {
          "indexed": false,
          "internalType": "address",
          "name": "uploader",
          "type": "address"
        },
        {
          "indexed": false,
          "internalType": "uint256",
          "name": "lastChange",
          "type": "uint256"
        },
        {
          "indexed": false,
          "internalType": "uint256",
          "name": "lastSize",
          "type": "uint256"
        },
        {
          "indexed": false,
          "internalType": "bool",
          "name": "isPrivate",
          "type": "bool"
        },
        {
          "indexed": false,
          "internalType": "string[]",
          "name": "allowedUsers",
          "type": "string[]"
        }
      ],
      "name": "FileUpdated",
      "type": "event"
    },
    {
      "anonymous": false,
      "inputs": [
        {
          "indexed": false,
          "internalType": "uint256",
          "name": "fileId",
          "type": "uint256"
        },
        {
          "indexed": false,
          "internalType": "string",
          "name": "fileHash",
          "type": "string"
        },
        {
          "indexed": false,
          "internalType": "uint256",
          "name": "fileSize",
          "type": "uint256"
        },
        {
          "indexed": false,
          "internalType": "string",
          "name": "fileType",
          "type": "string"
        },
        {
          "indexed": false,
          "internalType": "string",
          "name": "fileName",
          "type": "string"
        },
        {
          "indexed": false,
          "internalType": "string",
          "name": "fileDescription",
          "type": "string"
        },
        {
          "indexed": false,
          "internalType": "uint256",
          "name": "uploadTime",
          "type": "uint256"
        },
        {
          "indexed": false,
          "internalType": "address",
          "name": "uploader",
          "type": "address"
        },
        {
          "indexed": false,
          "internalType": "uint256",
          "name": "lastChange",
          "type": "uint256"
        },
        {
          "indexed": false,
          "internalType": "uint256",
          "name": "lastSize",
          "type": "uint256"
        },
        {
          "indexed": false,
          "internalType": "bool",
          "name": "isPrivate",
          "type": "bool"
        },
        {
          "indexed": false,
          "internalType": "string[]",
          "name": "allowedUsers",
          "type": "string[]"
        }
      ],
      "name": "FileUploaded",
      "type": "event"
    },
    {
      "inputs": [],
      "name": "fileIDs",
      "outputs": [
        {
          "internalType": "uint256",
          "name": "",
          "type": "uint256"
        }
      ],
      "stateMutability": "view",
      "type": "function",
      "constant": true
    },
    {
      "inputs": [],
      "name": "fileNum",
      "outputs": [
        {
          "internalType": "uint256",
          "name": "",
          "type": "uint256"
        }
      ],
      "stateMutability": "view",
      "type": "function",
      "constant": true
    },
    {
      "inputs": [
        {
          "internalType": "uint256",
          "name": "",
          "type": "uint256"
        }
      ],
      "name": "files",
      "outputs": [
        {
          "internalType": "uint256",
          "name": "fileId",
          "type": "uint256"
        },
        {
          "internalType": "string",
          "name": "fileHash",
          "type": "string"
        },
        {
          "internalType": "uint256",
          "name": "fileSize",
          "type": "uint256"
        },
        {
          "internalType": "string",
          "name": "fileType",
          "type": "string"
        },
        {
          "internalType": "string",
          "name": "fileName",
          "type": "string"
        },
        {
          "internalType": "string",
          "name": "fileDescription",
          "type": "string"
        },
        {
          "internalType": "uint256",
          "name": "uploadTime",
          "type": "uint256"
        },
        {
          "internalType": "address",
          "name": "uploader",
          "type": "address"
        },
        {
          "internalType": "uint256",
          "name": "lastChange",
          "type": "uint256"
        },
        {
          "internalType": "uint256",
          "name": "lastSize",
          "type": "uint256"
        },
        {
          "internalType": "bool",
          "name": "isPrivate",
          "type": "bool"
        }
      ],
      "stateMutability": "view",
      "type": "function",
      "constant": true
    },
    {
      "inputs": [],
      "name": "name",
      "outputs": [
        {
          "internalType": "string",
          "name": "",
          "type": "string"
        }
      ],
      "stateMutability": "view",
      "type": "function",
      "constant": true
    },
    {
      "inputs": [],
      "name": "transactionCount",
      "outputs": [
        {
          "internalType": "uint256",
          "name": "",
          "type": "uint256"
        }
      ],
      "stateMutability": "view",
      "type": "function",
      "constant": true
    },
    {
      "inputs": [
        {
          "internalType": "string",
          "name": "_fileHash",
          "type": "string"
        },
        {
          "internalType": "uint256",
          "name": "_fileSize",
          "type": "uint256"
        },
        {
          "internalType": "string",
          "name": "_fileType",
          "type": "string"
        },
        {
          "internalType": "string",
          "name": "_fileName",
          "type": "string"
        },
        {
          "internalType": "string",
          "name": "_fileDescription",
          "type": "string"
        },
        {
          "internalType": "bool",
          "name": "filePrivacy",
          "type": "bool"
        },
        {
          "internalType": "string[]",
          "name": "allowedFileUsers",
          "type": "string[]"
        }
      ],
      "name": "uploadFile",
      "outputs": [],
      "stateMutability": "nonpayable",
      "type": "function"
    },
    {
      "inputs": [
        {
          "internalType": "string",
          "name": "_fileHash",
          "type": "string"
        },
        {
          "internalType": "uint256",
          "name": "_fileSize",
          "type": "uint256"
        },
        {
          "internalType": "string",
          "name": "_fileType",
          "type": "string"
        },
        {
          "internalType": "string",
          "name": "_fileName",
          "type": "string"
        },
        {
          "internalType": "uint256",
          "name": "_fileID",
          "type": "uint256"
        },
        {
          "internalType": "uint256",
          "name": "_changeValue",
          "type": "uint256"
        },
        {
          "internalType": "uint256",
          "name": "_lastSize",
          "type": "uint256"
        },
        {
          "internalType": "bool",
          "name": "filePrivacy",
          "type": "bool"
        },
        {
          "internalType": "string[]",
          "name": "allowedFileUsers",
          "type": "string[]"
        },
        {
          "internalType": "string",
          "name": "_fileDescription",
          "type": "string"
        }
      ],
      "name": "updateFile",
      "outputs": [],
      "stateMutability": "nonpayable",
      "type": "function"
    },
    {
      "inputs": [
        {
          "internalType": "uint256",
          "name": "_fileID",
          "type": "uint256"
        }
      ],
      "name": "getFile",
      "outputs": [
        {
          "components": [
            {
              "internalType": "uint256",
              "name": "fileId",
              "type": "uint256"
            },
            {
              "internalType": "string",
              "name": "fileHash",
              "type": "string"
            },
            {
              "internalType": "uint256",
              "name": "fileSize",
              "type": "uint256"
            },
            {
              "internalType": "string",
              "name": "fileType",
              "type": "string"
            },
            {
              "internalType": "string",
              "name": "fileName",
              "type": "string"
            },
            {
              "internalType": "string",
              "name": "fileDescription",
              "type": "string"
            },
            {
              "internalType": "uint256",
              "name": "uploadTime",
              "type": "uint256"
            },
            {
              "internalType": "address",
              "name": "uploader",
              "type": "address"
            },
            {
              "internalType": "uint256",
              "name": "lastChange",
              "type": "uint256"
            },
            {
              "internalType": "uint256",
              "name": "lastSize",
              "type": "uint256"
            },
            {
              "internalType": "bool",
              "name": "isPrivate",
              "type": "bool"
            },
            {
              "internalType": "string[]",
              "name": "allowedUsers",
              "type": "string[]"
            }
          ],
          "internalType": "struct SimpleStorage.File",
          "name": "",
          "type": "tuple"
        }
      ],
      "stateMutability": "view",
      "type": "function",
      "constant": true
    },
    {
      "inputs": [
        {
          "internalType": "uint256",
          "name": "_fileID",
          "type": "uint256"
        }
      ],
      "name": "deleteFile",
      "outputs": [],
      "stateMutability": "nonpayable",
      "type": "function"
    },
    {
      "inputs": [
        {
          "internalType": "address",
          "name": "_address",
          "type": "address"
        },
        {
          "internalType": "string",
          "name": "_name",
          "type": "string"
        },
        {
          "internalType": "string",
          "name": "_password",
          "type": "string"
        }
      ],
      "name": "register",
      "outputs": [
        {
          "internalType": "bool",
          "name": "",
          "type": "bool"
        }
      ],
      "stateMutability": "nonpayable",
      "type": "function"
    },
    {
      "inputs": [
        {
          "internalType": "address",
          "name": "_address",
          "type": "address"
        },
        {
          "internalType": "string",
          "name": "_password",
          "type": "string"
        }
      ],
      "name": "login",
      "outputs": [
        {
          "internalType": "bool",
          "name": "",
          "type": "bool"
        }
      ],
      "stateMutability": "nonpayable",
      "type": "function"
    },
    {
      "inputs": [
        {
          "internalType": "address",
          "name": "_address",
          "type": "address"
        }
      ],
      "name": "checkIsUserLogged",
      "outputs": [
        {
          "internalType": "bool",
          "name": "",
          "type": "bool"
        }
      ],
      "stateMutability": "view",
      "type": "function",
      "constant": true
    },
    {
      "inputs": [
        {
          "internalType": "address",
          "name": "_address",
          "type": "address"
        }
      ],
      "name": "checkUserName",
      "outputs": [
        {
          "internalType": "string",
          "name": "",
          "type": "string"
        }
      ],
      "stateMutability": "view",
      "type": "function",
      "constant": true
    },
    {
      "inputs": [
        {
          "internalType": "address",
          "name": "_address",
          "type": "address"
        }
      ],
      "name": "logout",
      "outputs": [],
      "stateMutability": "nonpayable",
      "type": "function"
    },
    {
      "inputs": [],
      "name": "getAllTransactions",
      "outputs": [
        {
          "components": [
            {
              "internalType": "address",
              "name": "userAddress",
              "type": "address"
            },
            {
              "internalType": "string",
              "name": "userName",
              "type": "string"
            },
            {
              "internalType": "uint256",
              "name": "fileId",
              "type": "uint256"
            },
            {
              "internalType": "string",
              "name": "fileName",
              "type": "string"
            },
            {
              "internalType": "string",
              "name": "fileHash",
              "type": "string"
            },
            {
              "internalType": "uint256",
              "name": "fileSize",
              "type": "uint256"
            },
            {
              "internalType": "string",
              "name": "transactionType",
              "type": "string"
            },
            {
              "internalType": "uint256",
              "name": "changeLevel",
              "type": "uint256"
            },
            {
              "internalType": "uint256",
              "name": "uploadTime",
              "type": "uint256"
            },
            {
              "internalType": "uint256",
              "name": "lastSize",
              "type": "uint256"
            }
          ],
          "internalType": "struct SimpleStorage.Transaction[]",
          "name": "",
          "type": "tuple[]"
        }
      ],
      "stateMutability": "view",
      "type": "function",
      "constant": true
    },
    {
      "inputs": [
        {
          "internalType": "uint256",
          "name": "fileID",
          "type": "uint256"
        }
      ],
      "name": "getAllowedUsers",
      "outputs": [
        {
          "internalType": "string[]",
          "name": "",
          "type": "string[]"
        }
      ],
      "stateMutability": "view",
      "type": "function",
      "constant": true
    }
  ],
  "bytecode": "0x60806040526040518060400160405280600b81526020017f4172636853746f72616765000000000000000000000000000000000000000000815250600090805190602001906200005192919062000075565b506000600155600060025560006003553480156200006e57600080fd5b5062000189565b828054620000839062000154565b90600052602060002090601f016020900481019282620000a75760008555620000f3565b82601f10620000c257805160ff1916838001178555620000f3565b82800160010185558215620000f3579182015b82811115620000f2578251825591602001919060010190620000d5565b5b50905062000102919062000106565b5090565b5b808211156200012157600081600090555060010162000107565b5090565b7f4e487b7100000000000000000000000000000000000000000000000000000000600052602260045260246000fd5b600060028204905060018216806200016d57607f821691505b60208210810362000183576200018262000125565b5b50919050565b613c2d80620001996000396000f3fe608060405234801561001057600080fd5b50600436106101005760003560e01c80638d59cc0211610097578063c7d45fe411610066578063c7d45fe4146102c3578063c8cc0520146102df578063cc51f9b91461030f578063f4c714b41461032b57610100565b80638d59cc021461023b5780639fb8070a1461026b578063b77bf60014610289578063c5b42006146102a757610100565b80632bfda313116100d35780632bfda3131461018f5780632f19d50b146101bf5780635dd7812c146101ef57806361ea23881461020b57610100565b806306fdde031461010557806325c2e12c1461012357806327506f5314610141578063297f7b391461015f575b600080fd5b61010d610365565b60405161011a919061298e565b60405180910390f35b61012b6103f3565b60405161013891906129c9565b60405180910390f35b6101496103f9565b6040516101569190612c2f565b60405180910390f35b61017960048036038101906101749190612c91565b610729565b6040516101869190612cd9565b60405180910390f35b6101a960048036038101906101a49190612d20565b610782565b6040516101b69190612f3e565b60405180910390f35b6101d960048036038101906101d49190613095565b610b74565b6040516101e69190612cd9565b60405180910390f35b61020960048036038101906102049190613203565b610cc7565b005b61022560048036038101906102209190612c91565b611351565b604051610232919061298e565b60405180910390f35b61025560048036038101906102509190613331565b611425565b6040516102629190612cd9565b60405180910390f35b610273611656565b60405161028091906129c9565b60405180910390f35b61029161165c565b60405161029e91906129c9565b60405180910390f35b6102c160048036038101906102bc9190612d20565b611662565b005b6102dd60048036038101906102d891906133bc565b611b5d565b005b6102f960048036038101906102f49190612d20565b612292565b60405161030691906135ad565b60405180910390f35b61032960048036038101906103249190612c91565b612386565b005b61034560048036038101906103409190612d20565b6123e4565b60405161035c9b9a999897969594939291906135de565b60405180910390f35b60008054610372906136d4565b80601f016020809104026020016040519081016040528092919081815260200182805461039e906136d4565b80156103eb5780601f106103c0576101008083540402835291602001916103eb565b820191906000526020600020905b8154815290600101906020018083116103ce57829003601f168201915b505050505081565b60025481565b60606006805480602002602001604051908101604052809291908181526020016000905b8282101561072057838290600052602060002090600a0201604051806101400160405290816000820160009054906101000a900473ffffffffffffffffffffffffffffffffffffffff1673ffffffffffffffffffffffffffffffffffffffff1673ffffffffffffffffffffffffffffffffffffffff1681526020016001820180546104a7906136d4565b80601f01602080910402602001604051908101604052809291908181526020018280546104d3906136d4565b80156105205780601f106104f557610100808354040283529160200191610520565b820191906000526020600020905b81548152906001019060200180831161050357829003601f168201915b5050505050815260200160028201548152602001600382018054610543906136d4565b80601f016020809104026020016040519081016040528092919081815260200182805461056f906136d4565b80156105bc5780601f10610591576101008083540402835291602001916105bc565b820191906000526020600020905b81548152906001019060200180831161059f57829003601f168201915b505050505081526020016004820180546105d5906136d4565b80601f0160208091040260200160405190810160405280929190818152602001828054610601906136d4565b801561064e5780601f106106235761010080835404028352916020019161064e565b820191906000526020600020905b81548152906001019060200180831161063157829003601f168201915b5050505050815260200160058201548152602001600682018054610671906136d4565b80601f016020809104026020016040519081016040528092919081815260200182805461069d906136d4565b80156106ea5780601f106106bf576101008083540402835291602001916106ea565b820191906000526020600020905b8154815290600101906020018083116106cd57829003601f168201915b5050505050815260200160078201548152602001600882015481526020016009820154815250508152602001906001019061041d565b50505050905090565b6000600560008373ffffffffffffffffffffffffffffffffffffffff1673ffffffffffffffffffffffffffffffffffffffff16815260200190815260200160002060030160009054906101000a900460ff169050919050565b61078a61268b565b6004600083815260200190815260200160002060405180610180016040529081600082015481526020016001820180546107c3906136d4565b80601f01602080910402602001604051908101604052809291908181526020018280546107ef906136d4565b801561083c5780601f106108115761010080835404028352916020019161083c565b820191906000526020600020905b81548152906001019060200180831161081f57829003601f168201915b505050505081526020016002820154815260200160038201805461085f906136d4565b80601f016020809104026020016040519081016040528092919081815260200182805461088b906136d4565b80156108d85780601f106108ad576101008083540402835291602001916108d8565b820191906000526020600020905b8154815290600101906020018083116108bb57829003601f168201915b505050505081526020016004820180546108f1906136d4565b80601f016020809104026020016040519081016040528092919081815260200182805461091d906136d4565b801561096a5780601f1061093f5761010080835404028352916020019161096a565b820191906000526020600020905b81548152906001019060200180831161094d57829003601f168201915b50505050508152602001600582018054610983906136d4565b80601f01602080910402602001604051908101604052809291908181526020018280546109af906136d4565b80156109fc5780601f106109d1576101008083540402835291602001916109fc565b820191906000526020600020905b8154815290600101906020018083116109df57829003601f168201915b50505050508152602001600682015481526020016007820160009054906101000a900473ffffffffffffffffffffffffffffffffffffffff1673ffffffffffffffffffffffffffffffffffffffff1673ffffffffffffffffffffffffffffffffffffffff1681526020016008820154815260200160098201548152602001600a820160009054906101000a900460ff16151515158152602001600b8201805480602002602001604051908101604052809291908181526020016000905b82821015610b65578382906000526020600020018054610ad8906136d4565b80601f0160208091040260200160405190810160405280929190818152602001828054610b04906136d4565b8015610b515780601f10610b2657610100808354040283529160200191610b51565b820191906000526020600020905b815481529060010190602001808311610b3457829003601f168201915b505050505081526020019060010190610ab9565b50505050815250509050919050565b600081604051602001610b879190613741565b60405160208183030381529060405280519060200120600560008573ffffffffffffffffffffffffffffffffffffffff1673ffffffffffffffffffffffffffffffffffffffff168152602001908152602001600020600201604051602001610bef91906137ec565b6040516020818303038152906040528051906020012003610cbc576001600560008573ffffffffffffffffffffffffffffffffffffffff1673ffffffffffffffffffffffffffffffffffffffff16815260200190815260200160002060030160006101000a81548160ff021916908315150217905550600560008473ffffffffffffffffffffffffffffffffffffffff1673ffffffffffffffffffffffffffffffffffffffff16815260200190815260200160002060030160009054906101000a900460ff169050610cc1565b600090505b92915050565b6000875111610cd557600080fd5b6000855111610ce357600080fd5b604051602001610cf29061384f565b6040516020818303038152906040528051906020012085604051602001610d199190613741565b604051602081830303815290604052805190602001201480610d845750604051602001610d45906138fc565b6040516020818303038152906040528051906020012085604051602001610d6c9190613741565b60405160208183030381529060405280519060200120145b80610dd85750604051602001610d999061395d565b6040516020818303038152906040528051906020012085604051602001610dc09190613741565b60405160208183030381529060405280519060200120145b610de157600080fd5b6000835111610def57600080fd5b6000845111610dfd57600080fd5b600073ffffffffffffffffffffffffffffffffffffffff163373ffffffffffffffffffffffffffffffffffffffff1603610e3657600080fd5b60008611610e4357600080fd5b60016000815480929190610e56906139a1565b919050555060026000815480929190610e6e906139a1565b919050555060405180610180016040528060015481526020018881526020018781526020018681526020018581526020018481526020014281526020013373ffffffffffffffffffffffffffffffffffffffff1681526020016000815260200160008152602001831515815260200182815250600460006001548152602001908152602001600020600082015181600001556020820151816001019080519060200190610f1c929190612704565b50604082015181600201556060820151816003019080519060200190610f43929190612704565b506080820151816004019080519060200190610f60929190612704565b5060a0820151816005019080519060200190610f7d929190612704565b5060c0820151816006015560e08201518160070160006101000a81548173ffffffffffffffffffffffffffffffffffffffff021916908373ffffffffffffffffffffffffffffffffffffffff1602179055506101008201518160080155610120820151816009015561014082015181600a0160006101000a81548160ff02191690831515021790555061016082015181600b01908051906020019061102392919061278a565b5090505061102f6127ea565b33816000019073ffffffffffffffffffffffffffffffffffffffff16908173ffffffffffffffffffffffffffffffffffffffff1681525050600560003373ffffffffffffffffffffffffffffffffffffffff1673ffffffffffffffffffffffffffffffffffffffff16815260200190815260200160002060010180546110b4906136d4565b80601f01602080910402602001604051908101604052809291908181526020018280546110e0906136d4565b801561112d5780601f106111025761010080835404028352916020019161112d565b820191906000526020600020905b81548152906001019060200180831161111057829003601f168201915b50505050508160200181905250600154816040018181525050848160600181905250878160800181905250868160a00181815250506040518060400160405280600381526020017f41444400000000000000000000000000000000000000000000000000000000008152508160c0018190525060008160e0018181525050600081610120018181525050428161010001818152505060068190806001815401808255809150506001900390600052602060002090600a020160009091909190915060008201518160000160006101000a81548173ffffffffffffffffffffffffffffffffffffffff021916908373ffffffffffffffffffffffffffffffffffffffff1602179055506020820151816001019080519060200190611251929190612704565b50604082015181600201556060820151816003019080519060200190611278929190612704565b506080820151816004019080519060200190611295929190612704565b5060a0820151816005015560c08201518160060190805190602001906112bc929190612704565b5060e08201518160070155610100820151816008015561012082015181600901555050600360008154809291906112f2906139a1565b91905055507f98a14167b646b749c19f10f397a769e64ee5d644e2c29ee6b42cc0eb555452e9600154898989898942336000808d8d60405161133f9c9b9a99989796959493929190613a2e565b60405180910390a15050505050505050565b6060600560008373ffffffffffffffffffffffffffffffffffffffff1673ffffffffffffffffffffffffffffffffffffffff16815260200190815260200160002060010180546113a0906136d4565b80601f01602080910402602001604051908101604052809291908181526020018280546113cc906136d4565b80156114195780601f106113ee57610100808354040283529160200191611419565b820191906000526020600020905b8154815290600101906020018083116113fc57829003601f168201915b50505050509050919050565b60003373ffffffffffffffffffffffffffffffffffffffff16600560008673ffffffffffffffffffffffffffffffffffffffff1673ffffffffffffffffffffffffffffffffffffffff16815260200190815260200160002060000160009054906101000a900473ffffffffffffffffffffffffffffffffffffffff1673ffffffffffffffffffffffffffffffffffffffff16036114c157600080fd5b83600560008673ffffffffffffffffffffffffffffffffffffffff1673ffffffffffffffffffffffffffffffffffffffff16815260200190815260200160002060000160006101000a81548173ffffffffffffffffffffffffffffffffffffffff021916908373ffffffffffffffffffffffffffffffffffffffff16021790555082600560008673ffffffffffffffffffffffffffffffffffffffff1673ffffffffffffffffffffffffffffffffffffffff1681526020019081526020016000206001019080519060200190611598929190612704565b5081600560008673ffffffffffffffffffffffffffffffffffffffff1673ffffffffffffffffffffffffffffffffffffffff16815260200190815260200160002060020190805190602001906115ef929190612704565b506000600560008673ffffffffffffffffffffffffffffffffffffffff1673ffffffffffffffffffffffffffffffffffffffff16815260200190815260200160002060030160006101000a81548160ff021916908315150217905550600190509392505050565b60015481565b60035481565b61166a6127ea565b33816000019073ffffffffffffffffffffffffffffffffffffffff16908173ffffffffffffffffffffffffffffffffffffffff1681525050600560003373ffffffffffffffffffffffffffffffffffffffff1673ffffffffffffffffffffffffffffffffffffffff16815260200190815260200160002060010180546116ef906136d4565b80601f016020809104026020016040519081016040528092919081815260200182805461171b906136d4565b80156117685780601f1061173d57610100808354040283529160200191611768565b820191906000526020600020905b81548152906001019060200180831161174b57829003601f168201915b50505050508160200181905250818160400181815250506004600083815260200190815260200160002060040180546117a0906136d4565b80601f01602080910402602001604051908101604052809291908181526020018280546117cc906136d4565b80156118195780601f106117ee57610100808354040283529160200191611819565b820191906000526020600020905b8154815290600101906020018083116117fc57829003601f168201915b50505050508160600181905250600460008381526020019081526020016000206001018054611847906136d4565b80601f0160208091040260200160405190810160405280929190818152602001828054611873906136d4565b80156118c05780601f10611895576101008083540402835291602001916118c0565b820191906000526020600020905b8154815290600101906020018083116118a357829003601f168201915b5050505050816080018190525060046000838152602001908152602001600020600201548160a00181815250506040518060400160405280600681526020017f44454c45544500000000000000000000000000000000000000000000000000008152508160c0018190525060008160e0018181525050428161010001818152505060068190806001815401808255809150506001900390600052602060002090600a020160009091909190915060008201518160000160006101000a81548173ffffffffffffffffffffffffffffffffffffffff021916908373ffffffffffffffffffffffffffffffffffffffff16021790555060208201518160010190805190602001906119d0929190612704565b506040820151816002015560608201518160030190805190602001906119f7929190612704565b506080820151816004019080519060200190611a14929190612704565b5060a0820151816005015560c0820151816006019080519060200190611a3b929190612704565b5060e0820151816007015561010082015181600801556101208201518160090155505060036000815480929190611a71906139a1565b919050555060046000838152602001908152602001600020600080820160009055600182016000611aa29190612853565b6002820160009055600382016000611aba9190612853565b600482016000611aca9190612853565b600582016000611ada9190612853565b60068201600090556007820160006101000a81549073ffffffffffffffffffffffffffffffffffffffff021916905560088201600090556009820160009055600a820160006101000a81549060ff0219169055600b82016000611b3d9190612893565b5050600160026000828254611b529190613b0b565b925050819055505050565b60008a5111611b6b57600080fd5b6000885111611b7957600080fd5b604051602001611b889061384f565b6040516020818303038152906040528051906020012088604051602001611baf9190613741565b604051602081830303815290604052805190602001201480611c1a5750604051602001611bdb906138fc565b6040516020818303038152906040528051906020012088604051602001611c029190613741565b60405160208183030381529060405280519060200120145b80611c6e5750604051602001611c2f9061395d565b6040516020818303038152906040528051906020012088604051602001611c569190613741565b60405160208183030381529060405280519060200120145b611c7757600080fd5b60046000878152602001908152602001600020600301604051602001611c9d91906137ec565b6040516020818303038152906040528051906020012088604051602001611cc49190613741565b6040516020818303038152906040528051906020012014611ce457600080fd5b6000875111611cf257600080fd5b600073ffffffffffffffffffffffffffffffffffffffff163373ffffffffffffffffffffffffffffffffffffffff1603611d2b57600080fd5b60008911611d3857600080fd5b600086118015611d4a57506001548611155b611d5357600080fd5b6000851015611d6157600080fd5b89600460008881526020019081526020016000206001019080519060200190611d8b929190612704565b5088600460008881526020019081526020016000206002018190555087600460008881526020019081526020016000206003019080519060200190611dd1929190612704565b5086600460008881526020019081526020016000206004019080519060200190611dfc929190612704565b504260046000888152602001908152602001600020600601819055508460046000888152602001908152602001600020600801819055508360046000888152602001908152602001600020600901819055508260046000888152602001908152602001600020600a0160006101000a81548160ff0219169083151502179055508160046000888152602001908152602001600020600b019080519060200190611ea692919061278a565b5080600460008881526020019081526020016000206005019080519060200190611ed1929190612704565b50611eda6127ea565b33816000019073ffffffffffffffffffffffffffffffffffffffff16908173ffffffffffffffffffffffffffffffffffffffff1681525050600560003373ffffffffffffffffffffffffffffffffffffffff1673ffffffffffffffffffffffffffffffffffffffff1681526020019081526020016000206001018054611f5f906136d4565b80601f0160208091040260200160405190810160405280929190818152602001828054611f8b906136d4565b8015611fd85780601f10611fad57610100808354040283529160200191611fd8565b820191906000526020600020905b815481529060010190602001808311611fbb57829003601f168201915b5050505050816020018190525086816040018181525050600460008881526020019081526020016000206004018054612010906136d4565b80601f016020809104026020016040519081016040528092919081815260200182805461203c906136d4565b80156120895780601f1061205e57610100808354040283529160200191612089565b820191906000526020600020905b81548152906001019060200180831161206c57829003601f168201915b505050505081606001819052508a8160800181905250898160a00181815250506040518060400160405280600681526020017f55504441544500000000000000000000000000000000000000000000000000008152508160c00181905250858160e00181815250504281610100018181525050848161012001818152505060068190806001815401808255809150506001900390600052602060002090600a020160009091909190915060008201518160000160006101000a81548173ffffffffffffffffffffffffffffffffffffffff021916908373ffffffffffffffffffffffffffffffffffffffff1602179055506020820151816001019080519060200190612196929190612704565b506040820151816002015560608201518160030190805190602001906121bd929190612704565b5060808201518160040190805190602001906121da929190612704565b5060a0820151816005015560c0820151816006019080519060200190612201929190612704565b5060e0820151816007015561010082015181600801556101208201518160090155505060036000815480929190612237906139a1565b91905055507f6b1958a00539d9848b97d400de35b7b55fe2a3a93f8d49292da30da9b573ae568b8b8b8b42338c8c8c8c60405161227d9a99989796959493929190613b3f565b60405180910390a15050505050505050505050565b60608060046000848152602001908152602001600020600b01805480602002602001604051908101604052809291908181526020016000905b828210156123775783829060005260206000200180546122ea906136d4565b80601f0160208091040260200160405190810160405280929190818152602001828054612316906136d4565b80156123635780601f1061233857610100808354040283529160200191612363565b820191906000526020600020905b81548152906001019060200180831161234657829003601f168201915b5050505050815260200190600101906122cb565b50505050905080915050919050565b6000600560008373ffffffffffffffffffffffffffffffffffffffff1673ffffffffffffffffffffffffffffffffffffffff16815260200190815260200160002060030160006101000a81548160ff02191690831515021790555050565b600460205280600052604060002060009150905080600001549080600101805461240d906136d4565b80601f0160208091040260200160405190810160405280929190818152602001828054612439906136d4565b80156124865780601f1061245b57610100808354040283529160200191612486565b820191906000526020600020905b81548152906001019060200180831161246957829003601f168201915b5050505050908060020154908060030180546124a1906136d4565b80601f01602080910402602001604051908101604052809291908181526020018280546124cd906136d4565b801561251a5780601f106124ef5761010080835404028352916020019161251a565b820191906000526020600020905b8154815290600101906020018083116124fd57829003601f168201915b50505050509080600401805461252f906136d4565b80601f016020809104026020016040519081016040528092919081815260200182805461255b906136d4565b80156125a85780601f1061257d576101008083540402835291602001916125a8565b820191906000526020600020905b81548152906001019060200180831161258b57829003601f168201915b5050505050908060050180546125bd906136d4565b80601f01602080910402602001604051908101604052809291908181526020018280546125e9906136d4565b80156126365780601f1061260b57610100808354040283529160200191612636565b820191906000526020600020905b81548152906001019060200180831161261957829003601f168201915b5050505050908060060154908060070160009054906101000a900473ffffffffffffffffffffffffffffffffffffffff169080600801549080600901549080600a0160009054906101000a900460ff1690508b565b60405180610180016040528060008152602001606081526020016000815260200160608152602001606081526020016060815260200160008152602001600073ffffffffffffffffffffffffffffffffffffffff1681526020016000815260200160008152602001600015158152602001606081525090565b828054612710906136d4565b90600052602060002090601f0160209004810192826127325760008555612779565b82601f1061274b57805160ff1916838001178555612779565b82800160010185558215612779579182015b8281111561277857825182559160200191906001019061275d565b5b50905061278691906128b4565b5090565b8280548282559060005260206000209081019282156127d9579160200282015b828111156127d85782518290805190602001906127c8929190612704565b50916020019190600101906127aa565b5b5090506127e691906128d1565b5090565b604051806101400160405280600073ffffffffffffffffffffffffffffffffffffffff1681526020016060815260200160008152602001606081526020016060815260200160008152602001606081526020016000815260200160008152602001600081525090565b50805461285f906136d4565b6000825580601f106128715750612890565b601f01602090049060005260206000209081019061288f91906128b4565b5b50565b50805460008255906000526020600020908101906128b191906128d1565b50565b5b808211156128cd5760008160009055506001016128b5565b5090565b5b808211156128f157600081816128e89190612853565b506001016128d2565b5090565b600081519050919050565b600082825260208201905092915050565b60005b8381101561292f578082015181840152602081019050612914565b8381111561293e576000848401525b50505050565b6000601f19601f8301169050919050565b6000612960826128f5565b61296a8185612900565b935061297a818560208601612911565b61298381612944565b840191505092915050565b600060208201905081810360008301526129a88184612955565b905092915050565b6000819050919050565b6129c3816129b0565b82525050565b60006020820190506129de60008301846129ba565b92915050565b600081519050919050565b600082825260208201905092915050565b6000819050602082019050919050565b600073ffffffffffffffffffffffffffffffffffffffff82169050919050565b6000612a3b82612a10565b9050919050565b612a4b81612a30565b82525050565b600082825260208201905092915050565b6000612a6d826128f5565b612a778185612a51565b9350612a87818560208601612911565b612a9081612944565b840191505092915050565b612aa4816129b0565b82525050565b600061014083016000830151612ac36000860182612a42565b5060208301518482036020860152612adb8282612a62565b9150506040830151612af06040860182612a9b565b5060608301518482036060860152612b088282612a62565b91505060808301518482036080860152612b228282612a62565b91505060a0830151612b3760a0860182612a9b565b5060c083015184820360c0860152612b4f8282612a62565b91505060e0830151612b6460e0860182612a9b565b50610100830151612b79610100860182612a9b565b50610120830151612b8e610120860182612a9b565b508091505092915050565b6000612ba58383612aaa565b905092915050565b6000602082019050919050565b6000612bc5826129e4565b612bcf81856129ef565b935083602082028501612be185612a00565b8060005b85811015612c1d5784840389528151612bfe8582612b99565b9450612c0983612bad565b925060208a01995050600181019050612be5565b50829750879550505050505092915050565b60006020820190508181036000830152612c498184612bba565b905092915050565b6000604051905090565b600080fd5b600080fd5b612c6e81612a30565b8114612c7957600080fd5b50565b600081359050612c8b81612c65565b92915050565b600060208284031215612ca757612ca6612c5b565b5b6000612cb584828501612c7c565b91505092915050565b60008115159050919050565b612cd381612cbe565b82525050565b6000602082019050612cee6000830184612cca565b92915050565b612cfd816129b0565b8114612d0857600080fd5b50565b600081359050612d1a81612cf4565b92915050565b600060208284031215612d3657612d35612c5b565b5b6000612d4484828501612d0b565b91505092915050565b612d5681612cbe565b82525050565b600081519050919050565b600082825260208201905092915050565b6000819050602082019050919050565b6000612d948383612a62565b905092915050565b6000602082019050919050565b6000612db482612d5c565b612dbe8185612d67565b935083602082028501612dd085612d78565b8060005b85811015612e0c5784840389528151612ded8582612d88565b9450612df883612d9c565b925060208a01995050600181019050612dd4565b50829750879550505050505092915050565b600061018083016000830151612e376000860182612a9b565b5060208301518482036020860152612e4f8282612a62565b9150506040830151612e646040860182612a9b565b5060608301518482036060860152612e7c8282612a62565b91505060808301518482036080860152612e968282612a62565b91505060a083015184820360a0860152612eb08282612a62565b91505060c0830151612ec560c0860182612a9b565b5060e0830151612ed860e0860182612a42565b50610100830151612eed610100860182612a9b565b50610120830151612f02610120860182612a9b565b50610140830151612f17610140860182612d4d565b50610160830151848203610160860152612f318282612da9565b9150508091505092915050565b60006020820190508181036000830152612f588184612e1e565b905092915050565b600080fd5b600080fd5b7f4e487b7100000000000000000000000000000000000000000000000000000000600052604160045260246000fd5b612fa282612944565b810181811067ffffffffffffffff82111715612fc157612fc0612f6a565b5b80604052505050565b6000612fd4612c51565b9050612fe08282612f99565b919050565b600067ffffffffffffffff82111561300057612fff612f6a565b5b61300982612944565b9050602081019050919050565b82818337600083830152505050565b600061303861303384612fe5565b612fca565b90508281526020810184848401111561305457613053612f65565b5b61305f848285613016565b509392505050565b600082601f83011261307c5761307b612f60565b5b813561308c848260208601613025565b91505092915050565b600080604083850312156130ac576130ab612c5b565b5b60006130ba85828601612c7c565b925050602083013567ffffffffffffffff8111156130db576130da612c60565b5b6130e785828601613067565b9150509250929050565b6130fa81612cbe565b811461310557600080fd5b50565b600081359050613117816130f1565b92915050565b600067ffffffffffffffff82111561313857613137612f6a565b5b602082029050602081019050919050565b600080fd5b600061316161315c8461311d565b612fca565b9050808382526020820190506020840283018581111561318457613183613149565b5b835b818110156131cb57803567ffffffffffffffff8111156131a9576131a8612f60565b5b8086016131b68982613067565b85526020850194505050602081019050613186565b5050509392505050565b600082601f8301126131ea576131e9612f60565b5b81356131fa84826020860161314e565b91505092915050565b600080600080600080600060e0888a03121561322257613221612c5b565b5b600088013567ffffffffffffffff8111156132405761323f612c60565b5b61324c8a828b01613067565b975050602061325d8a828b01612d0b565b965050604088013567ffffffffffffffff81111561327e5761327d612c60565b5b61328a8a828b01613067565b955050606088013567ffffffffffffffff8111156132ab576132aa612c60565b5b6132b78a828b01613067565b945050608088013567ffffffffffffffff8111156132d8576132d7612c60565b5b6132e48a828b01613067565b93505060a06132f58a828b01613108565b92505060c088013567ffffffffffffffff81111561331657613315612c60565b5b6133228a828b016131d5565b91505092959891949750929550565b60008060006060848603121561334a57613349612c5b565b5b600061335886828701612c7c565b935050602084013567ffffffffffffffff81111561337957613378612c60565b5b61338586828701613067565b925050604084013567ffffffffffffffff8111156133a6576133a5612c60565b5b6133b286828701613067565b9150509250925092565b6000806000806000806000806000806101408b8d0312156133e0576133df612c5b565b5b60008b013567ffffffffffffffff8111156133fe576133fd612c60565b5b61340a8d828e01613067565b9a5050602061341b8d828e01612d0b565b99505060408b013567ffffffffffffffff81111561343c5761343b612c60565b5b6134488d828e01613067565b98505060608b013567ffffffffffffffff81111561346957613468612c60565b5b6134758d828e01613067565b97505060806134868d828e01612d0b565b96505060a06134978d828e01612d0b565b95505060c06134a88d828e01612d0b565b94505060e06134b98d828e01613108565b9350506101008b013567ffffffffffffffff8111156134db576134da612c60565b5b6134e78d828e016131d5565b9250506101208b013567ffffffffffffffff81111561350957613508612c60565b5b6135158d828e01613067565b9150509295989b9194979a5092959850565b600082825260208201905092915050565b600061354382612d5c565b61354d8185613527565b93508360208202850161355f85612d78565b8060005b8581101561359b578484038952815161357c8582612d88565b945061358783612d9c565b925060208a01995050600181019050613563565b50829750879550505050505092915050565b600060208201905081810360008301526135c78184613538565b905092915050565b6135d881612a30565b82525050565b6000610160820190506135f4600083018e6129ba565b8181036020830152613606818d612955565b9050613615604083018c6129ba565b8181036060830152613627818b612955565b9050818103608083015261363b818a612955565b905081810360a083015261364f8189612955565b905061365e60c08301886129ba565b61366b60e08301876135cf565b6136796101008301866129ba565b6136876101208301856129ba565b613695610140830184612cca565b9c9b505050505050505050505050565b7f4e487b7100000000000000000000000000000000000000000000000000000000600052602260045260246000fd5b600060028204905060018216806136ec57607f821691505b6020821081036136ff576136fe6136a5565b5b50919050565b600081905092915050565b600061371b826128f5565b6137258185613705565b9350613735818560208601612911565b80840191505092915050565b600061374d8284613710565b915081905092915050565b60008190508160005260206000209050919050565b6000815461377a816136d4565b6137848186613705565b9450600182166000811461379f57600181146137b0576137e3565b60ff198316865281860193506137e3565b6137b985613758565b60005b838110156137db578154818901526001820191506020810190506137bc565b838801955050505b50505092915050565b60006137f8828461376d565b915081905092915050565b7f746578742f706c61696e00000000000000000000000000000000000000000000600082015250565b6000613839600a83613705565b915061384482613803565b600a82019050919050565b600061385a8261382c565b9150819050919050565b7f6170706c69636174696f6e2f766e642e6f70656e786d6c666f726d6174732d6f60008201527f6666696365646f63756d656e742e776f726470726f63657373696e676d6c2e6460208201527f6f63756d656e7400000000000000000000000000000000000000000000000000604082015250565b60006138e6604783613705565b91506138f182613864565b604782019050919050565b6000613907826138d9565b9150819050919050565b7f6170706c69636174696f6e2f7064660000000000000000000000000000000000600082015250565b6000613947600f83613705565b915061395282613911565b600f82019050919050565b60006139688261393a565b9150819050919050565b7f4e487b7100000000000000000000000000000000000000000000000000000000600052601160045260246000fd5b60006139ac826129b0565b91507fffffffffffffffffffffffffffffffffffffffffffffffffffffffffffffffff82036139de576139dd613972565b5b600182019050919050565b6000819050919050565b6000819050919050565b6000613a18613a13613a0e846139e9565b6139f3565b6129b0565b9050919050565b613a28816139fd565b82525050565b600061018082019050613a44600083018f6129ba565b8181036020830152613a56818e612955565b9050613a65604083018d6129ba565b8181036060830152613a77818c612955565b90508181036080830152613a8b818b612955565b905081810360a0830152613a9f818a612955565b9050613aae60c08301896129ba565b613abb60e08301886135cf565b613ac9610100830187613a1f565b613ad7610120830186613a1f565b613ae5610140830185612cca565b818103610160830152613af88184613538565b90509d9c50505050505050505050505050565b6000613b16826129b0565b9150613b21836129b0565b925082821015613b3457613b33613972565b5b828203905092915050565b6000610140820190508181036000830152613b5a818d612955565b9050613b69602083018c6129ba565b8181036040830152613b7b818b612955565b90508181036060830152613b8f818a612955565b9050613b9e60808301896129ba565b613bab60a08301886135cf565b613bb860c08301876129ba565b613bc560e08301866129ba565b613bd3610100830185612cca565b818103610120830152613be68184613538565b90509b9a505050505050505050505056fea2646970667358221220481732abab76a74f38567dcf06b93fc6360101992018134453beb5e8da1eab2664736f6c634300080e0033",
  "immutableReferences": {},
  "source": "// SPDX-License-Identifier: MIT\r\npragma solidity ^0.8.0;\r\n\r\ncontract SimpleStorage {\r\n    // data\r\n    string public name = \"ArchStorage\";\r\n\r\n    uint256 public fileIDs = 0;\r\n    uint256 public fileNum = 0;\r\n    uint256 public transactionCount = 0;\r\n    mapping(uint256 => File) public files;\r\n    mapping(address => UserDetail) user;\r\n\r\n    struct File {\r\n        uint256 fileId;\r\n        string fileHash;\r\n        uint256 fileSize;\r\n        string fileType;\r\n        string fileName;\r\n        string fileDescription;\r\n        uint256 uploadTime;\r\n        address uploader;\r\n        uint256 lastChange;\r\n        uint256 lastSize;\r\n        bool isPrivate;\r\n        string[] allowedUsers;\r\n    }\r\n\r\n    struct UserDetail {\r\n        address addr;\r\n        string name;\r\n        string password;\r\n        bool isUserLoggedIn;\r\n    }\r\n\r\n    struct Transaction {\r\n        address userAddress;\r\n        string userName;\r\n        uint256 fileId;\r\n        string fileName;\r\n        string fileHash;\r\n        uint256 fileSize;\r\n        string transactionType;\r\n        uint256 changeLevel;\r\n        uint256 uploadTime;\r\n        uint256 lastSize;\r\n    }\r\n    Transaction[] transactions;\r\n\r\n    //events\r\n\r\n    // event transactionAdded(Transaction temp);\r\n\r\n    event FileUploaded(\r\n        uint256 fileId,\r\n        string fileHash,\r\n        uint256 fileSize,\r\n        string fileType,\r\n        string fileName,\r\n        string fileDescription,\r\n        uint256 uploadTime,\r\n        address uploader,\r\n        uint256 lastChange,\r\n        uint256 lastSize,\r\n        bool isPrivate,\r\n        string[] allowedUsers\r\n    );\r\n\r\n    event FileUpdated(\r\n        string fileHash,\r\n        uint256 fileSize,\r\n        string fileType,\r\n        string fileName,\r\n        uint256 uploadTime,\r\n        address uploader,\r\n        uint256 lastChange,\r\n        uint256 lastSize,\r\n        bool isPrivate,\r\n        string[] allowedUsers\r\n    );\r\n\r\n    constructor() public {}\r\n\r\n    function uploadFile(\r\n        string memory _fileHash,\r\n        uint256 _fileSize,\r\n        string memory _fileType,\r\n        string memory _fileName,\r\n        string memory _fileDescription,\r\n        bool filePrivacy,\r\n        string[] memory allowedFileUsers\r\n    ) public {\r\n        // Make sure the file hash exists\r\n        require(bytes(_fileHash).length > 0);\r\n        // Make sure file type exists\r\n        require(bytes(_fileType).length > 0);\r\n        require(\r\n            keccak256(abi.encodePacked(_fileType)) ==\r\n                keccak256(abi.encodePacked(\"text/plain\")) ||\r\n                keccak256(abi.encodePacked(_fileType)) ==\r\n                keccak256(\r\n                    abi.encodePacked(\r\n                        \"application/vnd.openxmlformats-officedocument.wordprocessingml.document\"\r\n                    )\r\n                ) ||\r\n                keccak256(abi.encodePacked(_fileType)) ==\r\n                keccak256(abi.encodePacked(\"application/pdf\"))\r\n        );\r\n        // Make sure file description exists\r\n        require(bytes(_fileDescription).length > 0);\r\n        // Make sure file fileName exists\r\n        require(bytes(_fileName).length > 0);\r\n        // Make sure uploader address exists\r\n        require(msg.sender != address(0));\r\n        // Make sure file size is more than 0\r\n        require(_fileSize > 0);\r\n\r\n        // Increment file id\r\n        fileIDs++;\r\n        fileNum++;\r\n\r\n        // Add File to the contract\r\n        files[fileIDs] = File(\r\n            fileIDs,\r\n            _fileHash,\r\n            _fileSize,\r\n            _fileType,\r\n            _fileName,\r\n            _fileDescription,\r\n            block.timestamp,\r\n            msg.sender,\r\n            0,\r\n            0,\r\n            filePrivacy,\r\n            allowedFileUsers\r\n        );\r\n\r\n        Transaction memory temp;\r\n        temp.userAddress = msg.sender;\r\n        temp.userName = user[msg.sender].name;\r\n        temp.fileId = fileIDs;\r\n        temp.fileName = _fileName;\r\n        temp.fileHash = _fileHash;\r\n        temp.fileSize = _fileSize;\r\n        temp.transactionType = \"ADD\";\r\n        temp.changeLevel = 0;\r\n        temp.lastSize = 0;\r\n        temp.uploadTime = block.timestamp;\r\n        transactions.push(temp);\r\n\r\n        transactionCount++;\r\n        // Trigger an event\r\n        emit FileUploaded(\r\n            fileIDs,\r\n            _fileHash,\r\n            _fileSize,\r\n            _fileType,\r\n            _fileName,\r\n            _fileDescription,\r\n            block.timestamp,\r\n            msg.sender,\r\n            0,\r\n            0,\r\n            filePrivacy,\r\n            allowedFileUsers\r\n        );\r\n    }\r\n\r\n    function updateFile(\r\n        string memory _fileHash,\r\n        uint256 _fileSize,\r\n        string memory _fileType,\r\n        string memory _fileName,\r\n        uint256 _fileID,\r\n        uint256 _changeValue,\r\n        uint256 _lastSize,\r\n        bool filePrivacy,\r\n        string[] memory allowedFileUsers,\r\n        string memory _fileDescription\r\n    ) public {\r\n        // Make sure the file hash exists\r\n        require(bytes(_fileHash).length > 0);\r\n        // Make sure file type exists\r\n        require(bytes(_fileType).length > 0);\r\n        require(\r\n            keccak256(abi.encodePacked(_fileType)) ==\r\n                keccak256(abi.encodePacked(\"text/plain\")) ||\r\n                keccak256(abi.encodePacked(_fileType)) ==\r\n                keccak256(\r\n                    abi.encodePacked(\r\n                        \"application/vnd.openxmlformats-officedocument.wordprocessingml.document\"\r\n                    )\r\n                ) ||\r\n                keccak256(abi.encodePacked(_fileType)) ==\r\n                keccak256(abi.encodePacked(\"application/pdf\"))\r\n        );\r\n        require(\r\n            keccak256(abi.encodePacked(_fileType)) ==\r\n                keccak256(abi.encodePacked(files[_fileID].fileType))\r\n        );\r\n        require(bytes(_fileName).length > 0);\r\n        // Make sure uploader address exists\r\n        require(msg.sender != address(0));\r\n        // Make sure file size is more than 0\r\n        require(_fileSize > 0);\r\n        require(_fileID > 0 && _fileID <= fileIDs);\r\n        require(_changeValue >= 0);\r\n\r\n        // update current file\r\n        files[_fileID].fileHash = _fileHash;\r\n        files[_fileID].fileSize = _fileSize;\r\n        files[_fileID].fileType = _fileType;\r\n        files[_fileID].fileName = _fileName;\r\n        files[_fileID].uploadTime = block.timestamp;\r\n        files[_fileID].lastChange = _changeValue;\r\n        files[_fileID].lastSize = _lastSize;\r\n        files[_fileID].isPrivate = filePrivacy;\r\n        files[_fileID].allowedUsers = allowedFileUsers;\r\n        files[_fileID].fileDescription = _fileDescription;\r\n\r\n        Transaction memory temp;\r\n        temp.userAddress = msg.sender;\r\n        temp.userName = user[msg.sender].name;\r\n        temp.fileId = _fileID;\r\n        temp.fileName = files[_fileID].fileName;\r\n        temp.fileHash = _fileHash;\r\n        temp.fileSize = _fileSize;\r\n        temp.transactionType = \"UPDATE\";\r\n        temp.changeLevel = _changeValue;\r\n        temp.uploadTime = block.timestamp;\r\n        temp.lastSize = _lastSize;\r\n        transactions.push(temp);\r\n\r\n        transactionCount++;\r\n        // Trigger an event\r\n        emit FileUpdated(\r\n            _fileHash,\r\n            _fileSize,\r\n            _fileType,\r\n            _fileName,\r\n            block.timestamp,\r\n            msg.sender,\r\n            _changeValue,\r\n            _lastSize,\r\n            filePrivacy,\r\n            allowedFileUsers\r\n        );\r\n    }\r\n\r\n    function getFile(uint256 _fileID) public view returns (File memory) {\r\n        return files[_fileID];\r\n    }\r\n\r\n    function deleteFile(uint256 _fileID) public {\r\n        //require(_fileID.length > 0);\r\n        // for (uint256 i = 0; i < _fileID.length; i++) {\r\n        Transaction memory temp;\r\n        temp.userAddress = msg.sender;\r\n        temp.userName = user[msg.sender].name;\r\n        temp.fileId = _fileID;\r\n        temp.fileName = files[_fileID].fileName;\r\n        temp.fileHash = files[_fileID].fileHash;\r\n        temp.fileSize = files[_fileID].fileSize;\r\n        temp.transactionType = \"DELETE\";\r\n        temp.changeLevel = 0;\r\n        temp.uploadTime = block.timestamp;\r\n        transactions.push(temp);\r\n        transactionCount++;\r\n        delete files[_fileID];\r\n        fileNum -= 1;\r\n\r\n        // if (files[_fileID].isPrivate == false) {\r\n        //     transactions.push(temp);\r\n\r\n        //     transactionCount++;\r\n        //     delete files[_fileID];\r\n        //     fileNum -= 1;\r\n        // } else if (files[_fileID].isPrivate == true) {\r\n        //     if (files[_fileID].uploader == msg.sender) {\r\n        //         transactions.push(temp);\r\n        //         transactionCount++;\r\n        //         delete files[_fileID];\r\n        //         fileNum -= 1;\r\n        //     } else {\r\n        //         for (\r\n        //             uint256 i = 0;\r\n        //             i < files[_fileID].allowedUsers.length;\r\n        //             i++\r\n        //         ) {\r\n        //             if (files[_fileID].allowedUsers[i] == msg.sender) {\r\n        //                 transactions.push(temp);\r\n        //                 transactionCount++;\r\n        //                 delete files[_fileID];\r\n        //                 fileNum -= 1;\r\n        //             }\r\n        //         }\r\n        //     }\r\n        // }\r\n\r\n        // }\r\n    }\r\n\r\n    // user registration function\r\n    function register(\r\n        address _address,\r\n        string memory _name,\r\n        string memory _password\r\n    ) public returns (bool) {\r\n        require(user[_address].addr != msg.sender);\r\n        user[_address].addr = _address;\r\n        user[_address].name = _name;\r\n        user[_address].password = _password;\r\n        user[_address].isUserLoggedIn = false;\r\n        return true;\r\n    }\r\n\r\n    // user login function\r\n    function login(address _address, string memory _password)\r\n        public\r\n        returns (bool)\r\n    {\r\n        if (\r\n            keccak256(abi.encodePacked(user[_address].password)) ==\r\n            keccak256(abi.encodePacked(_password))\r\n        ) {\r\n            user[_address].isUserLoggedIn = true;\r\n            return user[_address].isUserLoggedIn;\r\n        } else {\r\n            return false;\r\n        }\r\n    }\r\n\r\n    // check the user logged In or not\r\n    function checkIsUserLogged(address _address) public view returns (bool) {\r\n        return (user[_address].isUserLoggedIn);\r\n    }\r\n\r\n    function checkUserName(address _address)\r\n        public\r\n        view\r\n        returns (string memory)\r\n    {\r\n        return (user[_address].name);\r\n    }\r\n\r\n    // logout the user\r\n    function logout(address _address) public {\r\n        user[_address].isUserLoggedIn = false;\r\n    }\r\n\r\n    function getAllTransactions() public view returns (Transaction[] memory) {\r\n        return transactions;\r\n    }\r\n\r\n    function getAllowedUsers(uint256 fileID)\r\n        public\r\n        view\r\n        returns (string[] memory)\r\n    {\r\n        string[] memory gottenAllowedUsers;\r\n        return gottenAllowedUsers = files[fileID].allowedUsers;\r\n    }\r\n}\r\n",
  "sourcePath": "C:\\Users\\Shaun\\Desktop\\THESIS\\thesis- testing-FINAL\\contracts\\SimpleStorage.sol",
  "compiler": {
    "name": "solc",
    "version": "0.8.14+commit.80d49f37.Emscripten.clang"
  },
  "schemaVersion": "3.4.3",
  "updatedAt": "2022-06-10T16:26:19.919Z",
  "networkType": "ethereum",
  "devdoc": {
    "kind": "dev",
    "methods": {},
    "version": 1
  },
  "userdoc": {
    "kind": "user",
    "methods": {},
    "version": 1
  }
}