{
  "contractName": "SimpleStorage",
  "abi": [
    {
      "inputs": [],
      "stateMutability": "nonpayable",
      "type": "constructor"
    },
    {
      "anonymous": false,
      "inputs": [
        {
          "indexed": false,
          "internalType": "uint256",
          "name": "fileId",
          "type": "uint256"
        },
        {
          "indexed": false,
          "internalType": "string",
          "name": "fileHash",
          "type": "string"
        },
        {
          "indexed": false,
          "internalType": "uint256",
          "name": "fileSize",
          "type": "uint256"
        },
        {
          "indexed": false,
          "internalType": "string",
          "name": "fileType",
          "type": "string"
        },
        {
          "indexed": false,
          "internalType": "string",
          "name": "fileName",
          "type": "string"
        },
        {
          "indexed": false,
          "internalType": "string",
          "name": "fileDescription",
          "type": "string"
        },
        {
          "indexed": false,
          "internalType": "uint256",
          "name": "uploadTime",
          "type": "uint256"
        },
        {
          "indexed": false,
          "internalType": "address",
          "name": "uploader",
          "type": "address"
        }
      ],
      "name": "FileUploaded",
      "type": "event"
    },
    {
      "inputs": [],
      "name": "fileCount",
      "outputs": [
        {
          "internalType": "uint256",
          "name": "",
          "type": "uint256"
        }
      ],
      "stateMutability": "view",
      "type": "function"
    },
    {
      "inputs": [
        {
          "internalType": "uint256",
          "name": "",
          "type": "uint256"
        }
      ],
      "name": "files",
      "outputs": [
        {
          "internalType": "uint256",
          "name": "fileId",
          "type": "uint256"
        },
        {
          "internalType": "string",
          "name": "fileHash",
          "type": "string"
        },
        {
          "internalType": "uint256",
          "name": "fileSize",
          "type": "uint256"
        },
        {
          "internalType": "string",
          "name": "fileType",
          "type": "string"
        },
        {
          "internalType": "string",
          "name": "fileName",
          "type": "string"
        },
        {
          "internalType": "string",
          "name": "fileDescription",
          "type": "string"
        },
        {
          "internalType": "uint256",
          "name": "uploadTime",
          "type": "uint256"
        },
        {
          "internalType": "address",
          "name": "uploader",
          "type": "address"
        }
      ],
      "stateMutability": "view",
      "type": "function"
    },
    {
      "inputs": [],
      "name": "name",
      "outputs": [
        {
          "internalType": "string",
          "name": "",
          "type": "string"
        }
      ],
      "stateMutability": "view",
      "type": "function"
    },
    {
      "inputs": [],
      "name": "transactionCount",
      "outputs": [
        {
          "internalType": "uint256",
          "name": "",
          "type": "uint256"
        }
      ],
      "stateMutability": "view",
      "type": "function"
    },
    {
      "inputs": [
        {
          "internalType": "string",
          "name": "_fileHash",
          "type": "string"
        },
        {
          "internalType": "uint256",
          "name": "_fileSize",
          "type": "uint256"
        },
        {
          "internalType": "string",
          "name": "_fileType",
          "type": "string"
        },
        {
          "internalType": "string",
          "name": "_fileName",
          "type": "string"
        },
        {
          "internalType": "string",
          "name": "_fileDescription",
          "type": "string"
        }
      ],
      "name": "uploadFile",
      "outputs": [],
      "stateMutability": "nonpayable",
      "type": "function"
    },
    {
      "inputs": [
        {
          "internalType": "address",
          "name": "_address",
          "type": "address"
        },
        {
          "internalType": "string",
          "name": "_name",
          "type": "string"
        },
        {
          "internalType": "string",
          "name": "_password",
          "type": "string"
        }
      ],
      "name": "register",
      "outputs": [
        {
          "internalType": "bool",
          "name": "",
          "type": "bool"
        }
      ],
      "stateMutability": "nonpayable",
      "type": "function"
    },
    {
      "inputs": [
        {
          "internalType": "address",
          "name": "_address",
          "type": "address"
        },
        {
          "internalType": "string",
          "name": "_password",
          "type": "string"
        }
      ],
      "name": "login",
      "outputs": [
        {
          "internalType": "bool",
          "name": "",
          "type": "bool"
        }
      ],
      "stateMutability": "nonpayable",
      "type": "function"
    },
    {
      "inputs": [
        {
          "internalType": "address",
          "name": "_address",
          "type": "address"
        }
      ],
      "name": "checkIsUserLogged",
      "outputs": [
        {
          "internalType": "bool",
          "name": "",
          "type": "bool"
        }
      ],
      "stateMutability": "view",
      "type": "function"
    },
    {
      "inputs": [
        {
          "internalType": "address",
          "name": "_address",
          "type": "address"
        }
      ],
      "name": "checkUserName",
      "outputs": [
        {
          "internalType": "string",
          "name": "",
          "type": "string"
        }
      ],
      "stateMutability": "view",
      "type": "function"
    },
    {
      "inputs": [
        {
          "internalType": "address",
          "name": "_address",
          "type": "address"
        }
      ],
      "name": "logout",
      "outputs": [],
      "stateMutability": "nonpayable",
      "type": "function"
    },
    {
      "inputs": [],
      "name": "getAllTransactions",
      "outputs": [
        {
          "components": [
            {
              "internalType": "address",
              "name": "userAddress",
              "type": "address"
            },
            {
              "internalType": "string",
              "name": "userName",
              "type": "string"
            },
            {
              "internalType": "string",
              "name": "fileName",
              "type": "string"
            },
            {
              "internalType": "string",
              "name": "fileHash",
              "type": "string"
            },
            {
              "internalType": "uint256",
              "name": "fileSize",
              "type": "uint256"
            },
            {
              "internalType": "string",
              "name": "transactionType",
              "type": "string"
            },
            {
              "internalType": "uint256",
              "name": "changeLevel",
              "type": "uint256"
            }
          ],
          "internalType": "struct SimpleStorage.Transaction[]",
          "name": "",
          "type": "tuple[]"
        }
      ],
      "stateMutability": "view",
      "type": "function"
    },
    {
      "inputs": [
        {
          "internalType": "uint256",
          "name": "x",
          "type": "uint256"
        }
      ],
      "name": "set",
      "outputs": [],
      "stateMutability": "nonpayable",
      "type": "function"
    },
    {
      "inputs": [],
      "name": "get",
      "outputs": [
        {
          "internalType": "uint256",
          "name": "",
          "type": "uint256"
        }
      ],
      "stateMutability": "view",
      "type": "function"
    }
  ],
  "bytecode": "0x60806040526040518060400160405280600b81526020017f4172636853746f72616765000000000000000000000000000000000000000000815250600090805190602001906200005192919062000070565b50600060025560006003553480156200006957600080fd5b5062000185565b8280546200007e906200014f565b90600052602060002090601f016020900481019282620000a25760008555620000ee565b82601f10620000bd57805160ff1916838001178555620000ee565b82800160010185558215620000ee579182015b82811115620000ed578251825591602001919060010190620000d0565b5b509050620000fd919062000101565b5090565b5b808211156200011c57600081600090555060010162000102565b5090565b7f4e487b7100000000000000000000000000000000000000000000000000000000600052602260045260246000fd5b600060028204905060018216806200016857607f821691505b602082108114156200017f576200017e62000120565b5b50919050565b611d9080620001956000396000f3fe608060405234801561001057600080fd5b50600436106100cf5760003560e01c806361ea23881161008c578063b77bf60011610066578063b77bf60014610228578063cc51f9b914610246578063e82d9d3314610262578063f4c714b41461027e576100cf565b806361ea2388146101aa5780636d4ce63c146101da5780638d59cc02146101f8576100cf565b806306fdde03146100d457806327506f53146100f2578063297f7b39146101105780632f19d50b14610140578063439535191461017057806360fe47b11461018e575b600080fd5b6100dc6102b5565b6040516100e99190611452565b60405180910390f35b6100fa610343565b604051610107919061168b565b60405180910390f35b61012a600480360381019061012591906116ed565b610654565b6040516101379190611735565b60405180910390f35b61015a60048036038101906101559190611885565b6106ad565b6040516101679190611735565b60405180910390f35b610178610801565b60405161018591906118f0565b60405180910390f35b6101a860048036038101906101a39190611937565b610807565b005b6101c460048036038101906101bf91906116ed565b610811565b6040516101d19190611452565b60405180910390f35b6101e26108e5565b6040516101ef91906118f0565b60405180910390f35b610212600480360381019061020d9190611964565b6108ef565b60405161021f9190611735565b60405180910390f35b610230610b21565b60405161023d91906118f0565b60405180910390f35b610260600480360381019061025b91906116ed565b610b27565b005b61027c600480360381019061027791906119ef565b610b85565b005b61029860048036038101906102939190611937565b61103b565b6040516102ac989796959493929190611ae9565b60405180910390f35b600080546102c290611bb2565b80601f01602080910402602001604051908101604052809291908181526020018280546102ee90611bb2565b801561033b5780601f106103105761010080835404028352916020019161033b565b820191906000526020600020905b81548152906001019060200180831161031e57829003601f168201915b505050505081565b60606006805480602002602001604051908101604052809291908181526020016000905b8282101561064b57838290600052602060002090600702016040518060e00160405290816000820160009054906101000a900473ffffffffffffffffffffffffffffffffffffffff1673ffffffffffffffffffffffffffffffffffffffff1673ffffffffffffffffffffffffffffffffffffffff1681526020016001820180546103f090611bb2565b80601f016020809104026020016040519081016040528092919081815260200182805461041c90611bb2565b80156104695780601f1061043e57610100808354040283529160200191610469565b820191906000526020600020905b81548152906001019060200180831161044c57829003601f168201915b5050505050815260200160028201805461048290611bb2565b80601f01602080910402602001604051908101604052809291908181526020018280546104ae90611bb2565b80156104fb5780601f106104d0576101008083540402835291602001916104fb565b820191906000526020600020905b8154815290600101906020018083116104de57829003601f168201915b5050505050815260200160038201805461051490611bb2565b80601f016020809104026020016040519081016040528092919081815260200182805461054090611bb2565b801561058d5780601f106105625761010080835404028352916020019161058d565b820191906000526020600020905b81548152906001019060200180831161057057829003601f168201915b50505050508152602001600482015481526020016005820180546105b090611bb2565b80601f01602080910402602001604051908101604052809291908181526020018280546105dc90611bb2565b80156106295780601f106105fe57610100808354040283529160200191610629565b820191906000526020600020905b81548152906001019060200180831161060c57829003601f168201915b5050505050815260200160068201548152505081526020019060010190610367565b50505050905090565b6000600560008373ffffffffffffffffffffffffffffffffffffffff1673ffffffffffffffffffffffffffffffffffffffff16815260200190815260200160002060030160009054906101000a900460ff169050919050565b6000816040516020016106c09190611c20565b60405160208183030381529060405280519060200120600560008573ffffffffffffffffffffffffffffffffffffffff1673ffffffffffffffffffffffffffffffffffffffff1681526020019081526020016000206002016040516020016107289190611ccb565b6040516020818303038152906040528051906020012014156107f6576001600560008573ffffffffffffffffffffffffffffffffffffffff1673ffffffffffffffffffffffffffffffffffffffff16815260200190815260200160002060030160006101000a81548160ff021916908315150217905550600560008473ffffffffffffffffffffffffffffffffffffffff1673ffffffffffffffffffffffffffffffffffffffff16815260200190815260200160002060030160009054906101000a900460ff1690506107fb565b600090505b92915050565b60025481565b8060018190555050565b6060600560008373ffffffffffffffffffffffffffffffffffffffff1673ffffffffffffffffffffffffffffffffffffffff168152602001908152602001600020600101805461086090611bb2565b80601f016020809104026020016040519081016040528092919081815260200182805461088c90611bb2565b80156108d95780601f106108ae576101008083540402835291602001916108d9565b820191906000526020600020905b8154815290600101906020018083116108bc57829003601f168201915b50505050509050919050565b6000600154905090565b60003373ffffffffffffffffffffffffffffffffffffffff16600560008673ffffffffffffffffffffffffffffffffffffffff1673ffffffffffffffffffffffffffffffffffffffff16815260200190815260200160002060000160009054906101000a900473ffffffffffffffffffffffffffffffffffffffff1673ffffffffffffffffffffffffffffffffffffffff16141561098c57600080fd5b83600560008673ffffffffffffffffffffffffffffffffffffffff1673ffffffffffffffffffffffffffffffffffffffff16815260200190815260200160002060000160006101000a81548173ffffffffffffffffffffffffffffffffffffffff021916908373ffffffffffffffffffffffffffffffffffffffff16021790555082600560008673ffffffffffffffffffffffffffffffffffffffff1673ffffffffffffffffffffffffffffffffffffffff1681526020019081526020016000206001019080519060200190610a639291906112c3565b5081600560008673ffffffffffffffffffffffffffffffffffffffff1673ffffffffffffffffffffffffffffffffffffffff1681526020019081526020016000206002019080519060200190610aba9291906112c3565b506000600560008673ffffffffffffffffffffffffffffffffffffffff1673ffffffffffffffffffffffffffffffffffffffff16815260200190815260200160002060030160006101000a81548160ff021916908315150217905550600190509392505050565b60035481565b6000600560008373ffffffffffffffffffffffffffffffffffffffff1673ffffffffffffffffffffffffffffffffffffffff16815260200190815260200160002060030160006101000a81548160ff02191690831515021790555050565b6000855111610b9357600080fd5b6000835111610ba157600080fd5b6000815111610baf57600080fd5b6000825111610bbd57600080fd5b600073ffffffffffffffffffffffffffffffffffffffff163373ffffffffffffffffffffffffffffffffffffffff161415610bf757600080fd5b60008411610c0457600080fd5b60026000815480929190610c1790611d11565b919050555060405180610100016040528060025481526020018681526020018581526020018481526020018381526020018281526020014281526020013373ffffffffffffffffffffffffffffffffffffffff16815250600460006002548152602001908152602001600020600082015181600001556020820151816001019080519060200190610ca99291906112c3565b50604082015181600201556060820151816003019080519060200190610cd09291906112c3565b506080820151816004019080519060200190610ced9291906112c3565b5060a0820151816005019080519060200190610d0a9291906112c3565b5060c0820151816006015560e08201518160070160006101000a81548173ffffffffffffffffffffffffffffffffffffffff021916908373ffffffffffffffffffffffffffffffffffffffff160217905550905050610d67611349565b33816000019073ffffffffffffffffffffffffffffffffffffffff16908173ffffffffffffffffffffffffffffffffffffffff1681525050600560003373ffffffffffffffffffffffffffffffffffffffff1673ffffffffffffffffffffffffffffffffffffffff1681526020019081526020016000206001018054610dec90611bb2565b80601f0160208091040260200160405190810160405280929190818152602001828054610e1890611bb2565b8015610e655780601f10610e3a57610100808354040283529160200191610e65565b820191906000526020600020905b815481529060010190602001808311610e4857829003601f168201915b50505050508160200181905250828160400181905250858160600181905250848160800181815250506040518060400160405280600381526020017f41444400000000000000000000000000000000000000000000000000000000008152508160a0018190525060008160c0018181525050600681908060018154018082558091505060019003906000526020600020906007020160009091909190915060008201518160000160006101000a81548173ffffffffffffffffffffffffffffffffffffffff021916908373ffffffffffffffffffffffffffffffffffffffff1602179055506020820151816001019080519060200190610f669291906112c3565b506040820151816002019080519060200190610f839291906112c3565b506060820151816003019080519060200190610fa09291906112c3565b506080820151816004015560a0820151816005019080519060200190610fc79291906112c3565b5060c08201518160060155505060036000815480929190610fe790611d11565b91905055507f6e95bbaa37a5fdec42a312e049dea2fe6160ebe659214d3409b4f91f164c2f526002548787878787423360405161102b989796959493929190611ae9565b60405180910390a1505050505050565b600460205280600052604060002060009150905080600001549080600101805461106490611bb2565b80601f016020809104026020016040519081016040528092919081815260200182805461109090611bb2565b80156110dd5780601f106110b2576101008083540402835291602001916110dd565b820191906000526020600020905b8154815290600101906020018083116110c057829003601f168201915b5050505050908060020154908060030180546110f890611bb2565b80601f016020809104026020016040519081016040528092919081815260200182805461112490611bb2565b80156111715780601f1061114657610100808354040283529160200191611171565b820191906000526020600020905b81548152906001019060200180831161115457829003601f168201915b50505050509080600401805461118690611bb2565b80601f01602080910402602001604051908101604052809291908181526020018280546111b290611bb2565b80156111ff5780601f106111d4576101008083540402835291602001916111ff565b820191906000526020600020905b8154815290600101906020018083116111e257829003601f168201915b50505050509080600501805461121490611bb2565b80601f016020809104026020016040519081016040528092919081815260200182805461124090611bb2565b801561128d5780601f106112625761010080835404028352916020019161128d565b820191906000526020600020905b81548152906001019060200180831161127057829003601f168201915b5050505050908060060154908060070160009054906101000a900473ffffffffffffffffffffffffffffffffffffffff16905088565b8280546112cf90611bb2565b90600052602060002090601f0160209004810192826112f15760008555611338565b82601f1061130a57805160ff1916838001178555611338565b82800160010185558215611338579182015b8281111561133757825182559160200191906001019061131c565b5b509050611345919061139c565b5090565b6040518060e00160405280600073ffffffffffffffffffffffffffffffffffffffff1681526020016060815260200160608152602001606081526020016000815260200160608152602001600081525090565b5b808211156113b557600081600090555060010161139d565b5090565b600081519050919050565b600082825260208201905092915050565b60005b838110156113f35780820151818401526020810190506113d8565b83811115611402576000848401525b50505050565b6000601f19601f8301169050919050565b6000611424826113b9565b61142e81856113c4565b935061143e8185602086016113d5565b61144781611408565b840191505092915050565b6000602082019050818103600083015261146c8184611419565b905092915050565b600081519050919050565b600082825260208201905092915050565b6000819050602082019050919050565b600073ffffffffffffffffffffffffffffffffffffffff82169050919050565b60006114cb826114a0565b9050919050565b6114db816114c0565b82525050565b600082825260208201905092915050565b60006114fd826113b9565b61150781856114e1565b93506115178185602086016113d5565b61152081611408565b840191505092915050565b6000819050919050565b61153e8161152b565b82525050565b600060e08301600083015161155c60008601826114d2565b506020830151848203602086015261157482826114f2565b9150506040830151848203604086015261158e82826114f2565b915050606083015184820360608601526115a882826114f2565b91505060808301516115bd6080860182611535565b5060a083015184820360a08601526115d582826114f2565b91505060c08301516115ea60c0860182611535565b508091505092915050565b60006116018383611544565b905092915050565b6000602082019050919050565b600061162182611474565b61162b818561147f565b93508360208202850161163d85611490565b8060005b85811015611679578484038952815161165a85826115f5565b945061166583611609565b925060208a01995050600181019050611641565b50829750879550505050505092915050565b600060208201905081810360008301526116a58184611616565b905092915050565b6000604051905090565b600080fd5b600080fd5b6116ca816114c0565b81146116d557600080fd5b50565b6000813590506116e7816116c1565b92915050565b600060208284031215611703576117026116b7565b5b6000611711848285016116d8565b91505092915050565b60008115159050919050565b61172f8161171a565b82525050565b600060208201905061174a6000830184611726565b92915050565b600080fd5b600080fd5b7f4e487b7100000000000000000000000000000000000000000000000000000000600052604160045260246000fd5b61179282611408565b810181811067ffffffffffffffff821117156117b1576117b061175a565b5b80604052505050565b60006117c46116ad565b90506117d08282611789565b919050565b600067ffffffffffffffff8211156117f0576117ef61175a565b5b6117f982611408565b9050602081019050919050565b82818337600083830152505050565b6000611828611823846117d5565b6117ba565b90508281526020810184848401111561184457611843611755565b5b61184f848285611806565b509392505050565b600082601f83011261186c5761186b611750565b5b813561187c848260208601611815565b91505092915050565b6000806040838503121561189c5761189b6116b7565b5b60006118aa858286016116d8565b925050602083013567ffffffffffffffff8111156118cb576118ca6116bc565b5b6118d785828601611857565b9150509250929050565b6118ea8161152b565b82525050565b600060208201905061190560008301846118e1565b92915050565b6119148161152b565b811461191f57600080fd5b50565b6000813590506119318161190b565b92915050565b60006020828403121561194d5761194c6116b7565b5b600061195b84828501611922565b91505092915050565b60008060006060848603121561197d5761197c6116b7565b5b600061198b868287016116d8565b935050602084013567ffffffffffffffff8111156119ac576119ab6116bc565b5b6119b886828701611857565b925050604084013567ffffffffffffffff8111156119d9576119d86116bc565b5b6119e586828701611857565b9150509250925092565b600080600080600060a08688031215611a0b57611a0a6116b7565b5b600086013567ffffffffffffffff811115611a2957611a286116bc565b5b611a3588828901611857565b9550506020611a4688828901611922565b945050604086013567ffffffffffffffff811115611a6757611a666116bc565b5b611a7388828901611857565b935050606086013567ffffffffffffffff811115611a9457611a936116bc565b5b611aa088828901611857565b925050608086013567ffffffffffffffff811115611ac157611ac06116bc565b5b611acd88828901611857565b9150509295509295909350565b611ae3816114c0565b82525050565b600061010082019050611aff600083018b6118e1565b8181036020830152611b11818a611419565b9050611b2060408301896118e1565b8181036060830152611b328188611419565b90508181036080830152611b468187611419565b905081810360a0830152611b5a8186611419565b9050611b6960c08301856118e1565b611b7660e0830184611ada565b9998505050505050505050565b7f4e487b7100000000000000000000000000000000000000000000000000000000600052602260045260246000fd5b60006002820490506001821680611bca57607f821691505b60208210811415611bde57611bdd611b83565b5b50919050565b600081905092915050565b6000611bfa826113b9565b611c048185611be4565b9350611c148185602086016113d5565b80840191505092915050565b6000611c2c8284611bef565b915081905092915050565b60008190508160005260206000209050919050565b60008154611c5981611bb2565b611c638186611be4565b94506001821660008114611c7e5760018114611c8f57611cc2565b60ff19831686528186019350611cc2565b611c9885611c37565b60005b83811015611cba57815481890152600182019150602081019050611c9b565b838801955050505b50505092915050565b6000611cd78284611c4c565b915081905092915050565b7f4e487b7100000000000000000000000000000000000000000000000000000000600052601160045260246000fd5b6000611d1c8261152b565b91507fffffffffffffffffffffffffffffffffffffffffffffffffffffffffffffffff821415611d4f57611d4e611ce2565b5b60018201905091905056fea264697066735822122035e65aba3191b98d39bec8cfc350c3e3ea803c7d3f6d5762c7c3a3a88ee5ae4c64736f6c634300080b0033",
  "immutableReferences": {},
  "source": "// SPDX-License-Identifier: MIT\npragma solidity ^0.8.0;\n\ncontract SimpleStorage {\n    // data\n    string public name = \"ArchStorage\";\n    uint256 storedData;\n\n    uint256 public fileCount = 0;\n    uint256 public transactionCount = 0;\n    mapping(uint256 => File) public files;\n    mapping(address => UserDetail) user;\n\n    struct File {\n        uint256 fileId;\n        string fileHash;\n        uint256 fileSize;\n        string fileType;\n        string fileName;\n        string fileDescription;\n        uint256 uploadTime;\n        address uploader;\n    }\n\n    struct UserDetail {\n        address addr;\n        string name;\n        string password;\n        bool isUserLoggedIn;\n    }\n\n    struct Transaction {\n        address userAddress;\n        string userName;\n        string fileName;\n        string fileHash;\n        uint256 fileSize;\n        string transactionType;\n        uint256 changeLevel;\n    }\n    Transaction[] transactions;\n\n    //events\n\n    // event transactionAdded(Transaction temp);\n\n    event FileUploaded(\n        uint256 fileId,\n        string fileHash,\n        uint256 fileSize,\n        string fileType,\n        string fileName,\n        string fileDescription,\n        uint256 uploadTime,\n        address uploader\n    );\n\n    constructor() public {}\n\n    function uploadFile(\n        string memory _fileHash,\n        uint256 _fileSize,\n        string memory _fileType,\n        string memory _fileName,\n        string memory _fileDescription\n    ) public {\n        // Make sure the file hash exists\n        require(bytes(_fileHash).length > 0);\n        // Make sure file type exists\n        require(bytes(_fileType).length > 0);\n        // Make sure file description exists\n        require(bytes(_fileDescription).length > 0);\n        // Make sure file fileName exists\n        require(bytes(_fileName).length > 0);\n        // Make sure uploader address exists\n        require(msg.sender != address(0));\n        // Make sure file size is more than 0\n        require(_fileSize > 0);\n\n        // Increment file id\n        fileCount++;\n\n        // Add File to the contract\n        files[fileCount] = File(\n            fileCount,\n            _fileHash,\n            _fileSize,\n            _fileType,\n            _fileName,\n            _fileDescription,\n            block.timestamp,\n            msg.sender\n        );\n\n        Transaction memory temp;\n        temp.userAddress = msg.sender;\n        temp.userName = user[msg.sender].name;\n        temp.fileName = _fileName;\n        temp.fileHash = _fileHash;\n        temp.fileSize = _fileSize;\n        temp.transactionType = \"ADD\";\n        temp.changeLevel = 0;\n        transactions.push(temp);\n\n        transactionCount++;\n        // Trigger an event\n        emit FileUploaded(\n            fileCount,\n            _fileHash,\n            _fileSize,\n            _fileType,\n            _fileName,\n            _fileDescription,\n            block.timestamp,\n            msg.sender\n        );\n    }\n\n    // user registration function\n    function register(\n        address _address,\n        string memory _name,\n        string memory _password\n    ) public returns (bool) {\n        require(user[_address].addr != msg.sender);\n        user[_address].addr = _address;\n        user[_address].name = _name;\n        user[_address].password = _password;\n        user[_address].isUserLoggedIn = false;\n        return true;\n    }\n\n    // user login function\n    function login(address _address, string memory _password)\n        public\n        returns (bool)\n    {\n        if (\n            keccak256(abi.encodePacked(user[_address].password)) ==\n            keccak256(abi.encodePacked(_password))\n        ) {\n            user[_address].isUserLoggedIn = true;\n            return user[_address].isUserLoggedIn;\n        } else {\n            return false;\n        }\n    }\n\n    // check the user logged In or not\n    function checkIsUserLogged(address _address) public view returns (bool) {\n        return (user[_address].isUserLoggedIn);\n    }\n\n    function checkUserName(address _address)\n        public\n        view\n        returns (string memory)\n    {\n        return (user[_address].name);\n    }\n\n    // logout the user\n    function logout(address _address) public {\n        user[_address].isUserLoggedIn = false;\n    }\n\n    // function addTransaction(\n    //     address _userAddress,\n    //     string memory _userName,\n    //     string memory _fileName,\n    //     string memory _fileHash,\n    //     string memory _transactionType,\n    //     uint256 _changeLevel\n    // ) public {\n    //     Transaction memory temp;\n    //     temp.userAddress = _userAddress;\n    //     temp.userName = _userName;\n    //     temp.fileName = _fileName;\n    //     temp.fileHash = _fileHash;\n    //     temp.transactionType = _transactionType;\n    //     temp.changeLevel = _changeLevel;\n    //     transactions.push(temp);\n\n    //     transactionCount++;\n    //     emit transactionAdded(temp);\n\n    // }\n\n    function getAllTransactions() public view returns (Transaction[] memory) {\n        return transactions;\n    }\n\n    function set(uint256 x) public {\n        storedData = x;\n    }\n\n    function get() public view returns (uint256) {\n        return storedData;\n    }\n}\n",
  "sourcePath": "C:\\Users\\Shaun\\Desktop\\THESIS\\eth-archive-test\\contracts\\SimpleStorage.sol",
  "compiler": {
    "name": "solc",
    "version": "0.8.11+commit.d7f03943.Emscripten.clang"
  },
  "schemaVersion": "3.4.3",
  "updatedAt": "2022-01-03T14:26:17.737Z",
  "devdoc": {
    "kind": "dev",
    "methods": {},
    "version": 1
  },
  "userdoc": {
    "kind": "user",
    "methods": {},
    "version": 1
  }
}