{
  "contractName": "SimpleStorage",
  "abi": [
    {
      "inputs": [],
      "stateMutability": "nonpayable",
      "type": "constructor"
    },
    {
      "anonymous": false,
      "inputs": [
        {
          "indexed": false,
          "internalType": "string",
          "name": "fileHash",
          "type": "string"
        },
        {
          "indexed": false,
          "internalType": "uint256",
          "name": "fileSize",
          "type": "uint256"
        },
        {
          "indexed": false,
          "internalType": "string",
          "name": "fileType",
          "type": "string"
        },
        {
          "indexed": false,
          "internalType": "string",
          "name": "fileName",
          "type": "string"
        },
        {
          "indexed": false,
          "internalType": "uint256",
          "name": "uploadTime",
          "type": "uint256"
        },
        {
          "indexed": false,
          "internalType": "address",
          "name": "uploader",
          "type": "address"
        },
        {
          "indexed": false,
          "internalType": "uint256",
          "name": "lastChange",
          "type": "uint256"
        }
      ],
      "name": "FileUpdated",
      "type": "event"
    },
    {
      "anonymous": false,
      "inputs": [
        {
          "indexed": false,
          "internalType": "uint256",
          "name": "fileId",
          "type": "uint256"
        },
        {
          "indexed": false,
          "internalType": "string",
          "name": "fileHash",
          "type": "string"
        },
        {
          "indexed": false,
          "internalType": "uint256",
          "name": "fileSize",
          "type": "uint256"
        },
        {
          "indexed": false,
          "internalType": "string",
          "name": "fileType",
          "type": "string"
        },
        {
          "indexed": false,
          "internalType": "string",
          "name": "fileName",
          "type": "string"
        },
        {
          "indexed": false,
          "internalType": "string",
          "name": "fileDescription",
          "type": "string"
        },
        {
          "indexed": false,
          "internalType": "uint256",
          "name": "uploadTime",
          "type": "uint256"
        },
        {
          "indexed": false,
          "internalType": "address",
          "name": "uploader",
          "type": "address"
        },
        {
          "indexed": false,
          "internalType": "uint256",
          "name": "lastChange",
          "type": "uint256"
        }
      ],
      "name": "FileUploaded",
      "type": "event"
    },
    {
      "inputs": [],
      "name": "fileIDs",
      "outputs": [
        {
          "internalType": "uint256",
          "name": "",
          "type": "uint256"
        }
      ],
      "stateMutability": "view",
      "type": "function",
      "constant": true
    },
    {
      "inputs": [],
      "name": "fileNum",
      "outputs": [
        {
          "internalType": "uint256",
          "name": "",
          "type": "uint256"
        }
      ],
      "stateMutability": "view",
      "type": "function",
      "constant": true
    },
    {
      "inputs": [
        {
          "internalType": "uint256",
          "name": "",
          "type": "uint256"
        }
      ],
      "name": "files",
      "outputs": [
        {
          "internalType": "uint256",
          "name": "fileId",
          "type": "uint256"
        },
        {
          "internalType": "string",
          "name": "fileHash",
          "type": "string"
        },
        {
          "internalType": "uint256",
          "name": "fileSize",
          "type": "uint256"
        },
        {
          "internalType": "string",
          "name": "fileType",
          "type": "string"
        },
        {
          "internalType": "string",
          "name": "fileName",
          "type": "string"
        },
        {
          "internalType": "string",
          "name": "fileDescription",
          "type": "string"
        },
        {
          "internalType": "uint256",
          "name": "uploadTime",
          "type": "uint256"
        },
        {
          "internalType": "address",
          "name": "uploader",
          "type": "address"
        },
        {
          "internalType": "uint256",
          "name": "lastChange",
          "type": "uint256"
        }
      ],
      "stateMutability": "view",
      "type": "function",
      "constant": true
    },
    {
      "inputs": [],
      "name": "name",
      "outputs": [
        {
          "internalType": "string",
          "name": "",
          "type": "string"
        }
      ],
      "stateMutability": "view",
      "type": "function",
      "constant": true
    },
    {
      "inputs": [],
      "name": "transactionCount",
      "outputs": [
        {
          "internalType": "uint256",
          "name": "",
          "type": "uint256"
        }
      ],
      "stateMutability": "view",
      "type": "function",
      "constant": true
    },
    {
      "inputs": [
        {
          "internalType": "string",
          "name": "_fileHash",
          "type": "string"
        },
        {
          "internalType": "uint256",
          "name": "_fileSize",
          "type": "uint256"
        },
        {
          "internalType": "string",
          "name": "_fileType",
          "type": "string"
        },
        {
          "internalType": "string",
          "name": "_fileName",
          "type": "string"
        },
        {
          "internalType": "string",
          "name": "_fileDescription",
          "type": "string"
        }
      ],
      "name": "uploadFile",
      "outputs": [],
      "stateMutability": "nonpayable",
      "type": "function"
    },
    {
      "inputs": [
        {
          "internalType": "string",
          "name": "_fileHash",
          "type": "string"
        },
        {
          "internalType": "uint256",
          "name": "_fileSize",
          "type": "uint256"
        },
        {
          "internalType": "string",
          "name": "_fileType",
          "type": "string"
        },
        {
          "internalType": "string",
          "name": "_fileName",
          "type": "string"
        },
        {
          "internalType": "uint256",
          "name": "_fileID",
          "type": "uint256"
        },
        {
          "internalType": "uint256",
          "name": "_changeValue",
          "type": "uint256"
        }
      ],
      "name": "updateFile",
      "outputs": [],
      "stateMutability": "nonpayable",
      "type": "function"
    },
    {
      "inputs": [
        {
          "internalType": "uint256",
          "name": "_fileID",
          "type": "uint256"
        }
      ],
      "name": "getFile",
      "outputs": [
        {
          "components": [
            {
              "internalType": "uint256",
              "name": "fileId",
              "type": "uint256"
            },
            {
              "internalType": "string",
              "name": "fileHash",
              "type": "string"
            },
            {
              "internalType": "uint256",
              "name": "fileSize",
              "type": "uint256"
            },
            {
              "internalType": "string",
              "name": "fileType",
              "type": "string"
            },
            {
              "internalType": "string",
              "name": "fileName",
              "type": "string"
            },
            {
              "internalType": "string",
              "name": "fileDescription",
              "type": "string"
            },
            {
              "internalType": "uint256",
              "name": "uploadTime",
              "type": "uint256"
            },
            {
              "internalType": "address",
              "name": "uploader",
              "type": "address"
            },
            {
              "internalType": "uint256",
              "name": "lastChange",
              "type": "uint256"
            }
          ],
          "internalType": "struct SimpleStorage.File",
          "name": "",
          "type": "tuple"
        }
      ],
      "stateMutability": "view",
      "type": "function",
      "constant": true
    },
    {
      "inputs": [
        {
          "internalType": "uint256[]",
          "name": "_fileID",
          "type": "uint256[]"
        }
      ],
      "name": "deleteFile",
      "outputs": [],
      "stateMutability": "nonpayable",
      "type": "function"
    },
    {
      "inputs": [
        {
          "internalType": "address",
          "name": "_address",
          "type": "address"
        },
        {
          "internalType": "string",
          "name": "_name",
          "type": "string"
        },
        {
          "internalType": "string",
          "name": "_password",
          "type": "string"
        }
      ],
      "name": "register",
      "outputs": [
        {
          "internalType": "bool",
          "name": "",
          "type": "bool"
        }
      ],
      "stateMutability": "nonpayable",
      "type": "function"
    },
    {
      "inputs": [
        {
          "internalType": "address",
          "name": "_address",
          "type": "address"
        },
        {
          "internalType": "string",
          "name": "_password",
          "type": "string"
        }
      ],
      "name": "login",
      "outputs": [
        {
          "internalType": "bool",
          "name": "",
          "type": "bool"
        }
      ],
      "stateMutability": "nonpayable",
      "type": "function"
    },
    {
      "inputs": [
        {
          "internalType": "address",
          "name": "_address",
          "type": "address"
        }
      ],
      "name": "checkIsUserLogged",
      "outputs": [
        {
          "internalType": "bool",
          "name": "",
          "type": "bool"
        }
      ],
      "stateMutability": "view",
      "type": "function",
      "constant": true
    },
    {
      "inputs": [
        {
          "internalType": "address",
          "name": "_address",
          "type": "address"
        }
      ],
      "name": "checkUserName",
      "outputs": [
        {
          "internalType": "string",
          "name": "",
          "type": "string"
        }
      ],
      "stateMutability": "view",
      "type": "function",
      "constant": true
    },
    {
      "inputs": [
        {
          "internalType": "address",
          "name": "_address",
          "type": "address"
        }
      ],
      "name": "logout",
      "outputs": [],
      "stateMutability": "nonpayable",
      "type": "function"
    },
    {
      "inputs": [],
      "name": "getAllTransactions",
      "outputs": [
        {
          "components": [
            {
              "internalType": "address",
              "name": "userAddress",
              "type": "address"
            },
            {
              "internalType": "string",
              "name": "userName",
              "type": "string"
            },
            {
              "internalType": "uint256",
              "name": "fileId",
              "type": "uint256"
            },
            {
              "internalType": "string",
              "name": "fileName",
              "type": "string"
            },
            {
              "internalType": "string",
              "name": "fileHash",
              "type": "string"
            },
            {
              "internalType": "uint256",
              "name": "fileSize",
              "type": "uint256"
            },
            {
              "internalType": "string",
              "name": "transactionType",
              "type": "string"
            },
            {
              "internalType": "uint256",
              "name": "changeLevel",
              "type": "uint256"
            },
            {
              "internalType": "uint256",
              "name": "uploadTime",
              "type": "uint256"
            }
          ],
          "internalType": "struct SimpleStorage.Transaction[]",
          "name": "",
          "type": "tuple[]"
        }
      ],
      "stateMutability": "view",
      "type": "function",
      "constant": true
    }
  ],
  "bytecode": "0x60806040526040518060400160405280600b81526020017f4172636853746f72616765000000000000000000000000000000000000000000815250600090805190602001906200005192919062000075565b506000600155600060025560006003553480156200006e57600080fd5b506200018a565b828054620000839062000154565b90600052602060002090601f016020900481019282620000a75760008555620000f3565b82601f10620000c257805160ff1916838001178555620000f3565b82800160010185558215620000f3579182015b82811115620000f2578251825591602001919060010190620000d5565b5b50905062000102919062000106565b5090565b5b808211156200012157600081600090555060010162000107565b5090565b7f4e487b7100000000000000000000000000000000000000000000000000000000600052602260045260246000fd5b600060028204905060018216806200016d57607f821691505b6020821081141562000184576200018362000125565b5b50919050565b6131de806200019a6000396000f3fe608060405234801561001057600080fd5b50600436106100f55760003560e01c806370242ee411610097578063b77bf60011610066578063b77bf6001461029a578063cc51f9b9146102b8578063e82d9d33146102d4578063f4c714b4146102f0576100f5565b806370242ee4146102145780638d59cc02146102305780639fb8070a14610260578063af856eb61461027e576100f5565b8063297f7b39116100d3578063297f7b39146101545780632bfda313146101845780632f19d50b146101b457806361ea2388146101e4576100f5565b806306fdde03146100fa57806325c2e12c1461011857806327506f5314610136575b600080fd5b610102610328565b60405161010f91906123a5565b60405180910390f35b6101206103b6565b60405161012d91906123e0565b60405180910390f35b61013e6103bc565b60405161014b9190612631565b60405180910390f35b61016e60048036038101906101699190612693565b6106e2565b60405161017b91906126db565b60405180910390f35b61019e60048036038101906101999190612722565b61073b565b6040516101ab9190612829565b60405180910390f35b6101ce60048036038101906101c99190612980565b610a2f565b6040516101db91906126db565b60405180910390f35b6101fe60048036038101906101f99190612693565b610b83565b60405161020b91906123a5565b60405180910390f35b61022e60048036038101906102299190612aa4565b610c57565b005b61024a60048036038101906102459190612aed565b6111cb565b60405161025791906126db565b60405180910390f35b6102686113fd565b60405161027591906123e0565b60405180910390f35b61029860048036038101906102939190612b78565b611403565b005b6102a2611964565b6040516102af91906123e0565b60405180910390f35b6102d260048036038101906102cd9190612693565b61196a565b005b6102ee60048036038101906102e99190612c59565b6119c8565b005b61030a60048036038101906103059190612722565b611ed7565b60405161031f99989796959493929190612d53565b60405180910390f35b6000805461033590612e2b565b80601f016020809104026020016040519081016040528092919081815260200182805461036190612e2b565b80156103ae5780601f10610383576101008083540402835291602001916103ae565b820191906000526020600020905b81548152906001019060200180831161039157829003601f168201915b505050505081565b60025481565b60606006805480602002602001604051908101604052809291908181526020016000905b828210156106d95783829060005260206000209060090201604051806101200160405290816000820160009054906101000a900473ffffffffffffffffffffffffffffffffffffffff1673ffffffffffffffffffffffffffffffffffffffff1673ffffffffffffffffffffffffffffffffffffffff16815260200160018201805461046a90612e2b565b80601f016020809104026020016040519081016040528092919081815260200182805461049690612e2b565b80156104e35780601f106104b8576101008083540402835291602001916104e3565b820191906000526020600020905b8154815290600101906020018083116104c657829003601f168201915b505050505081526020016002820154815260200160038201805461050690612e2b565b80601f016020809104026020016040519081016040528092919081815260200182805461053290612e2b565b801561057f5780601f106105545761010080835404028352916020019161057f565b820191906000526020600020905b81548152906001019060200180831161056257829003601f168201915b5050505050815260200160048201805461059890612e2b565b80601f01602080910402602001604051908101604052809291908181526020018280546105c490612e2b565b80156106115780601f106105e657610100808354040283529160200191610611565b820191906000526020600020905b8154815290600101906020018083116105f457829003601f168201915b505050505081526020016005820154815260200160068201805461063490612e2b565b80601f016020809104026020016040519081016040528092919081815260200182805461066090612e2b565b80156106ad5780601f10610682576101008083540402835291602001916106ad565b820191906000526020600020905b81548152906001019060200180831161069057829003601f168201915b5050505050815260200160078201548152602001600882015481525050815260200190600101906103e0565b50505050905090565b6000600560008373ffffffffffffffffffffffffffffffffffffffff1673ffffffffffffffffffffffffffffffffffffffff16815260200190815260200160002060030160009054906101000a900460ff169050919050565b610743612165565b60046000838152602001908152602001600020604051806101200160405290816000820154815260200160018201805461077c90612e2b565b80601f01602080910402602001604051908101604052809291908181526020018280546107a890612e2b565b80156107f55780601f106107ca576101008083540402835291602001916107f5565b820191906000526020600020905b8154815290600101906020018083116107d857829003601f168201915b505050505081526020016002820154815260200160038201805461081890612e2b565b80601f016020809104026020016040519081016040528092919081815260200182805461084490612e2b565b80156108915780601f1061086657610100808354040283529160200191610891565b820191906000526020600020905b81548152906001019060200180831161087457829003601f168201915b505050505081526020016004820180546108aa90612e2b565b80601f01602080910402602001604051908101604052809291908181526020018280546108d690612e2b565b80156109235780601f106108f857610100808354040283529160200191610923565b820191906000526020600020905b81548152906001019060200180831161090657829003601f168201915b5050505050815260200160058201805461093c90612e2b565b80601f016020809104026020016040519081016040528092919081815260200182805461096890612e2b565b80156109b55780601f1061098a576101008083540402835291602001916109b5565b820191906000526020600020905b81548152906001019060200180831161099857829003601f168201915b50505050508152602001600682015481526020016007820160009054906101000a900473ffffffffffffffffffffffffffffffffffffffff1673ffffffffffffffffffffffffffffffffffffffff1673ffffffffffffffffffffffffffffffffffffffff1681526020016008820154815250509050919050565b600081604051602001610a429190612e99565b60405160208183030381529060405280519060200120600560008573ffffffffffffffffffffffffffffffffffffffff1673ffffffffffffffffffffffffffffffffffffffff168152602001908152602001600020600201604051602001610aaa9190612f44565b604051602081830303815290604052805190602001201415610b78576001600560008573ffffffffffffffffffffffffffffffffffffffff1673ffffffffffffffffffffffffffffffffffffffff16815260200190815260200160002060030160006101000a81548160ff021916908315150217905550600560008473ffffffffffffffffffffffffffffffffffffffff1673ffffffffffffffffffffffffffffffffffffffff16815260200190815260200160002060030160009054906101000a900460ff169050610b7d565b600090505b92915050565b6060600560008373ffffffffffffffffffffffffffffffffffffffff1673ffffffffffffffffffffffffffffffffffffffff1681526020019081526020016000206001018054610bd290612e2b565b80601f0160208091040260200160405190810160405280929190818152602001828054610bfe90612e2b565b8015610c4b5780601f10610c2057610100808354040283529160200191610c4b565b820191906000526020600020905b815481529060010190602001808311610c2e57829003601f168201915b50505050509050919050565b6000815111610c6557600080fd5b60005b81518110156111c757610c796121c7565b33816000019073ffffffffffffffffffffffffffffffffffffffff16908173ffffffffffffffffffffffffffffffffffffffff1681525050600560003373ffffffffffffffffffffffffffffffffffffffff1673ffffffffffffffffffffffffffffffffffffffff1681526020019081526020016000206001018054610cfe90612e2b565b80601f0160208091040260200160405190810160405280929190818152602001828054610d2a90612e2b565b8015610d775780601f10610d4c57610100808354040283529160200191610d77565b820191906000526020600020905b815481529060010190602001808311610d5a57829003601f168201915b50505050508160200181905250828281518110610d9757610d96612f5b565b5b602002602001015181604001818152505060046000848481518110610dbf57610dbe612f5b565b5b602002602001015181526020019081526020016000206004018054610de390612e2b565b80601f0160208091040260200160405190810160405280929190818152602001828054610e0f90612e2b565b8015610e5c5780601f10610e3157610100808354040283529160200191610e5c565b820191906000526020600020905b815481529060010190602001808311610e3f57829003601f168201915b5050505050816060018190525060046000848481518110610e8057610e7f612f5b565b5b602002602001015181526020019081526020016000206001018054610ea490612e2b565b80601f0160208091040260200160405190810160405280929190818152602001828054610ed090612e2b565b8015610f1d5780601f10610ef257610100808354040283529160200191610f1d565b820191906000526020600020905b815481529060010190602001808311610f0057829003601f168201915b5050505050816080018190525060046000848481518110610f4157610f40612f5b565b5b60200260200101518152602001908152602001600020600201548160a00181815250506040518060400160405280600681526020017f44454c45544500000000000000000000000000000000000000000000000000008152508160c0018190525060008160e00181815250504281610100018181525050600681908060018154018082558091505060019003906000526020600020906009020160009091909190915060008201518160000160006101000a81548173ffffffffffffffffffffffffffffffffffffffff021916908373ffffffffffffffffffffffffffffffffffffffff1602179055506020820151816001019080519060200190611047929190612229565b5060408201518160020155606082015181600301908051906020019061106e929190612229565b50608082015181600401908051906020019061108b929190612229565b5060a0820151816005015560c08201518160060190805190602001906110b2929190612229565b5060e0820151816007015561010082015181600801555050600360008154809291906110dd90612fb9565b9190505550600460008484815181106110f9576110f8612f5b565b5b6020026020010151815260200190815260200160002060008082016000905560018201600061112891906122af565b600282016000905560038201600061114091906122af565b60048201600061115091906122af565b60058201600061116091906122af565b60068201600090556007820160006101000a81549073ffffffffffffffffffffffffffffffffffffffff0219169055600882016000905550506001600260008282546111ac9190613002565b925050819055505080806111bf90612fb9565b915050610c68565b5050565b60003373ffffffffffffffffffffffffffffffffffffffff16600560008673ffffffffffffffffffffffffffffffffffffffff1673ffffffffffffffffffffffffffffffffffffffff16815260200190815260200160002060000160009054906101000a900473ffffffffffffffffffffffffffffffffffffffff1673ffffffffffffffffffffffffffffffffffffffff16141561126857600080fd5b83600560008673ffffffffffffffffffffffffffffffffffffffff1673ffffffffffffffffffffffffffffffffffffffff16815260200190815260200160002060000160006101000a81548173ffffffffffffffffffffffffffffffffffffffff021916908373ffffffffffffffffffffffffffffffffffffffff16021790555082600560008673ffffffffffffffffffffffffffffffffffffffff1673ffffffffffffffffffffffffffffffffffffffff168152602001908152602001600020600101908051906020019061133f929190612229565b5081600560008673ffffffffffffffffffffffffffffffffffffffff1673ffffffffffffffffffffffffffffffffffffffff1681526020019081526020016000206002019080519060200190611396929190612229565b506000600560008673ffffffffffffffffffffffffffffffffffffffff1673ffffffffffffffffffffffffffffffffffffffff16815260200190815260200160002060030160006101000a81548160ff021916908315150217905550600190509392505050565b60015481565b600086511161141157600080fd5b600084511161141f57600080fd5b600083511161142d57600080fd5b600073ffffffffffffffffffffffffffffffffffffffff163373ffffffffffffffffffffffffffffffffffffffff16141561146757600080fd5b6000851161147457600080fd5b60008211801561148657506001548211155b61148f57600080fd5b600081101561149d57600080fd5b856004600084815260200190815260200160002060010190805190602001906114c7929190612229565b508460046000848152602001908152602001600020600201819055508360046000848152602001908152602001600020600301908051906020019061150d929190612229565b5082600460008481526020019081526020016000206004019080519060200190611538929190612229565b50426004600084815260200190815260200160002060060181905550336004600084815260200190815260200160002060070160006101000a81548173ffffffffffffffffffffffffffffffffffffffff021916908373ffffffffffffffffffffffffffffffffffffffff1602179055508060046000848152602001908152602001600020600801819055506115cc6121c7565b33816000019073ffffffffffffffffffffffffffffffffffffffff16908173ffffffffffffffffffffffffffffffffffffffff1681525050600560003373ffffffffffffffffffffffffffffffffffffffff1673ffffffffffffffffffffffffffffffffffffffff168152602001908152602001600020600101805461165190612e2b565b80601f016020809104026020016040519081016040528092919081815260200182805461167d90612e2b565b80156116ca5780601f1061169f576101008083540402835291602001916116ca565b820191906000526020600020905b8154815290600101906020018083116116ad57829003601f168201915b505050505081602001819052508281604001818152505060046000848152602001908152602001600020600401805461170290612e2b565b80601f016020809104026020016040519081016040528092919081815260200182805461172e90612e2b565b801561177b5780601f106117505761010080835404028352916020019161177b565b820191906000526020600020905b81548152906001019060200180831161175e57829003601f168201915b50505050508160600181905250868160800181905250858160a00181815250506040518060400160405280600681526020017f55504441544500000000000000000000000000000000000000000000000000008152508160c00181905250818160e00181815250504281610100018181525050600681908060018154018082558091505060019003906000526020600020906009020160009091909190915060008201518160000160006101000a81548173ffffffffffffffffffffffffffffffffffffffff021916908373ffffffffffffffffffffffffffffffffffffffff160217905550602082015181600101908051906020019061187d929190612229565b506040820151816002015560608201518160030190805190602001906118a4929190612229565b5060808201518160040190805190602001906118c1929190612229565b5060a0820151816005015560c08201518160060190805190602001906118e8929190612229565b5060e08201518160070155610100820151816008015550506003600081548092919061191390612fb9565b91905055507fd19526445690872bef8910060eadaa0018c211540676d5e01db67141a4c26946878787874233886040516119539796959493929190613036565b60405180910390a150505050505050565b60035481565b6000600560008373ffffffffffffffffffffffffffffffffffffffff1673ffffffffffffffffffffffffffffffffffffffff16815260200190815260200160002060030160006101000a81548160ff02191690831515021790555050565b60008551116119d657600080fd5b60008351116119e457600080fd5b60008151116119f257600080fd5b6000825111611a0057600080fd5b600073ffffffffffffffffffffffffffffffffffffffff163373ffffffffffffffffffffffffffffffffffffffff161415611a3a57600080fd5b60008411611a4757600080fd5b60016000815480929190611a5a90612fb9565b919050555060026000815480929190611a7290612fb9565b919050555060405180610120016040528060015481526020018681526020018581526020018481526020018381526020018281526020014281526020013373ffffffffffffffffffffffffffffffffffffffff1681526020016000815250600460006001548152602001908152602001600020600082015181600001556020820151816001019080519060200190611b0b929190612229565b50604082015181600201556060820151816003019080519060200190611b32929190612229565b506080820151816004019080519060200190611b4f929190612229565b5060a0820151816005019080519060200190611b6c929190612229565b5060c0820151816006015560e08201518160070160006101000a81548173ffffffffffffffffffffffffffffffffffffffff021916908373ffffffffffffffffffffffffffffffffffffffff1602179055506101008201518160080155905050611bd46121c7565b33816000019073ffffffffffffffffffffffffffffffffffffffff16908173ffffffffffffffffffffffffffffffffffffffff1681525050600560003373ffffffffffffffffffffffffffffffffffffffff1673ffffffffffffffffffffffffffffffffffffffff1681526020019081526020016000206001018054611c5990612e2b565b80601f0160208091040260200160405190810160405280929190818152602001828054611c8590612e2b565b8015611cd25780601f10611ca757610100808354040283529160200191611cd2565b820191906000526020600020905b815481529060010190602001808311611cb557829003601f168201915b50505050508160200181905250600154816040018181525050828160600181905250858160800181905250848160a00181815250506040518060400160405280600381526020017f41444400000000000000000000000000000000000000000000000000000000008152508160c0018190525060008160e00181815250504281610100018181525050600681908060018154018082558091505060019003906000526020600020906009020160009091909190915060008201518160000160006101000a81548173ffffffffffffffffffffffffffffffffffffffff021916908373ffffffffffffffffffffffffffffffffffffffff1602179055506020820151816001019080519060200190611dea929190612229565b50604082015181600201556060820151816003019080519060200190611e11929190612229565b506080820151816004019080519060200190611e2e929190612229565b5060a0820151816005015560c0820151816006019080519060200190611e55929190612229565b5060e082015181600701556101008201518160080155505060036000815480929190611e8090612fb9565b91905055507f6fc027d0a38e3bd91f3659e3e521b78ab94849f03603e0c554c658307138123d600154878787878742336000604051611ec7999897969594939291906130ff565b60405180910390a1505050505050565b6004602052806000526040600020600091509050806000015490806001018054611f0090612e2b565b80601f0160208091040260200160405190810160405280929190818152602001828054611f2c90612e2b565b8015611f795780601f10611f4e57610100808354040283529160200191611f79565b820191906000526020600020905b815481529060010190602001808311611f5c57829003601f168201915b505050505090806002015490806003018054611f9490612e2b565b80601f0160208091040260200160405190810160405280929190818152602001828054611fc090612e2b565b801561200d5780601f10611fe25761010080835404028352916020019161200d565b820191906000526020600020905b815481529060010190602001808311611ff057829003601f168201915b50505050509080600401805461202290612e2b565b80601f016020809104026020016040519081016040528092919081815260200182805461204e90612e2b565b801561209b5780601f106120705761010080835404028352916020019161209b565b820191906000526020600020905b81548152906001019060200180831161207e57829003601f168201915b5050505050908060050180546120b090612e2b565b80601f01602080910402602001604051908101604052809291908181526020018280546120dc90612e2b565b80156121295780601f106120fe57610100808354040283529160200191612129565b820191906000526020600020905b81548152906001019060200180831161210c57829003601f168201915b5050505050908060060154908060070160009054906101000a900473ffffffffffffffffffffffffffffffffffffffff16908060080154905089565b60405180610120016040528060008152602001606081526020016000815260200160608152602001606081526020016060815260200160008152602001600073ffffffffffffffffffffffffffffffffffffffff168152602001600081525090565b604051806101200160405280600073ffffffffffffffffffffffffffffffffffffffff16815260200160608152602001600081526020016060815260200160608152602001600081526020016060815260200160008152602001600081525090565b82805461223590612e2b565b90600052602060002090601f016020900481019282612257576000855561229e565b82601f1061227057805160ff191683800117855561229e565b8280016001018555821561229e579182015b8281111561229d578251825591602001919060010190612282565b5b5090506122ab91906122ef565b5090565b5080546122bb90612e2b565b6000825580601f106122cd57506122ec565b601f0160209004906000526020600020908101906122eb91906122ef565b5b50565b5b808211156123085760008160009055506001016122f0565b5090565b600081519050919050565b600082825260208201905092915050565b60005b8381101561234657808201518184015260208101905061232b565b83811115612355576000848401525b50505050565b6000601f19601f8301169050919050565b60006123778261230c565b6123818185612317565b9350612391818560208601612328565b61239a8161235b565b840191505092915050565b600060208201905081810360008301526123bf818461236c565b905092915050565b6000819050919050565b6123da816123c7565b82525050565b60006020820190506123f560008301846123d1565b92915050565b600081519050919050565b600082825260208201905092915050565b6000819050602082019050919050565b600073ffffffffffffffffffffffffffffffffffffffff82169050919050565b600061245282612427565b9050919050565b61246281612447565b82525050565b600082825260208201905092915050565b60006124848261230c565b61248e8185612468565b935061249e818560208601612328565b6124a78161235b565b840191505092915050565b6124bb816123c7565b82525050565b6000610120830160008301516124da6000860182612459565b50602083015184820360208601526124f28282612479565b915050604083015161250760408601826124b2565b506060830151848203606086015261251f8282612479565b915050608083015184820360808601526125398282612479565b91505060a083015161254e60a08601826124b2565b5060c083015184820360c08601526125668282612479565b91505060e083015161257b60e08601826124b2565b506101008301516125906101008601826124b2565b508091505092915050565b60006125a783836124c1565b905092915050565b6000602082019050919050565b60006125c7826123fb565b6125d18185612406565b9350836020820285016125e385612417565b8060005b8581101561261f5784840389528151612600858261259b565b945061260b836125af565b925060208a019950506001810190506125e7565b50829750879550505050505092915050565b6000602082019050818103600083015261264b81846125bc565b905092915050565b6000604051905090565b600080fd5b600080fd5b61267081612447565b811461267b57600080fd5b50565b60008135905061268d81612667565b92915050565b6000602082840312156126a9576126a861265d565b5b60006126b78482850161267e565b91505092915050565b60008115159050919050565b6126d5816126c0565b82525050565b60006020820190506126f060008301846126cc565b92915050565b6126ff816123c7565b811461270a57600080fd5b50565b60008135905061271c816126f6565b92915050565b6000602082840312156127385761273761265d565b5b60006127468482850161270d565b91505092915050565b60006101208301600083015161276860008601826124b2565b50602083015184820360208601526127808282612479565b915050604083015161279560408601826124b2565b50606083015184820360608601526127ad8282612479565b915050608083015184820360808601526127c78282612479565b91505060a083015184820360a08601526127e18282612479565b91505060c08301516127f660c08601826124b2565b5060e083015161280960e0860182612459565b5061010083015161281e6101008601826124b2565b508091505092915050565b60006020820190508181036000830152612843818461274f565b905092915050565b600080fd5b600080fd5b7f4e487b7100000000000000000000000000000000000000000000000000000000600052604160045260246000fd5b61288d8261235b565b810181811067ffffffffffffffff821117156128ac576128ab612855565b5b80604052505050565b60006128bf612653565b90506128cb8282612884565b919050565b600067ffffffffffffffff8211156128eb576128ea612855565b5b6128f48261235b565b9050602081019050919050565b82818337600083830152505050565b600061292361291e846128d0565b6128b5565b90508281526020810184848401111561293f5761293e612850565b5b61294a848285612901565b509392505050565b600082601f8301126129675761296661284b565b5b8135612977848260208601612910565b91505092915050565b600080604083850312156129975761299661265d565b5b60006129a58582860161267e565b925050602083013567ffffffffffffffff8111156129c6576129c5612662565b5b6129d285828601612952565b9150509250929050565b600067ffffffffffffffff8211156129f7576129f6612855565b5b602082029050602081019050919050565b600080fd5b6000612a20612a1b846129dc565b6128b5565b90508083825260208201905060208402830185811115612a4357612a42612a08565b5b835b81811015612a6c5780612a58888261270d565b845260208401935050602081019050612a45565b5050509392505050565b600082601f830112612a8b57612a8a61284b565b5b8135612a9b848260208601612a0d565b91505092915050565b600060208284031215612aba57612ab961265d565b5b600082013567ffffffffffffffff811115612ad857612ad7612662565b5b612ae484828501612a76565b91505092915050565b600080600060608486031215612b0657612b0561265d565b5b6000612b148682870161267e565b935050602084013567ffffffffffffffff811115612b3557612b34612662565b5b612b4186828701612952565b925050604084013567ffffffffffffffff811115612b6257612b61612662565b5b612b6e86828701612952565b9150509250925092565b60008060008060008060c08789031215612b9557612b9461265d565b5b600087013567ffffffffffffffff811115612bb357612bb2612662565b5b612bbf89828a01612952565b9650506020612bd089828a0161270d565b955050604087013567ffffffffffffffff811115612bf157612bf0612662565b5b612bfd89828a01612952565b945050606087013567ffffffffffffffff811115612c1e57612c1d612662565b5b612c2a89828a01612952565b9350506080612c3b89828a0161270d565b92505060a0612c4c89828a0161270d565b9150509295509295509295565b600080600080600060a08688031215612c7557612c7461265d565b5b600086013567ffffffffffffffff811115612c9357612c92612662565b5b612c9f88828901612952565b9550506020612cb08882890161270d565b945050604086013567ffffffffffffffff811115612cd157612cd0612662565b5b612cdd88828901612952565b935050606086013567ffffffffffffffff811115612cfe57612cfd612662565b5b612d0a88828901612952565b925050608086013567ffffffffffffffff811115612d2b57612d2a612662565b5b612d3788828901612952565b9150509295509295909350565b612d4d81612447565b82525050565b600061012082019050612d69600083018c6123d1565b8181036020830152612d7b818b61236c565b9050612d8a604083018a6123d1565b8181036060830152612d9c818961236c565b90508181036080830152612db0818861236c565b905081810360a0830152612dc4818761236c565b9050612dd360c08301866123d1565b612de060e0830185612d44565b612dee6101008301846123d1565b9a9950505050505050505050565b7f4e487b7100000000000000000000000000000000000000000000000000000000600052602260045260246000fd5b60006002820490506001821680612e4357607f821691505b60208210811415612e5757612e56612dfc565b5b50919050565b600081905092915050565b6000612e738261230c565b612e7d8185612e5d565b9350612e8d818560208601612328565b80840191505092915050565b6000612ea58284612e68565b915081905092915050565b60008190508160005260206000209050919050565b60008154612ed281612e2b565b612edc8186612e5d565b94506001821660008114612ef75760018114612f0857612f3b565b60ff19831686528186019350612f3b565b612f1185612eb0565b60005b83811015612f3357815481890152600182019150602081019050612f14565b838801955050505b50505092915050565b6000612f508284612ec5565b915081905092915050565b7f4e487b7100000000000000000000000000000000000000000000000000000000600052603260045260246000fd5b7f4e487b7100000000000000000000000000000000000000000000000000000000600052601160045260246000fd5b6000612fc4826123c7565b91507fffffffffffffffffffffffffffffffffffffffffffffffffffffffffffffffff821415612ff757612ff6612f8a565b5b600182019050919050565b600061300d826123c7565b9150613018836123c7565b92508282101561302b5761302a612f8a565b5b828203905092915050565b600060e0820190508181036000830152613050818a61236c565b905061305f60208301896123d1565b8181036040830152613071818861236c565b90508181036060830152613085818761236c565b905061309460808301866123d1565b6130a160a0830185612d44565b6130ae60c08301846123d1565b98975050505050505050565b6000819050919050565b6000819050919050565b60006130e96130e46130df846130ba565b6130c4565b6123c7565b9050919050565b6130f9816130ce565b82525050565b600061012082019050613115600083018c6123d1565b8181036020830152613127818b61236c565b9050613136604083018a6123d1565b8181036060830152613148818961236c565b9050818103608083015261315c818861236c565b905081810360a0830152613170818761236c565b905061317f60c08301866123d1565b61318c60e0830185612d44565b61319a6101008301846130f0565b9a995050505050505050505056fea2646970667358221220d988c9f629800de7fa8fa9975324d4e004ec33dac517c1660fc058f582d676ef64736f6c634300080b0033",
  "immutableReferences": {},
  "source": "// SPDX-License-Identifier: MIT\npragma solidity ^0.8.0;\n\ncontract SimpleStorage {\n    // data\n    string public name = \"ArchStorage\";\n\n    uint256 public fileIDs = 0;\n    uint256 public fileNum = 0;\n    uint256 public transactionCount = 0;\n    mapping(uint256 => File) public files;\n    mapping(address => UserDetail) user;\n\n    struct File {\n        uint256 fileId;\n        string fileHash;\n        uint256 fileSize;\n        string fileType;\n        string fileName;\n        string fileDescription;\n        uint256 uploadTime;\n        address uploader;\n        uint256 lastChange;\n    }\n\n    struct UserDetail {\n        address addr;\n        string name;\n        string password;\n        bool isUserLoggedIn;\n    }\n\n    struct Transaction {\n        address userAddress;\n        string userName;\n        uint256 fileId;\n        string fileName;\n        string fileHash;\n        uint256 fileSize;\n        string transactionType;\n        uint256 changeLevel;\n        uint256 uploadTime;\n    }\n    Transaction[] transactions;\n\n    //events\n\n    // event transactionAdded(Transaction temp);\n\n    event FileUploaded(\n        uint256 fileId,\n        string fileHash,\n        uint256 fileSize,\n        string fileType,\n        string fileName,\n        string fileDescription,\n        uint256 uploadTime,\n        address uploader,\n        uint256 lastChange\n    );\n\n    event FileUpdated(\n        string fileHash,\n        uint256 fileSize,\n        string fileType,\n        string fileName,\n        uint256 uploadTime,\n        address uploader,\n        uint256 lastChange\n    );\n\n    constructor() public {}\n\n    function uploadFile(\n        string memory _fileHash,\n        uint256 _fileSize,\n        string memory _fileType,\n        string memory _fileName,\n        string memory _fileDescription\n    ) public {\n        // Make sure the file hash exists\n        require(bytes(_fileHash).length > 0);\n        // Make sure file type exists\n        require(bytes(_fileType).length > 0);\n        // Make sure file description exists\n        require(bytes(_fileDescription).length > 0);\n        // Make sure file fileName exists\n        require(bytes(_fileName).length > 0);\n        // Make sure uploader address exists\n        require(msg.sender != address(0));\n        // Make sure file size is more than 0\n        require(_fileSize > 0);\n\n        // Increment file id\n        fileIDs++;\n        fileNum++;\n\n        // Add File to the contract\n        files[fileIDs] = File(\n            fileIDs,\n            _fileHash,\n            _fileSize,\n            _fileType,\n            _fileName,\n            _fileDescription,\n            block.timestamp,\n            msg.sender,\n            0\n        );\n\n        Transaction memory temp;\n        temp.userAddress = msg.sender;\n        temp.userName = user[msg.sender].name;\n        temp.fileId = fileIDs;\n        temp.fileName = _fileName;\n        temp.fileHash = _fileHash;\n        temp.fileSize = _fileSize;\n        temp.transactionType = \"ADD\";\n        temp.changeLevel = 0;\n        temp.uploadTime = block.timestamp;\n        transactions.push(temp);\n\n        transactionCount++;\n        // Trigger an event\n        emit FileUploaded(\n            fileIDs,\n            _fileHash,\n            _fileSize,\n            _fileType,\n            _fileName,\n            _fileDescription,\n            block.timestamp,\n            msg.sender,\n            0\n        );\n    }\n\n    function updateFile(\n        string memory _fileHash,\n        uint256 _fileSize,\n        string memory _fileType,\n        string memory _fileName,\n        uint256 _fileID,\n        uint256 _changeValue\n    ) public {\n        // Make sure the file hash exists\n        require(bytes(_fileHash).length > 0);\n        // Make sure file type exists\n        require(bytes(_fileType).length > 0);\n        require(bytes(_fileName).length > 0);\n        // Make sure uploader address exists\n        require(msg.sender != address(0));\n        // Make sure file size is more than 0\n        require(_fileSize > 0);\n        require(_fileID > 0 && _fileID <= fileIDs);\n        require(_changeValue >= 0);\n\n        // update current file\n        files[_fileID].fileHash = _fileHash;\n        files[_fileID].fileSize = _fileSize;\n        files[_fileID].fileType = _fileType;\n        files[_fileID].fileName = _fileName;\n        files[_fileID].uploadTime = block.timestamp;\n        files[_fileID].uploader = msg.sender;\n        files[_fileID].lastChange = _changeValue;\n\n        Transaction memory temp;\n        temp.userAddress = msg.sender;\n        temp.userName = user[msg.sender].name;\n        temp.fileId = _fileID;\n        temp.fileName = files[_fileID].fileName;\n        temp.fileHash = _fileHash;\n        temp.fileSize = _fileSize;\n        temp.transactionType = \"UPDATE\";\n        temp.changeLevel = _changeValue;\n        temp.uploadTime = block.timestamp;\n        transactions.push(temp);\n\n        transactionCount++;\n        // Trigger an event\n        emit FileUpdated(\n            _fileHash,\n            _fileSize,\n            _fileType,\n            _fileName,\n            block.timestamp,\n            msg.sender,\n            _changeValue\n        );\n    }\n\n    function getFile(uint256 _fileID) public view returns (File memory) {\n        return files[_fileID];\n    }\n\n    function deleteFile(uint256[] memory _fileID) public {\n        require(_fileID.length > 0);\n        for (uint256 i = 0; i < _fileID.length; i++) {\n            Transaction memory temp;\n            temp.userAddress = msg.sender;\n            temp.userName = user[msg.sender].name;\n            temp.fileId = _fileID[i];\n            temp.fileName = files[_fileID[i]].fileName;\n            temp.fileHash = files[_fileID[i]].fileHash;\n            temp.fileSize = files[_fileID[i]].fileSize;\n            temp.transactionType = \"DELETE\";\n            temp.changeLevel = 0;\n            temp.uploadTime = block.timestamp;\n            transactions.push(temp);\n\n            transactionCount++;\n            delete files[_fileID[i]];\n            fileNum -= 1;\n        }\n    }\n\n    // user registration function\n    function register(\n        address _address,\n        string memory _name,\n        string memory _password\n    ) public returns (bool) {\n        require(user[_address].addr != msg.sender);\n        user[_address].addr = _address;\n        user[_address].name = _name;\n        user[_address].password = _password;\n        user[_address].isUserLoggedIn = false;\n        return true;\n    }\n\n    // user login function\n    function login(address _address, string memory _password)\n        public\n        returns (bool)\n    {\n        if (\n            keccak256(abi.encodePacked(user[_address].password)) ==\n            keccak256(abi.encodePacked(_password))\n        ) {\n            user[_address].isUserLoggedIn = true;\n            return user[_address].isUserLoggedIn;\n        } else {\n            return false;\n        }\n    }\n\n    // check the user logged In or not\n    function checkIsUserLogged(address _address) public view returns (bool) {\n        return (user[_address].isUserLoggedIn);\n    }\n\n    function checkUserName(address _address)\n        public\n        view\n        returns (string memory)\n    {\n        return (user[_address].name);\n    }\n\n    // logout the user\n    function logout(address _address) public {\n        user[_address].isUserLoggedIn = false;\n    }\n\n    function getAllTransactions() public view returns (Transaction[] memory) {\n        return transactions;\n    }\n}\n",
  "sourcePath": "C:\\Users\\Shaun\\Desktop\\THESIS\\eth-archive-test\\contracts\\SimpleStorage.sol",
  "compiler": {
    "name": "solc",
    "version": "0.8.11+commit.d7f03943.Emscripten.clang"
  },
  "schemaVersion": "3.4.3",
  "updatedAt": "2022-01-28T13:54:55.181Z",
  "networkType": "ethereum",
  "devdoc": {
    "kind": "dev",
    "methods": {},
    "version": 1
  },
  "userdoc": {
    "kind": "user",
    "methods": {},
    "version": 1
  }
}