{
  "contractName": "SimpleStorage",
  "abi": [
    {
      "inputs": [],
      "stateMutability": "nonpayable",
      "type": "constructor"
    },
    {
      "anonymous": false,
      "inputs": [
        {
          "indexed": false,
          "internalType": "string",
          "name": "fileHash",
          "type": "string"
        },
        {
          "indexed": false,
          "internalType": "uint256",
          "name": "fileSize",
          "type": "uint256"
        },
        {
          "indexed": false,
          "internalType": "string",
          "name": "fileType",
          "type": "string"
        },
        {
          "indexed": false,
          "internalType": "uint256",
          "name": "uploadTime",
          "type": "uint256"
        },
        {
          "indexed": false,
          "internalType": "address",
          "name": "uploader",
          "type": "address"
        }
      ],
      "name": "FileUpdated",
      "type": "event"
    },
    {
      "anonymous": false,
      "inputs": [
        {
          "indexed": false,
          "internalType": "uint256",
          "name": "fileId",
          "type": "uint256"
        },
        {
          "indexed": false,
          "internalType": "string",
          "name": "fileHash",
          "type": "string"
        },
        {
          "indexed": false,
          "internalType": "uint256",
          "name": "fileSize",
          "type": "uint256"
        },
        {
          "indexed": false,
          "internalType": "string",
          "name": "fileType",
          "type": "string"
        },
        {
          "indexed": false,
          "internalType": "string",
          "name": "fileName",
          "type": "string"
        },
        {
          "indexed": false,
          "internalType": "string",
          "name": "fileDescription",
          "type": "string"
        },
        {
          "indexed": false,
          "internalType": "uint256",
          "name": "uploadTime",
          "type": "uint256"
        },
        {
          "indexed": false,
          "internalType": "address",
          "name": "uploader",
          "type": "address"
        }
      ],
      "name": "FileUploaded",
      "type": "event"
    },
    {
      "inputs": [],
      "name": "fileIDs",
      "outputs": [
        {
          "internalType": "uint256",
          "name": "",
          "type": "uint256"
        }
      ],
      "stateMutability": "view",
      "type": "function"
    },
    {
      "inputs": [],
      "name": "fileNum",
      "outputs": [
        {
          "internalType": "uint256",
          "name": "",
          "type": "uint256"
        }
      ],
      "stateMutability": "view",
      "type": "function"
    },
    {
      "inputs": [
        {
          "internalType": "uint256",
          "name": "",
          "type": "uint256"
        }
      ],
      "name": "files",
      "outputs": [
        {
          "internalType": "uint256",
          "name": "fileId",
          "type": "uint256"
        },
        {
          "internalType": "string",
          "name": "fileHash",
          "type": "string"
        },
        {
          "internalType": "uint256",
          "name": "fileSize",
          "type": "uint256"
        },
        {
          "internalType": "string",
          "name": "fileType",
          "type": "string"
        },
        {
          "internalType": "string",
          "name": "fileName",
          "type": "string"
        },
        {
          "internalType": "string",
          "name": "fileDescription",
          "type": "string"
        },
        {
          "internalType": "uint256",
          "name": "uploadTime",
          "type": "uint256"
        },
        {
          "internalType": "address",
          "name": "uploader",
          "type": "address"
        }
      ],
      "stateMutability": "view",
      "type": "function"
    },
    {
      "inputs": [],
      "name": "name",
      "outputs": [
        {
          "internalType": "string",
          "name": "",
          "type": "string"
        }
      ],
      "stateMutability": "view",
      "type": "function"
    },
    {
      "inputs": [],
      "name": "transactionCount",
      "outputs": [
        {
          "internalType": "uint256",
          "name": "",
          "type": "uint256"
        }
      ],
      "stateMutability": "view",
      "type": "function"
    },
    {
      "inputs": [
        {
          "internalType": "string",
          "name": "_fileHash",
          "type": "string"
        },
        {
          "internalType": "uint256",
          "name": "_fileSize",
          "type": "uint256"
        },
        {
          "internalType": "string",
          "name": "_fileType",
          "type": "string"
        },
        {
          "internalType": "string",
          "name": "_fileName",
          "type": "string"
        },
        {
          "internalType": "string",
          "name": "_fileDescription",
          "type": "string"
        }
      ],
      "name": "uploadFile",
      "outputs": [],
      "stateMutability": "nonpayable",
      "type": "function"
    },
    {
      "inputs": [
        {
          "internalType": "string",
          "name": "_fileHash",
          "type": "string"
        },
        {
          "internalType": "uint256",
          "name": "_fileSize",
          "type": "uint256"
        },
        {
          "internalType": "string",
          "name": "_fileType",
          "type": "string"
        },
        {
          "internalType": "uint256",
          "name": "_fileID",
          "type": "uint256"
        },
        {
          "internalType": "uint256",
          "name": "_changeValue",
          "type": "uint256"
        }
      ],
      "name": "updateFile",
      "outputs": [],
      "stateMutability": "nonpayable",
      "type": "function"
    },
    {
      "inputs": [
        {
          "internalType": "uint256",
          "name": "_fileID",
          "type": "uint256"
        }
      ],
      "name": "getFile",
      "outputs": [
        {
          "components": [
            {
              "internalType": "uint256",
              "name": "fileId",
              "type": "uint256"
            },
            {
              "internalType": "string",
              "name": "fileHash",
              "type": "string"
            },
            {
              "internalType": "uint256",
              "name": "fileSize",
              "type": "uint256"
            },
            {
              "internalType": "string",
              "name": "fileType",
              "type": "string"
            },
            {
              "internalType": "string",
              "name": "fileName",
              "type": "string"
            },
            {
              "internalType": "string",
              "name": "fileDescription",
              "type": "string"
            },
            {
              "internalType": "uint256",
              "name": "uploadTime",
              "type": "uint256"
            },
            {
              "internalType": "address",
              "name": "uploader",
              "type": "address"
            }
          ],
          "internalType": "struct SimpleStorage.File",
          "name": "",
          "type": "tuple"
        }
      ],
      "stateMutability": "view",
      "type": "function"
    },
    {
      "inputs": [
        {
          "internalType": "uint256[]",
          "name": "_fileID",
          "type": "uint256[]"
        }
      ],
      "name": "deleteFile",
      "outputs": [],
      "stateMutability": "nonpayable",
      "type": "function"
    },
    {
      "inputs": [
        {
          "internalType": "address",
          "name": "_address",
          "type": "address"
        },
        {
          "internalType": "string",
          "name": "_name",
          "type": "string"
        },
        {
          "internalType": "string",
          "name": "_password",
          "type": "string"
        }
      ],
      "name": "register",
      "outputs": [
        {
          "internalType": "bool",
          "name": "",
          "type": "bool"
        }
      ],
      "stateMutability": "nonpayable",
      "type": "function"
    },
    {
      "inputs": [
        {
          "internalType": "address",
          "name": "_address",
          "type": "address"
        },
        {
          "internalType": "string",
          "name": "_password",
          "type": "string"
        }
      ],
      "name": "login",
      "outputs": [
        {
          "internalType": "bool",
          "name": "",
          "type": "bool"
        }
      ],
      "stateMutability": "nonpayable",
      "type": "function"
    },
    {
      "inputs": [
        {
          "internalType": "address",
          "name": "_address",
          "type": "address"
        }
      ],
      "name": "checkIsUserLogged",
      "outputs": [
        {
          "internalType": "bool",
          "name": "",
          "type": "bool"
        }
      ],
      "stateMutability": "view",
      "type": "function"
    },
    {
      "inputs": [
        {
          "internalType": "address",
          "name": "_address",
          "type": "address"
        }
      ],
      "name": "checkUserName",
      "outputs": [
        {
          "internalType": "string",
          "name": "",
          "type": "string"
        }
      ],
      "stateMutability": "view",
      "type": "function"
    },
    {
      "inputs": [
        {
          "internalType": "address",
          "name": "_address",
          "type": "address"
        }
      ],
      "name": "logout",
      "outputs": [],
      "stateMutability": "nonpayable",
      "type": "function"
    },
    {
      "inputs": [],
      "name": "getAllTransactions",
      "outputs": [
        {
          "components": [
            {
              "internalType": "address",
              "name": "userAddress",
              "type": "address"
            },
            {
              "internalType": "string",
              "name": "userName",
              "type": "string"
            },
            {
              "internalType": "string",
              "name": "fileName",
              "type": "string"
            },
            {
              "internalType": "string",
              "name": "fileHash",
              "type": "string"
            },
            {
              "internalType": "uint256",
              "name": "fileSize",
              "type": "uint256"
            },
            {
              "internalType": "string",
              "name": "transactionType",
              "type": "string"
            },
            {
              "internalType": "uint256",
              "name": "changeLevel",
              "type": "uint256"
            },
            {
              "internalType": "uint256",
              "name": "uploadTime",
              "type": "uint256"
            }
          ],
          "internalType": "struct SimpleStorage.Transaction[]",
          "name": "",
          "type": "tuple[]"
        }
      ],
      "stateMutability": "view",
      "type": "function"
    },
    {
      "inputs": [
        {
          "internalType": "uint256",
          "name": "x",
          "type": "uint256"
        }
      ],
      "name": "set",
      "outputs": [],
      "stateMutability": "nonpayable",
      "type": "function"
    },
    {
      "inputs": [],
      "name": "get",
      "outputs": [
        {
          "internalType": "uint256",
          "name": "",
          "type": "uint256"
        }
      ],
      "stateMutability": "view",
      "type": "function"
    }
  ],
  "bytecode": "0x60806040526040518060400160405280600b81526020017f4172636853746f72616765000000000000000000000000000000000000000000815250600090805190602001906200005192919062000075565b506000600255600060035560006004553480156200006e57600080fd5b506200018a565b828054620000839062000154565b90600052602060002090601f016020900481019282620000a75760008555620000f3565b82601f10620000c257805160ff1916838001178555620000f3565b82800160010185558215620000f3579182015b82811115620000f2578251825591602001919060010190620000d5565b5b50905062000102919062000106565b5090565b5b808211156200012157600081600090555060010162000107565b5090565b7f4e487b7100000000000000000000000000000000000000000000000000000000600052602260045260246000fd5b600060028204905060018216806200016d57607f821691505b6020821081141562000184576200018362000125565b5b50919050565b612fcd806200019a6000396000f3fe608060405234801561001057600080fd5b506004361061010b5760003560e01c806361ea2388116100a25780639fb8070a116100715780639fb8070a146102cc578063b77bf600146102ea578063cc51f9b914610308578063e82d9d3314610324578063f4c714b4146103405761010b565b806361ea2388146102325780636d4ce63c1461026257806370242ee4146102805780638d59cc021461029c5761010b565b8063297f7b39116100de578063297f7b39146101865780632bfda313146101b65780632f19d50b146101e657806360fe47b1146102165761010b565b806306fdde031461011057806320fd785e1461012e57806325c2e12c1461014a57806327506f5314610168575b600080fd5b610118610377565b604051610125919061230c565b60405180910390f35b610148600480360381019061014391906124ad565b610405565b005b6101526108f7565b60405161015f919061256f565b60405180910390f35b6101706108fd565b60405161017d91906127ab565b60405180910390f35b6101a0600480360381019061019b91906127f9565b610c19565b6040516101ad9190612841565b60405180910390f35b6101d060048036038101906101cb919061285c565b610c72565b6040516101dd919061294e565b60405180910390f35b61020060048036038101906101fb9190612970565b610f5c565b60405161020d9190612841565b60405180910390f35b610230600480360381019061022b919061285c565b6110b0565b005b61024c600480360381019061024791906127f9565b6110ba565b604051610259919061230c565b60405180910390f35b61026a61118e565b604051610277919061256f565b60405180910390f35b61029a60048036038101906102959190612a94565b611198565b005b6102b660048036038101906102b19190612add565b6116d4565b6040516102c39190612841565b60405180910390f35b6102d4611906565b6040516102e1919061256f565b60405180910390f35b6102f261190c565b6040516102ff919061256f565b60405180910390f35b610322600480360381019061031d91906127f9565b611912565b005b61033e60048036038101906103399190612b68565b611970565b005b61035a6004803603810190610355919061285c565b611e52565b60405161036e989796959493929190612c62565b60405180910390f35b6000805461038490612d2b565b80601f01602080910402602001604051908101604052809291908181526020018280546103b090612d2b565b80156103fd5780601f106103d2576101008083540402835291602001916103fd565b820191906000526020600020905b8154815290600101906020018083116103e057829003601f168201915b505050505081565b600085511161041357600080fd5b600083511161042157600080fd5b600073ffffffffffffffffffffffffffffffffffffffff163373ffffffffffffffffffffffffffffffffffffffff16141561045b57600080fd5b6000841161046857600080fd5b60008211801561047a57506002548211155b61048357600080fd5b600081101561049157600080fd5b846005600084815260200190815260200160002060010190805190602001906104bb9291906120da565b50836005600084815260200190815260200160002060020181905550826005600084815260200190815260200160002060030190805190602001906105019291906120da565b50426005600084815260200190815260200160002060060181905550336005600084815260200190815260200160002060070160006101000a81548173ffffffffffffffffffffffffffffffffffffffff021916908373ffffffffffffffffffffffffffffffffffffffff16021790555061057a612160565b33816000019073ffffffffffffffffffffffffffffffffffffffff16908173ffffffffffffffffffffffffffffffffffffffff1681525050600660003373ffffffffffffffffffffffffffffffffffffffff1673ffffffffffffffffffffffffffffffffffffffff16815260200190815260200160002060010180546105ff90612d2b565b80601f016020809104026020016040519081016040528092919081815260200182805461062b90612d2b565b80156106785780601f1061064d57610100808354040283529160200191610678565b820191906000526020600020905b81548152906001019060200180831161065b57829003601f168201915b505050505081602001819052506005600084815260200190815260200160002060040180546106a690612d2b565b80601f01602080910402602001604051908101604052809291908181526020018280546106d290612d2b565b801561071f5780601f106106f45761010080835404028352916020019161071f565b820191906000526020600020905b81548152906001019060200180831161070257829003601f168201915b50505050508160400181905250858160600181905250848160800181815250506040518060400160405280600681526020017f55504441544500000000000000000000000000000000000000000000000000008152508160a00181905250818160c0018181525050428160e0018181525050600781908060018154018082558091505060019003906000526020600020906008020160009091909190915060008201518160000160006101000a81548173ffffffffffffffffffffffffffffffffffffffff021916908373ffffffffffffffffffffffffffffffffffffffff16021790555060208201518160010190805190602001906108209291906120da565b50604082015181600201908051906020019061083d9291906120da565b50606082015181600301908051906020019061085a9291906120da565b506080820151816004015560a08201518160050190805190602001906108819291906120da565b5060c0820151816006015560e082015181600701555050600460008154809291906108ab90612d8c565b91905055507f4557103770da0003950f4378b8b39420ebc7349f7d2c9e3a48e006b5f7f49f6286868642336040516108e7959493929190612dd5565b60405180910390a1505050505050565b60035481565b60606007805480602002602001604051908101604052809291908181526020016000905b82821015610c105783829060005260206000209060080201604051806101000160405290816000820160009054906101000a900473ffffffffffffffffffffffffffffffffffffffff1673ffffffffffffffffffffffffffffffffffffffff1673ffffffffffffffffffffffffffffffffffffffff1681526020016001820180546109ab90612d2b565b80601f01602080910402602001604051908101604052809291908181526020018280546109d790612d2b565b8015610a245780601f106109f957610100808354040283529160200191610a24565b820191906000526020600020905b815481529060010190602001808311610a0757829003601f168201915b50505050508152602001600282018054610a3d90612d2b565b80601f0160208091040260200160405190810160405280929190818152602001828054610a6990612d2b565b8015610ab65780601f10610a8b57610100808354040283529160200191610ab6565b820191906000526020600020905b815481529060010190602001808311610a9957829003601f168201915b50505050508152602001600382018054610acf90612d2b565b80601f0160208091040260200160405190810160405280929190818152602001828054610afb90612d2b565b8015610b485780601f10610b1d57610100808354040283529160200191610b48565b820191906000526020600020905b815481529060010190602001808311610b2b57829003601f168201915b5050505050815260200160048201548152602001600582018054610b6b90612d2b565b80601f0160208091040260200160405190810160405280929190818152602001828054610b9790612d2b565b8015610be45780601f10610bb957610100808354040283529160200191610be4565b820191906000526020600020905b815481529060010190602001808311610bc757829003601f168201915b505050505081526020016006820154815260200160078201548152505081526020019060010190610921565b50505050905090565b6000600660008373ffffffffffffffffffffffffffffffffffffffff1673ffffffffffffffffffffffffffffffffffffffff16815260200190815260200160002060030160009054906101000a900460ff169050919050565b610c7a6121bb565b600560008381526020019081526020016000206040518061010001604052908160008201548152602001600182018054610cb390612d2b565b80601f0160208091040260200160405190810160405280929190818152602001828054610cdf90612d2b565b8015610d2c5780601f10610d0157610100808354040283529160200191610d2c565b820191906000526020600020905b815481529060010190602001808311610d0f57829003601f168201915b5050505050815260200160028201548152602001600382018054610d4f90612d2b565b80601f0160208091040260200160405190810160405280929190818152602001828054610d7b90612d2b565b8015610dc85780601f10610d9d57610100808354040283529160200191610dc8565b820191906000526020600020905b815481529060010190602001808311610dab57829003601f168201915b50505050508152602001600482018054610de190612d2b565b80601f0160208091040260200160405190810160405280929190818152602001828054610e0d90612d2b565b8015610e5a5780601f10610e2f57610100808354040283529160200191610e5a565b820191906000526020600020905b815481529060010190602001808311610e3d57829003601f168201915b50505050508152602001600582018054610e7390612d2b565b80601f0160208091040260200160405190810160405280929190818152602001828054610e9f90612d2b565b8015610eec5780601f10610ec157610100808354040283529160200191610eec565b820191906000526020600020905b815481529060010190602001808311610ecf57829003601f168201915b50505050508152602001600682015481526020016007820160009054906101000a900473ffffffffffffffffffffffffffffffffffffffff1673ffffffffffffffffffffffffffffffffffffffff1673ffffffffffffffffffffffffffffffffffffffff16815250509050919050565b600081604051602001610f6f9190612e72565b60405160208183030381529060405280519060200120600660008573ffffffffffffffffffffffffffffffffffffffff1673ffffffffffffffffffffffffffffffffffffffff168152602001908152602001600020600201604051602001610fd79190612f1d565b6040516020818303038152906040528051906020012014156110a5576001600660008573ffffffffffffffffffffffffffffffffffffffff1673ffffffffffffffffffffffffffffffffffffffff16815260200190815260200160002060030160006101000a81548160ff021916908315150217905550600660008473ffffffffffffffffffffffffffffffffffffffff1673ffffffffffffffffffffffffffffffffffffffff16815260200190815260200160002060030160009054906101000a900460ff1690506110aa565b600090505b92915050565b8060018190555050565b6060600660008373ffffffffffffffffffffffffffffffffffffffff1673ffffffffffffffffffffffffffffffffffffffff168152602001908152602001600020600101805461110990612d2b565b80601f016020809104026020016040519081016040528092919081815260200182805461113590612d2b565b80156111825780601f1061115757610100808354040283529160200191611182565b820191906000526020600020905b81548152906001019060200180831161116557829003601f168201915b50505050509050919050565b6000600154905090565b60008151116111a657600080fd5b60005b81518110156116d0576111ba612160565b33816000019073ffffffffffffffffffffffffffffffffffffffff16908173ffffffffffffffffffffffffffffffffffffffff1681525050600660003373ffffffffffffffffffffffffffffffffffffffff1673ffffffffffffffffffffffffffffffffffffffff168152602001908152602001600020600101805461123f90612d2b565b80601f016020809104026020016040519081016040528092919081815260200182805461126b90612d2b565b80156112b85780601f1061128d576101008083540402835291602001916112b8565b820191906000526020600020905b81548152906001019060200180831161129b57829003601f168201915b50505050508160200181905250600560008484815181106112dc576112db612f34565b5b60200260200101518152602001908152602001600020600401805461130090612d2b565b80601f016020809104026020016040519081016040528092919081815260200182805461132c90612d2b565b80156113795780601f1061134e57610100808354040283529160200191611379565b820191906000526020600020905b81548152906001019060200180831161135c57829003601f168201915b505050505081604001819052506005600084848151811061139d5761139c612f34565b5b6020026020010151815260200190815260200160002060010180546113c190612d2b565b80601f01602080910402602001604051908101604052809291908181526020018280546113ed90612d2b565b801561143a5780601f1061140f5761010080835404028352916020019161143a565b820191906000526020600020905b81548152906001019060200180831161141d57829003601f168201915b505050505081606001819052506005600084848151811061145e5761145d612f34565b5b60200260200101518152602001908152602001600020600201548160800181815250506040518060400160405280600681526020017f44454c45544500000000000000000000000000000000000000000000000000008152508160a0018190525060008160c0018181525050428160e0018181525050600781908060018154018082558091505060019003906000526020600020906008020160009091909190915060008201518160000160006101000a81548173ffffffffffffffffffffffffffffffffffffffff021916908373ffffffffffffffffffffffffffffffffffffffff16021790555060208201518160010190805190602001906115639291906120da565b5060408201518160020190805190602001906115809291906120da565b50606082015181600301908051906020019061159d9291906120da565b506080820151816004015560a08201518160050190805190602001906115c49291906120da565b5060c0820151816006015560e082015181600701555050600460008154809291906115ee90612d8c565b91905055506005600084848151811061160a57611609612f34565b5b602002602001015181526020019081526020016000206000808201600090556001820160006116399190612216565b60028201600090556003820160006116519190612216565b6004820160006116619190612216565b6005820160006116719190612216565b60068201600090556007820160006101000a81549073ffffffffffffffffffffffffffffffffffffffff021916905550506001600360008282546116b59190612f63565b925050819055505080806116c890612d8c565b9150506111a9565b5050565b60003373ffffffffffffffffffffffffffffffffffffffff16600660008673ffffffffffffffffffffffffffffffffffffffff1673ffffffffffffffffffffffffffffffffffffffff16815260200190815260200160002060000160009054906101000a900473ffffffffffffffffffffffffffffffffffffffff1673ffffffffffffffffffffffffffffffffffffffff16141561177157600080fd5b83600660008673ffffffffffffffffffffffffffffffffffffffff1673ffffffffffffffffffffffffffffffffffffffff16815260200190815260200160002060000160006101000a81548173ffffffffffffffffffffffffffffffffffffffff021916908373ffffffffffffffffffffffffffffffffffffffff16021790555082600660008673ffffffffffffffffffffffffffffffffffffffff1673ffffffffffffffffffffffffffffffffffffffff16815260200190815260200160002060010190805190602001906118489291906120da565b5081600660008673ffffffffffffffffffffffffffffffffffffffff1673ffffffffffffffffffffffffffffffffffffffff168152602001908152602001600020600201908051906020019061189f9291906120da565b506000600660008673ffffffffffffffffffffffffffffffffffffffff1673ffffffffffffffffffffffffffffffffffffffff16815260200190815260200160002060030160006101000a81548160ff021916908315150217905550600190509392505050565b60025481565b60045481565b6000600660008373ffffffffffffffffffffffffffffffffffffffff1673ffffffffffffffffffffffffffffffffffffffff16815260200190815260200160002060030160006101000a81548160ff02191690831515021790555050565b600085511161197e57600080fd5b600083511161198c57600080fd5b600081511161199a57600080fd5b60008251116119a857600080fd5b600073ffffffffffffffffffffffffffffffffffffffff163373ffffffffffffffffffffffffffffffffffffffff1614156119e257600080fd5b600084116119ef57600080fd5b60026000815480929190611a0290612d8c565b919050555060036000815480929190611a1a90612d8c565b919050555060405180610100016040528060025481526020018681526020018581526020018481526020018381526020018281526020014281526020013373ffffffffffffffffffffffffffffffffffffffff16815250600560006002548152602001908152602001600020600082015181600001556020820151816001019080519060200190611aac9291906120da565b50604082015181600201556060820151816003019080519060200190611ad39291906120da565b506080820151816004019080519060200190611af09291906120da565b5060a0820151816005019080519060200190611b0d9291906120da565b5060c0820151816006015560e08201518160070160006101000a81548173ffffffffffffffffffffffffffffffffffffffff021916908373ffffffffffffffffffffffffffffffffffffffff160217905550905050611b6a612160565b33816000019073ffffffffffffffffffffffffffffffffffffffff16908173ffffffffffffffffffffffffffffffffffffffff1681525050600660003373ffffffffffffffffffffffffffffffffffffffff1673ffffffffffffffffffffffffffffffffffffffff1681526020019081526020016000206001018054611bef90612d2b565b80601f0160208091040260200160405190810160405280929190818152602001828054611c1b90612d2b565b8015611c685780601f10611c3d57610100808354040283529160200191611c68565b820191906000526020600020905b815481529060010190602001808311611c4b57829003601f168201915b50505050508160200181905250828160400181905250858160600181905250848160800181815250506040518060400160405280600381526020017f41444400000000000000000000000000000000000000000000000000000000008152508160a0018190525060008160c0018181525050428160e0018181525050600781908060018154018082558091505060019003906000526020600020906008020160009091909190915060008201518160000160006101000a81548173ffffffffffffffffffffffffffffffffffffffff021916908373ffffffffffffffffffffffffffffffffffffffff1602179055506020820151816001019080519060200190611d739291906120da565b506040820151816002019080519060200190611d909291906120da565b506060820151816003019080519060200190611dad9291906120da565b506080820151816004015560a0820151816005019080519060200190611dd49291906120da565b5060c0820151816006015560e08201518160070155505060046000815480929190611dfe90612d8c565b91905055507f6e95bbaa37a5fdec42a312e049dea2fe6160ebe659214d3409b4f91f164c2f5260025487878787874233604051611e42989796959493929190612c62565b60405180910390a1505050505050565b6005602052806000526040600020600091509050806000015490806001018054611e7b90612d2b565b80601f0160208091040260200160405190810160405280929190818152602001828054611ea790612d2b565b8015611ef45780601f10611ec957610100808354040283529160200191611ef4565b820191906000526020600020905b815481529060010190602001808311611ed757829003601f168201915b505050505090806002015490806003018054611f0f90612d2b565b80601f0160208091040260200160405190810160405280929190818152602001828054611f3b90612d2b565b8015611f885780601f10611f5d57610100808354040283529160200191611f88565b820191906000526020600020905b815481529060010190602001808311611f6b57829003601f168201915b505050505090806004018054611f9d90612d2b565b80601f0160208091040260200160405190810160405280929190818152602001828054611fc990612d2b565b80156120165780601f10611feb57610100808354040283529160200191612016565b820191906000526020600020905b815481529060010190602001808311611ff957829003601f168201915b50505050509080600501805461202b90612d2b565b80601f016020809104026020016040519081016040528092919081815260200182805461205790612d2b565b80156120a45780601f10612079576101008083540402835291602001916120a4565b820191906000526020600020905b81548152906001019060200180831161208757829003601f168201915b5050505050908060060154908060070160009054906101000a900473ffffffffffffffffffffffffffffffffffffffff16905088565b8280546120e690612d2b565b90600052602060002090601f016020900481019282612108576000855561214f565b82601f1061212157805160ff191683800117855561214f565b8280016001018555821561214f579182015b8281111561214e578251825591602001919060010190612133565b5b50905061215c9190612256565b5090565b604051806101000160405280600073ffffffffffffffffffffffffffffffffffffffff168152602001606081526020016060815260200160608152602001600081526020016060815260200160008152602001600081525090565b60405180610100016040528060008152602001606081526020016000815260200160608152602001606081526020016060815260200160008152602001600073ffffffffffffffffffffffffffffffffffffffff1681525090565b50805461222290612d2b565b6000825580601f106122345750612253565b601f0160209004906000526020600020908101906122529190612256565b5b50565b5b8082111561226f576000816000905550600101612257565b5090565b600081519050919050565b600082825260208201905092915050565b60005b838110156122ad578082015181840152602081019050612292565b838111156122bc576000848401525b50505050565b6000601f19601f8301169050919050565b60006122de82612273565b6122e8818561227e565b93506122f881856020860161228f565b612301816122c2565b840191505092915050565b6000602082019050818103600083015261232681846122d3565b905092915050565b6000604051905090565b600080fd5b600080fd5b600080fd5b600080fd5b7f4e487b7100000000000000000000000000000000000000000000000000000000600052604160045260246000fd5b612384826122c2565b810181811067ffffffffffffffff821117156123a3576123a261234c565b5b80604052505050565b60006123b661232e565b90506123c2828261237b565b919050565b600067ffffffffffffffff8211156123e2576123e161234c565b5b6123eb826122c2565b9050602081019050919050565b82818337600083830152505050565b600061241a612415846123c7565b6123ac565b90508281526020810184848401111561243657612435612347565b5b6124418482856123f8565b509392505050565b600082601f83011261245e5761245d612342565b5b813561246e848260208601612407565b91505092915050565b6000819050919050565b61248a81612477565b811461249557600080fd5b50565b6000813590506124a781612481565b92915050565b600080600080600060a086880312156124c9576124c8612338565b5b600086013567ffffffffffffffff8111156124e7576124e661233d565b5b6124f388828901612449565b955050602061250488828901612498565b945050604086013567ffffffffffffffff8111156125255761252461233d565b5b61253188828901612449565b935050606061254288828901612498565b925050608061255388828901612498565b9150509295509295909350565b61256981612477565b82525050565b60006020820190506125846000830184612560565b92915050565b600081519050919050565b600082825260208201905092915050565b6000819050602082019050919050565b600073ffffffffffffffffffffffffffffffffffffffff82169050919050565b60006125e1826125b6565b9050919050565b6125f1816125d6565b82525050565b600082825260208201905092915050565b600061261382612273565b61261d81856125f7565b935061262d81856020860161228f565b612636816122c2565b840191505092915050565b61264a81612477565b82525050565b60006101008301600083015161266960008601826125e8565b50602083015184820360208601526126818282612608565b9150506040830151848203604086015261269b8282612608565b915050606083015184820360608601526126b58282612608565b91505060808301516126ca6080860182612641565b5060a083015184820360a08601526126e28282612608565b91505060c08301516126f760c0860182612641565b5060e083015161270a60e0860182612641565b508091505092915050565b60006127218383612650565b905092915050565b6000602082019050919050565b60006127418261258a565b61274b8185612595565b93508360208202850161275d856125a6565b8060005b85811015612799578484038952815161277a8582612715565b945061278583612729565b925060208a01995050600181019050612761565b50829750879550505050505092915050565b600060208201905081810360008301526127c58184612736565b905092915050565b6127d6816125d6565b81146127e157600080fd5b50565b6000813590506127f3816127cd565b92915050565b60006020828403121561280f5761280e612338565b5b600061281d848285016127e4565b91505092915050565b60008115159050919050565b61283b81612826565b82525050565b60006020820190506128566000830184612832565b92915050565b60006020828403121561287257612871612338565b5b600061288084828501612498565b91505092915050565b6000610100830160008301516128a26000860182612641565b50602083015184820360208601526128ba8282612608565b91505060408301516128cf6040860182612641565b50606083015184820360608601526128e78282612608565b915050608083015184820360808601526129018282612608565b91505060a083015184820360a086015261291b8282612608565b91505060c083015161293060c0860182612641565b5060e083015161294360e08601826125e8565b508091505092915050565b600060208201905081810360008301526129688184612889565b905092915050565b6000806040838503121561298757612986612338565b5b6000612995858286016127e4565b925050602083013567ffffffffffffffff8111156129b6576129b561233d565b5b6129c285828601612449565b9150509250929050565b600067ffffffffffffffff8211156129e7576129e661234c565b5b602082029050602081019050919050565b600080fd5b6000612a10612a0b846129cc565b6123ac565b90508083825260208201905060208402830185811115612a3357612a326129f8565b5b835b81811015612a5c5780612a488882612498565b845260208401935050602081019050612a35565b5050509392505050565b600082601f830112612a7b57612a7a612342565b5b8135612a8b8482602086016129fd565b91505092915050565b600060208284031215612aaa57612aa9612338565b5b600082013567ffffffffffffffff811115612ac857612ac761233d565b5b612ad484828501612a66565b91505092915050565b600080600060608486031215612af657612af5612338565b5b6000612b04868287016127e4565b935050602084013567ffffffffffffffff811115612b2557612b2461233d565b5b612b3186828701612449565b925050604084013567ffffffffffffffff811115612b5257612b5161233d565b5b612b5e86828701612449565b9150509250925092565b600080600080600060a08688031215612b8457612b83612338565b5b600086013567ffffffffffffffff811115612ba257612ba161233d565b5b612bae88828901612449565b9550506020612bbf88828901612498565b945050604086013567ffffffffffffffff811115612be057612bdf61233d565b5b612bec88828901612449565b935050606086013567ffffffffffffffff811115612c0d57612c0c61233d565b5b612c1988828901612449565b925050608086013567ffffffffffffffff811115612c3a57612c3961233d565b5b612c4688828901612449565b9150509295509295909350565b612c5c816125d6565b82525050565b600061010082019050612c78600083018b612560565b8181036020830152612c8a818a6122d3565b9050612c996040830189612560565b8181036060830152612cab81886122d3565b90508181036080830152612cbf81876122d3565b905081810360a0830152612cd381866122d3565b9050612ce260c0830185612560565b612cef60e0830184612c53565b9998505050505050505050565b7f4e487b7100000000000000000000000000000000000000000000000000000000600052602260045260246000fd5b60006002820490506001821680612d4357607f821691505b60208210811415612d5757612d56612cfc565b5b50919050565b7f4e487b7100000000000000000000000000000000000000000000000000000000600052601160045260246000fd5b6000612d9782612477565b91507fffffffffffffffffffffffffffffffffffffffffffffffffffffffffffffffff821415612dca57612dc9612d5d565b5b600182019050919050565b600060a0820190508181036000830152612def81886122d3565b9050612dfe6020830187612560565b8181036040830152612e1081866122d3565b9050612e1f6060830185612560565b612e2c6080830184612c53565b9695505050505050565b600081905092915050565b6000612e4c82612273565b612e568185612e36565b9350612e6681856020860161228f565b80840191505092915050565b6000612e7e8284612e41565b915081905092915050565b60008190508160005260206000209050919050565b60008154612eab81612d2b565b612eb58186612e36565b94506001821660008114612ed05760018114612ee157612f14565b60ff19831686528186019350612f14565b612eea85612e89565b60005b83811015612f0c57815481890152600182019150602081019050612eed565b838801955050505b50505092915050565b6000612f298284612e9e565b915081905092915050565b7f4e487b7100000000000000000000000000000000000000000000000000000000600052603260045260246000fd5b6000612f6e82612477565b9150612f7983612477565b925082821015612f8c57612f8b612d5d565b5b82820390509291505056fea2646970667358221220c58d1ea03378b61190093845567c546b5b6200308e15220e77b8c6ebe84b122364736f6c634300080b0033",
  "immutableReferences": {},
  "source": "// SPDX-License-Identifier: MIT\npragma solidity ^0.8.0;\n\ncontract SimpleStorage {\n    // data\n    string public name = \"ArchStorage\";\n    uint256 storedData;\n\n    uint256 public fileIDs = 0;\n    uint256 public fileNum = 0;\n    uint256 public transactionCount = 0;\n    mapping(uint256 => File) public files;\n    mapping(address => UserDetail) user;\n\n    struct File {\n        uint256 fileId;\n        string fileHash;\n        uint256 fileSize;\n        string fileType;\n        string fileName;\n        string fileDescription;\n        uint256 uploadTime;\n        address uploader;\n    }\n\n    struct UserDetail {\n        address addr;\n        string name;\n        string password;\n        bool isUserLoggedIn;\n    }\n\n    struct Transaction {\n        address userAddress;\n        string userName;\n        string fileName;\n        string fileHash;\n        uint256 fileSize;\n        string transactionType;\n        uint256 changeLevel;\n        uint256 uploadTime;\n    }\n    Transaction[] transactions;\n\n    //events\n\n    // event transactionAdded(Transaction temp);\n\n    event FileUploaded(\n        uint256 fileId,\n        string fileHash,\n        uint256 fileSize,\n        string fileType,\n        string fileName,\n        string fileDescription,\n        uint256 uploadTime,\n        address uploader\n    );\n\n    event FileUpdated(\n        string fileHash,\n        uint256 fileSize,\n        string fileType,\n        uint256 uploadTime,\n        address uploader\n    );\n\n    constructor() public {}\n\n    function uploadFile(\n        string memory _fileHash,\n        uint256 _fileSize,\n        string memory _fileType,\n        string memory _fileName,\n        string memory _fileDescription\n    ) public {\n        // Make sure the file hash exists\n        require(bytes(_fileHash).length > 0);\n        // Make sure file type exists\n        require(bytes(_fileType).length > 0);\n        // Make sure file description exists\n        require(bytes(_fileDescription).length > 0);\n        // Make sure file fileName exists\n        require(bytes(_fileName).length > 0);\n        // Make sure uploader address exists\n        require(msg.sender != address(0));\n        // Make sure file size is more than 0\n        require(_fileSize > 0);\n\n        // Increment file id\n        fileIDs++;\n        fileNum++;\n\n        // Add File to the contract\n        files[fileIDs] = File(\n            fileIDs,\n            _fileHash,\n            _fileSize,\n            _fileType,\n            _fileName,\n            _fileDescription,\n            block.timestamp,\n            msg.sender\n        );\n\n        Transaction memory temp;\n        temp.userAddress = msg.sender;\n        temp.userName = user[msg.sender].name;\n        temp.fileName = _fileName;\n        temp.fileHash = _fileHash;\n        temp.fileSize = _fileSize;\n        temp.transactionType = \"ADD\";\n        temp.changeLevel = 0;\n        temp.uploadTime = block.timestamp;\n        transactions.push(temp);\n\n        transactionCount++;\n        // Trigger an event\n        emit FileUploaded(\n            fileIDs,\n            _fileHash,\n            _fileSize,\n            _fileType,\n            _fileName,\n            _fileDescription,\n            block.timestamp,\n            msg.sender\n        );\n    }\n\n    function updateFile(\n        string memory _fileHash,\n        uint256 _fileSize,\n        string memory _fileType,\n        uint256 _fileID,\n        uint256 _changeValue\n    ) public {\n        // Make sure the file hash exists\n        require(bytes(_fileHash).length > 0);\n        // Make sure file type exists\n        require(bytes(_fileType).length > 0);\n        // Make sure uploader address exists\n        require(msg.sender != address(0));\n        // Make sure file size is more than 0\n        require(_fileSize > 0);\n        require(_fileID > 0 && _fileID <= fileIDs);\n        require(_changeValue >= 0);\n\n        // update current file\n        files[_fileID].fileHash = _fileHash;\n        files[_fileID].fileSize = _fileSize;\n        files[_fileID].fileType = _fileType;\n        files[_fileID].uploadTime = block.timestamp;\n        files[_fileID].uploader = msg.sender;\n\n        Transaction memory temp;\n        temp.userAddress = msg.sender;\n        temp.userName = user[msg.sender].name;\n        temp.fileName = files[_fileID].fileName;\n        temp.fileHash = _fileHash;\n        temp.fileSize = _fileSize;\n        temp.transactionType = \"UPDATE\";\n        temp.changeLevel = _changeValue;\n        temp.uploadTime = block.timestamp;\n        transactions.push(temp);\n\n        transactionCount++;\n        // Trigger an event\n        emit FileUpdated(\n            _fileHash,\n            _fileSize,\n            _fileType,\n            block.timestamp,\n            msg.sender\n        );\n    }\n\n    function getFile(uint256 _fileID) public view returns (File memory) {\n        return files[_fileID];\n    }\n\n    function deleteFile(uint256[] memory _fileID) public {\n        require(_fileID.length > 0);\n        for (uint256 i = 0; i < _fileID.length; i++) {\n            Transaction memory temp;\n            temp.userAddress = msg.sender;\n            temp.userName = user[msg.sender].name;\n            temp.fileName = files[_fileID[i]].fileName;\n            temp.fileHash = files[_fileID[i]].fileHash;\n            temp.fileSize = files[_fileID[i]].fileSize;\n            temp.transactionType = \"DELETE\";\n            temp.changeLevel = 0;\n            temp.uploadTime = block.timestamp;\n            transactions.push(temp);\n\n            transactionCount++;\n            delete files[_fileID[i]];\n            fileNum -= 1;\n        }\n    }\n\n    // user registration function\n    function register(\n        address _address,\n        string memory _name,\n        string memory _password\n    ) public returns (bool) {\n        require(user[_address].addr != msg.sender);\n        user[_address].addr = _address;\n        user[_address].name = _name;\n        user[_address].password = _password;\n        user[_address].isUserLoggedIn = false;\n        return true;\n    }\n\n    // user login function\n    function login(address _address, string memory _password)\n        public\n        returns (bool)\n    {\n        if (\n            keccak256(abi.encodePacked(user[_address].password)) ==\n            keccak256(abi.encodePacked(_password))\n        ) {\n            user[_address].isUserLoggedIn = true;\n            return user[_address].isUserLoggedIn;\n        } else {\n            return false;\n        }\n    }\n\n    // check the user logged In or not\n    function checkIsUserLogged(address _address) public view returns (bool) {\n        return (user[_address].isUserLoggedIn);\n    }\n\n    function checkUserName(address _address)\n        public\n        view\n        returns (string memory)\n    {\n        return (user[_address].name);\n    }\n\n    // logout the user\n    function logout(address _address) public {\n        user[_address].isUserLoggedIn = false;\n    }\n\n    // function addTransaction(\n    //     address _userAddress,\n    //     string memory _userName,\n    //     string memory _fileName,\n    //     string memory _fileHash,\n    //     string memory _transactionType,\n    //     uint256 _changeLevel\n    // ) public {\n    //     Transaction memory temp;\n    //     temp.userAddress = _userAddress;\n    //     temp.userName = _userName;\n    //     temp.fileName = _fileName;\n    //     temp.fileHash = _fileHash;\n    //     temp.transactionType = _transactionType;\n    //     temp.changeLevel = _changeLevel;\n    //     transactions.push(temp);\n\n    //     transactionCount++;\n    //     emit transactionAdded(temp);\n\n    // }\n\n    function getAllTransactions() public view returns (Transaction[] memory) {\n        return transactions;\n    }\n\n    function set(uint256 x) public {\n        storedData = x;\n    }\n\n    function get() public view returns (uint256) {\n        return storedData;\n    }\n}\n",
  "sourcePath": "C:\\Users\\Shaun\\Desktop\\THESIS\\eth-archive-test\\contracts\\SimpleStorage.sol",
  "compiler": {
    "name": "solc",
    "version": "0.8.11+commit.d7f03943.Emscripten.clang"
  },
  "schemaVersion": "3.4.3",
  "updatedAt": "2022-01-06T05:13:13.273Z",
  "devdoc": {
    "kind": "dev",
    "methods": {},
    "version": 1
  },
  "userdoc": {
    "kind": "user",
    "methods": {},
    "version": 1
  }
}