{
  "contractName": "SimpleStorage",
  "abi": [
    {
      "inputs": [],
      "stateMutability": "nonpayable",
      "type": "constructor"
    },
    {
      "anonymous": false,
      "inputs": [
        {
          "indexed": false,
          "internalType": "string",
          "name": "fileHash",
          "type": "string"
        },
        {
          "indexed": false,
          "internalType": "uint256",
          "name": "fileSize",
          "type": "uint256"
        },
        {
          "indexed": false,
          "internalType": "string",
          "name": "fileType",
          "type": "string"
        },
        {
          "indexed": false,
          "internalType": "string",
          "name": "fileName",
          "type": "string"
        },
        {
          "indexed": false,
          "internalType": "uint256",
          "name": "uploadTime",
          "type": "uint256"
        },
        {
          "indexed": false,
          "internalType": "address",
          "name": "uploader",
          "type": "address"
        },
        {
          "indexed": false,
          "internalType": "uint256",
          "name": "lastChange",
          "type": "uint256"
        },
        {
          "indexed": false,
          "internalType": "uint256",
          "name": "lastSize",
          "type": "uint256"
        },
        {
          "indexed": false,
          "internalType": "bool",
          "name": "isPrivate",
          "type": "bool"
        },
        {
          "indexed": false,
          "internalType": "address[]",
          "name": "allowedUsers",
          "type": "address[]"
        }
      ],
      "name": "FileUpdated",
      "type": "event"
    },
    {
      "anonymous": false,
      "inputs": [
        {
          "indexed": false,
          "internalType": "uint256",
          "name": "fileId",
          "type": "uint256"
        },
        {
          "indexed": false,
          "internalType": "string",
          "name": "fileHash",
          "type": "string"
        },
        {
          "indexed": false,
          "internalType": "uint256",
          "name": "fileSize",
          "type": "uint256"
        },
        {
          "indexed": false,
          "internalType": "string",
          "name": "fileType",
          "type": "string"
        },
        {
          "indexed": false,
          "internalType": "string",
          "name": "fileName",
          "type": "string"
        },
        {
          "indexed": false,
          "internalType": "string",
          "name": "fileDescription",
          "type": "string"
        },
        {
          "indexed": false,
          "internalType": "uint256",
          "name": "uploadTime",
          "type": "uint256"
        },
        {
          "indexed": false,
          "internalType": "address",
          "name": "uploader",
          "type": "address"
        },
        {
          "indexed": false,
          "internalType": "uint256",
          "name": "lastChange",
          "type": "uint256"
        },
        {
          "indexed": false,
          "internalType": "uint256",
          "name": "lastSize",
          "type": "uint256"
        },
        {
          "indexed": false,
          "internalType": "bool",
          "name": "isPrivate",
          "type": "bool"
        },
        {
          "indexed": false,
          "internalType": "address[]",
          "name": "allowedUsers",
          "type": "address[]"
        }
      ],
      "name": "FileUploaded",
      "type": "event"
    },
    {
      "inputs": [],
      "name": "fileIDs",
      "outputs": [
        {
          "internalType": "uint256",
          "name": "",
          "type": "uint256"
        }
      ],
      "stateMutability": "view",
      "type": "function",
      "constant": true
    },
    {
      "inputs": [],
      "name": "fileNum",
      "outputs": [
        {
          "internalType": "uint256",
          "name": "",
          "type": "uint256"
        }
      ],
      "stateMutability": "view",
      "type": "function",
      "constant": true
    },
    {
      "inputs": [
        {
          "internalType": "uint256",
          "name": "",
          "type": "uint256"
        }
      ],
      "name": "files",
      "outputs": [
        {
          "internalType": "uint256",
          "name": "fileId",
          "type": "uint256"
        },
        {
          "internalType": "string",
          "name": "fileHash",
          "type": "string"
        },
        {
          "internalType": "uint256",
          "name": "fileSize",
          "type": "uint256"
        },
        {
          "internalType": "string",
          "name": "fileType",
          "type": "string"
        },
        {
          "internalType": "string",
          "name": "fileName",
          "type": "string"
        },
        {
          "internalType": "string",
          "name": "fileDescription",
          "type": "string"
        },
        {
          "internalType": "uint256",
          "name": "uploadTime",
          "type": "uint256"
        },
        {
          "internalType": "address",
          "name": "uploader",
          "type": "address"
        },
        {
          "internalType": "uint256",
          "name": "lastChange",
          "type": "uint256"
        },
        {
          "internalType": "uint256",
          "name": "lastSize",
          "type": "uint256"
        },
        {
          "internalType": "bool",
          "name": "isPrivate",
          "type": "bool"
        }
      ],
      "stateMutability": "view",
      "type": "function",
      "constant": true
    },
    {
      "inputs": [],
      "name": "name",
      "outputs": [
        {
          "internalType": "string",
          "name": "",
          "type": "string"
        }
      ],
      "stateMutability": "view",
      "type": "function",
      "constant": true
    },
    {
      "inputs": [],
      "name": "transactionCount",
      "outputs": [
        {
          "internalType": "uint256",
          "name": "",
          "type": "uint256"
        }
      ],
      "stateMutability": "view",
      "type": "function",
      "constant": true
    },
    {
      "inputs": [
        {
          "internalType": "string",
          "name": "_fileHash",
          "type": "string"
        },
        {
          "internalType": "uint256",
          "name": "_fileSize",
          "type": "uint256"
        },
        {
          "internalType": "string",
          "name": "_fileType",
          "type": "string"
        },
        {
          "internalType": "string",
          "name": "_fileName",
          "type": "string"
        },
        {
          "internalType": "string",
          "name": "_fileDescription",
          "type": "string"
        },
        {
          "internalType": "bool",
          "name": "filePrivacy",
          "type": "bool"
        },
        {
          "internalType": "address[]",
          "name": "allowedFileUsers",
          "type": "address[]"
        }
      ],
      "name": "uploadFile",
      "outputs": [],
      "stateMutability": "nonpayable",
      "type": "function"
    },
    {
      "inputs": [
        {
          "internalType": "string",
          "name": "_fileHash",
          "type": "string"
        },
        {
          "internalType": "uint256",
          "name": "_fileSize",
          "type": "uint256"
        },
        {
          "internalType": "string",
          "name": "_fileType",
          "type": "string"
        },
        {
          "internalType": "string",
          "name": "_fileName",
          "type": "string"
        },
        {
          "internalType": "uint256",
          "name": "_fileID",
          "type": "uint256"
        },
        {
          "internalType": "uint256",
          "name": "_changeValue",
          "type": "uint256"
        },
        {
          "internalType": "uint256",
          "name": "_lastSize",
          "type": "uint256"
        },
        {
          "internalType": "bool",
          "name": "filePrivacy",
          "type": "bool"
        },
        {
          "internalType": "address[]",
          "name": "allowedFileUsers",
          "type": "address[]"
        }
      ],
      "name": "updateFile",
      "outputs": [],
      "stateMutability": "nonpayable",
      "type": "function"
    },
    {
      "inputs": [
        {
          "internalType": "uint256",
          "name": "_fileID",
          "type": "uint256"
        }
      ],
      "name": "getFile",
      "outputs": [
        {
          "components": [
            {
              "internalType": "uint256",
              "name": "fileId",
              "type": "uint256"
            },
            {
              "internalType": "string",
              "name": "fileHash",
              "type": "string"
            },
            {
              "internalType": "uint256",
              "name": "fileSize",
              "type": "uint256"
            },
            {
              "internalType": "string",
              "name": "fileType",
              "type": "string"
            },
            {
              "internalType": "string",
              "name": "fileName",
              "type": "string"
            },
            {
              "internalType": "string",
              "name": "fileDescription",
              "type": "string"
            },
            {
              "internalType": "uint256",
              "name": "uploadTime",
              "type": "uint256"
            },
            {
              "internalType": "address",
              "name": "uploader",
              "type": "address"
            },
            {
              "internalType": "uint256",
              "name": "lastChange",
              "type": "uint256"
            },
            {
              "internalType": "uint256",
              "name": "lastSize",
              "type": "uint256"
            },
            {
              "internalType": "bool",
              "name": "isPrivate",
              "type": "bool"
            },
            {
              "internalType": "address[]",
              "name": "allowedUsers",
              "type": "address[]"
            }
          ],
          "internalType": "struct SimpleStorage.File",
          "name": "",
          "type": "tuple"
        }
      ],
      "stateMutability": "view",
      "type": "function",
      "constant": true
    },
    {
      "inputs": [
        {
          "internalType": "uint256",
          "name": "_fileID",
          "type": "uint256"
        }
      ],
      "name": "deleteFile",
      "outputs": [],
      "stateMutability": "nonpayable",
      "type": "function"
    },
    {
      "inputs": [
        {
          "internalType": "address",
          "name": "_address",
          "type": "address"
        },
        {
          "internalType": "string",
          "name": "_name",
          "type": "string"
        },
        {
          "internalType": "string",
          "name": "_password",
          "type": "string"
        }
      ],
      "name": "register",
      "outputs": [
        {
          "internalType": "bool",
          "name": "",
          "type": "bool"
        }
      ],
      "stateMutability": "nonpayable",
      "type": "function"
    },
    {
      "inputs": [
        {
          "internalType": "address",
          "name": "_address",
          "type": "address"
        },
        {
          "internalType": "string",
          "name": "_password",
          "type": "string"
        }
      ],
      "name": "login",
      "outputs": [
        {
          "internalType": "bool",
          "name": "",
          "type": "bool"
        }
      ],
      "stateMutability": "nonpayable",
      "type": "function"
    },
    {
      "inputs": [
        {
          "internalType": "address",
          "name": "_address",
          "type": "address"
        }
      ],
      "name": "checkIsUserLogged",
      "outputs": [
        {
          "internalType": "bool",
          "name": "",
          "type": "bool"
        }
      ],
      "stateMutability": "view",
      "type": "function",
      "constant": true
    },
    {
      "inputs": [
        {
          "internalType": "address",
          "name": "_address",
          "type": "address"
        }
      ],
      "name": "checkUserName",
      "outputs": [
        {
          "internalType": "string",
          "name": "",
          "type": "string"
        }
      ],
      "stateMutability": "view",
      "type": "function",
      "constant": true
    },
    {
      "inputs": [
        {
          "internalType": "address",
          "name": "_address",
          "type": "address"
        }
      ],
      "name": "logout",
      "outputs": [],
      "stateMutability": "nonpayable",
      "type": "function"
    },
    {
      "inputs": [],
      "name": "getAllTransactions",
      "outputs": [
        {
          "components": [
            {
              "internalType": "address",
              "name": "userAddress",
              "type": "address"
            },
            {
              "internalType": "string",
              "name": "userName",
              "type": "string"
            },
            {
              "internalType": "uint256",
              "name": "fileId",
              "type": "uint256"
            },
            {
              "internalType": "string",
              "name": "fileName",
              "type": "string"
            },
            {
              "internalType": "string",
              "name": "fileHash",
              "type": "string"
            },
            {
              "internalType": "uint256",
              "name": "fileSize",
              "type": "uint256"
            },
            {
              "internalType": "string",
              "name": "transactionType",
              "type": "string"
            },
            {
              "internalType": "uint256",
              "name": "changeLevel",
              "type": "uint256"
            },
            {
              "internalType": "uint256",
              "name": "uploadTime",
              "type": "uint256"
            },
            {
              "internalType": "uint256",
              "name": "lastSize",
              "type": "uint256"
            }
          ],
          "internalType": "struct SimpleStorage.Transaction[]",
          "name": "",
          "type": "tuple[]"
        }
      ],
      "stateMutability": "view",
      "type": "function",
      "constant": true
    },
    {
      "inputs": [
        {
          "internalType": "uint256",
          "name": "fileID",
          "type": "uint256"
        }
      ],
      "name": "getAllowedUsers",
      "outputs": [
        {
          "internalType": "address[]",
          "name": "",
          "type": "address[]"
        }
      ],
      "stateMutability": "view",
      "type": "function",
      "constant": true
    }
  ],
  "bytecode": "0x60806040526040518060400160405280600b81526020017f4172636853746f72616765000000000000000000000000000000000000000000815250600090805190602001906200005192919062000075565b506000600155600060025560006003553480156200006e57600080fd5b5062000189565b828054620000839062000154565b90600052602060002090601f016020900481019282620000a75760008555620000f3565b82601f10620000c257805160ff1916838001178555620000f3565b82800160010185558215620000f3579182015b82811115620000f2578251825591602001919060010190620000d5565b5b50905062000102919062000106565b5090565b5b808211156200012157600081600090555060010162000107565b5090565b7f4e487b7100000000000000000000000000000000000000000000000000000000600052602260045260246000fd5b600060028204905060018216806200016d57607f821691505b60208210810362000183576200018262000125565b5b50919050565b61407c80620001996000396000f3fe608060405234801561001057600080fd5b50600436106101005760003560e01c80638d59cc0211610097578063c8cc052011610066578063c8cc0520146102c3578063cc51f9b9146102f3578063f3b890281461030f578063f4c714b41461032b57610100565b80638d59cc021461023b5780639fb8070a1461026b578063b77bf60014610289578063c5b42006146102a757610100565b80632bfda313116100d35780632bfda3131461018f5780632f19d50b146101bf5780634a6c90c4146101ef57806361ea23881461020b57610100565b806306fdde031461010557806325c2e12c1461012357806327506f5314610141578063297f7b391461015f575b600080fd5b61010d610365565b60405161011a9190612e27565b60405180910390f35b61012b6103f3565b6040516101389190612e62565b60405180910390f35b6101496103f9565b60405161015691906130c8565b60405180910390f35b6101796004803603810190610174919061312a565b610729565b6040516101869190613172565b60405180910390f35b6101a960048036038101906101a491906131b9565b610782565b6040516101b691906133c4565b60405180910390f35b6101d960048036038101906101d4919061351b565b610b29565b6040516101e69190613172565b60405180910390f35b6102096004803603810190610204919061366b565b610c7c565b005b6102256004803603810190610220919061312a565b611306565b6040516102329190612e27565b60405180910390f35b61025560048036038101906102509190613799565b6113da565b6040516102629190613172565b60405180910390f35b61027361160b565b6040516102809190612e62565b60405180910390f35b610291611611565b60405161029e9190612e62565b60405180910390f35b6102c160048036038101906102bc91906131b9565b611617565b005b6102dd60048036038101906102d891906131b9565b6120d4565b6040516102ea9190613893565b60405180910390f35b61030d6004803603810190610308919061312a565b61217d565b005b610329600480360381019061032491906138b5565b6121db565b005b610345600480360381019061034091906131b9565b612877565b60405161035c9b9a999897969594939291906139fe565b60405180910390f35b6000805461037290613af4565b80601f016020809104026020016040519081016040528092919081815260200182805461039e90613af4565b80156103eb5780601f106103c0576101008083540402835291602001916103eb565b820191906000526020600020905b8154815290600101906020018083116103ce57829003601f168201915b505050505081565b60025481565b60606006805480602002602001604051908101604052809291908181526020016000905b8282101561072057838290600052602060002090600a0201604051806101400160405290816000820160009054906101000a900473ffffffffffffffffffffffffffffffffffffffff1673ffffffffffffffffffffffffffffffffffffffff1673ffffffffffffffffffffffffffffffffffffffff1681526020016001820180546104a790613af4565b80601f01602080910402602001604051908101604052809291908181526020018280546104d390613af4565b80156105205780601f106104f557610100808354040283529160200191610520565b820191906000526020600020905b81548152906001019060200180831161050357829003601f168201915b505050505081526020016002820154815260200160038201805461054390613af4565b80601f016020809104026020016040519081016040528092919081815260200182805461056f90613af4565b80156105bc5780601f10610591576101008083540402835291602001916105bc565b820191906000526020600020905b81548152906001019060200180831161059f57829003601f168201915b505050505081526020016004820180546105d590613af4565b80601f016020809104026020016040519081016040528092919081815260200182805461060190613af4565b801561064e5780601f106106235761010080835404028352916020019161064e565b820191906000526020600020905b81548152906001019060200180831161063157829003601f168201915b505050505081526020016005820154815260200160068201805461067190613af4565b80601f016020809104026020016040519081016040528092919081815260200182805461069d90613af4565b80156106ea5780601f106106bf576101008083540402835291602001916106ea565b820191906000526020600020905b8154815290600101906020018083116106cd57829003601f168201915b5050505050815260200160078201548152602001600882015481526020016009820154815250508152602001906001019061041d565b50505050905090565b6000600560008373ffffffffffffffffffffffffffffffffffffffff1673ffffffffffffffffffffffffffffffffffffffff16815260200190815260200160002060030160009054906101000a900460ff169050919050565b61078a612b1e565b6004600083815260200190815260200160002060405180610180016040529081600082015481526020016001820180546107c390613af4565b80601f01602080910402602001604051908101604052809291908181526020018280546107ef90613af4565b801561083c5780601f106108115761010080835404028352916020019161083c565b820191906000526020600020905b81548152906001019060200180831161081f57829003601f168201915b505050505081526020016002820154815260200160038201805461085f90613af4565b80601f016020809104026020016040519081016040528092919081815260200182805461088b90613af4565b80156108d85780601f106108ad576101008083540402835291602001916108d8565b820191906000526020600020905b8154815290600101906020018083116108bb57829003601f168201915b505050505081526020016004820180546108f190613af4565b80601f016020809104026020016040519081016040528092919081815260200182805461091d90613af4565b801561096a5780601f1061093f5761010080835404028352916020019161096a565b820191906000526020600020905b81548152906001019060200180831161094d57829003601f168201915b5050505050815260200160058201805461098390613af4565b80601f01602080910402602001604051908101604052809291908181526020018280546109af90613af4565b80156109fc5780601f106109d1576101008083540402835291602001916109fc565b820191906000526020600020905b8154815290600101906020018083116109df57829003601f168201915b50505050508152602001600682015481526020016007820160009054906101000a900473ffffffffffffffffffffffffffffffffffffffff1673ffffffffffffffffffffffffffffffffffffffff1673ffffffffffffffffffffffffffffffffffffffff1681526020016008820154815260200160098201548152602001600a820160009054906101000a900460ff16151515158152602001600b8201805480602002602001604051908101604052809291908181526020018280548015610b1957602002820191906000526020600020905b8160009054906101000a900473ffffffffffffffffffffffffffffffffffffffff1673ffffffffffffffffffffffffffffffffffffffff1681526020019060010190808311610acf575b5050505050815250509050919050565b600081604051602001610b3c9190613b61565b60405160208183030381529060405280519060200120600560008573ffffffffffffffffffffffffffffffffffffffff1673ffffffffffffffffffffffffffffffffffffffff168152602001908152602001600020600201604051602001610ba49190613c0c565b6040516020818303038152906040528051906020012003610c71576001600560008573ffffffffffffffffffffffffffffffffffffffff1673ffffffffffffffffffffffffffffffffffffffff16815260200190815260200160002060030160006101000a81548160ff021916908315150217905550600560008473ffffffffffffffffffffffffffffffffffffffff1673ffffffffffffffffffffffffffffffffffffffff16815260200190815260200160002060030160009054906101000a900460ff169050610c76565b600090505b92915050565b6000875111610c8a57600080fd5b6000855111610c9857600080fd5b604051602001610ca790613c6f565b6040516020818303038152906040528051906020012085604051602001610cce9190613b61565b604051602081830303815290604052805190602001201480610d395750604051602001610cfa90613d1c565b6040516020818303038152906040528051906020012085604051602001610d219190613b61565b60405160208183030381529060405280519060200120145b80610d8d5750604051602001610d4e90613d7d565b6040516020818303038152906040528051906020012085604051602001610d759190613b61565b60405160208183030381529060405280519060200120145b610d9657600080fd5b6000835111610da457600080fd5b6000845111610db257600080fd5b600073ffffffffffffffffffffffffffffffffffffffff163373ffffffffffffffffffffffffffffffffffffffff1603610deb57600080fd5b60008611610df857600080fd5b60016000815480929190610e0b90613dc1565b919050555060026000815480929190610e2390613dc1565b919050555060405180610180016040528060015481526020018881526020018781526020018681526020018581526020018481526020014281526020013373ffffffffffffffffffffffffffffffffffffffff1681526020016000815260200160008152602001831515815260200182815250600460006001548152602001908152602001600020600082015181600001556020820151816001019080519060200190610ed1929190612b97565b50604082015181600201556060820151816003019080519060200190610ef8929190612b97565b506080820151816004019080519060200190610f15929190612b97565b5060a0820151816005019080519060200190610f32929190612b97565b5060c0820151816006015560e08201518160070160006101000a81548173ffffffffffffffffffffffffffffffffffffffff021916908373ffffffffffffffffffffffffffffffffffffffff1602179055506101008201518160080155610120820151816009015561014082015181600a0160006101000a81548160ff02191690831515021790555061016082015181600b019080519060200190610fd8929190612c1d565b50905050610fe4612ca7565b33816000019073ffffffffffffffffffffffffffffffffffffffff16908173ffffffffffffffffffffffffffffffffffffffff1681525050600560003373ffffffffffffffffffffffffffffffffffffffff1673ffffffffffffffffffffffffffffffffffffffff168152602001908152602001600020600101805461106990613af4565b80601f016020809104026020016040519081016040528092919081815260200182805461109590613af4565b80156110e25780601f106110b7576101008083540402835291602001916110e2565b820191906000526020600020905b8154815290600101906020018083116110c557829003601f168201915b50505050508160200181905250600154816040018181525050848160600181905250878160800181905250868160a00181815250506040518060400160405280600381526020017f41444400000000000000000000000000000000000000000000000000000000008152508160c0018190525060008160e0018181525050600081610120018181525050428161010001818152505060068190806001815401808255809150506001900390600052602060002090600a020160009091909190915060008201518160000160006101000a81548173ffffffffffffffffffffffffffffffffffffffff021916908373ffffffffffffffffffffffffffffffffffffffff1602179055506020820151816001019080519060200190611206929190612b97565b5060408201518160020155606082015181600301908051906020019061122d929190612b97565b50608082015181600401908051906020019061124a929190612b97565b5060a0820151816005015560c0820151816006019080519060200190611271929190612b97565b5060e08201518160070155610100820151816008015561012082015181600901555050600360008154809291906112a790613dc1565b91905055507fe66659d67cf8d5c25445a0d76ce14710d606f8642206f420cf4625b5e07a1899600154898989898942336000808d8d6040516112f49c9b9a99989796959493929190613e4e565b60405180910390a15050505050505050565b6060600560008373ffffffffffffffffffffffffffffffffffffffff1673ffffffffffffffffffffffffffffffffffffffff168152602001908152602001600020600101805461135590613af4565b80601f016020809104026020016040519081016040528092919081815260200182805461138190613af4565b80156113ce5780601f106113a3576101008083540402835291602001916113ce565b820191906000526020600020905b8154815290600101906020018083116113b157829003601f168201915b50505050509050919050565b60003373ffffffffffffffffffffffffffffffffffffffff16600560008673ffffffffffffffffffffffffffffffffffffffff1673ffffffffffffffffffffffffffffffffffffffff16815260200190815260200160002060000160009054906101000a900473ffffffffffffffffffffffffffffffffffffffff1673ffffffffffffffffffffffffffffffffffffffff160361147657600080fd5b83600560008673ffffffffffffffffffffffffffffffffffffffff1673ffffffffffffffffffffffffffffffffffffffff16815260200190815260200160002060000160006101000a81548173ffffffffffffffffffffffffffffffffffffffff021916908373ffffffffffffffffffffffffffffffffffffffff16021790555082600560008673ffffffffffffffffffffffffffffffffffffffff1673ffffffffffffffffffffffffffffffffffffffff168152602001908152602001600020600101908051906020019061154d929190612b97565b5081600560008673ffffffffffffffffffffffffffffffffffffffff1673ffffffffffffffffffffffffffffffffffffffff16815260200190815260200160002060020190805190602001906115a4929190612b97565b506000600560008673ffffffffffffffffffffffffffffffffffffffff1673ffffffffffffffffffffffffffffffffffffffff16815260200190815260200160002060030160006101000a81548160ff021916908315150217905550600190509392505050565b60015481565b60035481565b61161f612ca7565b33816000019073ffffffffffffffffffffffffffffffffffffffff16908173ffffffffffffffffffffffffffffffffffffffff1681525050600560003373ffffffffffffffffffffffffffffffffffffffff1673ffffffffffffffffffffffffffffffffffffffff16815260200190815260200160002060010180546116a490613af4565b80601f01602080910402602001604051908101604052809291908181526020018280546116d090613af4565b801561171d5780601f106116f25761010080835404028352916020019161171d565b820191906000526020600020905b81548152906001019060200180831161170057829003601f168201915b505050505081602001819052508181604001818152505060046000838152602001908152602001600020600401805461175590613af4565b80601f016020809104026020016040519081016040528092919081815260200182805461178190613af4565b80156117ce5780601f106117a3576101008083540402835291602001916117ce565b820191906000526020600020905b8154815290600101906020018083116117b157829003601f168201915b505050505081606001819052506004600083815260200190815260200160002060010180546117fc90613af4565b80601f016020809104026020016040519081016040528092919081815260200182805461182890613af4565b80156118755780601f1061184a57610100808354040283529160200191611875565b820191906000526020600020905b81548152906001019060200180831161185857829003601f168201915b5050505050816080018190525060046000838152602001908152602001600020600201548160a00181815250506040518060400160405280600681526020017f44454c45544500000000000000000000000000000000000000000000000000008152508160c0018190525060008160e001818152505042816101000181815250506000151560046000848152602001908152602001600020600a0160009054906101000a900460ff16151503611b425760068190806001815401808255809150506001900390600052602060002090600a020160009091909190915060008201518160000160006101000a81548173ffffffffffffffffffffffffffffffffffffffff021916908373ffffffffffffffffffffffffffffffffffffffff16021790555060208201518160010190805190602001906119b4929190612b97565b506040820151816002015560608201518160030190805190602001906119db929190612b97565b5060808201518160040190805190602001906119f8929190612b97565b5060a0820151816005015560c0820151816006019080519060200190611a1f929190612b97565b5060e0820151816007015561010082015181600801556101208201518160090155505060036000815480929190611a5590613dc1565b919050555060046000838152602001908152602001600020600080820160009055600182016000611a869190612d10565b6002820160009055600382016000611a9e9190612d10565b600482016000611aae9190612d10565b600582016000611abe9190612d10565b60068201600090556007820160006101000a81549073ffffffffffffffffffffffffffffffffffffffff021916905560088201600090556009820160009055600a820160006101000a81549060ff0219169055600b82016000611b219190612d50565b5050600160026000828254611b369190613f2b565b925050819055506120d0565b6001151560046000848152602001908152602001600020600a0160009054906101000a900460ff161515036120cf573373ffffffffffffffffffffffffffffffffffffffff166004600084815260200190815260200160002060070160009054906101000a900473ffffffffffffffffffffffffffffffffffffffff1673ffffffffffffffffffffffffffffffffffffffff1603611df75760068190806001815401808255809150506001900390600052602060002090600a020160009091909190915060008201518160000160006101000a81548173ffffffffffffffffffffffffffffffffffffffff021916908373ffffffffffffffffffffffffffffffffffffffff1602179055506020820151816001019080519060200190611c69929190612b97565b50604082015181600201556060820151816003019080519060200190611c90929190612b97565b506080820151816004019080519060200190611cad929190612b97565b5060a0820151816005015560c0820151816006019080519060200190611cd4929190612b97565b5060e0820151816007015561010082015181600801556101208201518160090155505060036000815480929190611d0a90613dc1565b919050555060046000838152602001908152602001600020600080820160009055600182016000611d3b9190612d10565b6002820160009055600382016000611d539190612d10565b600482016000611d639190612d10565b600582016000611d739190612d10565b60068201600090556007820160006101000a81549073ffffffffffffffffffffffffffffffffffffffff021916905560088201600090556009820160009055600a820160006101000a81549060ff0219169055600b82016000611dd69190612d50565b5050600160026000828254611deb9190613f2b565b925050819055506120ce565b60005b60046000848152602001908152602001600020600b01805490508110156120cc573373ffffffffffffffffffffffffffffffffffffffff1660046000858152602001908152602001600020600b018281548110611e5a57611e59613f5f565b5b9060005260206000200160009054906101000a900473ffffffffffffffffffffffffffffffffffffffff1673ffffffffffffffffffffffffffffffffffffffff16036120b95760068290806001815401808255809150506001900390600052602060002090600a020160009091909190915060008201518160000160006101000a81548173ffffffffffffffffffffffffffffffffffffffff021916908373ffffffffffffffffffffffffffffffffffffffff1602179055506020820151816001019080519060200190611f2f929190612b97565b50604082015181600201556060820151816003019080519060200190611f56929190612b97565b506080820151816004019080519060200190611f73929190612b97565b5060a0820151816005015560c0820151816006019080519060200190611f9a929190612b97565b5060e0820151816007015561010082015181600801556101208201518160090155505060036000815480929190611fd090613dc1565b9190505550600460008481526020019081526020016000206000808201600090556001820160006120019190612d10565b60028201600090556003820160006120199190612d10565b6004820160006120299190612d10565b6005820160006120399190612d10565b60068201600090556007820160006101000a81549073ffffffffffffffffffffffffffffffffffffffff021916905560088201600090556009820160009055600a820160006101000a81549060ff0219169055600b8201600061209c9190612d50565b50506001600260008282546120b19190613f2b565b925050819055505b80806120c490613dc1565b915050611dfa565b505b5b5b5050565b60608060046000848152602001908152602001600020600b0180548060200260200160405190810160405280929190818152602001828054801561216d57602002820191906000526020600020905b8160009054906101000a900473ffffffffffffffffffffffffffffffffffffffff1673ffffffffffffffffffffffffffffffffffffffff1681526020019060010190808311612123575b5050505050905080915050919050565b6000600560008373ffffffffffffffffffffffffffffffffffffffff1673ffffffffffffffffffffffffffffffffffffffff16815260200190815260200160002060030160006101000a81548160ff02191690831515021790555050565b60008951116121e957600080fd5b60008751116121f757600080fd5b60405160200161220690613c6f565b604051602081830303815290604052805190602001208760405160200161222d9190613b61565b604051602081830303815290604052805190602001201480612298575060405160200161225990613d1c565b60405160208183030381529060405280519060200120876040516020016122809190613b61565b60405160208183030381529060405280519060200120145b806122ec57506040516020016122ad90613d7d565b60405160208183030381529060405280519060200120876040516020016122d49190613b61565b60405160208183030381529060405280519060200120145b6122f557600080fd5b600086511161230357600080fd5b600073ffffffffffffffffffffffffffffffffffffffff163373ffffffffffffffffffffffffffffffffffffffff160361233c57600080fd5b6000881161234957600080fd5b60008511801561235b57506001548511155b61236457600080fd5b600084101561237257600080fd5b8860046000878152602001908152602001600020600101908051906020019061239c929190612b97565b50876004600087815260200190815260200160002060020181905550866004600087815260200190815260200160002060030190805190602001906123e2929190612b97565b508560046000878152602001908152602001600020600401908051906020019061240d929190612b97565b504260046000878152602001908152602001600020600601819055508360046000878152602001908152602001600020600801819055508260046000878152602001908152602001600020600901819055508160046000878152602001908152602001600020600a0160006101000a81548160ff0219169083151502179055508060046000878152602001908152602001600020600b0190805190602001906124b7929190612c1d565b506124c0612ca7565b33816000019073ffffffffffffffffffffffffffffffffffffffff16908173ffffffffffffffffffffffffffffffffffffffff1681525050600560003373ffffffffffffffffffffffffffffffffffffffff1673ffffffffffffffffffffffffffffffffffffffff168152602001908152602001600020600101805461254590613af4565b80601f016020809104026020016040519081016040528092919081815260200182805461257190613af4565b80156125be5780601f10612593576101008083540402835291602001916125be565b820191906000526020600020905b8154815290600101906020018083116125a157829003601f168201915b50505050508160200181905250858160400181815250506004600087815260200190815260200160002060040180546125f690613af4565b80601f016020809104026020016040519081016040528092919081815260200182805461262290613af4565b801561266f5780601f106126445761010080835404028352916020019161266f565b820191906000526020600020905b81548152906001019060200180831161265257829003601f168201915b50505050508160600181905250898160800181905250888160a00181815250506040518060400160405280600681526020017f55504441544500000000000000000000000000000000000000000000000000008152508160c00181905250848160e00181815250504281610100018181525050838161012001818152505060068190806001815401808255809150506001900390600052602060002090600a020160009091909190915060008201518160000160006101000a81548173ffffffffffffffffffffffffffffffffffffffff021916908373ffffffffffffffffffffffffffffffffffffffff160217905550602082015181600101908051906020019061277c929190612b97565b506040820151816002015560608201518160030190805190602001906127a3929190612b97565b5060808201518160040190805190602001906127c0929190612b97565b5060a0820151816005015560c08201518160060190805190602001906127e7929190612b97565b5060e082015181600701556101008201518160080155610120820151816009015550506003600081548092919061281d90613dc1565b91905055507fe26efc812a9a6ff1c01c15ea0bc1101921d5ac1e6075a96c41ad87d660250cad8a8a8a8a42338b8b8b8b6040516128639a99989796959493929190613f8e565b60405180910390a150505050505050505050565b60046020528060005260406000206000915090508060000154908060010180546128a090613af4565b80601f01602080910402602001604051908101604052809291908181526020018280546128cc90613af4565b80156129195780601f106128ee57610100808354040283529160200191612919565b820191906000526020600020905b8154815290600101906020018083116128fc57829003601f168201915b50505050509080600201549080600301805461293490613af4565b80601f016020809104026020016040519081016040528092919081815260200182805461296090613af4565b80156129ad5780601f10612982576101008083540402835291602001916129ad565b820191906000526020600020905b81548152906001019060200180831161299057829003601f168201915b5050505050908060040180546129c290613af4565b80601f01602080910402602001604051908101604052809291908181526020018280546129ee90613af4565b8015612a3b5780601f10612a1057610100808354040283529160200191612a3b565b820191906000526020600020905b815481529060010190602001808311612a1e57829003601f168201915b505050505090806005018054612a5090613af4565b80601f0160208091040260200160405190810160405280929190818152602001828054612a7c90613af4565b8015612ac95780601f10612a9e57610100808354040283529160200191612ac9565b820191906000526020600020905b815481529060010190602001808311612aac57829003601f168201915b5050505050908060060154908060070160009054906101000a900473ffffffffffffffffffffffffffffffffffffffff169080600801549080600901549080600a0160009054906101000a900460ff1690508b565b60405180610180016040528060008152602001606081526020016000815260200160608152602001606081526020016060815260200160008152602001600073ffffffffffffffffffffffffffffffffffffffff1681526020016000815260200160008152602001600015158152602001606081525090565b828054612ba390613af4565b90600052602060002090601f016020900481019282612bc55760008555612c0c565b82601f10612bde57805160ff1916838001178555612c0c565b82800160010185558215612c0c579182015b82811115612c0b578251825591602001919060010190612bf0565b5b509050612c199190612d71565b5090565b828054828255906000526020600020908101928215612c96579160200282015b82811115612c955782518260006101000a81548173ffffffffffffffffffffffffffffffffffffffff021916908373ffffffffffffffffffffffffffffffffffffffff16021790555091602001919060010190612c3d565b5b509050612ca39190612d71565b5090565b604051806101400160405280600073ffffffffffffffffffffffffffffffffffffffff1681526020016060815260200160008152602001606081526020016060815260200160008152602001606081526020016000815260200160008152602001600081525090565b508054612d1c90613af4565b6000825580601f10612d2e5750612d4d565b601f016020900490600052602060002090810190612d4c9190612d71565b5b50565b5080546000825590600052602060002090810190612d6e9190612d71565b50565b5b80821115612d8a576000816000905550600101612d72565b5090565b600081519050919050565b600082825260208201905092915050565b60005b83811015612dc8578082015181840152602081019050612dad565b83811115612dd7576000848401525b50505050565b6000601f19601f8301169050919050565b6000612df982612d8e565b612e038185612d99565b9350612e13818560208601612daa565b612e1c81612ddd565b840191505092915050565b60006020820190508181036000830152612e418184612dee565b905092915050565b6000819050919050565b612e5c81612e49565b82525050565b6000602082019050612e776000830184612e53565b92915050565b600081519050919050565b600082825260208201905092915050565b6000819050602082019050919050565b600073ffffffffffffffffffffffffffffffffffffffff82169050919050565b6000612ed482612ea9565b9050919050565b612ee481612ec9565b82525050565b600082825260208201905092915050565b6000612f0682612d8e565b612f108185612eea565b9350612f20818560208601612daa565b612f2981612ddd565b840191505092915050565b612f3d81612e49565b82525050565b600061014083016000830151612f5c6000860182612edb565b5060208301518482036020860152612f748282612efb565b9150506040830151612f896040860182612f34565b5060608301518482036060860152612fa18282612efb565b91505060808301518482036080860152612fbb8282612efb565b91505060a0830151612fd060a0860182612f34565b5060c083015184820360c0860152612fe88282612efb565b91505060e0830151612ffd60e0860182612f34565b50610100830151613012610100860182612f34565b50610120830151613027610120860182612f34565b508091505092915050565b600061303e8383612f43565b905092915050565b6000602082019050919050565b600061305e82612e7d565b6130688185612e88565b93508360208202850161307a85612e99565b8060005b858110156130b657848403895281516130978582613032565b94506130a283613046565b925060208a0199505060018101905061307e565b50829750879550505050505092915050565b600060208201905081810360008301526130e28184613053565b905092915050565b6000604051905090565b600080fd5b600080fd5b61310781612ec9565b811461311257600080fd5b50565b600081359050613124816130fe565b92915050565b6000602082840312156131405761313f6130f4565b5b600061314e84828501613115565b91505092915050565b60008115159050919050565b61316c81613157565b82525050565b60006020820190506131876000830184613163565b92915050565b61319681612e49565b81146131a157600080fd5b50565b6000813590506131b38161318d565b92915050565b6000602082840312156131cf576131ce6130f4565b5b60006131dd848285016131a4565b91505092915050565b6131ef81613157565b82525050565b600081519050919050565b600082825260208201905092915050565b6000819050602082019050919050565b600061322d8383612edb565b60208301905092915050565b6000602082019050919050565b6000613251826131f5565b61325b8185613200565b935061326683613211565b8060005b8381101561329757815161327e8882613221565b975061328983613239565b92505060018101905061326a565b5085935050505092915050565b6000610180830160008301516132bd6000860182612f34565b50602083015184820360208601526132d58282612efb565b91505060408301516132ea6040860182612f34565b50606083015184820360608601526133028282612efb565b9150506080830151848203608086015261331c8282612efb565b91505060a083015184820360a08601526133368282612efb565b91505060c083015161334b60c0860182612f34565b5060e083015161335e60e0860182612edb565b50610100830151613373610100860182612f34565b50610120830151613388610120860182612f34565b5061014083015161339d6101408601826131e6565b506101608301518482036101608601526133b78282613246565b9150508091505092915050565b600060208201905081810360008301526133de81846132a4565b905092915050565b600080fd5b600080fd5b7f4e487b7100000000000000000000000000000000000000000000000000000000600052604160045260246000fd5b61342882612ddd565b810181811067ffffffffffffffff82111715613447576134466133f0565b5b80604052505050565b600061345a6130ea565b9050613466828261341f565b919050565b600067ffffffffffffffff821115613486576134856133f0565b5b61348f82612ddd565b9050602081019050919050565b82818337600083830152505050565b60006134be6134b98461346b565b613450565b9050828152602081018484840111156134da576134d96133eb565b5b6134e584828561349c565b509392505050565b600082601f830112613502576135016133e6565b5b81356135128482602086016134ab565b91505092915050565b60008060408385031215613532576135316130f4565b5b600061354085828601613115565b925050602083013567ffffffffffffffff811115613561576135606130f9565b5b61356d858286016134ed565b9150509250929050565b61358081613157565b811461358b57600080fd5b50565b60008135905061359d81613577565b92915050565b600067ffffffffffffffff8211156135be576135bd6133f0565b5b602082029050602081019050919050565b600080fd5b60006135e76135e2846135a3565b613450565b9050808382526020820190506020840283018581111561360a576136096135cf565b5b835b81811015613633578061361f8882613115565b84526020840193505060208101905061360c565b5050509392505050565b600082601f830112613652576136516133e6565b5b81356136628482602086016135d4565b91505092915050565b600080600080600080600060e0888a03121561368a576136896130f4565b5b600088013567ffffffffffffffff8111156136a8576136a76130f9565b5b6136b48a828b016134ed565b97505060206136c58a828b016131a4565b965050604088013567ffffffffffffffff8111156136e6576136e56130f9565b5b6136f28a828b016134ed565b955050606088013567ffffffffffffffff811115613713576137126130f9565b5b61371f8a828b016134ed565b945050608088013567ffffffffffffffff8111156137405761373f6130f9565b5b61374c8a828b016134ed565b93505060a061375d8a828b0161358e565b92505060c088013567ffffffffffffffff81111561377e5761377d6130f9565b5b61378a8a828b0161363d565b91505092959891949750929550565b6000806000606084860312156137b2576137b16130f4565b5b60006137c086828701613115565b935050602084013567ffffffffffffffff8111156137e1576137e06130f9565b5b6137ed868287016134ed565b925050604084013567ffffffffffffffff81111561380e5761380d6130f9565b5b61381a868287016134ed565b9150509250925092565b600082825260208201905092915050565b6000613840826131f5565b61384a8185613824565b935061385583613211565b8060005b8381101561388657815161386d8882613221565b975061387883613239565b925050600181019050613859565b5085935050505092915050565b600060208201905081810360008301526138ad8184613835565b905092915050565b60008060008060008060008060006101208a8c0312156138d8576138d76130f4565b5b60008a013567ffffffffffffffff8111156138f6576138f56130f9565b5b6139028c828d016134ed565b99505060206139138c828d016131a4565b98505060408a013567ffffffffffffffff811115613934576139336130f9565b5b6139408c828d016134ed565b97505060608a013567ffffffffffffffff811115613961576139606130f9565b5b61396d8c828d016134ed565b965050608061397e8c828d016131a4565b95505060a061398f8c828d016131a4565b94505060c06139a08c828d016131a4565b93505060e06139b18c828d0161358e565b9250506101008a013567ffffffffffffffff8111156139d3576139d26130f9565b5b6139df8c828d0161363d565b9150509295985092959850929598565b6139f881612ec9565b82525050565b600061016082019050613a14600083018e612e53565b8181036020830152613a26818d612dee565b9050613a35604083018c612e53565b8181036060830152613a47818b612dee565b90508181036080830152613a5b818a612dee565b905081810360a0830152613a6f8189612dee565b9050613a7e60c0830188612e53565b613a8b60e08301876139ef565b613a99610100830186612e53565b613aa7610120830185612e53565b613ab5610140830184613163565b9c9b505050505050505050505050565b7f4e487b7100000000000000000000000000000000000000000000000000000000600052602260045260246000fd5b60006002820490506001821680613b0c57607f821691505b602082108103613b1f57613b1e613ac5565b5b50919050565b600081905092915050565b6000613b3b82612d8e565b613b458185613b25565b9350613b55818560208601612daa565b80840191505092915050565b6000613b6d8284613b30565b915081905092915050565b60008190508160005260206000209050919050565b60008154613b9a81613af4565b613ba48186613b25565b94506001821660008114613bbf5760018114613bd057613c03565b60ff19831686528186019350613c03565b613bd985613b78565b60005b83811015613bfb57815481890152600182019150602081019050613bdc565b838801955050505b50505092915050565b6000613c188284613b8d565b915081905092915050565b7f746578742f706c61696e00000000000000000000000000000000000000000000600082015250565b6000613c59600a83613b25565b9150613c6482613c23565b600a82019050919050565b6000613c7a82613c4c565b9150819050919050565b7f6170706c69636174696f6e2f766e642e6f70656e786d6c666f726d6174732d6f60008201527f6666696365646f63756d656e742e776f726470726f63657373696e676d6c2e6460208201527f6f63756d656e7400000000000000000000000000000000000000000000000000604082015250565b6000613d06604783613b25565b9150613d1182613c84565b604782019050919050565b6000613d2782613cf9565b9150819050919050565b7f6170706c69636174696f6e2f7064660000000000000000000000000000000000600082015250565b6000613d67600f83613b25565b9150613d7282613d31565b600f82019050919050565b6000613d8882613d5a565b9150819050919050565b7f4e487b7100000000000000000000000000000000000000000000000000000000600052601160045260246000fd5b6000613dcc82612e49565b91507fffffffffffffffffffffffffffffffffffffffffffffffffffffffffffffffff8203613dfe57613dfd613d92565b5b600182019050919050565b6000819050919050565b6000819050919050565b6000613e38613e33613e2e84613e09565b613e13565b612e49565b9050919050565b613e4881613e1d565b82525050565b600061018082019050613e64600083018f612e53565b8181036020830152613e76818e612dee565b9050613e85604083018d612e53565b8181036060830152613e97818c612dee565b90508181036080830152613eab818b612dee565b905081810360a0830152613ebf818a612dee565b9050613ece60c0830189612e53565b613edb60e08301886139ef565b613ee9610100830187613e3f565b613ef7610120830186613e3f565b613f05610140830185613163565b818103610160830152613f188184613835565b90509d9c50505050505050505050505050565b6000613f3682612e49565b9150613f4183612e49565b925082821015613f5457613f53613d92565b5b828203905092915050565b7f4e487b7100000000000000000000000000000000000000000000000000000000600052603260045260246000fd5b6000610140820190508181036000830152613fa9818d612dee565b9050613fb8602083018c612e53565b8181036040830152613fca818b612dee565b90508181036060830152613fde818a612dee565b9050613fed6080830189612e53565b613ffa60a08301886139ef565b61400760c0830187612e53565b61401460e0830186612e53565b614022610100830185613163565b8181036101208301526140358184613835565b90509b9a505050505050505050505056fea264697066735822122061f2e3f97cf55378c622b6a6121936f1eea572a3a66688f6df74054ea8a7e15564736f6c634300080e0033",
  "immutableReferences": {},
  "source": "// SPDX-License-Identifier: MIT\r\npragma solidity ^0.8.0;\r\n\r\ncontract SimpleStorage {\r\n    // data\r\n    string public name = \"ArchStorage\";\r\n\r\n    uint256 public fileIDs = 0;\r\n    uint256 public fileNum = 0;\r\n    uint256 public transactionCount = 0;\r\n    mapping(uint256 => File) public files;\r\n    mapping(address => UserDetail) user;\r\n\r\n    struct File {\r\n        uint256 fileId;\r\n        string fileHash;\r\n        uint256 fileSize;\r\n        string fileType;\r\n        string fileName;\r\n        string fileDescription;\r\n        uint256 uploadTime;\r\n        address uploader;\r\n        uint256 lastChange;\r\n        uint256 lastSize;\r\n        bool isPrivate;\r\n        address[] allowedUsers;\r\n    }\r\n\r\n    struct UserDetail {\r\n        address addr;\r\n        string name;\r\n        string password;\r\n        bool isUserLoggedIn;\r\n    }\r\n\r\n    struct Transaction {\r\n        address userAddress;\r\n        string userName;\r\n        uint256 fileId;\r\n        string fileName;\r\n        string fileHash;\r\n        uint256 fileSize;\r\n        string transactionType;\r\n        uint256 changeLevel;\r\n        uint256 uploadTime;\r\n        uint256 lastSize;\r\n    }\r\n    Transaction[] transactions;\r\n\r\n    //events\r\n\r\n    // event transactionAdded(Transaction temp);\r\n\r\n    event FileUploaded(\r\n        uint256 fileId,\r\n        string fileHash,\r\n        uint256 fileSize,\r\n        string fileType,\r\n        string fileName,\r\n        string fileDescription,\r\n        uint256 uploadTime,\r\n        address uploader,\r\n        uint256 lastChange,\r\n        uint256 lastSize,\r\n        bool isPrivate,\r\n        address[] allowedUsers\r\n    );\r\n\r\n    event FileUpdated(\r\n        string fileHash,\r\n        uint256 fileSize,\r\n        string fileType,\r\n        string fileName,\r\n        uint256 uploadTime,\r\n        address uploader,\r\n        uint256 lastChange,\r\n        uint256 lastSize,\r\n        bool isPrivate,\r\n        address[] allowedUsers\r\n    );\r\n\r\n    constructor() public {}\r\n\r\n    function uploadFile(\r\n        string memory _fileHash,\r\n        uint256 _fileSize,\r\n        string memory _fileType,\r\n        string memory _fileName,\r\n        string memory _fileDescription,\r\n        bool filePrivacy,\r\n        address[] memory allowedFileUsers\r\n    ) public {\r\n        // Make sure the file hash exists\r\n        require(bytes(_fileHash).length > 0);\r\n        // Make sure file type exists\r\n        require(bytes(_fileType).length > 0);\r\n        require(\r\n            keccak256(abi.encodePacked(_fileType)) ==\r\n                keccak256(abi.encodePacked(\"text/plain\")) ||\r\n                keccak256(abi.encodePacked(_fileType)) ==\r\n                keccak256(\r\n                    abi.encodePacked(\r\n                        \"application/vnd.openxmlformats-officedocument.wordprocessingml.document\"\r\n                    )\r\n                ) ||\r\n                keccak256(abi.encodePacked(_fileType)) ==\r\n                keccak256(abi.encodePacked(\"application/pdf\"))\r\n        );\r\n        // Make sure file description exists\r\n        require(bytes(_fileDescription).length > 0);\r\n        // Make sure file fileName exists\r\n        require(bytes(_fileName).length > 0);\r\n        // Make sure uploader address exists\r\n        require(msg.sender != address(0));\r\n        // Make sure file size is more than 0\r\n        require(_fileSize > 0);\r\n\r\n        // Increment file id\r\n        fileIDs++;\r\n        fileNum++;\r\n\r\n        // Add File to the contract\r\n        files[fileIDs] = File(\r\n            fileIDs,\r\n            _fileHash,\r\n            _fileSize,\r\n            _fileType,\r\n            _fileName,\r\n            _fileDescription,\r\n            block.timestamp,\r\n            msg.sender,\r\n            0,\r\n            0,\r\n            filePrivacy,\r\n            allowedFileUsers\r\n        );\r\n\r\n        Transaction memory temp;\r\n        temp.userAddress = msg.sender;\r\n        temp.userName = user[msg.sender].name;\r\n        temp.fileId = fileIDs;\r\n        temp.fileName = _fileName;\r\n        temp.fileHash = _fileHash;\r\n        temp.fileSize = _fileSize;\r\n        temp.transactionType = \"ADD\";\r\n        temp.changeLevel = 0;\r\n        temp.lastSize = 0;\r\n        temp.uploadTime = block.timestamp;\r\n        transactions.push(temp);\r\n\r\n        transactionCount++;\r\n        // Trigger an event\r\n        emit FileUploaded(\r\n            fileIDs,\r\n            _fileHash,\r\n            _fileSize,\r\n            _fileType,\r\n            _fileName,\r\n            _fileDescription,\r\n            block.timestamp,\r\n            msg.sender,\r\n            0,\r\n            0,\r\n            filePrivacy,\r\n            allowedFileUsers\r\n        );\r\n    }\r\n\r\n    function updateFile(\r\n        string memory _fileHash,\r\n        uint256 _fileSize,\r\n        string memory _fileType,\r\n        string memory _fileName,\r\n        uint256 _fileID,\r\n        uint256 _changeValue,\r\n        uint256 _lastSize,\r\n        bool filePrivacy,\r\n        address[] memory allowedFileUsers\r\n    ) public {\r\n        // Make sure the file hash exists\r\n        require(bytes(_fileHash).length > 0);\r\n        // Make sure file type exists\r\n        require(bytes(_fileType).length > 0);\r\n        require(\r\n            keccak256(abi.encodePacked(_fileType)) ==\r\n                keccak256(abi.encodePacked(\"text/plain\")) ||\r\n                keccak256(abi.encodePacked(_fileType)) ==\r\n                keccak256(\r\n                    abi.encodePacked(\r\n                        \"application/vnd.openxmlformats-officedocument.wordprocessingml.document\"\r\n                    )\r\n                ) ||\r\n                keccak256(abi.encodePacked(_fileType)) ==\r\n                keccak256(abi.encodePacked(\"application/pdf\"))\r\n        );\r\n        require(bytes(_fileName).length > 0);\r\n        // Make sure uploader address exists\r\n        require(msg.sender != address(0));\r\n        // Make sure file size is more than 0\r\n        require(_fileSize > 0);\r\n        require(_fileID > 0 && _fileID <= fileIDs);\r\n        require(_changeValue >= 0);\r\n\r\n        // update current file\r\n        files[_fileID].fileHash = _fileHash;\r\n        files[_fileID].fileSize = _fileSize;\r\n        files[_fileID].fileType = _fileType;\r\n        files[_fileID].fileName = _fileName;\r\n        files[_fileID].uploadTime = block.timestamp;\r\n        files[_fileID].lastChange = _changeValue;\r\n        files[_fileID].lastSize = _lastSize;\r\n        files[_fileID].isPrivate = filePrivacy;\r\n        files[_fileID].allowedUsers = allowedFileUsers;\r\n\r\n        Transaction memory temp;\r\n        temp.userAddress = msg.sender;\r\n        temp.userName = user[msg.sender].name;\r\n        temp.fileId = _fileID;\r\n        temp.fileName = files[_fileID].fileName;\r\n        temp.fileHash = _fileHash;\r\n        temp.fileSize = _fileSize;\r\n        temp.transactionType = \"UPDATE\";\r\n        temp.changeLevel = _changeValue;\r\n        temp.uploadTime = block.timestamp;\r\n        temp.lastSize = _lastSize;\r\n        transactions.push(temp);\r\n\r\n        transactionCount++;\r\n        // Trigger an event\r\n        emit FileUpdated(\r\n            _fileHash,\r\n            _fileSize,\r\n            _fileType,\r\n            _fileName,\r\n            block.timestamp,\r\n            msg.sender,\r\n            _changeValue,\r\n            _lastSize,\r\n            filePrivacy,\r\n            allowedFileUsers\r\n        );\r\n    }\r\n\r\n    function getFile(uint256 _fileID) public view returns (File memory) {\r\n        return files[_fileID];\r\n    }\r\n\r\n    function deleteFile(uint256 _fileID) public {\r\n        //require(_fileID.length > 0);\r\n        // for (uint256 i = 0; i < _fileID.length; i++) {\r\n        Transaction memory temp;\r\n        temp.userAddress = msg.sender;\r\n        temp.userName = user[msg.sender].name;\r\n        temp.fileId = _fileID;\r\n        temp.fileName = files[_fileID].fileName;\r\n        temp.fileHash = files[_fileID].fileHash;\r\n        temp.fileSize = files[_fileID].fileSize;\r\n        temp.transactionType = \"DELETE\";\r\n        temp.changeLevel = 0;\r\n        temp.uploadTime = block.timestamp;\r\n\r\n        if (files[_fileID].isPrivate == false) {\r\n            transactions.push(temp);\r\n\r\n            transactionCount++;\r\n            delete files[_fileID];\r\n            fileNum -= 1;\r\n        } else if (files[_fileID].isPrivate == true) {\r\n            if (files[_fileID].uploader == msg.sender) {\r\n                transactions.push(temp);\r\n                transactionCount++;\r\n                delete files[_fileID];\r\n                fileNum -= 1;\r\n            } else {\r\n                for (\r\n                    uint256 i = 0;\r\n                    i < files[_fileID].allowedUsers.length;\r\n                    i++\r\n                ) {\r\n                    if (files[_fileID].allowedUsers[i] == msg.sender) {\r\n                        transactions.push(temp);\r\n                        transactionCount++;\r\n                        delete files[_fileID];\r\n                        fileNum -= 1;\r\n                    }\r\n                }\r\n            }\r\n        }\r\n\r\n        // }\r\n    }\r\n\r\n    // user registration function\r\n    function register(\r\n        address _address,\r\n        string memory _name,\r\n        string memory _password\r\n    ) public returns (bool) {\r\n        require(user[_address].addr != msg.sender);\r\n        user[_address].addr = _address;\r\n        user[_address].name = _name;\r\n        user[_address].password = _password;\r\n        user[_address].isUserLoggedIn = false;\r\n        return true;\r\n    }\r\n\r\n    // user login function\r\n    function login(address _address, string memory _password)\r\n        public\r\n        returns (bool)\r\n    {\r\n        if (\r\n            keccak256(abi.encodePacked(user[_address].password)) ==\r\n            keccak256(abi.encodePacked(_password))\r\n        ) {\r\n            user[_address].isUserLoggedIn = true;\r\n            return user[_address].isUserLoggedIn;\r\n        } else {\r\n            return false;\r\n        }\r\n    }\r\n\r\n    // check the user logged In or not\r\n    function checkIsUserLogged(address _address) public view returns (bool) {\r\n        return (user[_address].isUserLoggedIn);\r\n    }\r\n\r\n    function checkUserName(address _address)\r\n        public\r\n        view\r\n        returns (string memory)\r\n    {\r\n        return (user[_address].name);\r\n    }\r\n\r\n    // logout the user\r\n    function logout(address _address) public {\r\n        user[_address].isUserLoggedIn = false;\r\n    }\r\n\r\n    function getAllTransactions() public view returns (Transaction[] memory) {\r\n        return transactions;\r\n    }\r\n\r\n    function getAllowedUsers(uint256 fileID)\r\n        public\r\n        view\r\n        returns (address[] memory)\r\n    {\r\n        address[] memory gottenAllowedUsers;\r\n        return gottenAllowedUsers = files[fileID].allowedUsers;\r\n    }\r\n}\r\n",
  "sourcePath": "C:\\Users\\Shaun\\Desktop\\THESIS\\thesis- testing-FINAL\\contracts\\SimpleStorage.sol",
  "compiler": {
    "name": "solc",
    "version": "0.8.14+commit.80d49f37.Emscripten.clang"
  },
  "schemaVersion": "3.4.3",
  "updatedAt": "2022-05-25T08:10:56.541Z",
  "networkType": "ethereum",
  "devdoc": {
    "kind": "dev",
    "methods": {},
    "version": 1
  },
  "userdoc": {
    "kind": "user",
    "methods": {},
    "version": 1
  }
}