{
  "contractName": "SimpleStorage",
  "abi": [
    {
      "inputs": [],
      "stateMutability": "nonpayable",
      "type": "constructor"
    },
    {
      "anonymous": false,
      "inputs": [
        {
          "indexed": false,
          "internalType": "string",
          "name": "fileHash",
          "type": "string"
        },
        {
          "indexed": false,
          "internalType": "uint256",
          "name": "fileSize",
          "type": "uint256"
        },
        {
          "indexed": false,
          "internalType": "string",
          "name": "fileType",
          "type": "string"
        },
        {
          "indexed": false,
          "internalType": "uint256",
          "name": "uploadTime",
          "type": "uint256"
        },
        {
          "indexed": false,
          "internalType": "address",
          "name": "uploader",
          "type": "address"
        }
      ],
      "name": "FileUpdated",
      "type": "event"
    },
    {
      "anonymous": false,
      "inputs": [
        {
          "indexed": false,
          "internalType": "uint256",
          "name": "fileId",
          "type": "uint256"
        },
        {
          "indexed": false,
          "internalType": "string",
          "name": "fileHash",
          "type": "string"
        },
        {
          "indexed": false,
          "internalType": "uint256",
          "name": "fileSize",
          "type": "uint256"
        },
        {
          "indexed": false,
          "internalType": "string",
          "name": "fileType",
          "type": "string"
        },
        {
          "indexed": false,
          "internalType": "string",
          "name": "fileName",
          "type": "string"
        },
        {
          "indexed": false,
          "internalType": "string",
          "name": "fileDescription",
          "type": "string"
        },
        {
          "indexed": false,
          "internalType": "uint256",
          "name": "uploadTime",
          "type": "uint256"
        },
        {
          "indexed": false,
          "internalType": "address",
          "name": "uploader",
          "type": "address"
        }
      ],
      "name": "FileUploaded",
      "type": "event"
    },
    {
      "inputs": [],
      "name": "fileCount",
      "outputs": [
        {
          "internalType": "uint256",
          "name": "",
          "type": "uint256"
        }
      ],
      "stateMutability": "view",
      "type": "function"
    },
    {
      "inputs": [
        {
          "internalType": "uint256",
          "name": "",
          "type": "uint256"
        }
      ],
      "name": "files",
      "outputs": [
        {
          "internalType": "uint256",
          "name": "fileId",
          "type": "uint256"
        },
        {
          "internalType": "string",
          "name": "fileHash",
          "type": "string"
        },
        {
          "internalType": "uint256",
          "name": "fileSize",
          "type": "uint256"
        },
        {
          "internalType": "string",
          "name": "fileType",
          "type": "string"
        },
        {
          "internalType": "string",
          "name": "fileName",
          "type": "string"
        },
        {
          "internalType": "string",
          "name": "fileDescription",
          "type": "string"
        },
        {
          "internalType": "uint256",
          "name": "uploadTime",
          "type": "uint256"
        },
        {
          "internalType": "address",
          "name": "uploader",
          "type": "address"
        }
      ],
      "stateMutability": "view",
      "type": "function"
    },
    {
      "inputs": [],
      "name": "name",
      "outputs": [
        {
          "internalType": "string",
          "name": "",
          "type": "string"
        }
      ],
      "stateMutability": "view",
      "type": "function"
    },
    {
      "inputs": [],
      "name": "transactionCount",
      "outputs": [
        {
          "internalType": "uint256",
          "name": "",
          "type": "uint256"
        }
      ],
      "stateMutability": "view",
      "type": "function"
    },
    {
      "inputs": [
        {
          "internalType": "string",
          "name": "_fileHash",
          "type": "string"
        },
        {
          "internalType": "uint256",
          "name": "_fileSize",
          "type": "uint256"
        },
        {
          "internalType": "string",
          "name": "_fileType",
          "type": "string"
        },
        {
          "internalType": "string",
          "name": "_fileName",
          "type": "string"
        },
        {
          "internalType": "string",
          "name": "_fileDescription",
          "type": "string"
        }
      ],
      "name": "uploadFile",
      "outputs": [],
      "stateMutability": "nonpayable",
      "type": "function"
    },
    {
      "inputs": [
        {
          "internalType": "string",
          "name": "_fileHash",
          "type": "string"
        },
        {
          "internalType": "uint256",
          "name": "_fileSize",
          "type": "uint256"
        },
        {
          "internalType": "string",
          "name": "_fileType",
          "type": "string"
        },
        {
          "internalType": "uint256",
          "name": "_fileID",
          "type": "uint256"
        },
        {
          "internalType": "uint256",
          "name": "_changeValue",
          "type": "uint256"
        }
      ],
      "name": "updateFile",
      "outputs": [],
      "stateMutability": "nonpayable",
      "type": "function"
    },
    {
      "inputs": [
        {
          "internalType": "uint256",
          "name": "_fileID",
          "type": "uint256"
        }
      ],
      "name": "getFile",
      "outputs": [
        {
          "components": [
            {
              "internalType": "uint256",
              "name": "fileId",
              "type": "uint256"
            },
            {
              "internalType": "string",
              "name": "fileHash",
              "type": "string"
            },
            {
              "internalType": "uint256",
              "name": "fileSize",
              "type": "uint256"
            },
            {
              "internalType": "string",
              "name": "fileType",
              "type": "string"
            },
            {
              "internalType": "string",
              "name": "fileName",
              "type": "string"
            },
            {
              "internalType": "string",
              "name": "fileDescription",
              "type": "string"
            },
            {
              "internalType": "uint256",
              "name": "uploadTime",
              "type": "uint256"
            },
            {
              "internalType": "address",
              "name": "uploader",
              "type": "address"
            }
          ],
          "internalType": "struct SimpleStorage.File",
          "name": "",
          "type": "tuple"
        }
      ],
      "stateMutability": "view",
      "type": "function"
    },
    {
      "inputs": [
        {
          "internalType": "address",
          "name": "_address",
          "type": "address"
        },
        {
          "internalType": "string",
          "name": "_name",
          "type": "string"
        },
        {
          "internalType": "string",
          "name": "_password",
          "type": "string"
        }
      ],
      "name": "register",
      "outputs": [
        {
          "internalType": "bool",
          "name": "",
          "type": "bool"
        }
      ],
      "stateMutability": "nonpayable",
      "type": "function"
    },
    {
      "inputs": [
        {
          "internalType": "address",
          "name": "_address",
          "type": "address"
        },
        {
          "internalType": "string",
          "name": "_password",
          "type": "string"
        }
      ],
      "name": "login",
      "outputs": [
        {
          "internalType": "bool",
          "name": "",
          "type": "bool"
        }
      ],
      "stateMutability": "nonpayable",
      "type": "function"
    },
    {
      "inputs": [
        {
          "internalType": "address",
          "name": "_address",
          "type": "address"
        }
      ],
      "name": "checkIsUserLogged",
      "outputs": [
        {
          "internalType": "bool",
          "name": "",
          "type": "bool"
        }
      ],
      "stateMutability": "view",
      "type": "function"
    },
    {
      "inputs": [
        {
          "internalType": "address",
          "name": "_address",
          "type": "address"
        }
      ],
      "name": "checkUserName",
      "outputs": [
        {
          "internalType": "string",
          "name": "",
          "type": "string"
        }
      ],
      "stateMutability": "view",
      "type": "function"
    },
    {
      "inputs": [
        {
          "internalType": "address",
          "name": "_address",
          "type": "address"
        }
      ],
      "name": "logout",
      "outputs": [],
      "stateMutability": "nonpayable",
      "type": "function"
    },
    {
      "inputs": [],
      "name": "getAllTransactions",
      "outputs": [
        {
          "components": [
            {
              "internalType": "address",
              "name": "userAddress",
              "type": "address"
            },
            {
              "internalType": "string",
              "name": "userName",
              "type": "string"
            },
            {
              "internalType": "string",
              "name": "fileName",
              "type": "string"
            },
            {
              "internalType": "string",
              "name": "fileHash",
              "type": "string"
            },
            {
              "internalType": "uint256",
              "name": "fileSize",
              "type": "uint256"
            },
            {
              "internalType": "string",
              "name": "transactionType",
              "type": "string"
            },
            {
              "internalType": "uint256",
              "name": "changeLevel",
              "type": "uint256"
            },
            {
              "internalType": "uint256",
              "name": "uploadTime",
              "type": "uint256"
            }
          ],
          "internalType": "struct SimpleStorage.Transaction[]",
          "name": "",
          "type": "tuple[]"
        }
      ],
      "stateMutability": "view",
      "type": "function"
    },
    {
      "inputs": [
        {
          "internalType": "uint256",
          "name": "x",
          "type": "uint256"
        }
      ],
      "name": "set",
      "outputs": [],
      "stateMutability": "nonpayable",
      "type": "function"
    },
    {
      "inputs": [],
      "name": "get",
      "outputs": [
        {
          "internalType": "uint256",
          "name": "",
          "type": "uint256"
        }
      ],
      "stateMutability": "view",
      "type": "function"
    }
  ],
  "bytecode": "0x60806040526040518060400160405280600b81526020017f4172636853746f72616765000000000000000000000000000000000000000000815250600090805190602001906200005192919062000070565b50600060025560006003553480156200006957600080fd5b5062000185565b8280546200007e906200014f565b90600052602060002090601f016020900481019282620000a25760008555620000ee565b82601f10620000bd57805160ff1916838001178555620000ee565b82800160010185558215620000ee579182015b82811115620000ed578251825591602001919060010190620000d0565b5b509050620000fd919062000101565b5090565b5b808211156200011c57600081600090555060010162000102565b5090565b7f4e487b7100000000000000000000000000000000000000000000000000000000600052602260045260246000fd5b600060028204905060018216806200016857607f821691505b602082108114156200017f576200017e62000120565b5b50919050565b61286f80620001956000396000f3fe608060405234801561001057600080fd5b50600436106100f55760003560e01c806360fe47b111610097578063b77bf60011610066578063b77bf6001461029a578063cc51f9b9146102b8578063e82d9d33146102d4578063f4c714b4146102f0576100f5565b806360fe47b11461020057806361ea23881461021c5780636d4ce63c1461024c5780638d59cc021461026a576100f5565b8063297f7b39116100d3578063297f7b39146101525780632bfda313146101825780632f19d50b146101b257806343953519146101e2576100f5565b806306fdde03146100fa57806320fd785e1461011857806327506f5314610134575b600080fd5b610102610327565b60405161010f9190611d22565b60405180910390f35b610132600480360381019061012d9190611ec3565b6103b5565b005b61013c6108a7565b6040516101499190612197565b60405180910390f35b61016c600480360381019061016791906121e5565b610bc3565b604051610179919061222d565b60405180910390f35b61019c60048036038101906101979190612248565b610c1c565b6040516101a9919061233a565b60405180910390f35b6101cc60048036038101906101c7919061235c565b610f06565b6040516101d9919061222d565b60405180910390f35b6101ea61105a565b6040516101f791906123c7565b60405180910390f35b61021a60048036038101906102159190612248565b611060565b005b610236600480360381019061023191906121e5565b61106a565b6040516102439190611d22565b60405180910390f35b61025461113e565b60405161026191906123c7565b60405180910390f35b610284600480360381019061027f91906123e2565b611148565b604051610291919061222d565b60405180910390f35b6102a261137a565b6040516102af91906123c7565b60405180910390f35b6102d260048036038101906102cd91906121e5565b611380565b005b6102ee60048036038101906102e9919061246d565b6113de565b005b61030a60048036038101906103059190612248565b6118a8565b60405161031e989796959493929190612567565b60405180910390f35b6000805461033490612630565b80601f016020809104026020016040519081016040528092919081815260200182805461036090612630565b80156103ad5780601f10610382576101008083540402835291602001916103ad565b820191906000526020600020905b81548152906001019060200180831161039057829003601f168201915b505050505081565b60008551116103c357600080fd5b60008351116103d157600080fd5b600073ffffffffffffffffffffffffffffffffffffffff163373ffffffffffffffffffffffffffffffffffffffff16141561040b57600080fd5b6000841161041857600080fd5b60008211801561042a57506002548211155b61043357600080fd5b600081101561044157600080fd5b8460046000848152602001908152602001600020600101908051906020019061046b929190611b30565b50836004600084815260200190815260200160002060020181905550826004600084815260200190815260200160002060030190805190602001906104b1929190611b30565b50426004600084815260200190815260200160002060060181905550336004600084815260200190815260200160002060070160006101000a81548173ffffffffffffffffffffffffffffffffffffffff021916908373ffffffffffffffffffffffffffffffffffffffff16021790555061052a611bb6565b33816000019073ffffffffffffffffffffffffffffffffffffffff16908173ffffffffffffffffffffffffffffffffffffffff1681525050600560003373ffffffffffffffffffffffffffffffffffffffff1673ffffffffffffffffffffffffffffffffffffffff16815260200190815260200160002060010180546105af90612630565b80601f01602080910402602001604051908101604052809291908181526020018280546105db90612630565b80156106285780601f106105fd57610100808354040283529160200191610628565b820191906000526020600020905b81548152906001019060200180831161060b57829003601f168201915b5050505050816020018190525060046000848152602001908152602001600020600401805461065690612630565b80601f016020809104026020016040519081016040528092919081815260200182805461068290612630565b80156106cf5780601f106106a4576101008083540402835291602001916106cf565b820191906000526020600020905b8154815290600101906020018083116106b257829003601f168201915b50505050508160400181905250858160600181905250848160800181815250506040518060400160405280600681526020017f55504441544500000000000000000000000000000000000000000000000000008152508160a00181905250818160c0018181525050428160e0018181525050600681908060018154018082558091505060019003906000526020600020906008020160009091909190915060008201518160000160006101000a81548173ffffffffffffffffffffffffffffffffffffffff021916908373ffffffffffffffffffffffffffffffffffffffff16021790555060208201518160010190805190602001906107d0929190611b30565b5060408201518160020190805190602001906107ed929190611b30565b50606082015181600301908051906020019061080a929190611b30565b506080820151816004015560a0820151816005019080519060200190610831929190611b30565b5060c0820151816006015560e0820151816007015550506003600081548092919061085b90612691565b91905055507f4557103770da0003950f4378b8b39420ebc7349f7d2c9e3a48e006b5f7f49f6286868642336040516108979594939291906126da565b60405180910390a1505050505050565b60606006805480602002602001604051908101604052809291908181526020016000905b82821015610bba5783829060005260206000209060080201604051806101000160405290816000820160009054906101000a900473ffffffffffffffffffffffffffffffffffffffff1673ffffffffffffffffffffffffffffffffffffffff1673ffffffffffffffffffffffffffffffffffffffff16815260200160018201805461095590612630565b80601f016020809104026020016040519081016040528092919081815260200182805461098190612630565b80156109ce5780601f106109a3576101008083540402835291602001916109ce565b820191906000526020600020905b8154815290600101906020018083116109b157829003601f168201915b505050505081526020016002820180546109e790612630565b80601f0160208091040260200160405190810160405280929190818152602001828054610a1390612630565b8015610a605780601f10610a3557610100808354040283529160200191610a60565b820191906000526020600020905b815481529060010190602001808311610a4357829003601f168201915b50505050508152602001600382018054610a7990612630565b80601f0160208091040260200160405190810160405280929190818152602001828054610aa590612630565b8015610af25780601f10610ac757610100808354040283529160200191610af2565b820191906000526020600020905b815481529060010190602001808311610ad557829003601f168201915b5050505050815260200160048201548152602001600582018054610b1590612630565b80601f0160208091040260200160405190810160405280929190818152602001828054610b4190612630565b8015610b8e5780601f10610b6357610100808354040283529160200191610b8e565b820191906000526020600020905b815481529060010190602001808311610b7157829003601f168201915b5050505050815260200160068201548152602001600782015481525050815260200190600101906108cb565b50505050905090565b6000600560008373ffffffffffffffffffffffffffffffffffffffff1673ffffffffffffffffffffffffffffffffffffffff16815260200190815260200160002060030160009054906101000a900460ff169050919050565b610c24611c11565b600460008381526020019081526020016000206040518061010001604052908160008201548152602001600182018054610c5d90612630565b80601f0160208091040260200160405190810160405280929190818152602001828054610c8990612630565b8015610cd65780601f10610cab57610100808354040283529160200191610cd6565b820191906000526020600020905b815481529060010190602001808311610cb957829003601f168201915b5050505050815260200160028201548152602001600382018054610cf990612630565b80601f0160208091040260200160405190810160405280929190818152602001828054610d2590612630565b8015610d725780601f10610d4757610100808354040283529160200191610d72565b820191906000526020600020905b815481529060010190602001808311610d5557829003601f168201915b50505050508152602001600482018054610d8b90612630565b80601f0160208091040260200160405190810160405280929190818152602001828054610db790612630565b8015610e045780601f10610dd957610100808354040283529160200191610e04565b820191906000526020600020905b815481529060010190602001808311610de757829003601f168201915b50505050508152602001600582018054610e1d90612630565b80601f0160208091040260200160405190810160405280929190818152602001828054610e4990612630565b8015610e965780601f10610e6b57610100808354040283529160200191610e96565b820191906000526020600020905b815481529060010190602001808311610e7957829003601f168201915b50505050508152602001600682015481526020016007820160009054906101000a900473ffffffffffffffffffffffffffffffffffffffff1673ffffffffffffffffffffffffffffffffffffffff1673ffffffffffffffffffffffffffffffffffffffff16815250509050919050565b600081604051602001610f199190612777565b60405160208183030381529060405280519060200120600560008573ffffffffffffffffffffffffffffffffffffffff1673ffffffffffffffffffffffffffffffffffffffff168152602001908152602001600020600201604051602001610f819190612822565b60405160208183030381529060405280519060200120141561104f576001600560008573ffffffffffffffffffffffffffffffffffffffff1673ffffffffffffffffffffffffffffffffffffffff16815260200190815260200160002060030160006101000a81548160ff021916908315150217905550600560008473ffffffffffffffffffffffffffffffffffffffff1673ffffffffffffffffffffffffffffffffffffffff16815260200190815260200160002060030160009054906101000a900460ff169050611054565b600090505b92915050565b60025481565b8060018190555050565b6060600560008373ffffffffffffffffffffffffffffffffffffffff1673ffffffffffffffffffffffffffffffffffffffff16815260200190815260200160002060010180546110b990612630565b80601f01602080910402602001604051908101604052809291908181526020018280546110e590612630565b80156111325780601f1061110757610100808354040283529160200191611132565b820191906000526020600020905b81548152906001019060200180831161111557829003601f168201915b50505050509050919050565b6000600154905090565b60003373ffffffffffffffffffffffffffffffffffffffff16600560008673ffffffffffffffffffffffffffffffffffffffff1673ffffffffffffffffffffffffffffffffffffffff16815260200190815260200160002060000160009054906101000a900473ffffffffffffffffffffffffffffffffffffffff1673ffffffffffffffffffffffffffffffffffffffff1614156111e557600080fd5b83600560008673ffffffffffffffffffffffffffffffffffffffff1673ffffffffffffffffffffffffffffffffffffffff16815260200190815260200160002060000160006101000a81548173ffffffffffffffffffffffffffffffffffffffff021916908373ffffffffffffffffffffffffffffffffffffffff16021790555082600560008673ffffffffffffffffffffffffffffffffffffffff1673ffffffffffffffffffffffffffffffffffffffff16815260200190815260200160002060010190805190602001906112bc929190611b30565b5081600560008673ffffffffffffffffffffffffffffffffffffffff1673ffffffffffffffffffffffffffffffffffffffff1681526020019081526020016000206002019080519060200190611313929190611b30565b506000600560008673ffffffffffffffffffffffffffffffffffffffff1673ffffffffffffffffffffffffffffffffffffffff16815260200190815260200160002060030160006101000a81548160ff021916908315150217905550600190509392505050565b60035481565b6000600560008373ffffffffffffffffffffffffffffffffffffffff1673ffffffffffffffffffffffffffffffffffffffff16815260200190815260200160002060030160006101000a81548160ff02191690831515021790555050565b60008551116113ec57600080fd5b60008351116113fa57600080fd5b600081511161140857600080fd5b600082511161141657600080fd5b600073ffffffffffffffffffffffffffffffffffffffff163373ffffffffffffffffffffffffffffffffffffffff16141561145057600080fd5b6000841161145d57600080fd5b6002600081548092919061147090612691565b919050555060405180610100016040528060025481526020018681526020018581526020018481526020018381526020018281526020014281526020013373ffffffffffffffffffffffffffffffffffffffff16815250600460006002548152602001908152602001600020600082015181600001556020820151816001019080519060200190611502929190611b30565b50604082015181600201556060820151816003019080519060200190611529929190611b30565b506080820151816004019080519060200190611546929190611b30565b5060a0820151816005019080519060200190611563929190611b30565b5060c0820151816006015560e08201518160070160006101000a81548173ffffffffffffffffffffffffffffffffffffffff021916908373ffffffffffffffffffffffffffffffffffffffff1602179055509050506115c0611bb6565b33816000019073ffffffffffffffffffffffffffffffffffffffff16908173ffffffffffffffffffffffffffffffffffffffff1681525050600560003373ffffffffffffffffffffffffffffffffffffffff1673ffffffffffffffffffffffffffffffffffffffff168152602001908152602001600020600101805461164590612630565b80601f016020809104026020016040519081016040528092919081815260200182805461167190612630565b80156116be5780601f10611693576101008083540402835291602001916116be565b820191906000526020600020905b8154815290600101906020018083116116a157829003601f168201915b50505050508160200181905250828160400181905250858160600181905250848160800181815250506040518060400160405280600381526020017f41444400000000000000000000000000000000000000000000000000000000008152508160a0018190525060008160c0018181525050428160e0018181525050600681908060018154018082558091505060019003906000526020600020906008020160009091909190915060008201518160000160006101000a81548173ffffffffffffffffffffffffffffffffffffffff021916908373ffffffffffffffffffffffffffffffffffffffff16021790555060208201518160010190805190602001906117c9929190611b30565b5060408201518160020190805190602001906117e6929190611b30565b506060820151816003019080519060200190611803929190611b30565b506080820151816004015560a082015181600501908051906020019061182a929190611b30565b5060c0820151816006015560e0820151816007015550506003600081548092919061185490612691565b91905055507f6e95bbaa37a5fdec42a312e049dea2fe6160ebe659214d3409b4f91f164c2f5260025487878787874233604051611898989796959493929190612567565b60405180910390a1505050505050565b60046020528060005260406000206000915090508060000154908060010180546118d190612630565b80601f01602080910402602001604051908101604052809291908181526020018280546118fd90612630565b801561194a5780601f1061191f5761010080835404028352916020019161194a565b820191906000526020600020905b81548152906001019060200180831161192d57829003601f168201915b50505050509080600201549080600301805461196590612630565b80601f016020809104026020016040519081016040528092919081815260200182805461199190612630565b80156119de5780601f106119b3576101008083540402835291602001916119de565b820191906000526020600020905b8154815290600101906020018083116119c157829003601f168201915b5050505050908060040180546119f390612630565b80601f0160208091040260200160405190810160405280929190818152602001828054611a1f90612630565b8015611a6c5780601f10611a4157610100808354040283529160200191611a6c565b820191906000526020600020905b815481529060010190602001808311611a4f57829003601f168201915b505050505090806005018054611a8190612630565b80601f0160208091040260200160405190810160405280929190818152602001828054611aad90612630565b8015611afa5780601f10611acf57610100808354040283529160200191611afa565b820191906000526020600020905b815481529060010190602001808311611add57829003601f168201915b5050505050908060060154908060070160009054906101000a900473ffffffffffffffffffffffffffffffffffffffff16905088565b828054611b3c90612630565b90600052602060002090601f016020900481019282611b5e5760008555611ba5565b82601f10611b7757805160ff1916838001178555611ba5565b82800160010185558215611ba5579182015b82811115611ba4578251825591602001919060010190611b89565b5b509050611bb29190611c6c565b5090565b604051806101000160405280600073ffffffffffffffffffffffffffffffffffffffff168152602001606081526020016060815260200160608152602001600081526020016060815260200160008152602001600081525090565b60405180610100016040528060008152602001606081526020016000815260200160608152602001606081526020016060815260200160008152602001600073ffffffffffffffffffffffffffffffffffffffff1681525090565b5b80821115611c85576000816000905550600101611c6d565b5090565b600081519050919050565b600082825260208201905092915050565b60005b83811015611cc3578082015181840152602081019050611ca8565b83811115611cd2576000848401525b50505050565b6000601f19601f8301169050919050565b6000611cf482611c89565b611cfe8185611c94565b9350611d0e818560208601611ca5565b611d1781611cd8565b840191505092915050565b60006020820190508181036000830152611d3c8184611ce9565b905092915050565b6000604051905090565b600080fd5b600080fd5b600080fd5b600080fd5b7f4e487b7100000000000000000000000000000000000000000000000000000000600052604160045260246000fd5b611d9a82611cd8565b810181811067ffffffffffffffff82111715611db957611db8611d62565b5b80604052505050565b6000611dcc611d44565b9050611dd88282611d91565b919050565b600067ffffffffffffffff821115611df857611df7611d62565b5b611e0182611cd8565b9050602081019050919050565b82818337600083830152505050565b6000611e30611e2b84611ddd565b611dc2565b905082815260208101848484011115611e4c57611e4b611d5d565b5b611e57848285611e0e565b509392505050565b600082601f830112611e7457611e73611d58565b5b8135611e84848260208601611e1d565b91505092915050565b6000819050919050565b611ea081611e8d565b8114611eab57600080fd5b50565b600081359050611ebd81611e97565b92915050565b600080600080600060a08688031215611edf57611ede611d4e565b5b600086013567ffffffffffffffff811115611efd57611efc611d53565b5b611f0988828901611e5f565b9550506020611f1a88828901611eae565b945050604086013567ffffffffffffffff811115611f3b57611f3a611d53565b5b611f4788828901611e5f565b9350506060611f5888828901611eae565b9250506080611f6988828901611eae565b9150509295509295909350565b600081519050919050565b600082825260208201905092915050565b6000819050602082019050919050565b600073ffffffffffffffffffffffffffffffffffffffff82169050919050565b6000611fcd82611fa2565b9050919050565b611fdd81611fc2565b82525050565b600082825260208201905092915050565b6000611fff82611c89565b6120098185611fe3565b9350612019818560208601611ca5565b61202281611cd8565b840191505092915050565b61203681611e8d565b82525050565b6000610100830160008301516120556000860182611fd4565b506020830151848203602086015261206d8282611ff4565b915050604083015184820360408601526120878282611ff4565b915050606083015184820360608601526120a18282611ff4565b91505060808301516120b6608086018261202d565b5060a083015184820360a08601526120ce8282611ff4565b91505060c08301516120e360c086018261202d565b5060e08301516120f660e086018261202d565b508091505092915050565b600061210d838361203c565b905092915050565b6000602082019050919050565b600061212d82611f76565b6121378185611f81565b93508360208202850161214985611f92565b8060005b8581101561218557848403895281516121668582612101565b945061217183612115565b925060208a0199505060018101905061214d565b50829750879550505050505092915050565b600060208201905081810360008301526121b18184612122565b905092915050565b6121c281611fc2565b81146121cd57600080fd5b50565b6000813590506121df816121b9565b92915050565b6000602082840312156121fb576121fa611d4e565b5b6000612209848285016121d0565b91505092915050565b60008115159050919050565b61222781612212565b82525050565b6000602082019050612242600083018461221e565b92915050565b60006020828403121561225e5761225d611d4e565b5b600061226c84828501611eae565b91505092915050565b60006101008301600083015161228e600086018261202d565b50602083015184820360208601526122a68282611ff4565b91505060408301516122bb604086018261202d565b50606083015184820360608601526122d38282611ff4565b915050608083015184820360808601526122ed8282611ff4565b91505060a083015184820360a08601526123078282611ff4565b91505060c083015161231c60c086018261202d565b5060e083015161232f60e0860182611fd4565b508091505092915050565b600060208201905081810360008301526123548184612275565b905092915050565b6000806040838503121561237357612372611d4e565b5b6000612381858286016121d0565b925050602083013567ffffffffffffffff8111156123a2576123a1611d53565b5b6123ae85828601611e5f565b9150509250929050565b6123c181611e8d565b82525050565b60006020820190506123dc60008301846123b8565b92915050565b6000806000606084860312156123fb576123fa611d4e565b5b6000612409868287016121d0565b935050602084013567ffffffffffffffff81111561242a57612429611d53565b5b61243686828701611e5f565b925050604084013567ffffffffffffffff81111561245757612456611d53565b5b61246386828701611e5f565b9150509250925092565b600080600080600060a0868803121561248957612488611d4e565b5b600086013567ffffffffffffffff8111156124a7576124a6611d53565b5b6124b388828901611e5f565b95505060206124c488828901611eae565b945050604086013567ffffffffffffffff8111156124e5576124e4611d53565b5b6124f188828901611e5f565b935050606086013567ffffffffffffffff81111561251257612511611d53565b5b61251e88828901611e5f565b925050608086013567ffffffffffffffff81111561253f5761253e611d53565b5b61254b88828901611e5f565b9150509295509295909350565b61256181611fc2565b82525050565b60006101008201905061257d600083018b6123b8565b818103602083015261258f818a611ce9565b905061259e60408301896123b8565b81810360608301526125b08188611ce9565b905081810360808301526125c48187611ce9565b905081810360a08301526125d88186611ce9565b90506125e760c08301856123b8565b6125f460e0830184612558565b9998505050505050505050565b7f4e487b7100000000000000000000000000000000000000000000000000000000600052602260045260246000fd5b6000600282049050600182168061264857607f821691505b6020821081141561265c5761265b612601565b5b50919050565b7f4e487b7100000000000000000000000000000000000000000000000000000000600052601160045260246000fd5b600061269c82611e8d565b91507fffffffffffffffffffffffffffffffffffffffffffffffffffffffffffffffff8214156126cf576126ce612662565b5b600182019050919050565b600060a08201905081810360008301526126f48188611ce9565b905061270360208301876123b8565b81810360408301526127158186611ce9565b905061272460608301856123b8565b6127316080830184612558565b9695505050505050565b600081905092915050565b600061275182611c89565b61275b818561273b565b935061276b818560208601611ca5565b80840191505092915050565b60006127838284612746565b915081905092915050565b60008190508160005260206000209050919050565b600081546127b081612630565b6127ba818661273b565b945060018216600081146127d557600181146127e657612819565b60ff19831686528186019350612819565b6127ef8561278e565b60005b83811015612811578154818901526001820191506020810190506127f2565b838801955050505b50505092915050565b600061282e82846127a3565b91508190509291505056fea264697066735822122020cb361707cd412720dd2358da152611395fc1c612807b6f877eba79dc62319164736f6c634300080b0033",
  "immutableReferences": {},
  "source": "// SPDX-License-Identifier: MIT\npragma solidity ^0.8.0;\n\ncontract SimpleStorage {\n    // data\n    string public name = \"ArchStorage\";\n    uint256 storedData;\n\n    uint256 public fileCount = 0;\n    uint256 public transactionCount = 0;\n    mapping(uint256 => File) public files;\n    mapping(address => UserDetail) user;\n\n    struct File {\n        uint256 fileId;\n        string fileHash;\n        uint256 fileSize;\n        string fileType;\n        string fileName;\n        string fileDescription;\n        uint256 uploadTime;\n        address uploader;\n    }\n\n    struct UserDetail {\n        address addr;\n        string name;\n        string password;\n        bool isUserLoggedIn;\n    }\n\n    struct Transaction {\n        address userAddress;\n        string userName;\n        string fileName;\n        string fileHash;\n        uint256 fileSize;\n        string transactionType;\n        uint256 changeLevel;\n        uint256 uploadTime;\n    }\n    Transaction[] transactions;\n\n    //events\n\n    // event transactionAdded(Transaction temp);\n\n    event FileUploaded(\n        uint256 fileId,\n        string fileHash,\n        uint256 fileSize,\n        string fileType,\n        string fileName,\n        string fileDescription,\n        uint256 uploadTime,\n        address uploader\n    );\n\n    event FileUpdated(\n        string fileHash,\n        uint256 fileSize,\n        string fileType,\n        uint256 uploadTime,\n        address uploader\n    );\n\n    constructor() public {}\n\n    function uploadFile(\n        string memory _fileHash,\n        uint256 _fileSize,\n        string memory _fileType,\n        string memory _fileName,\n        string memory _fileDescription\n    ) public {\n        // Make sure the file hash exists\n        require(bytes(_fileHash).length > 0);\n        // Make sure file type exists\n        require(bytes(_fileType).length > 0);\n        // Make sure file description exists\n        require(bytes(_fileDescription).length > 0);\n        // Make sure file fileName exists\n        require(bytes(_fileName).length > 0);\n        // Make sure uploader address exists\n        require(msg.sender != address(0));\n        // Make sure file size is more than 0\n        require(_fileSize > 0);\n\n        // Increment file id\n        fileCount++;\n\n        // Add File to the contract\n        files[fileCount] = File(\n            fileCount,\n            _fileHash,\n            _fileSize,\n            _fileType,\n            _fileName,\n            _fileDescription,\n            block.timestamp,\n            msg.sender\n        );\n\n        Transaction memory temp;\n        temp.userAddress = msg.sender;\n        temp.userName = user[msg.sender].name;\n        temp.fileName = _fileName;\n        temp.fileHash = _fileHash;\n        temp.fileSize = _fileSize;\n        temp.transactionType = \"ADD\";\n        temp.changeLevel = 0;\n        temp.uploadTime = block.timestamp;\n        transactions.push(temp);\n\n        transactionCount++;\n        // Trigger an event\n        emit FileUploaded(\n            fileCount,\n            _fileHash,\n            _fileSize,\n            _fileType,\n            _fileName,\n            _fileDescription,\n            block.timestamp,\n            msg.sender\n        );\n    }\n\n    function updateFile(\n        string memory _fileHash,\n        uint256 _fileSize,\n        string memory _fileType,\n        uint256 _fileID,\n        uint256 _changeValue\n    ) public {\n        // Make sure the file hash exists\n        require(bytes(_fileHash).length > 0);\n        // Make sure file type exists\n        require(bytes(_fileType).length > 0);\n        // Make sure uploader address exists\n        require(msg.sender != address(0));\n        // Make sure file size is more than 0\n        require(_fileSize > 0);\n        require(_fileID > 0 && _fileID <= fileCount);\n        require(_changeValue >= 0);\n\n        // update current file\n        files[_fileID].fileHash = _fileHash;\n        files[_fileID].fileSize = _fileSize;\n        files[_fileID].fileType = _fileType;\n        files[_fileID].uploadTime = block.timestamp;\n        files[_fileID].uploader = msg.sender;\n\n        Transaction memory temp;\n        temp.userAddress = msg.sender;\n        temp.userName = user[msg.sender].name;\n        temp.fileName = files[_fileID].fileName;\n        temp.fileHash = _fileHash;\n        temp.fileSize = _fileSize;\n        temp.transactionType = \"UPDATE\";\n        temp.changeLevel = _changeValue;\n        temp.uploadTime = block.timestamp;\n        transactions.push(temp);\n\n        transactionCount++;\n        // Trigger an event\n        emit FileUpdated(\n            _fileHash,\n            _fileSize,\n            _fileType,\n            block.timestamp,\n            msg.sender\n        );\n    }\n\n    function getFile(uint256 _fileID) public view returns (File memory) {\n        return files[_fileID];\n    }\n\n    // user registration function\n    function register(\n        address _address,\n        string memory _name,\n        string memory _password\n    ) public returns (bool) {\n        require(user[_address].addr != msg.sender);\n        user[_address].addr = _address;\n        user[_address].name = _name;\n        user[_address].password = _password;\n        user[_address].isUserLoggedIn = false;\n        return true;\n    }\n\n    // user login function\n    function login(address _address, string memory _password)\n        public\n        returns (bool)\n    {\n        if (\n            keccak256(abi.encodePacked(user[_address].password)) ==\n            keccak256(abi.encodePacked(_password))\n        ) {\n            user[_address].isUserLoggedIn = true;\n            return user[_address].isUserLoggedIn;\n        } else {\n            return false;\n        }\n    }\n\n    // check the user logged In or not\n    function checkIsUserLogged(address _address) public view returns (bool) {\n        return (user[_address].isUserLoggedIn);\n    }\n\n    function checkUserName(address _address)\n        public\n        view\n        returns (string memory)\n    {\n        return (user[_address].name);\n    }\n\n    // logout the user\n    function logout(address _address) public {\n        user[_address].isUserLoggedIn = false;\n    }\n\n    // function addTransaction(\n    //     address _userAddress,\n    //     string memory _userName,\n    //     string memory _fileName,\n    //     string memory _fileHash,\n    //     string memory _transactionType,\n    //     uint256 _changeLevel\n    // ) public {\n    //     Transaction memory temp;\n    //     temp.userAddress = _userAddress;\n    //     temp.userName = _userName;\n    //     temp.fileName = _fileName;\n    //     temp.fileHash = _fileHash;\n    //     temp.transactionType = _transactionType;\n    //     temp.changeLevel = _changeLevel;\n    //     transactions.push(temp);\n\n    //     transactionCount++;\n    //     emit transactionAdded(temp);\n\n    // }\n\n    function getAllTransactions() public view returns (Transaction[] memory) {\n        return transactions;\n    }\n\n    function set(uint256 x) public {\n        storedData = x;\n    }\n\n    function get() public view returns (uint256) {\n        return storedData;\n    }\n}\n",
  "sourcePath": "C:\\Users\\Shaun\\Desktop\\THESIS\\eth-archive-test\\contracts\\SimpleStorage.sol",
  "compiler": {
    "name": "solc",
    "version": "0.8.11+commit.d7f03943.Emscripten.clang"
  },
  "schemaVersion": "3.4.3",
  "updatedAt": "2022-01-04T17:21:06.301Z",
  "devdoc": {
    "kind": "dev",
    "methods": {},
    "version": 1
  },
  "userdoc": {
    "kind": "user",
    "methods": {},
    "version": 1
  }
}