{
  "contractName": "SimpleStorage",
  "abi": [
    {
      "inputs": [],
      "stateMutability": "nonpayable",
      "type": "constructor"
    },
    {
      "anonymous": false,
      "inputs": [
        {
          "indexed": false,
          "internalType": "string",
          "name": "fileHash",
          "type": "string"
        },
        {
          "indexed": false,
          "internalType": "uint256",
          "name": "fileSize",
          "type": "uint256"
        },
        {
          "indexed": false,
          "internalType": "string",
          "name": "fileType",
          "type": "string"
        },
        {
          "indexed": false,
          "internalType": "string",
          "name": "fileName",
          "type": "string"
        },
        {
          "indexed": false,
          "internalType": "uint256",
          "name": "uploadTime",
          "type": "uint256"
        },
        {
          "indexed": false,
          "internalType": "address",
          "name": "uploader",
          "type": "address"
        },
        {
          "indexed": false,
          "internalType": "uint256",
          "name": "lastChange",
          "type": "uint256"
        },
        {
          "indexed": false,
          "internalType": "uint256",
          "name": "lastSize",
          "type": "uint256"
        }
      ],
      "name": "FileUpdated",
      "type": "event"
    },
    {
      "anonymous": false,
      "inputs": [
        {
          "indexed": false,
          "internalType": "uint256",
          "name": "fileId",
          "type": "uint256"
        },
        {
          "indexed": false,
          "internalType": "string",
          "name": "fileHash",
          "type": "string"
        },
        {
          "indexed": false,
          "internalType": "uint256",
          "name": "fileSize",
          "type": "uint256"
        },
        {
          "indexed": false,
          "internalType": "string",
          "name": "fileType",
          "type": "string"
        },
        {
          "indexed": false,
          "internalType": "string",
          "name": "fileName",
          "type": "string"
        },
        {
          "indexed": false,
          "internalType": "string",
          "name": "fileDescription",
          "type": "string"
        },
        {
          "indexed": false,
          "internalType": "uint256",
          "name": "uploadTime",
          "type": "uint256"
        },
        {
          "indexed": false,
          "internalType": "address",
          "name": "uploader",
          "type": "address"
        },
        {
          "indexed": false,
          "internalType": "uint256",
          "name": "lastChange",
          "type": "uint256"
        },
        {
          "indexed": false,
          "internalType": "uint256",
          "name": "lastSize",
          "type": "uint256"
        }
      ],
      "name": "FileUploaded",
      "type": "event"
    },
    {
      "inputs": [],
      "name": "fileIDs",
      "outputs": [
        {
          "internalType": "uint256",
          "name": "",
          "type": "uint256"
        }
      ],
      "stateMutability": "view",
      "type": "function",
      "constant": true
    },
    {
      "inputs": [],
      "name": "fileNum",
      "outputs": [
        {
          "internalType": "uint256",
          "name": "",
          "type": "uint256"
        }
      ],
      "stateMutability": "view",
      "type": "function",
      "constant": true
    },
    {
      "inputs": [
        {
          "internalType": "uint256",
          "name": "",
          "type": "uint256"
        }
      ],
      "name": "files",
      "outputs": [
        {
          "internalType": "uint256",
          "name": "fileId",
          "type": "uint256"
        },
        {
          "internalType": "string",
          "name": "fileHash",
          "type": "string"
        },
        {
          "internalType": "uint256",
          "name": "fileSize",
          "type": "uint256"
        },
        {
          "internalType": "string",
          "name": "fileType",
          "type": "string"
        },
        {
          "internalType": "string",
          "name": "fileName",
          "type": "string"
        },
        {
          "internalType": "string",
          "name": "fileDescription",
          "type": "string"
        },
        {
          "internalType": "uint256",
          "name": "uploadTime",
          "type": "uint256"
        },
        {
          "internalType": "address",
          "name": "uploader",
          "type": "address"
        },
        {
          "internalType": "uint256",
          "name": "lastChange",
          "type": "uint256"
        },
        {
          "internalType": "uint256",
          "name": "lastSize",
          "type": "uint256"
        }
      ],
      "stateMutability": "view",
      "type": "function",
      "constant": true
    },
    {
      "inputs": [],
      "name": "name",
      "outputs": [
        {
          "internalType": "string",
          "name": "",
          "type": "string"
        }
      ],
      "stateMutability": "view",
      "type": "function",
      "constant": true
    },
    {
      "inputs": [],
      "name": "transactionCount",
      "outputs": [
        {
          "internalType": "uint256",
          "name": "",
          "type": "uint256"
        }
      ],
      "stateMutability": "view",
      "type": "function",
      "constant": true
    },
    {
      "inputs": [
        {
          "internalType": "string",
          "name": "_fileHash",
          "type": "string"
        },
        {
          "internalType": "uint256",
          "name": "_fileSize",
          "type": "uint256"
        },
        {
          "internalType": "string",
          "name": "_fileType",
          "type": "string"
        },
        {
          "internalType": "string",
          "name": "_fileName",
          "type": "string"
        },
        {
          "internalType": "string",
          "name": "_fileDescription",
          "type": "string"
        }
      ],
      "name": "uploadFile",
      "outputs": [],
      "stateMutability": "nonpayable",
      "type": "function"
    },
    {
      "inputs": [
        {
          "internalType": "string",
          "name": "_fileHash",
          "type": "string"
        },
        {
          "internalType": "uint256",
          "name": "_fileSize",
          "type": "uint256"
        },
        {
          "internalType": "string",
          "name": "_fileType",
          "type": "string"
        },
        {
          "internalType": "string",
          "name": "_fileName",
          "type": "string"
        },
        {
          "internalType": "uint256",
          "name": "_fileID",
          "type": "uint256"
        },
        {
          "internalType": "uint256",
          "name": "_changeValue",
          "type": "uint256"
        },
        {
          "internalType": "uint256",
          "name": "_lastSize",
          "type": "uint256"
        }
      ],
      "name": "updateFile",
      "outputs": [],
      "stateMutability": "nonpayable",
      "type": "function"
    },
    {
      "inputs": [
        {
          "internalType": "uint256",
          "name": "_fileID",
          "type": "uint256"
        }
      ],
      "name": "getFile",
      "outputs": [
        {
          "components": [
            {
              "internalType": "uint256",
              "name": "fileId",
              "type": "uint256"
            },
            {
              "internalType": "string",
              "name": "fileHash",
              "type": "string"
            },
            {
              "internalType": "uint256",
              "name": "fileSize",
              "type": "uint256"
            },
            {
              "internalType": "string",
              "name": "fileType",
              "type": "string"
            },
            {
              "internalType": "string",
              "name": "fileName",
              "type": "string"
            },
            {
              "internalType": "string",
              "name": "fileDescription",
              "type": "string"
            },
            {
              "internalType": "uint256",
              "name": "uploadTime",
              "type": "uint256"
            },
            {
              "internalType": "address",
              "name": "uploader",
              "type": "address"
            },
            {
              "internalType": "uint256",
              "name": "lastChange",
              "type": "uint256"
            },
            {
              "internalType": "uint256",
              "name": "lastSize",
              "type": "uint256"
            }
          ],
          "internalType": "struct SimpleStorage.File",
          "name": "",
          "type": "tuple"
        }
      ],
      "stateMutability": "view",
      "type": "function",
      "constant": true
    },
    {
      "inputs": [
        {
          "internalType": "uint256[]",
          "name": "_fileID",
          "type": "uint256[]"
        }
      ],
      "name": "deleteFile",
      "outputs": [],
      "stateMutability": "nonpayable",
      "type": "function"
    },
    {
      "inputs": [
        {
          "internalType": "address",
          "name": "_address",
          "type": "address"
        },
        {
          "internalType": "string",
          "name": "_name",
          "type": "string"
        },
        {
          "internalType": "string",
          "name": "_password",
          "type": "string"
        }
      ],
      "name": "register",
      "outputs": [
        {
          "internalType": "bool",
          "name": "",
          "type": "bool"
        }
      ],
      "stateMutability": "nonpayable",
      "type": "function"
    },
    {
      "inputs": [
        {
          "internalType": "address",
          "name": "_address",
          "type": "address"
        },
        {
          "internalType": "string",
          "name": "_password",
          "type": "string"
        }
      ],
      "name": "login",
      "outputs": [
        {
          "internalType": "bool",
          "name": "",
          "type": "bool"
        }
      ],
      "stateMutability": "nonpayable",
      "type": "function"
    },
    {
      "inputs": [
        {
          "internalType": "address",
          "name": "_address",
          "type": "address"
        }
      ],
      "name": "checkIsUserLogged",
      "outputs": [
        {
          "internalType": "bool",
          "name": "",
          "type": "bool"
        }
      ],
      "stateMutability": "view",
      "type": "function",
      "constant": true
    },
    {
      "inputs": [
        {
          "internalType": "address",
          "name": "_address",
          "type": "address"
        }
      ],
      "name": "checkUserName",
      "outputs": [
        {
          "internalType": "string",
          "name": "",
          "type": "string"
        }
      ],
      "stateMutability": "view",
      "type": "function",
      "constant": true
    },
    {
      "inputs": [
        {
          "internalType": "address",
          "name": "_address",
          "type": "address"
        }
      ],
      "name": "logout",
      "outputs": [],
      "stateMutability": "nonpayable",
      "type": "function"
    },
    {
      "inputs": [],
      "name": "getAllTransactions",
      "outputs": [
        {
          "components": [
            {
              "internalType": "address",
              "name": "userAddress",
              "type": "address"
            },
            {
              "internalType": "string",
              "name": "userName",
              "type": "string"
            },
            {
              "internalType": "uint256",
              "name": "fileId",
              "type": "uint256"
            },
            {
              "internalType": "string",
              "name": "fileName",
              "type": "string"
            },
            {
              "internalType": "string",
              "name": "fileHash",
              "type": "string"
            },
            {
              "internalType": "uint256",
              "name": "fileSize",
              "type": "uint256"
            },
            {
              "internalType": "string",
              "name": "transactionType",
              "type": "string"
            },
            {
              "internalType": "uint256",
              "name": "changeLevel",
              "type": "uint256"
            },
            {
              "internalType": "uint256",
              "name": "uploadTime",
              "type": "uint256"
            },
            {
              "internalType": "uint256",
              "name": "lastSize",
              "type": "uint256"
            }
          ],
          "internalType": "struct SimpleStorage.Transaction[]",
          "name": "",
          "type": "tuple[]"
        }
      ],
      "stateMutability": "view",
      "type": "function",
      "constant": true
    }
  ],
  "bytecode": "0x60806040526040518060400160405280600b81526020017f4172636853746f72616765000000000000000000000000000000000000000000815250600090805190602001906200005192919062000075565b506000600155600060025560006003553480156200006e57600080fd5b506200018a565b828054620000839062000154565b90600052602060002090601f016020900481019282620000a75760008555620000f3565b82601f10620000c257805160ff1916838001178555620000f3565b82800160010185558215620000f3579182015b82811115620000f2578251825591602001919060010190620000d5565b5b50905062000102919062000106565b5090565b5b808211156200012157600081600090555060010162000107565b5090565b7f4e487b7100000000000000000000000000000000000000000000000000000000600052602260045260246000fd5b600060028204905060018216806200016d57607f821691505b6020821081141562000184576200018362000125565b5b50919050565b613650806200019a6000396000f3fe608060405234801561001057600080fd5b50600436106100f55760003560e01c806361ea238811610097578063b77bf60011610066578063b77bf6001461029a578063cc51f9b9146102b8578063e82d9d33146102d4578063f4c714b4146102f0576100f5565b806361ea23881461020057806370242ee4146102305780638d59cc021461024c5780639fb8070a1461027c576100f5565b8063297f7b39116100d3578063297f7b39146101545780632bfda313146101845780632f19d50b146101b4578063567b6c13146101e4576100f5565b806306fdde03146100fa57806325c2e12c1461011857806327506f5314610136575b600080fd5b610102610329565b60405161010f919061263c565b60405180910390f35b6101206103b7565b60405161012d9190612677565b60405180910390f35b61013e6103bd565b60405161014b91906128dd565b60405180910390f35b61016e6004803603810190610169919061293f565b6106ed565b60405161017b9190612987565b60405180910390f35b61019e600480360381019061019991906129ce565b610746565b6040516101ab9190612aea565b60405180910390f35b6101ce60048036038101906101c99190612c41565b610a44565b6040516101db9190612987565b60405180910390f35b6101fe60048036038101906101f99190612c9d565b610b98565b005b61021a6004803603810190610215919061293f565b61122b565b604051610227919061263c565b60405180910390f35b61024a60048036038101906102459190612e5b565b6112ff565b005b61026660048036038101906102619190612ea4565b611886565b6040516102739190612987565b60405180910390f35b610284611ab8565b6040516102919190612677565b60405180910390f35b6102a2611abe565b6040516102af9190612677565b60405180910390f35b6102d260048036038101906102cd919061293f565b611ac4565b005b6102ee60048036038101906102e99190612f2f565b611b22565b005b61030a600480360381019061030591906129ce565b61215a565b6040516103209a99989796959493929190613029565b60405180910390f35b6000805461033690613110565b80601f016020809104026020016040519081016040528092919081815260200182805461036290613110565b80156103af5780601f10610384576101008083540402835291602001916103af565b820191906000526020600020905b81548152906001019060200180831161039257829003601f168201915b505050505081565b60025481565b60606006805480602002602001604051908101604052809291908181526020016000905b828210156106e457838290600052602060002090600a0201604051806101400160405290816000820160009054906101000a900473ffffffffffffffffffffffffffffffffffffffff1673ffffffffffffffffffffffffffffffffffffffff1673ffffffffffffffffffffffffffffffffffffffff16815260200160018201805461046b90613110565b80601f016020809104026020016040519081016040528092919081815260200182805461049790613110565b80156104e45780601f106104b9576101008083540402835291602001916104e4565b820191906000526020600020905b8154815290600101906020018083116104c757829003601f168201915b505050505081526020016002820154815260200160038201805461050790613110565b80601f016020809104026020016040519081016040528092919081815260200182805461053390613110565b80156105805780601f1061055557610100808354040283529160200191610580565b820191906000526020600020905b81548152906001019060200180831161056357829003601f168201915b5050505050815260200160048201805461059990613110565b80601f01602080910402602001604051908101604052809291908181526020018280546105c590613110565b80156106125780601f106105e757610100808354040283529160200191610612565b820191906000526020600020905b8154815290600101906020018083116105f557829003601f168201915b505050505081526020016005820154815260200160068201805461063590613110565b80601f016020809104026020016040519081016040528092919081815260200182805461066190613110565b80156106ae5780601f10610683576101008083540402835291602001916106ae565b820191906000526020600020905b81548152906001019060200180831161069157829003601f168201915b505050505081526020016007820154815260200160088201548152602001600982015481525050815260200190600101906103e1565b50505050905090565b6000600560008373ffffffffffffffffffffffffffffffffffffffff1673ffffffffffffffffffffffffffffffffffffffff16815260200190815260200160002060030160009054906101000a900460ff169050919050565b61074e6123ee565b60046000838152602001908152602001600020604051806101400160405290816000820154815260200160018201805461078790613110565b80601f01602080910402602001604051908101604052809291908181526020018280546107b390613110565b80156108005780601f106107d557610100808354040283529160200191610800565b820191906000526020600020905b8154815290600101906020018083116107e357829003601f168201915b505050505081526020016002820154815260200160038201805461082390613110565b80601f016020809104026020016040519081016040528092919081815260200182805461084f90613110565b801561089c5780601f106108715761010080835404028352916020019161089c565b820191906000526020600020905b81548152906001019060200180831161087f57829003601f168201915b505050505081526020016004820180546108b590613110565b80601f01602080910402602001604051908101604052809291908181526020018280546108e190613110565b801561092e5780601f106109035761010080835404028352916020019161092e565b820191906000526020600020905b81548152906001019060200180831161091157829003601f168201915b5050505050815260200160058201805461094790613110565b80601f016020809104026020016040519081016040528092919081815260200182805461097390613110565b80156109c05780601f10610995576101008083540402835291602001916109c0565b820191906000526020600020905b8154815290600101906020018083116109a357829003601f168201915b50505050508152602001600682015481526020016007820160009054906101000a900473ffffffffffffffffffffffffffffffffffffffff1673ffffffffffffffffffffffffffffffffffffffff1673ffffffffffffffffffffffffffffffffffffffff168152602001600882015481526020016009820154815250509050919050565b600081604051602001610a57919061317e565b60405160208183030381529060405280519060200120600560008573ffffffffffffffffffffffffffffffffffffffff1673ffffffffffffffffffffffffffffffffffffffff168152602001908152602001600020600201604051602001610abf9190613229565b604051602081830303815290604052805190602001201415610b8d576001600560008573ffffffffffffffffffffffffffffffffffffffff1673ffffffffffffffffffffffffffffffffffffffff16815260200190815260200160002060030160006101000a81548160ff021916908315150217905550600560008473ffffffffffffffffffffffffffffffffffffffff1673ffffffffffffffffffffffffffffffffffffffff16815260200190815260200160002060030160009054906101000a900460ff169050610b92565b600090505b92915050565b6000875111610ba657600080fd5b6000855111610bb457600080fd5b604051602001610bc39061328c565b6040516020818303038152906040528051906020012085604051602001610bea919061317e565b604051602081830303815290604052805190602001201480610c555750604051602001610c1690613339565b6040516020818303038152906040528051906020012085604051602001610c3d919061317e565b60405160208183030381529060405280519060200120145b80610ca95750604051602001610c6a9061339a565b6040516020818303038152906040528051906020012085604051602001610c91919061317e565b60405160208183030381529060405280519060200120145b610cb257600080fd5b6000845111610cc057600080fd5b600073ffffffffffffffffffffffffffffffffffffffff163373ffffffffffffffffffffffffffffffffffffffff161415610cfa57600080fd5b60008611610d0757600080fd5b600083118015610d1957506001548311155b610d2257600080fd5b6000821015610d3057600080fd5b86600460008581526020019081526020016000206001019080519060200190610d5a929190612457565b5085600460008581526020019081526020016000206002018190555084600460008581526020019081526020016000206003019080519060200190610da0929190612457565b5083600460008581526020019081526020016000206004019080519060200190610dcb929190612457565b50426004600085815260200190815260200160002060060181905550336004600085815260200190815260200160002060070160006101000a81548173ffffffffffffffffffffffffffffffffffffffff021916908373ffffffffffffffffffffffffffffffffffffffff160217905550816004600085815260200190815260200160002060080181905550806004600085815260200190815260200160002060090181905550610e7a6124dd565b33816000019073ffffffffffffffffffffffffffffffffffffffff16908173ffffffffffffffffffffffffffffffffffffffff1681525050600560003373ffffffffffffffffffffffffffffffffffffffff1673ffffffffffffffffffffffffffffffffffffffff1681526020019081526020016000206001018054610eff90613110565b80601f0160208091040260200160405190810160405280929190818152602001828054610f2b90613110565b8015610f785780601f10610f4d57610100808354040283529160200191610f78565b820191906000526020600020905b815481529060010190602001808311610f5b57829003601f168201915b5050505050816020018190525083816040018181525050600460008581526020019081526020016000206004018054610fb090613110565b80601f0160208091040260200160405190810160405280929190818152602001828054610fdc90613110565b80156110295780601f10610ffe57610100808354040283529160200191611029565b820191906000526020600020905b81548152906001019060200180831161100c57829003601f168201915b50505050508160600181905250878160800181905250868160a00181815250506040518060400160405280600681526020017f55504441544500000000000000000000000000000000000000000000000000008152508160c00181905250828160e00181815250504281610100018181525050818161012001818152505060068190806001815401808255809150506001900390600052602060002090600a020160009091909190915060008201518160000160006101000a81548173ffffffffffffffffffffffffffffffffffffffff021916908373ffffffffffffffffffffffffffffffffffffffff1602179055506020820151816001019080519060200190611136929190612457565b5060408201518160020155606082015181600301908051906020019061115d929190612457565b50608082015181600401908051906020019061117a929190612457565b5060a0820151816005015560c08201518160060190805190602001906111a1929190612457565b5060e08201518160070155610100820151816008015561012082015181600901555050600360008154809291906111d7906133de565b91905055507f24ba57b53df673cdc28df08112002b7a30bbcd5d3da848543b98cf84174b75948888888842338989604051611219989796959493929190613427565b60405180910390a15050505050505050565b6060600560008373ffffffffffffffffffffffffffffffffffffffff1673ffffffffffffffffffffffffffffffffffffffff168152602001908152602001600020600101805461127a90613110565b80601f01602080910402602001604051908101604052809291908181526020018280546112a690613110565b80156112f35780601f106112c8576101008083540402835291602001916112f3565b820191906000526020600020905b8154815290600101906020018083116112d657829003601f168201915b50505050509050919050565b600081511161130d57600080fd5b60005b8151811015611882576113216124dd565b33816000019073ffffffffffffffffffffffffffffffffffffffff16908173ffffffffffffffffffffffffffffffffffffffff1681525050600560003373ffffffffffffffffffffffffffffffffffffffff1673ffffffffffffffffffffffffffffffffffffffff16815260200190815260200160002060010180546113a690613110565b80601f01602080910402602001604051908101604052809291908181526020018280546113d290613110565b801561141f5780601f106113f45761010080835404028352916020019161141f565b820191906000526020600020905b81548152906001019060200180831161140257829003601f168201915b5050505050816020018190525082828151811061143f5761143e6134ba565b5b602002602001015181604001818152505060046000848481518110611467576114666134ba565b5b60200260200101518152602001908152602001600020600401805461148b90613110565b80601f01602080910402602001604051908101604052809291908181526020018280546114b790613110565b80156115045780601f106114d957610100808354040283529160200191611504565b820191906000526020600020905b8154815290600101906020018083116114e757829003601f168201915b5050505050816060018190525060046000848481518110611528576115276134ba565b5b60200260200101518152602001908152602001600020600101805461154c90613110565b80601f016020809104026020016040519081016040528092919081815260200182805461157890613110565b80156115c55780601f1061159a576101008083540402835291602001916115c5565b820191906000526020600020905b8154815290600101906020018083116115a857829003601f168201915b50505050508160800181905250600460008484815181106115e9576115e86134ba565b5b60200260200101518152602001908152602001600020600201548160a00181815250506040518060400160405280600681526020017f44454c45544500000000000000000000000000000000000000000000000000008152508160c0018190525060008160e0018181525050428161010001818152505060068190806001815401808255809150506001900390600052602060002090600a020160009091909190915060008201518160000160006101000a81548173ffffffffffffffffffffffffffffffffffffffff021916908373ffffffffffffffffffffffffffffffffffffffff16021790555060208201518160010190805190602001906116ef929190612457565b50604082015181600201556060820151816003019080519060200190611716929190612457565b506080820151816004019080519060200190611733929190612457565b5060a0820151816005015560c082015181600601908051906020019061175a929190612457565b5060e0820151816007015561010082015181600801556101208201518160090155505060036000815480929190611790906133de565b9190505550600460008484815181106117ac576117ab6134ba565b5b602002602001015181526020019081526020016000206000808201600090556001820160006117db9190612546565b60028201600090556003820160006117f39190612546565b6004820160006118039190612546565b6005820160006118139190612546565b60068201600090556007820160006101000a81549073ffffffffffffffffffffffffffffffffffffffff021916905560088201600090556009820160009055505060016002600082825461186791906134e9565b9250508190555050808061187a906133de565b915050611310565b5050565b60003373ffffffffffffffffffffffffffffffffffffffff16600560008673ffffffffffffffffffffffffffffffffffffffff1673ffffffffffffffffffffffffffffffffffffffff16815260200190815260200160002060000160009054906101000a900473ffffffffffffffffffffffffffffffffffffffff1673ffffffffffffffffffffffffffffffffffffffff16141561192357600080fd5b83600560008673ffffffffffffffffffffffffffffffffffffffff1673ffffffffffffffffffffffffffffffffffffffff16815260200190815260200160002060000160006101000a81548173ffffffffffffffffffffffffffffffffffffffff021916908373ffffffffffffffffffffffffffffffffffffffff16021790555082600560008673ffffffffffffffffffffffffffffffffffffffff1673ffffffffffffffffffffffffffffffffffffffff16815260200190815260200160002060010190805190602001906119fa929190612457565b5081600560008673ffffffffffffffffffffffffffffffffffffffff1673ffffffffffffffffffffffffffffffffffffffff1681526020019081526020016000206002019080519060200190611a51929190612457565b506000600560008673ffffffffffffffffffffffffffffffffffffffff1673ffffffffffffffffffffffffffffffffffffffff16815260200190815260200160002060030160006101000a81548160ff021916908315150217905550600190509392505050565b60015481565b60035481565b6000600560008373ffffffffffffffffffffffffffffffffffffffff1673ffffffffffffffffffffffffffffffffffffffff16815260200190815260200160002060030160006101000a81548160ff02191690831515021790555050565b6000855111611b3057600080fd5b6000835111611b3e57600080fd5b604051602001611b4d9061328c565b6040516020818303038152906040528051906020012083604051602001611b74919061317e565b604051602081830303815290604052805190602001201480611bdf5750604051602001611ba090613339565b6040516020818303038152906040528051906020012083604051602001611bc7919061317e565b60405160208183030381529060405280519060200120145b80611c335750604051602001611bf49061339a565b6040516020818303038152906040528051906020012083604051602001611c1b919061317e565b60405160208183030381529060405280519060200120145b611c3c57600080fd5b6000815111611c4a57600080fd5b6000825111611c5857600080fd5b600073ffffffffffffffffffffffffffffffffffffffff163373ffffffffffffffffffffffffffffffffffffffff161415611c9257600080fd5b60008411611c9f57600080fd5b60016000815480929190611cb2906133de565b919050555060026000815480929190611cca906133de565b919050555060405180610140016040528060015481526020018681526020018581526020018481526020018381526020018281526020014281526020013373ffffffffffffffffffffffffffffffffffffffff168152602001600081526020016000815250600460006001548152602001908152602001600020600082015181600001556020820151816001019080519060200190611d6a929190612457565b50604082015181600201556060820151816003019080519060200190611d91929190612457565b506080820151816004019080519060200190611dae929190612457565b5060a0820151816005019080519060200190611dcb929190612457565b5060c0820151816006015560e08201518160070160006101000a81548173ffffffffffffffffffffffffffffffffffffffff021916908373ffffffffffffffffffffffffffffffffffffffff16021790555061010082015181600801556101208201518160090155905050611e3e6124dd565b33816000019073ffffffffffffffffffffffffffffffffffffffff16908173ffffffffffffffffffffffffffffffffffffffff1681525050600560003373ffffffffffffffffffffffffffffffffffffffff1673ffffffffffffffffffffffffffffffffffffffff1681526020019081526020016000206001018054611ec390613110565b80601f0160208091040260200160405190810160405280929190818152602001828054611eef90613110565b8015611f3c5780601f10611f1157610100808354040283529160200191611f3c565b820191906000526020600020905b815481529060010190602001808311611f1f57829003601f168201915b50505050508160200181905250600154816040018181525050828160600181905250858160800181905250848160a00181815250506040518060400160405280600381526020017f41444400000000000000000000000000000000000000000000000000000000008152508160c0018190525060008160e0018181525050600081610120018181525050428161010001818152505060068190806001815401808255809150506001900390600052602060002090600a020160009091909190915060008201518160000160006101000a81548173ffffffffffffffffffffffffffffffffffffffff021916908373ffffffffffffffffffffffffffffffffffffffff1602179055506020820151816001019080519060200190612060929190612457565b50604082015181600201556060820151816003019080519060200190612087929190612457565b5060808201518160040190805190602001906120a4929190612457565b5060a0820151816005015560c08201518160060190805190602001906120cb929190612457565b5060e0820151816007015561010082015181600801556101208201518160090155505060036000815480929190612101906133de565b91905055507f4ac95c3f22439238bd535f2f940912d5f3601ea973564b7a2d9d4547203af05c6001548787878787423360008060405161214a9a99989796959493929190613562565b60405180910390a1505050505050565b600460205280600052604060002060009150905080600001549080600101805461218390613110565b80601f01602080910402602001604051908101604052809291908181526020018280546121af90613110565b80156121fc5780601f106121d1576101008083540402835291602001916121fc565b820191906000526020600020905b8154815290600101906020018083116121df57829003601f168201915b50505050509080600201549080600301805461221790613110565b80601f016020809104026020016040519081016040528092919081815260200182805461224390613110565b80156122905780601f1061226557610100808354040283529160200191612290565b820191906000526020600020905b81548152906001019060200180831161227357829003601f168201915b5050505050908060040180546122a590613110565b80601f01602080910402602001604051908101604052809291908181526020018280546122d190613110565b801561231e5780601f106122f35761010080835404028352916020019161231e565b820191906000526020600020905b81548152906001019060200180831161230157829003601f168201915b50505050509080600501805461233390613110565b80601f016020809104026020016040519081016040528092919081815260200182805461235f90613110565b80156123ac5780601f10612381576101008083540402835291602001916123ac565b820191906000526020600020905b81548152906001019060200180831161238f57829003601f168201915b5050505050908060060154908060070160009054906101000a900473ffffffffffffffffffffffffffffffffffffffff1690806008015490806009015490508a565b60405180610140016040528060008152602001606081526020016000815260200160608152602001606081526020016060815260200160008152602001600073ffffffffffffffffffffffffffffffffffffffff16815260200160008152602001600081525090565b82805461246390613110565b90600052602060002090601f01602090048101928261248557600085556124cc565b82601f1061249e57805160ff19168380011785556124cc565b828001600101855582156124cc579182015b828111156124cb5782518255916020019190600101906124b0565b5b5090506124d99190612586565b5090565b604051806101400160405280600073ffffffffffffffffffffffffffffffffffffffff1681526020016060815260200160008152602001606081526020016060815260200160008152602001606081526020016000815260200160008152602001600081525090565b50805461255290613110565b6000825580601f106125645750612583565b601f0160209004906000526020600020908101906125829190612586565b5b50565b5b8082111561259f576000816000905550600101612587565b5090565b600081519050919050565b600082825260208201905092915050565b60005b838110156125dd5780820151818401526020810190506125c2565b838111156125ec576000848401525b50505050565b6000601f19601f8301169050919050565b600061260e826125a3565b61261881856125ae565b93506126288185602086016125bf565b612631816125f2565b840191505092915050565b600060208201905081810360008301526126568184612603565b905092915050565b6000819050919050565b6126718161265e565b82525050565b600060208201905061268c6000830184612668565b92915050565b600081519050919050565b600082825260208201905092915050565b6000819050602082019050919050565b600073ffffffffffffffffffffffffffffffffffffffff82169050919050565b60006126e9826126be565b9050919050565b6126f9816126de565b82525050565b600082825260208201905092915050565b600061271b826125a3565b61272581856126ff565b93506127358185602086016125bf565b61273e816125f2565b840191505092915050565b6127528161265e565b82525050565b60006101408301600083015161277160008601826126f0565b50602083015184820360208601526127898282612710565b915050604083015161279e6040860182612749565b50606083015184820360608601526127b68282612710565b915050608083015184820360808601526127d08282612710565b91505060a08301516127e560a0860182612749565b5060c083015184820360c08601526127fd8282612710565b91505060e083015161281260e0860182612749565b50610100830151612827610100860182612749565b5061012083015161283c610120860182612749565b508091505092915050565b60006128538383612758565b905092915050565b6000602082019050919050565b600061287382612692565b61287d818561269d565b93508360208202850161288f856126ae565b8060005b858110156128cb57848403895281516128ac8582612847565b94506128b78361285b565b925060208a01995050600181019050612893565b50829750879550505050505092915050565b600060208201905081810360008301526128f78184612868565b905092915050565b6000604051905090565b600080fd5b600080fd5b61291c816126de565b811461292757600080fd5b50565b60008135905061293981612913565b92915050565b60006020828403121561295557612954612909565b5b60006129638482850161292a565b91505092915050565b60008115159050919050565b6129818161296c565b82525050565b600060208201905061299c6000830184612978565b92915050565b6129ab8161265e565b81146129b657600080fd5b50565b6000813590506129c8816129a2565b92915050565b6000602082840312156129e4576129e3612909565b5b60006129f2848285016129b9565b91505092915050565b600061014083016000830151612a146000860182612749565b5060208301518482036020860152612a2c8282612710565b9150506040830151612a416040860182612749565b5060608301518482036060860152612a598282612710565b91505060808301518482036080860152612a738282612710565b91505060a083015184820360a0860152612a8d8282612710565b91505060c0830151612aa260c0860182612749565b5060e0830151612ab560e08601826126f0565b50610100830151612aca610100860182612749565b50610120830151612adf610120860182612749565b508091505092915050565b60006020820190508181036000830152612b0481846129fb565b905092915050565b600080fd5b600080fd5b7f4e487b7100000000000000000000000000000000000000000000000000000000600052604160045260246000fd5b612b4e826125f2565b810181811067ffffffffffffffff82111715612b6d57612b6c612b16565b5b80604052505050565b6000612b806128ff565b9050612b8c8282612b45565b919050565b600067ffffffffffffffff821115612bac57612bab612b16565b5b612bb5826125f2565b9050602081019050919050565b82818337600083830152505050565b6000612be4612bdf84612b91565b612b76565b905082815260208101848484011115612c0057612bff612b11565b5b612c0b848285612bc2565b509392505050565b600082601f830112612c2857612c27612b0c565b5b8135612c38848260208601612bd1565b91505092915050565b60008060408385031215612c5857612c57612909565b5b6000612c668582860161292a565b925050602083013567ffffffffffffffff811115612c8757612c8661290e565b5b612c9385828601612c13565b9150509250929050565b600080600080600080600060e0888a031215612cbc57612cbb612909565b5b600088013567ffffffffffffffff811115612cda57612cd961290e565b5b612ce68a828b01612c13565b9750506020612cf78a828b016129b9565b965050604088013567ffffffffffffffff811115612d1857612d1761290e565b5b612d248a828b01612c13565b955050606088013567ffffffffffffffff811115612d4557612d4461290e565b5b612d518a828b01612c13565b9450506080612d628a828b016129b9565b93505060a0612d738a828b016129b9565b92505060c0612d848a828b016129b9565b91505092959891949750929550565b600067ffffffffffffffff821115612dae57612dad612b16565b5b602082029050602081019050919050565b600080fd5b6000612dd7612dd284612d93565b612b76565b90508083825260208201905060208402830185811115612dfa57612df9612dbf565b5b835b81811015612e235780612e0f88826129b9565b845260208401935050602081019050612dfc565b5050509392505050565b600082601f830112612e4257612e41612b0c565b5b8135612e52848260208601612dc4565b91505092915050565b600060208284031215612e7157612e70612909565b5b600082013567ffffffffffffffff811115612e8f57612e8e61290e565b5b612e9b84828501612e2d565b91505092915050565b600080600060608486031215612ebd57612ebc612909565b5b6000612ecb8682870161292a565b935050602084013567ffffffffffffffff811115612eec57612eeb61290e565b5b612ef886828701612c13565b925050604084013567ffffffffffffffff811115612f1957612f1861290e565b5b612f2586828701612c13565b9150509250925092565b600080600080600060a08688031215612f4b57612f4a612909565b5b600086013567ffffffffffffffff811115612f6957612f6861290e565b5b612f7588828901612c13565b9550506020612f86888289016129b9565b945050604086013567ffffffffffffffff811115612fa757612fa661290e565b5b612fb388828901612c13565b935050606086013567ffffffffffffffff811115612fd457612fd361290e565b5b612fe088828901612c13565b925050608086013567ffffffffffffffff8111156130015761300061290e565b5b61300d88828901612c13565b9150509295509295909350565b613023816126de565b82525050565b60006101408201905061303f600083018d612668565b8181036020830152613051818c612603565b9050613060604083018b612668565b8181036060830152613072818a612603565b905081810360808301526130868189612603565b905081810360a083015261309a8188612603565b90506130a960c0830187612668565b6130b660e083018661301a565b6130c4610100830185612668565b6130d2610120830184612668565b9b9a5050505050505050505050565b7f4e487b7100000000000000000000000000000000000000000000000000000000600052602260045260246000fd5b6000600282049050600182168061312857607f821691505b6020821081141561313c5761313b6130e1565b5b50919050565b600081905092915050565b6000613158826125a3565b6131628185613142565b93506131728185602086016125bf565b80840191505092915050565b600061318a828461314d565b915081905092915050565b60008190508160005260206000209050919050565b600081546131b781613110565b6131c18186613142565b945060018216600081146131dc57600181146131ed57613220565b60ff19831686528186019350613220565b6131f685613195565b60005b83811015613218578154818901526001820191506020810190506131f9565b838801955050505b50505092915050565b600061323582846131aa565b915081905092915050565b7f746578742f706c61696e00000000000000000000000000000000000000000000600082015250565b6000613276600a83613142565b915061328182613240565b600a82019050919050565b600061329782613269565b9150819050919050565b7f6170706c69636174696f6e2f766e642e6f70656e786d6c666f726d6174732d6f60008201527f6666696365646f63756d656e742e776f726470726f63657373696e676d6c2e6460208201527f6f63756d656e7400000000000000000000000000000000000000000000000000604082015250565b6000613323604783613142565b915061332e826132a1565b604782019050919050565b600061334482613316565b9150819050919050565b7f6170706c69636174696f6e2f7064660000000000000000000000000000000000600082015250565b6000613384600f83613142565b915061338f8261334e565b600f82019050919050565b60006133a582613377565b9150819050919050565b7f4e487b7100000000000000000000000000000000000000000000000000000000600052601160045260246000fd5b60006133e98261265e565b91507fffffffffffffffffffffffffffffffffffffffffffffffffffffffffffffffff82141561341c5761341b6133af565b5b600182019050919050565b6000610100820190508181036000830152613442818b612603565b9050613451602083018a612668565b81810360408301526134638189612603565b905081810360608301526134778188612603565b90506134866080830187612668565b61349360a083018661301a565b6134a060c0830185612668565b6134ad60e0830184612668565b9998505050505050505050565b7f4e487b7100000000000000000000000000000000000000000000000000000000600052603260045260246000fd5b60006134f48261265e565b91506134ff8361265e565b925082821015613512576135116133af565b5b828203905092915050565b6000819050919050565b6000819050919050565b600061354c6135476135428461351d565b613527565b61265e565b9050919050565b61355c81613531565b82525050565b600061014082019050613578600083018d612668565b818103602083015261358a818c612603565b9050613599604083018b612668565b81810360608301526135ab818a612603565b905081810360808301526135bf8189612603565b905081810360a08301526135d38188612603565b90506135e260c0830187612668565b6135ef60e083018661301a565b6135fd610100830185613553565b61360b610120830184613553565b9b9a505050505050505050505056fea2646970667358221220629066667bbaab193a848f3d35c607782fd04d655fa776c3cf23f2e2aeaeceac64736f6c634300080b0033",
  "immutableReferences": {},
  "source": "// SPDX-License-Identifier: MIT\r\npragma solidity ^0.8.0;\r\n\r\ncontract SimpleStorage {\r\n    // data\r\n    string public name = \"ArchStorage\";\r\n\r\n    uint256 public fileIDs = 0;\r\n    uint256 public fileNum = 0;\r\n    uint256 public transactionCount = 0;\r\n    mapping(uint256 => File) public files;\r\n    mapping(address => UserDetail) user;\r\n\r\n    struct File {\r\n        uint256 fileId;\r\n        string fileHash;\r\n        uint256 fileSize;\r\n        string fileType;\r\n        string fileName;\r\n        string fileDescription;\r\n        uint256 uploadTime;\r\n        address uploader;\r\n        uint256 lastChange;\r\n        uint256 lastSize;\r\n    }\r\n\r\n    struct UserDetail {\r\n        address addr;\r\n        string name;\r\n        string password;\r\n        bool isUserLoggedIn;\r\n    }\r\n\r\n    struct Transaction {\r\n        address userAddress;\r\n        string userName;\r\n        uint256 fileId;\r\n        string fileName;\r\n        string fileHash;\r\n        uint256 fileSize;\r\n        string transactionType;\r\n        uint256 changeLevel;\r\n        uint256 uploadTime;\r\n        uint256 lastSize;\r\n    }\r\n    Transaction[] transactions;\r\n\r\n    //events\r\n\r\n    // event transactionAdded(Transaction temp);\r\n\r\n    event FileUploaded(\r\n        uint256 fileId,\r\n        string fileHash,\r\n        uint256 fileSize,\r\n        string fileType,\r\n        string fileName,\r\n        string fileDescription,\r\n        uint256 uploadTime,\r\n        address uploader,\r\n        uint256 lastChange,\r\n        uint256 lastSize\r\n    );\r\n\r\n    event FileUpdated(\r\n        string fileHash,\r\n        uint256 fileSize,\r\n        string fileType,\r\n        string fileName,\r\n        uint256 uploadTime,\r\n        address uploader,\r\n        uint256 lastChange,\r\n        uint256 lastSize\r\n    );\r\n\r\n    constructor() public {}\r\n\r\n    function uploadFile(\r\n        string memory _fileHash,\r\n        uint256 _fileSize,\r\n        string memory _fileType,\r\n        string memory _fileName,\r\n        string memory _fileDescription\r\n    ) public {\r\n        // Make sure the file hash exists\r\n        require(bytes(_fileHash).length > 0);\r\n        // Make sure file type exists\r\n        require(bytes(_fileType).length > 0);\r\n        require(\r\n            keccak256(abi.encodePacked(_fileType)) ==\r\n                keccak256(abi.encodePacked(\"text/plain\")) ||\r\n                keccak256(abi.encodePacked(_fileType)) ==\r\n                keccak256(\r\n                    abi.encodePacked(\r\n                        \"application/vnd.openxmlformats-officedocument.wordprocessingml.document\"\r\n                    )\r\n                ) ||\r\n                keccak256(abi.encodePacked(_fileType)) ==\r\n                keccak256(abi.encodePacked(\"application/pdf\"))\r\n        );\r\n        // Make sure file description exists\r\n        require(bytes(_fileDescription).length > 0);\r\n        // Make sure file fileName exists\r\n        require(bytes(_fileName).length > 0);\r\n        // Make sure uploader address exists\r\n        require(msg.sender != address(0));\r\n        // Make sure file size is more than 0\r\n        require(_fileSize > 0);\r\n\r\n        // Increment file id\r\n        fileIDs++;\r\n        fileNum++;\r\n\r\n        // Add File to the contract\r\n        files[fileIDs] = File(\r\n            fileIDs,\r\n            _fileHash,\r\n            _fileSize,\r\n            _fileType,\r\n            _fileName,\r\n            _fileDescription,\r\n            block.timestamp,\r\n            msg.sender,\r\n            0,\r\n            0\r\n        );\r\n\r\n        Transaction memory temp;\r\n        temp.userAddress = msg.sender;\r\n        temp.userName = user[msg.sender].name;\r\n        temp.fileId = fileIDs;\r\n        temp.fileName = _fileName;\r\n        temp.fileHash = _fileHash;\r\n        temp.fileSize = _fileSize;\r\n        temp.transactionType = \"ADD\";\r\n        temp.changeLevel = 0;\r\n        temp.lastSize = 0;\r\n        temp.uploadTime = block.timestamp;\r\n        transactions.push(temp);\r\n\r\n        transactionCount++;\r\n        // Trigger an event\r\n        emit FileUploaded(\r\n            fileIDs,\r\n            _fileHash,\r\n            _fileSize,\r\n            _fileType,\r\n            _fileName,\r\n            _fileDescription,\r\n            block.timestamp,\r\n            msg.sender,\r\n            0,\r\n            0\r\n        );\r\n    }\r\n\r\n    function updateFile(\r\n        string memory _fileHash,\r\n        uint256 _fileSize,\r\n        string memory _fileType,\r\n        string memory _fileName,\r\n        uint256 _fileID,\r\n        uint256 _changeValue,\r\n        uint256 _lastSize\r\n    ) public {\r\n        // Make sure the file hash exists\r\n        require(bytes(_fileHash).length > 0);\r\n        // Make sure file type exists\r\n        require(bytes(_fileType).length > 0);\r\n        require(\r\n            keccak256(abi.encodePacked(_fileType)) ==\r\n                keccak256(abi.encodePacked(\"text/plain\")) ||\r\n                keccak256(abi.encodePacked(_fileType)) ==\r\n                keccak256(\r\n                    abi.encodePacked(\r\n                        \"application/vnd.openxmlformats-officedocument.wordprocessingml.document\"\r\n                    )\r\n                ) ||\r\n                keccak256(abi.encodePacked(_fileType)) ==\r\n                keccak256(abi.encodePacked(\"application/pdf\"))\r\n        );\r\n        require(bytes(_fileName).length > 0);\r\n        // Make sure uploader address exists\r\n        require(msg.sender != address(0));\r\n        // Make sure file size is more than 0\r\n        require(_fileSize > 0);\r\n        require(_fileID > 0 && _fileID <= fileIDs);\r\n        require(_changeValue >= 0);\r\n\r\n        // update current file\r\n        files[_fileID].fileHash = _fileHash;\r\n        files[_fileID].fileSize = _fileSize;\r\n        files[_fileID].fileType = _fileType;\r\n        files[_fileID].fileName = _fileName;\r\n        files[_fileID].uploadTime = block.timestamp;\r\n        files[_fileID].uploader = msg.sender;\r\n        files[_fileID].lastChange = _changeValue;\r\n        files[_fileID].lastSize = _lastSize;\r\n\r\n        Transaction memory temp;\r\n        temp.userAddress = msg.sender;\r\n        temp.userName = user[msg.sender].name;\r\n        temp.fileId = _fileID;\r\n        temp.fileName = files[_fileID].fileName;\r\n        temp.fileHash = _fileHash;\r\n        temp.fileSize = _fileSize;\r\n        temp.transactionType = \"UPDATE\";\r\n        temp.changeLevel = _changeValue;\r\n        temp.uploadTime = block.timestamp;\r\n        temp.lastSize = _lastSize;\r\n        transactions.push(temp);\r\n\r\n        transactionCount++;\r\n        // Trigger an event\r\n        emit FileUpdated(\r\n            _fileHash,\r\n            _fileSize,\r\n            _fileType,\r\n            _fileName,\r\n            block.timestamp,\r\n            msg.sender,\r\n            _changeValue,\r\n            _lastSize\r\n        );\r\n    }\r\n\r\n    function getFile(uint256 _fileID) public view returns (File memory) {\r\n        return files[_fileID];\r\n    }\r\n\r\n    function deleteFile(uint256[] memory _fileID) public {\r\n        require(_fileID.length > 0);\r\n        for (uint256 i = 0; i < _fileID.length; i++) {\r\n            Transaction memory temp;\r\n            temp.userAddress = msg.sender;\r\n            temp.userName = user[msg.sender].name;\r\n            temp.fileId = _fileID[i];\r\n            temp.fileName = files[_fileID[i]].fileName;\r\n            temp.fileHash = files[_fileID[i]].fileHash;\r\n            temp.fileSize = files[_fileID[i]].fileSize;\r\n            temp.transactionType = \"DELETE\";\r\n            temp.changeLevel = 0;\r\n            temp.uploadTime = block.timestamp;\r\n            transactions.push(temp);\r\n\r\n            transactionCount++;\r\n            delete files[_fileID[i]];\r\n            fileNum -= 1;\r\n        }\r\n    }\r\n\r\n    // user registration function\r\n    function register(\r\n        address _address,\r\n        string memory _name,\r\n        string memory _password\r\n    ) public returns (bool) {\r\n        require(user[_address].addr != msg.sender);\r\n        user[_address].addr = _address;\r\n        user[_address].name = _name;\r\n        user[_address].password = _password;\r\n        user[_address].isUserLoggedIn = false;\r\n        return true;\r\n    }\r\n\r\n    // user login function\r\n    function login(address _address, string memory _password)\r\n        public\r\n        returns (bool)\r\n    {\r\n        if (\r\n            keccak256(abi.encodePacked(user[_address].password)) ==\r\n            keccak256(abi.encodePacked(_password))\r\n        ) {\r\n            user[_address].isUserLoggedIn = true;\r\n            return user[_address].isUserLoggedIn;\r\n        } else {\r\n            return false;\r\n        }\r\n    }\r\n\r\n    // check the user logged In or not\r\n    function checkIsUserLogged(address _address) public view returns (bool) {\r\n        return (user[_address].isUserLoggedIn);\r\n    }\r\n\r\n    function checkUserName(address _address)\r\n        public\r\n        view\r\n        returns (string memory)\r\n    {\r\n        return (user[_address].name);\r\n    }\r\n\r\n    // logout the user\r\n    function logout(address _address) public {\r\n        user[_address].isUserLoggedIn = false;\r\n    }\r\n\r\n    function getAllTransactions() public view returns (Transaction[] memory) {\r\n        return transactions;\r\n    }\r\n}\r\n",
  "sourcePath": "C:\\Users\\Shaun\\Desktop\\THESIS\\thesis- testing-FINAL\\contracts\\SimpleStorage.sol",
  "compiler": {
    "name": "solc",
    "version": "0.8.11+commit.d7f03943.Emscripten.clang"
  },
  "schemaVersion": "3.4.3",
  "updatedAt": "2022-02-05T14:16:12.087Z",
  "networkType": "ethereum",
  "devdoc": {
    "kind": "dev",
    "methods": {},
    "version": 1
  },
  "userdoc": {
    "kind": "user",
    "methods": {},
    "version": 1
  }
}