{
  "contractName": "SimpleStorage",
  "abi": [
    {
      "inputs": [],
      "stateMutability": "nonpayable",
      "type": "constructor"
    },
    {
      "anonymous": false,
      "inputs": [
        {
          "indexed": false,
          "internalType": "string",
          "name": "fileHash",
          "type": "string"
        },
        {
          "indexed": false,
          "internalType": "uint256",
          "name": "fileSize",
          "type": "uint256"
        },
        {
          "indexed": false,
          "internalType": "string",
          "name": "fileType",
          "type": "string"
        },
        {
          "indexed": false,
          "internalType": "string",
          "name": "fileName",
          "type": "string"
        },
        {
          "indexed": false,
          "internalType": "uint256",
          "name": "uploadTime",
          "type": "uint256"
        },
        {
          "indexed": false,
          "internalType": "address",
          "name": "uploader",
          "type": "address"
        },
        {
          "indexed": false,
          "internalType": "uint256",
          "name": "lastChange",
          "type": "uint256"
        },
        {
          "indexed": false,
          "internalType": "uint256",
          "name": "lastSize",
          "type": "uint256"
        },
        {
          "indexed": false,
          "internalType": "bool",
          "name": "isPrivate",
          "type": "bool"
        },
        {
          "indexed": false,
          "internalType": "string[]",
          "name": "allowedUsers",
          "type": "string[]"
        }
      ],
      "name": "FileUpdated",
      "type": "event"
    },
    {
      "anonymous": false,
      "inputs": [
        {
          "indexed": false,
          "internalType": "uint256",
          "name": "fileId",
          "type": "uint256"
        },
        {
          "indexed": false,
          "internalType": "string",
          "name": "fileHash",
          "type": "string"
        },
        {
          "indexed": false,
          "internalType": "uint256",
          "name": "fileSize",
          "type": "uint256"
        },
        {
          "indexed": false,
          "internalType": "string",
          "name": "fileType",
          "type": "string"
        },
        {
          "indexed": false,
          "internalType": "string",
          "name": "fileName",
          "type": "string"
        },
        {
          "indexed": false,
          "internalType": "string",
          "name": "fileDescription",
          "type": "string"
        },
        {
          "indexed": false,
          "internalType": "uint256",
          "name": "uploadTime",
          "type": "uint256"
        },
        {
          "indexed": false,
          "internalType": "address",
          "name": "uploader",
          "type": "address"
        },
        {
          "indexed": false,
          "internalType": "uint256",
          "name": "lastChange",
          "type": "uint256"
        },
        {
          "indexed": false,
          "internalType": "uint256",
          "name": "lastSize",
          "type": "uint256"
        },
        {
          "indexed": false,
          "internalType": "bool",
          "name": "isPrivate",
          "type": "bool"
        },
        {
          "indexed": false,
          "internalType": "string[]",
          "name": "allowedUsers",
          "type": "string[]"
        }
      ],
      "name": "FileUploaded",
      "type": "event"
    },
    {
      "inputs": [],
      "name": "fileIDs",
      "outputs": [
        {
          "internalType": "uint256",
          "name": "",
          "type": "uint256"
        }
      ],
      "stateMutability": "view",
      "type": "function",
      "constant": true
    },
    {
      "inputs": [],
      "name": "fileNum",
      "outputs": [
        {
          "internalType": "uint256",
          "name": "",
          "type": "uint256"
        }
      ],
      "stateMutability": "view",
      "type": "function",
      "constant": true
    },
    {
      "inputs": [
        {
          "internalType": "uint256",
          "name": "",
          "type": "uint256"
        }
      ],
      "name": "files",
      "outputs": [
        {
          "internalType": "uint256",
          "name": "fileId",
          "type": "uint256"
        },
        {
          "internalType": "string",
          "name": "fileHash",
          "type": "string"
        },
        {
          "internalType": "uint256",
          "name": "fileSize",
          "type": "uint256"
        },
        {
          "internalType": "string",
          "name": "fileType",
          "type": "string"
        },
        {
          "internalType": "string",
          "name": "fileName",
          "type": "string"
        },
        {
          "internalType": "string",
          "name": "fileDescription",
          "type": "string"
        },
        {
          "internalType": "uint256",
          "name": "uploadTime",
          "type": "uint256"
        },
        {
          "internalType": "address",
          "name": "uploader",
          "type": "address"
        },
        {
          "internalType": "uint256",
          "name": "lastChange",
          "type": "uint256"
        },
        {
          "internalType": "uint256",
          "name": "lastSize",
          "type": "uint256"
        },
        {
          "internalType": "bool",
          "name": "isPrivate",
          "type": "bool"
        }
      ],
      "stateMutability": "view",
      "type": "function",
      "constant": true
    },
    {
      "inputs": [],
      "name": "name",
      "outputs": [
        {
          "internalType": "string",
          "name": "",
          "type": "string"
        }
      ],
      "stateMutability": "view",
      "type": "function",
      "constant": true
    },
    {
      "inputs": [],
      "name": "transactionCount",
      "outputs": [
        {
          "internalType": "uint256",
          "name": "",
          "type": "uint256"
        }
      ],
      "stateMutability": "view",
      "type": "function",
      "constant": true
    },
    {
      "inputs": [
        {
          "internalType": "string",
          "name": "_fileHash",
          "type": "string"
        },
        {
          "internalType": "uint256",
          "name": "_fileSize",
          "type": "uint256"
        },
        {
          "internalType": "string",
          "name": "_fileType",
          "type": "string"
        },
        {
          "internalType": "string",
          "name": "_fileName",
          "type": "string"
        },
        {
          "internalType": "string",
          "name": "_fileDescription",
          "type": "string"
        },
        {
          "internalType": "bool",
          "name": "filePrivacy",
          "type": "bool"
        },
        {
          "internalType": "string[]",
          "name": "allowedFileUsers",
          "type": "string[]"
        }
      ],
      "name": "uploadFile",
      "outputs": [],
      "stateMutability": "nonpayable",
      "type": "function"
    },
    {
      "inputs": [
        {
          "internalType": "string",
          "name": "_fileHash",
          "type": "string"
        },
        {
          "internalType": "uint256",
          "name": "_fileSize",
          "type": "uint256"
        },
        {
          "internalType": "string",
          "name": "_fileType",
          "type": "string"
        },
        {
          "internalType": "string",
          "name": "_fileName",
          "type": "string"
        },
        {
          "internalType": "uint256",
          "name": "_fileID",
          "type": "uint256"
        },
        {
          "internalType": "uint256",
          "name": "_changeValue",
          "type": "uint256"
        },
        {
          "internalType": "uint256",
          "name": "_lastSize",
          "type": "uint256"
        },
        {
          "internalType": "bool",
          "name": "filePrivacy",
          "type": "bool"
        },
        {
          "internalType": "string[]",
          "name": "allowedFileUsers",
          "type": "string[]"
        },
        {
          "internalType": "string",
          "name": "_fileDescription",
          "type": "string"
        }
      ],
      "name": "updateFile",
      "outputs": [],
      "stateMutability": "nonpayable",
      "type": "function"
    },
    {
      "inputs": [
        {
          "internalType": "uint256",
          "name": "_fileID",
          "type": "uint256"
        }
      ],
      "name": "getFile",
      "outputs": [
        {
          "components": [
            {
              "internalType": "uint256",
              "name": "fileId",
              "type": "uint256"
            },
            {
              "internalType": "string",
              "name": "fileHash",
              "type": "string"
            },
            {
              "internalType": "uint256",
              "name": "fileSize",
              "type": "uint256"
            },
            {
              "internalType": "string",
              "name": "fileType",
              "type": "string"
            },
            {
              "internalType": "string",
              "name": "fileName",
              "type": "string"
            },
            {
              "internalType": "string",
              "name": "fileDescription",
              "type": "string"
            },
            {
              "internalType": "uint256",
              "name": "uploadTime",
              "type": "uint256"
            },
            {
              "internalType": "address",
              "name": "uploader",
              "type": "address"
            },
            {
              "internalType": "uint256",
              "name": "lastChange",
              "type": "uint256"
            },
            {
              "internalType": "uint256",
              "name": "lastSize",
              "type": "uint256"
            },
            {
              "internalType": "bool",
              "name": "isPrivate",
              "type": "bool"
            },
            {
              "internalType": "string[]",
              "name": "allowedUsers",
              "type": "string[]"
            }
          ],
          "internalType": "struct SimpleStorage.File",
          "name": "",
          "type": "tuple"
        }
      ],
      "stateMutability": "view",
      "type": "function",
      "constant": true
    },
    {
      "inputs": [
        {
          "internalType": "uint256",
          "name": "_fileID",
          "type": "uint256"
        }
      ],
      "name": "deleteFile",
      "outputs": [],
      "stateMutability": "nonpayable",
      "type": "function"
    },
    {
      "inputs": [
        {
          "internalType": "address",
          "name": "_address",
          "type": "address"
        },
        {
          "internalType": "string",
          "name": "_name",
          "type": "string"
        },
        {
          "internalType": "string",
          "name": "_password",
          "type": "string"
        }
      ],
      "name": "register",
      "outputs": [
        {
          "internalType": "bool",
          "name": "",
          "type": "bool"
        }
      ],
      "stateMutability": "nonpayable",
      "type": "function"
    },
    {
      "inputs": [
        {
          "internalType": "address",
          "name": "_address",
          "type": "address"
        },
        {
          "internalType": "string",
          "name": "_password",
          "type": "string"
        }
      ],
      "name": "login",
      "outputs": [
        {
          "internalType": "bool",
          "name": "",
          "type": "bool"
        }
      ],
      "stateMutability": "nonpayable",
      "type": "function"
    },
    {
      "inputs": [
        {
          "internalType": "address",
          "name": "_address",
          "type": "address"
        }
      ],
      "name": "checkIsUserLogged",
      "outputs": [
        {
          "internalType": "bool",
          "name": "",
          "type": "bool"
        }
      ],
      "stateMutability": "view",
      "type": "function",
      "constant": true
    },
    {
      "inputs": [
        {
          "internalType": "address",
          "name": "_address",
          "type": "address"
        }
      ],
      "name": "checkUserName",
      "outputs": [
        {
          "internalType": "string",
          "name": "",
          "type": "string"
        }
      ],
      "stateMutability": "view",
      "type": "function",
      "constant": true
    },
    {
      "inputs": [
        {
          "internalType": "address",
          "name": "_address",
          "type": "address"
        }
      ],
      "name": "logout",
      "outputs": [],
      "stateMutability": "nonpayable",
      "type": "function"
    },
    {
      "inputs": [],
      "name": "getAllTransactions",
      "outputs": [
        {
          "components": [
            {
              "internalType": "address",
              "name": "userAddress",
              "type": "address"
            },
            {
              "internalType": "string",
              "name": "userName",
              "type": "string"
            },
            {
              "internalType": "uint256",
              "name": "fileId",
              "type": "uint256"
            },
            {
              "internalType": "string",
              "name": "fileName",
              "type": "string"
            },
            {
              "internalType": "string",
              "name": "fileHash",
              "type": "string"
            },
            {
              "internalType": "uint256",
              "name": "fileSize",
              "type": "uint256"
            },
            {
              "internalType": "string",
              "name": "transactionType",
              "type": "string"
            },
            {
              "internalType": "uint256",
              "name": "changeLevel",
              "type": "uint256"
            },
            {
              "internalType": "uint256",
              "name": "uploadTime",
              "type": "uint256"
            },
            {
              "internalType": "uint256",
              "name": "lastSize",
              "type": "uint256"
            }
          ],
          "internalType": "struct SimpleStorage.Transaction[]",
          "name": "",
          "type": "tuple[]"
        }
      ],
      "stateMutability": "view",
      "type": "function",
      "constant": true
    },
    {
      "inputs": [
        {
          "internalType": "uint256",
          "name": "fileID",
          "type": "uint256"
        }
      ],
      "name": "getAllowedUsers",
      "outputs": [
        {
          "internalType": "string[]",
          "name": "",
          "type": "string[]"
        }
      ],
      "stateMutability": "view",
      "type": "function",
      "constant": true
    }
  ],
  "bytecode": "0x60806040526040518060400160405280600b81526020017f4172636853746f72616765000000000000000000000000000000000000000000815250600090816200004a9190620002e8565b506000600155600060025560006003553480156200006757600080fd5b50620003cf565b600081519050919050565b7f4e487b7100000000000000000000000000000000000000000000000000000000600052604160045260246000fd5b7f4e487b7100000000000000000000000000000000000000000000000000000000600052602260045260246000fd5b60006002820490506001821680620000f057607f821691505b602082108103620001065762000105620000a8565b5b50919050565b60008190508160005260206000209050919050565b60006020601f8301049050919050565b600082821b905092915050565b600060088302620001707fffffffffffffffffffffffffffffffffffffffffffffffffffffffffffffffff8262000131565b6200017c868362000131565b95508019841693508086168417925050509392505050565b6000819050919050565b6000819050919050565b6000620001c9620001c3620001bd8462000194565b6200019e565b62000194565b9050919050565b6000819050919050565b620001e583620001a8565b620001fd620001f482620001d0565b8484546200013e565b825550505050565b600090565b6200021462000205565b62000221818484620001da565b505050565b5b8181101562000249576200023d6000826200020a565b60018101905062000227565b5050565b601f821115620002985762000262816200010c565b6200026d8462000121565b810160208510156200027d578190505b620002956200028c8562000121565b83018262000226565b50505b505050565b600082821c905092915050565b6000620002bd600019846008026200029d565b1980831691505092915050565b6000620002d88383620002aa565b9150826002028217905092915050565b620002f3826200006e565b67ffffffffffffffff8111156200030f576200030e62000079565b5b6200031b8254620000d7565b620003288282856200024d565b600060209050601f8311600181146200036057600084156200034b578287015190505b620003578582620002ca565b865550620003c7565b601f19841662000370866200010c565b60005b828110156200039a5784890151825560018201915060208501945060208101905062000373565b86831015620003ba5784890151620003b6601f891682620002aa565b8355505b6001600288020188555050505b505050505050565b613d6980620003df6000396000f3fe608060405234801561001057600080fd5b50600436106101005760003560e01c80638d59cc0211610097578063c7d45fe411610066578063c7d45fe4146102c3578063c8cc0520146102df578063cc51f9b91461030f578063f4c714b41461032b57610100565b80638d59cc021461023b5780639fb8070a1461026b578063b77bf60014610289578063c5b42006146102a757610100565b80632bfda313116100d35780632bfda3131461018f5780632f19d50b146101bf5780635dd7812c146101ef57806361ea23881461020b57610100565b806306fdde031461010557806325c2e12c1461012357806327506f5314610141578063297f7b391461015f575b600080fd5b61010d610365565b60405161011a9190612867565b60405180910390f35b61012b6103f3565b60405161013891906128a2565b60405180910390f35b6101496103f9565b6040516101569190612b08565b60405180910390f35b61017960048036038101906101749190612b6a565b610729565b6040516101869190612bb2565b60405180910390f35b6101a960048036038101906101a49190612bf9565b610782565b6040516101b69190612e17565b60405180910390f35b6101d960048036038101906101d49190612f6e565b610b74565b6040516101e69190612bb2565b60405180910390f35b610209600480360381019061020491906130dc565b610cc7565b005b61022560048036038101906102209190612b6a565b611319565b6040516102329190612867565b60405180910390f35b6102556004803603810190610250919061320a565b6113ed565b6040516102629190612bb2565b60405180910390f35b610273611610565b60405161028091906128a2565b60405180910390f35b610291611616565b60405161029e91906128a2565b60405180910390f35b6102c160048036038101906102bc9190612bf9565b61161c565b005b6102dd60048036038101906102d89190613295565b611afb565b005b6102f960048036038101906102f49190612bf9565b6121f8565b6040516103069190613486565b60405180910390f35b61032960048036038101906103249190612b6a565b6122ec565b005b61034560048036038101906103409190612bf9565b61234a565b60405161035c9b9a999897969594939291906134b7565b60405180910390f35b60008054610372906135ad565b80601f016020809104026020016040519081016040528092919081815260200182805461039e906135ad565b80156103eb5780601f106103c0576101008083540402835291602001916103eb565b820191906000526020600020905b8154815290600101906020018083116103ce57829003601f168201915b505050505081565b60025481565b60606006805480602002602001604051908101604052809291908181526020016000905b8282101561072057838290600052602060002090600a0201604051806101400160405290816000820160009054906101000a900473ffffffffffffffffffffffffffffffffffffffff1673ffffffffffffffffffffffffffffffffffffffff1673ffffffffffffffffffffffffffffffffffffffff1681526020016001820180546104a7906135ad565b80601f01602080910402602001604051908101604052809291908181526020018280546104d3906135ad565b80156105205780601f106104f557610100808354040283529160200191610520565b820191906000526020600020905b81548152906001019060200180831161050357829003601f168201915b5050505050815260200160028201548152602001600382018054610543906135ad565b80601f016020809104026020016040519081016040528092919081815260200182805461056f906135ad565b80156105bc5780601f10610591576101008083540402835291602001916105bc565b820191906000526020600020905b81548152906001019060200180831161059f57829003601f168201915b505050505081526020016004820180546105d5906135ad565b80601f0160208091040260200160405190810160405280929190818152602001828054610601906135ad565b801561064e5780601f106106235761010080835404028352916020019161064e565b820191906000526020600020905b81548152906001019060200180831161063157829003601f168201915b5050505050815260200160058201548152602001600682018054610671906135ad565b80601f016020809104026020016040519081016040528092919081815260200182805461069d906135ad565b80156106ea5780601f106106bf576101008083540402835291602001916106ea565b820191906000526020600020905b8154815290600101906020018083116106cd57829003601f168201915b5050505050815260200160078201548152602001600882015481526020016009820154815250508152602001906001019061041d565b50505050905090565b6000600560008373ffffffffffffffffffffffffffffffffffffffff1673ffffffffffffffffffffffffffffffffffffffff16815260200190815260200160002060030160009054906101000a900460ff169050919050565b61078a6125f1565b6004600083815260200190815260200160002060405180610180016040529081600082015481526020016001820180546107c3906135ad565b80601f01602080910402602001604051908101604052809291908181526020018280546107ef906135ad565b801561083c5780601f106108115761010080835404028352916020019161083c565b820191906000526020600020905b81548152906001019060200180831161081f57829003601f168201915b505050505081526020016002820154815260200160038201805461085f906135ad565b80601f016020809104026020016040519081016040528092919081815260200182805461088b906135ad565b80156108d85780601f106108ad576101008083540402835291602001916108d8565b820191906000526020600020905b8154815290600101906020018083116108bb57829003601f168201915b505050505081526020016004820180546108f1906135ad565b80601f016020809104026020016040519081016040528092919081815260200182805461091d906135ad565b801561096a5780601f1061093f5761010080835404028352916020019161096a565b820191906000526020600020905b81548152906001019060200180831161094d57829003601f168201915b50505050508152602001600582018054610983906135ad565b80601f01602080910402602001604051908101604052809291908181526020018280546109af906135ad565b80156109fc5780601f106109d1576101008083540402835291602001916109fc565b820191906000526020600020905b8154815290600101906020018083116109df57829003601f168201915b50505050508152602001600682015481526020016007820160009054906101000a900473ffffffffffffffffffffffffffffffffffffffff1673ffffffffffffffffffffffffffffffffffffffff1673ffffffffffffffffffffffffffffffffffffffff1681526020016008820154815260200160098201548152602001600a820160009054906101000a900460ff16151515158152602001600b8201805480602002602001604051908101604052809291908181526020016000905b82821015610b65578382906000526020600020018054610ad8906135ad565b80601f0160208091040260200160405190810160405280929190818152602001828054610b04906135ad565b8015610b515780601f10610b2657610100808354040283529160200191610b51565b820191906000526020600020905b815481529060010190602001808311610b3457829003601f168201915b505050505081526020019060010190610ab9565b50505050815250509050919050565b600081604051602001610b87919061361a565b60405160208183030381529060405280519060200120600560008573ffffffffffffffffffffffffffffffffffffffff1673ffffffffffffffffffffffffffffffffffffffff168152602001908152602001600020600201604051602001610bef91906136c9565b6040516020818303038152906040528051906020012003610cbc576001600560008573ffffffffffffffffffffffffffffffffffffffff1673ffffffffffffffffffffffffffffffffffffffff16815260200190815260200160002060030160006101000a81548160ff021916908315150217905550600560008473ffffffffffffffffffffffffffffffffffffffff1673ffffffffffffffffffffffffffffffffffffffff16815260200190815260200160002060030160009054906101000a900460ff169050610cc1565b600090505b92915050565b6000875111610cd557600080fd5b6000855111610ce357600080fd5b604051602001610cf29061372c565b6040516020818303038152906040528051906020012085604051602001610d19919061361a565b604051602081830303815290604052805190602001201480610d845750604051602001610d45906137d9565b6040516020818303038152906040528051906020012085604051602001610d6c919061361a565b60405160208183030381529060405280519060200120145b80610dd85750604051602001610d999061383a565b6040516020818303038152906040528051906020012085604051602001610dc0919061361a565b60405160208183030381529060405280519060200120145b610de157600080fd5b6000835111610def57600080fd5b6000845111610dfd57600080fd5b600073ffffffffffffffffffffffffffffffffffffffff163373ffffffffffffffffffffffffffffffffffffffff1603610e3657600080fd5b60008611610e4357600080fd5b60016000815480929190610e569061387e565b919050555060026000815480929190610e6e9061387e565b919050555060405180610180016040528060015481526020018881526020018781526020018681526020018581526020018481526020014281526020013373ffffffffffffffffffffffffffffffffffffffff1681526020016000815260200160008152602001831515815260200182815250600460006001548152602001908152602001600020600082015181600001556020820151816001019081610f159190613a5d565b50604082015181600201556060820151816003019081610f359190613a5d565b506080820151816004019081610f4b9190613a5d565b5060a0820151816005019081610f619190613a5d565b5060c0820151816006015560e08201518160070160006101000a81548173ffffffffffffffffffffffffffffffffffffffff021916908373ffffffffffffffffffffffffffffffffffffffff1602179055506101008201518160080155610120820151816009015561014082015181600a0160006101000a81548160ff02191690831515021790555061016082015181600b01908051906020019061100792919061266a565b509050506110136126c3565b33816000019073ffffffffffffffffffffffffffffffffffffffff16908173ffffffffffffffffffffffffffffffffffffffff1681525050600560003373ffffffffffffffffffffffffffffffffffffffff1673ffffffffffffffffffffffffffffffffffffffff1681526020019081526020016000206001018054611098906135ad565b80601f01602080910402602001604051908101604052809291908181526020018280546110c4906135ad565b80156111115780601f106110e657610100808354040283529160200191611111565b820191906000526020600020905b8154815290600101906020018083116110f457829003601f168201915b50505050508160200181905250600154816040018181525050848160600181905250878160800181905250868160a00181815250506040518060400160405280600381526020017f41444400000000000000000000000000000000000000000000000000000000008152508160c0018190525060008160e0018181525050600081610120018181525050428161010001818152505060068190806001815401808255809150506001900390600052602060002090600a020160009091909190915060008201518160000160006101000a81548173ffffffffffffffffffffffffffffffffffffffff021916908373ffffffffffffffffffffffffffffffffffffffff160217905550602082015181600101908161122e9190613a5d565b5060408201518160020155606082015181600301908161124e9190613a5d565b5060808201518160040190816112649190613a5d565b5060a0820151816005015560c08201518160060190816112849190613a5d565b5060e08201518160070155610100820151816008015561012082015181600901555050600360008154809291906112ba9061387e565b91905055507f98a14167b646b749c19f10f397a769e64ee5d644e2c29ee6b42cc0eb555452e9600154898989898942336000808d8d6040516113079c9b9a99989796959493929190613b6a565b60405180910390a15050505050505050565b6060600560008373ffffffffffffffffffffffffffffffffffffffff1673ffffffffffffffffffffffffffffffffffffffff1681526020019081526020016000206001018054611368906135ad565b80601f0160208091040260200160405190810160405280929190818152602001828054611394906135ad565b80156113e15780601f106113b6576101008083540402835291602001916113e1565b820191906000526020600020905b8154815290600101906020018083116113c457829003601f168201915b50505050509050919050565b60003373ffffffffffffffffffffffffffffffffffffffff16600560008673ffffffffffffffffffffffffffffffffffffffff1673ffffffffffffffffffffffffffffffffffffffff16815260200190815260200160002060000160009054906101000a900473ffffffffffffffffffffffffffffffffffffffff1673ffffffffffffffffffffffffffffffffffffffff160361148957600080fd5b83600560008673ffffffffffffffffffffffffffffffffffffffff1673ffffffffffffffffffffffffffffffffffffffff16815260200190815260200160002060000160006101000a81548173ffffffffffffffffffffffffffffffffffffffff021916908373ffffffffffffffffffffffffffffffffffffffff16021790555082600560008673ffffffffffffffffffffffffffffffffffffffff1673ffffffffffffffffffffffffffffffffffffffff16815260200190815260200160002060010190816115599190613a5d565b5081600560008673ffffffffffffffffffffffffffffffffffffffff1673ffffffffffffffffffffffffffffffffffffffff16815260200190815260200160002060020190816115a99190613a5d565b506000600560008673ffffffffffffffffffffffffffffffffffffffff1673ffffffffffffffffffffffffffffffffffffffff16815260200190815260200160002060030160006101000a81548160ff021916908315150217905550600190509392505050565b60015481565b60035481565b6116246126c3565b33816000019073ffffffffffffffffffffffffffffffffffffffff16908173ffffffffffffffffffffffffffffffffffffffff1681525050600560003373ffffffffffffffffffffffffffffffffffffffff1673ffffffffffffffffffffffffffffffffffffffff16815260200190815260200160002060010180546116a9906135ad565b80601f01602080910402602001604051908101604052809291908181526020018280546116d5906135ad565b80156117225780601f106116f757610100808354040283529160200191611722565b820191906000526020600020905b81548152906001019060200180831161170557829003601f168201915b505050505081602001819052508181604001818152505060046000838152602001908152602001600020600401805461175a906135ad565b80601f0160208091040260200160405190810160405280929190818152602001828054611786906135ad565b80156117d35780601f106117a8576101008083540402835291602001916117d3565b820191906000526020600020905b8154815290600101906020018083116117b657829003601f168201915b50505050508160600181905250600460008381526020019081526020016000206001018054611801906135ad565b80601f016020809104026020016040519081016040528092919081815260200182805461182d906135ad565b801561187a5780601f1061184f5761010080835404028352916020019161187a565b820191906000526020600020905b81548152906001019060200180831161185d57829003601f168201915b5050505050816080018190525060046000838152602001908152602001600020600201548160a00181815250506040518060400160405280600681526020017f44454c45544500000000000000000000000000000000000000000000000000008152508160c0018190525060008160e0018181525050428161010001818152505060068190806001815401808255809150506001900390600052602060002090600a020160009091909190915060008201518160000160006101000a81548173ffffffffffffffffffffffffffffffffffffffff021916908373ffffffffffffffffffffffffffffffffffffffff16021790555060208201518160010190816119839190613a5d565b506040820151816002015560608201518160030190816119a39190613a5d565b5060808201518160040190816119b99190613a5d565b5060a0820151816005015560c08201518160060190816119d99190613a5d565b5060e0820151816007015561010082015181600801556101208201518160090155505060036000815480929190611a0f9061387e565b919050555060046000838152602001908152602001600020600080820160009055600182016000611a40919061272c565b6002820160009055600382016000611a58919061272c565b600482016000611a68919061272c565b600582016000611a78919061272c565b60068201600090556007820160006101000a81549073ffffffffffffffffffffffffffffffffffffffff021916905560088201600090556009820160009055600a820160006101000a81549060ff0219169055600b82016000611adb919061276c565b5050600160026000828254611af09190613c47565b925050819055505050565b60008a5111611b0957600080fd5b6000885111611b1757600080fd5b604051602001611b269061372c565b6040516020818303038152906040528051906020012088604051602001611b4d919061361a565b604051602081830303815290604052805190602001201480611bb85750604051602001611b79906137d9565b6040516020818303038152906040528051906020012088604051602001611ba0919061361a565b60405160208183030381529060405280519060200120145b80611c0c5750604051602001611bcd9061383a565b6040516020818303038152906040528051906020012088604051602001611bf4919061361a565b60405160208183030381529060405280519060200120145b611c1557600080fd5b60046000878152602001908152602001600020600301604051602001611c3b91906136c9565b6040516020818303038152906040528051906020012088604051602001611c62919061361a565b6040516020818303038152906040528051906020012014611c8257600080fd5b6000875111611c9057600080fd5b600073ffffffffffffffffffffffffffffffffffffffff163373ffffffffffffffffffffffffffffffffffffffff1603611cc957600080fd5b60008911611cd657600080fd5b600086118015611ce857506001548611155b611cf157600080fd5b6000851015611cff57600080fd5b89600460008881526020019081526020016000206001019081611d229190613a5d565b5088600460008881526020019081526020016000206002018190555087600460008881526020019081526020016000206003019081611d619190613a5d565b5086600460008881526020019081526020016000206004019081611d859190613a5d565b504260046000888152602001908152602001600020600601819055508460046000888152602001908152602001600020600801819055508360046000888152602001908152602001600020600901819055508260046000888152602001908152602001600020600a0160006101000a81548160ff0219169083151502179055508160046000888152602001908152602001600020600b019080519060200190611e2f92919061266a565b5080600460008881526020019081526020016000206005019081611e539190613a5d565b50611e5c6126c3565b33816000019073ffffffffffffffffffffffffffffffffffffffff16908173ffffffffffffffffffffffffffffffffffffffff1681525050600560003373ffffffffffffffffffffffffffffffffffffffff1673ffffffffffffffffffffffffffffffffffffffff1681526020019081526020016000206001018054611ee1906135ad565b80601f0160208091040260200160405190810160405280929190818152602001828054611f0d906135ad565b8015611f5a5780601f10611f2f57610100808354040283529160200191611f5a565b820191906000526020600020905b815481529060010190602001808311611f3d57829003601f168201915b5050505050816020018190525086816040018181525050600460008881526020019081526020016000206004018054611f92906135ad565b80601f0160208091040260200160405190810160405280929190818152602001828054611fbe906135ad565b801561200b5780601f10611fe05761010080835404028352916020019161200b565b820191906000526020600020905b815481529060010190602001808311611fee57829003601f168201915b505050505081606001819052508a8160800181905250898160a00181815250506040518060400160405280600681526020017f55504441544500000000000000000000000000000000000000000000000000008152508160c00181905250858160e00181815250504281610100018181525050848161012001818152505060068190806001815401808255809150506001900390600052602060002090600a020160009091909190915060008201518160000160006101000a81548173ffffffffffffffffffffffffffffffffffffffff021916908373ffffffffffffffffffffffffffffffffffffffff16021790555060208201518160010190816121119190613a5d565b506040820151816002015560608201518160030190816121319190613a5d565b5060808201518160040190816121479190613a5d565b5060a0820151816005015560c08201518160060190816121679190613a5d565b5060e082015181600701556101008201518160080155610120820151816009015550506003600081548092919061219d9061387e565b91905055507f6b1958a00539d9848b97d400de35b7b55fe2a3a93f8d49292da30da9b573ae568b8b8b8b42338c8c8c8c6040516121e39a99989796959493929190613c7b565b60405180910390a15050505050505050505050565b60608060046000848152602001908152602001600020600b01805480602002602001604051908101604052809291908181526020016000905b828210156122dd578382906000526020600020018054612250906135ad565b80601f016020809104026020016040519081016040528092919081815260200182805461227c906135ad565b80156122c95780601f1061229e576101008083540402835291602001916122c9565b820191906000526020600020905b8154815290600101906020018083116122ac57829003601f168201915b505050505081526020019060010190612231565b50505050905080915050919050565b6000600560008373ffffffffffffffffffffffffffffffffffffffff1673ffffffffffffffffffffffffffffffffffffffff16815260200190815260200160002060030160006101000a81548160ff02191690831515021790555050565b6004602052806000526040600020600091509050806000015490806001018054612373906135ad565b80601f016020809104026020016040519081016040528092919081815260200182805461239f906135ad565b80156123ec5780601f106123c1576101008083540402835291602001916123ec565b820191906000526020600020905b8154815290600101906020018083116123cf57829003601f168201915b505050505090806002015490806003018054612407906135ad565b80601f0160208091040260200160405190810160405280929190818152602001828054612433906135ad565b80156124805780601f1061245557610100808354040283529160200191612480565b820191906000526020600020905b81548152906001019060200180831161246357829003601f168201915b505050505090806004018054612495906135ad565b80601f01602080910402602001604051908101604052809291908181526020018280546124c1906135ad565b801561250e5780601f106124e35761010080835404028352916020019161250e565b820191906000526020600020905b8154815290600101906020018083116124f157829003601f168201915b505050505090806005018054612523906135ad565b80601f016020809104026020016040519081016040528092919081815260200182805461254f906135ad565b801561259c5780601f106125715761010080835404028352916020019161259c565b820191906000526020600020905b81548152906001019060200180831161257f57829003601f168201915b5050505050908060060154908060070160009054906101000a900473ffffffffffffffffffffffffffffffffffffffff169080600801549080600901549080600a0160009054906101000a900460ff1690508b565b60405180610180016040528060008152602001606081526020016000815260200160608152602001606081526020016060815260200160008152602001600073ffffffffffffffffffffffffffffffffffffffff1681526020016000815260200160008152602001600015158152602001606081525090565b8280548282559060005260206000209081019282156126b2579160200282015b828111156126b15782518290816126a19190613a5d565b509160200191906001019061268a565b5b5090506126bf919061278d565b5090565b604051806101400160405280600073ffffffffffffffffffffffffffffffffffffffff1681526020016060815260200160008152602001606081526020016060815260200160008152602001606081526020016000815260200160008152602001600081525090565b508054612738906135ad565b6000825580601f1061274a5750612769565b601f01602090049060005260206000209081019061276891906127b1565b5b50565b508054600082559060005260206000209081019061278a919061278d565b50565b5b808211156127ad57600081816127a4919061272c565b5060010161278e565b5090565b5b808211156127ca5760008160009055506001016127b2565b5090565b600081519050919050565b600082825260208201905092915050565b60005b838110156128085780820151818401526020810190506127ed565b83811115612817576000848401525b50505050565b6000601f19601f8301169050919050565b6000612839826127ce565b61284381856127d9565b93506128538185602086016127ea565b61285c8161281d565b840191505092915050565b60006020820190508181036000830152612881818461282e565b905092915050565b6000819050919050565b61289c81612889565b82525050565b60006020820190506128b76000830184612893565b92915050565b600081519050919050565b600082825260208201905092915050565b6000819050602082019050919050565b600073ffffffffffffffffffffffffffffffffffffffff82169050919050565b6000612914826128e9565b9050919050565b61292481612909565b82525050565b600082825260208201905092915050565b6000612946826127ce565b612950818561292a565b93506129608185602086016127ea565b6129698161281d565b840191505092915050565b61297d81612889565b82525050565b60006101408301600083015161299c600086018261291b565b50602083015184820360208601526129b4828261293b565b91505060408301516129c96040860182612974565b50606083015184820360608601526129e1828261293b565b915050608083015184820360808601526129fb828261293b565b91505060a0830151612a1060a0860182612974565b5060c083015184820360c0860152612a28828261293b565b91505060e0830151612a3d60e0860182612974565b50610100830151612a52610100860182612974565b50610120830151612a67610120860182612974565b508091505092915050565b6000612a7e8383612983565b905092915050565b6000602082019050919050565b6000612a9e826128bd565b612aa881856128c8565b935083602082028501612aba856128d9565b8060005b85811015612af65784840389528151612ad78582612a72565b9450612ae283612a86565b925060208a01995050600181019050612abe565b50829750879550505050505092915050565b60006020820190508181036000830152612b228184612a93565b905092915050565b6000604051905090565b600080fd5b600080fd5b612b4781612909565b8114612b5257600080fd5b50565b600081359050612b6481612b3e565b92915050565b600060208284031215612b8057612b7f612b34565b5b6000612b8e84828501612b55565b91505092915050565b60008115159050919050565b612bac81612b97565b82525050565b6000602082019050612bc76000830184612ba3565b92915050565b612bd681612889565b8114612be157600080fd5b50565b600081359050612bf381612bcd565b92915050565b600060208284031215612c0f57612c0e612b34565b5b6000612c1d84828501612be4565b91505092915050565b612c2f81612b97565b82525050565b600081519050919050565b600082825260208201905092915050565b6000819050602082019050919050565b6000612c6d838361293b565b905092915050565b6000602082019050919050565b6000612c8d82612c35565b612c978185612c40565b935083602082028501612ca985612c51565b8060005b85811015612ce55784840389528151612cc68582612c61565b9450612cd183612c75565b925060208a01995050600181019050612cad565b50829750879550505050505092915050565b600061018083016000830151612d106000860182612974565b5060208301518482036020860152612d28828261293b565b9150506040830151612d3d6040860182612974565b5060608301518482036060860152612d55828261293b565b91505060808301518482036080860152612d6f828261293b565b91505060a083015184820360a0860152612d89828261293b565b91505060c0830151612d9e60c0860182612974565b5060e0830151612db160e086018261291b565b50610100830151612dc6610100860182612974565b50610120830151612ddb610120860182612974565b50610140830151612df0610140860182612c26565b50610160830151848203610160860152612e0a8282612c82565b9150508091505092915050565b60006020820190508181036000830152612e318184612cf7565b905092915050565b600080fd5b600080fd5b7f4e487b7100000000000000000000000000000000000000000000000000000000600052604160045260246000fd5b612e7b8261281d565b810181811067ffffffffffffffff82111715612e9a57612e99612e43565b5b80604052505050565b6000612ead612b2a565b9050612eb98282612e72565b919050565b600067ffffffffffffffff821115612ed957612ed8612e43565b5b612ee28261281d565b9050602081019050919050565b82818337600083830152505050565b6000612f11612f0c84612ebe565b612ea3565b905082815260208101848484011115612f2d57612f2c612e3e565b5b612f38848285612eef565b509392505050565b600082601f830112612f5557612f54612e39565b5b8135612f65848260208601612efe565b91505092915050565b60008060408385031215612f8557612f84612b34565b5b6000612f9385828601612b55565b925050602083013567ffffffffffffffff811115612fb457612fb3612b39565b5b612fc085828601612f40565b9150509250929050565b612fd381612b97565b8114612fde57600080fd5b50565b600081359050612ff081612fca565b92915050565b600067ffffffffffffffff82111561301157613010612e43565b5b602082029050602081019050919050565b600080fd5b600061303a61303584612ff6565b612ea3565b9050808382526020820190506020840283018581111561305d5761305c613022565b5b835b818110156130a457803567ffffffffffffffff81111561308257613081612e39565b5b80860161308f8982612f40565b8552602085019450505060208101905061305f565b5050509392505050565b600082601f8301126130c3576130c2612e39565b5b81356130d3848260208601613027565b91505092915050565b600080600080600080600060e0888a0312156130fb576130fa612b34565b5b600088013567ffffffffffffffff81111561311957613118612b39565b5b6131258a828b01612f40565b97505060206131368a828b01612be4565b965050604088013567ffffffffffffffff81111561315757613156612b39565b5b6131638a828b01612f40565b955050606088013567ffffffffffffffff81111561318457613183612b39565b5b6131908a828b01612f40565b945050608088013567ffffffffffffffff8111156131b1576131b0612b39565b5b6131bd8a828b01612f40565b93505060a06131ce8a828b01612fe1565b92505060c088013567ffffffffffffffff8111156131ef576131ee612b39565b5b6131fb8a828b016130ae565b91505092959891949750929550565b60008060006060848603121561322357613222612b34565b5b600061323186828701612b55565b935050602084013567ffffffffffffffff81111561325257613251612b39565b5b61325e86828701612f40565b925050604084013567ffffffffffffffff81111561327f5761327e612b39565b5b61328b86828701612f40565b9150509250925092565b6000806000806000806000806000806101408b8d0312156132b9576132b8612b34565b5b60008b013567ffffffffffffffff8111156132d7576132d6612b39565b5b6132e38d828e01612f40565b9a505060206132f48d828e01612be4565b99505060408b013567ffffffffffffffff81111561331557613314612b39565b5b6133218d828e01612f40565b98505060608b013567ffffffffffffffff81111561334257613341612b39565b5b61334e8d828e01612f40565b975050608061335f8d828e01612be4565b96505060a06133708d828e01612be4565b95505060c06133818d828e01612be4565b94505060e06133928d828e01612fe1565b9350506101008b013567ffffffffffffffff8111156133b4576133b3612b39565b5b6133c08d828e016130ae565b9250506101208b013567ffffffffffffffff8111156133e2576133e1612b39565b5b6133ee8d828e01612f40565b9150509295989b9194979a5092959850565b600082825260208201905092915050565b600061341c82612c35565b6134268185613400565b93508360208202850161343885612c51565b8060005b8581101561347457848403895281516134558582612c61565b945061346083612c75565b925060208a0199505060018101905061343c565b50829750879550505050505092915050565b600060208201905081810360008301526134a08184613411565b905092915050565b6134b181612909565b82525050565b6000610160820190506134cd600083018e612893565b81810360208301526134df818d61282e565b90506134ee604083018c612893565b8181036060830152613500818b61282e565b90508181036080830152613514818a61282e565b905081810360a0830152613528818961282e565b905061353760c0830188612893565b61354460e08301876134a8565b613552610100830186612893565b613560610120830185612893565b61356e610140830184612ba3565b9c9b505050505050505050505050565b7f4e487b7100000000000000000000000000000000000000000000000000000000600052602260045260246000fd5b600060028204905060018216806135c557607f821691505b6020821081036135d8576135d761357e565b5b50919050565b600081905092915050565b60006135f4826127ce565b6135fe81856135de565b935061360e8185602086016127ea565b80840191505092915050565b600061362682846135e9565b915081905092915050565b60008190508160005260206000209050919050565b60008154613653816135ad565b61365d81866135de565b94506001821660008114613678576001811461368d576136c0565b60ff19831686528115158202860193506136c0565b61369685613631565b60005b838110156136b857815481890152600182019150602081019050613699565b838801955050505b50505092915050565b60006136d58284613646565b915081905092915050565b7f746578742f706c61696e00000000000000000000000000000000000000000000600082015250565b6000613716600a836135de565b9150613721826136e0565b600a82019050919050565b600061373782613709565b9150819050919050565b7f6170706c69636174696f6e2f766e642e6f70656e786d6c666f726d6174732d6f60008201527f6666696365646f63756d656e742e776f726470726f63657373696e676d6c2e6460208201527f6f63756d656e7400000000000000000000000000000000000000000000000000604082015250565b60006137c36047836135de565b91506137ce82613741565b604782019050919050565b60006137e4826137b6565b9150819050919050565b7f6170706c69636174696f6e2f7064660000000000000000000000000000000000600082015250565b6000613824600f836135de565b915061382f826137ee565b600f82019050919050565b600061384582613817565b9150819050919050565b7f4e487b7100000000000000000000000000000000000000000000000000000000600052601160045260246000fd5b600061388982612889565b91507fffffffffffffffffffffffffffffffffffffffffffffffffffffffffffffffff82036138bb576138ba61384f565b5b600182019050919050565b60006020601f8301049050919050565b600082821b905092915050565b6000600883026139137fffffffffffffffffffffffffffffffffffffffffffffffffffffffffffffffff826138d6565b61391d86836138d6565b95508019841693508086168417925050509392505050565b6000819050919050565b600061395a61395561395084612889565b613935565b612889565b9050919050565b6000819050919050565b6139748361393f565b61398861398082613961565b8484546138e3565b825550505050565b600090565b61399d613990565b6139a881848461396b565b505050565b5b818110156139cc576139c1600082613995565b6001810190506139ae565b5050565b601f821115613a11576139e281613631565b6139eb846138c6565b810160208510156139fa578190505b613a0e613a06856138c6565b8301826139ad565b50505b505050565b600082821c905092915050565b6000613a3460001984600802613a16565b1980831691505092915050565b6000613a4d8383613a23565b9150826002028217905092915050565b613a66826127ce565b67ffffffffffffffff811115613a7f57613a7e612e43565b5b613a8982546135ad565b613a948282856139d0565b600060209050601f831160018114613ac75760008415613ab5578287015190505b613abf8582613a41565b865550613b27565b601f198416613ad586613631565b60005b82811015613afd57848901518255600182019150602085019450602081019050613ad8565b86831015613b1a5784890151613b16601f891682613a23565b8355505b6001600288020188555050505b505050505050565b6000819050919050565b6000613b54613b4f613b4a84613b2f565b613935565b612889565b9050919050565b613b6481613b39565b82525050565b600061018082019050613b80600083018f612893565b8181036020830152613b92818e61282e565b9050613ba1604083018d612893565b8181036060830152613bb3818c61282e565b90508181036080830152613bc7818b61282e565b905081810360a0830152613bdb818a61282e565b9050613bea60c0830189612893565b613bf760e08301886134a8565b613c05610100830187613b5b565b613c13610120830186613b5b565b613c21610140830185612ba3565b818103610160830152613c348184613411565b90509d9c50505050505050505050505050565b6000613c5282612889565b9150613c5d83612889565b925082821015613c7057613c6f61384f565b5b828203905092915050565b6000610140820190508181036000830152613c96818d61282e565b9050613ca5602083018c612893565b8181036040830152613cb7818b61282e565b90508181036060830152613ccb818a61282e565b9050613cda6080830189612893565b613ce760a08301886134a8565b613cf460c0830187612893565b613d0160e0830186612893565b613d0f610100830185612ba3565b818103610120830152613d228184613411565b90509b9a505050505050505050505056fea2646970667358221220743ae51a8ae283e2c202bdca109fdc1edc4dfa02e520b7606312679fc8a274ae64736f6c634300080f0033",
  "immutableReferences": {},
  "source": "// SPDX-License-Identifier: MIT\r\npragma solidity ^0.8.0;\r\n\r\ncontract SimpleStorage {\r\n    // data\r\n    string public name = \"ArchStorage\";\r\n\r\n    uint256 public fileIDs = 0;\r\n    uint256 public fileNum = 0;\r\n    uint256 public transactionCount = 0;\r\n    mapping(uint256 => File) public files;\r\n    mapping(address => UserDetail) user;\r\n\r\n    struct File {\r\n        uint256 fileId;\r\n        string fileHash;\r\n        uint256 fileSize;\r\n        string fileType;\r\n        string fileName;\r\n        string fileDescription;\r\n        uint256 uploadTime;\r\n        address uploader;\r\n        uint256 lastChange;\r\n        uint256 lastSize;\r\n        bool isPrivate;\r\n        string[] allowedUsers;\r\n    }\r\n\r\n    struct UserDetail {\r\n        address addr;\r\n        string name;\r\n        string password;\r\n        bool isUserLoggedIn;\r\n    }\r\n\r\n    struct Transaction {\r\n        address userAddress;\r\n        string userName;\r\n        uint256 fileId;\r\n        string fileName;\r\n        string fileHash;\r\n        uint256 fileSize;\r\n        string transactionType;\r\n        uint256 changeLevel;\r\n        uint256 uploadTime;\r\n        uint256 lastSize;\r\n    }\r\n    Transaction[] transactions;\r\n\r\n    //events\r\n\r\n    // event transactionAdded(Transaction temp);\r\n\r\n    event FileUploaded(\r\n        uint256 fileId,\r\n        string fileHash,\r\n        uint256 fileSize,\r\n        string fileType,\r\n        string fileName,\r\n        string fileDescription,\r\n        uint256 uploadTime,\r\n        address uploader,\r\n        uint256 lastChange,\r\n        uint256 lastSize,\r\n        bool isPrivate,\r\n        string[] allowedUsers\r\n    );\r\n\r\n    event FileUpdated(\r\n        string fileHash,\r\n        uint256 fileSize,\r\n        string fileType,\r\n        string fileName,\r\n        uint256 uploadTime,\r\n        address uploader,\r\n        uint256 lastChange,\r\n        uint256 lastSize,\r\n        bool isPrivate,\r\n        string[] allowedUsers\r\n    );\r\n\r\n    constructor() public {}\r\n\r\n    function uploadFile(\r\n        string memory _fileHash,\r\n        uint256 _fileSize,\r\n        string memory _fileType,\r\n        string memory _fileName,\r\n        string memory _fileDescription,\r\n        bool filePrivacy,\r\n        string[] memory allowedFileUsers\r\n    ) public {\r\n        // Make sure the file hash exists\r\n        require(bytes(_fileHash).length > 0);\r\n        // Make sure file type exists\r\n        require(bytes(_fileType).length > 0);\r\n        require(\r\n            keccak256(abi.encodePacked(_fileType)) ==\r\n                keccak256(abi.encodePacked(\"text/plain\")) ||\r\n                keccak256(abi.encodePacked(_fileType)) ==\r\n                keccak256(\r\n                    abi.encodePacked(\r\n                        \"application/vnd.openxmlformats-officedocument.wordprocessingml.document\"\r\n                    )\r\n                ) ||\r\n                keccak256(abi.encodePacked(_fileType)) ==\r\n                keccak256(abi.encodePacked(\"application/pdf\"))\r\n        );\r\n        // Make sure file description exists\r\n        require(bytes(_fileDescription).length > 0);\r\n        // Make sure file fileName exists\r\n        require(bytes(_fileName).length > 0);\r\n        // Make sure uploader address exists\r\n        require(msg.sender != address(0));\r\n        // Make sure file size is more than 0\r\n        require(_fileSize > 0);\r\n\r\n        // Increment file id\r\n        fileIDs++;\r\n        fileNum++;\r\n\r\n        // Add File to the contract\r\n        files[fileIDs] = File(\r\n            fileIDs,\r\n            _fileHash,\r\n            _fileSize,\r\n            _fileType,\r\n            _fileName,\r\n            _fileDescription,\r\n            block.timestamp,\r\n            msg.sender,\r\n            0,\r\n            0,\r\n            filePrivacy,\r\n            allowedFileUsers\r\n        );\r\n\r\n        Transaction memory temp;\r\n        temp.userAddress = msg.sender;\r\n        temp.userName = user[msg.sender].name;\r\n        temp.fileId = fileIDs;\r\n        temp.fileName = _fileName;\r\n        temp.fileHash = _fileHash;\r\n        temp.fileSize = _fileSize;\r\n        temp.transactionType = \"ADD\";\r\n        temp.changeLevel = 0;\r\n        temp.lastSize = 0;\r\n        temp.uploadTime = block.timestamp;\r\n        transactions.push(temp);\r\n\r\n        transactionCount++;\r\n        // Trigger an event\r\n        emit FileUploaded(\r\n            fileIDs,\r\n            _fileHash,\r\n            _fileSize,\r\n            _fileType,\r\n            _fileName,\r\n            _fileDescription,\r\n            block.timestamp,\r\n            msg.sender,\r\n            0,\r\n            0,\r\n            filePrivacy,\r\n            allowedFileUsers\r\n        );\r\n    }\r\n\r\n    function updateFile(\r\n        string memory _fileHash,\r\n        uint256 _fileSize,\r\n        string memory _fileType,\r\n        string memory _fileName,\r\n        uint256 _fileID,\r\n        uint256 _changeValue,\r\n        uint256 _lastSize,\r\n        bool filePrivacy,\r\n        string[] memory allowedFileUsers,\r\n        string memory _fileDescription\r\n    ) public {\r\n        // Make sure the file hash exists\r\n        require(bytes(_fileHash).length > 0);\r\n        // Make sure file type exists\r\n        require(bytes(_fileType).length > 0);\r\n        require(\r\n            keccak256(abi.encodePacked(_fileType)) ==\r\n                keccak256(abi.encodePacked(\"text/plain\")) ||\r\n                keccak256(abi.encodePacked(_fileType)) ==\r\n                keccak256(\r\n                    abi.encodePacked(\r\n                        \"application/vnd.openxmlformats-officedocument.wordprocessingml.document\"\r\n                    )\r\n                ) ||\r\n                keccak256(abi.encodePacked(_fileType)) ==\r\n                keccak256(abi.encodePacked(\"application/pdf\"))\r\n        );\r\n        require(\r\n            keccak256(abi.encodePacked(_fileType)) ==\r\n                keccak256(abi.encodePacked(files[_fileID].fileType))\r\n        );\r\n        require(bytes(_fileName).length > 0);\r\n        // Make sure uploader address exists\r\n        require(msg.sender != address(0));\r\n        // Make sure file size is more than 0\r\n        require(_fileSize > 0);\r\n        require(_fileID > 0 && _fileID <= fileIDs);\r\n        require(_changeValue >= 0);\r\n\r\n        // update current file\r\n        files[_fileID].fileHash = _fileHash;\r\n        files[_fileID].fileSize = _fileSize;\r\n        files[_fileID].fileType = _fileType;\r\n        files[_fileID].fileName = _fileName;\r\n        files[_fileID].uploadTime = block.timestamp;\r\n        files[_fileID].lastChange = _changeValue;\r\n        files[_fileID].lastSize = _lastSize;\r\n        files[_fileID].isPrivate = filePrivacy;\r\n        files[_fileID].allowedUsers = allowedFileUsers;\r\n        files[_fileID].fileDescription = _fileDescription;\r\n\r\n        Transaction memory temp;\r\n        temp.userAddress = msg.sender;\r\n        temp.userName = user[msg.sender].name;\r\n        temp.fileId = _fileID;\r\n        temp.fileName = files[_fileID].fileName;\r\n        temp.fileHash = _fileHash;\r\n        temp.fileSize = _fileSize;\r\n        temp.transactionType = \"UPDATE\";\r\n        temp.changeLevel = _changeValue;\r\n        temp.uploadTime = block.timestamp;\r\n        temp.lastSize = _lastSize;\r\n        transactions.push(temp);\r\n\r\n        transactionCount++;\r\n        // Trigger an event\r\n        emit FileUpdated(\r\n            _fileHash,\r\n            _fileSize,\r\n            _fileType,\r\n            _fileName,\r\n            block.timestamp,\r\n            msg.sender,\r\n            _changeValue,\r\n            _lastSize,\r\n            filePrivacy,\r\n            allowedFileUsers\r\n        );\r\n    }\r\n\r\n    function getFile(uint256 _fileID) public view returns (File memory) {\r\n        return files[_fileID];\r\n    }\r\n\r\n    function deleteFile(uint256 _fileID) public {\r\n        //require(_fileID.length > 0);\r\n        // for (uint256 i = 0; i < _fileID.length; i++) {\r\n        Transaction memory temp;\r\n        temp.userAddress = msg.sender;\r\n        temp.userName = user[msg.sender].name;\r\n        temp.fileId = _fileID;\r\n        temp.fileName = files[_fileID].fileName;\r\n        temp.fileHash = files[_fileID].fileHash;\r\n        temp.fileSize = files[_fileID].fileSize;\r\n        temp.transactionType = \"DELETE\";\r\n        temp.changeLevel = 0;\r\n        temp.uploadTime = block.timestamp;\r\n        transactions.push(temp);\r\n        transactionCount++;\r\n        delete files[_fileID];\r\n        fileNum -= 1;\r\n\r\n        // if (files[_fileID].isPrivate == false) {\r\n        //     transactions.push(temp);\r\n\r\n        //     transactionCount++;\r\n        //     delete files[_fileID];\r\n        //     fileNum -= 1;\r\n        // } else if (files[_fileID].isPrivate == true) {\r\n        //     if (files[_fileID].uploader == msg.sender) {\r\n        //         transactions.push(temp);\r\n        //         transactionCount++;\r\n        //         delete files[_fileID];\r\n        //         fileNum -= 1;\r\n        //     } else {\r\n        //         for (\r\n        //             uint256 i = 0;\r\n        //             i < files[_fileID].allowedUsers.length;\r\n        //             i++\r\n        //         ) {\r\n        //             if (files[_fileID].allowedUsers[i] == msg.sender) {\r\n        //                 transactions.push(temp);\r\n        //                 transactionCount++;\r\n        //                 delete files[_fileID];\r\n        //                 fileNum -= 1;\r\n        //             }\r\n        //         }\r\n        //     }\r\n        // }\r\n\r\n        // }\r\n    }\r\n\r\n    // user registration function\r\n    function register(\r\n        address _address,\r\n        string memory _name,\r\n        string memory _password\r\n    ) public returns (bool) {\r\n        require(user[_address].addr != msg.sender);\r\n        user[_address].addr = _address;\r\n        user[_address].name = _name;\r\n        user[_address].password = _password;\r\n        user[_address].isUserLoggedIn = false;\r\n        return true;\r\n    }\r\n\r\n    // user login function\r\n    function login(address _address, string memory _password)\r\n        public\r\n        returns (bool)\r\n    {\r\n        if (\r\n            keccak256(abi.encodePacked(user[_address].password)) ==\r\n            keccak256(abi.encodePacked(_password))\r\n        ) {\r\n            user[_address].isUserLoggedIn = true;\r\n            return user[_address].isUserLoggedIn;\r\n        } else {\r\n            return false;\r\n        }\r\n    }\r\n\r\n    // check the user logged In or not\r\n    function checkIsUserLogged(address _address) public view returns (bool) {\r\n        return (user[_address].isUserLoggedIn);\r\n    }\r\n\r\n    function checkUserName(address _address)\r\n        public\r\n        view\r\n        returns (string memory)\r\n    {\r\n        return (user[_address].name);\r\n    }\r\n\r\n    // logout the user\r\n    function logout(address _address) public {\r\n        user[_address].isUserLoggedIn = false;\r\n    }\r\n\r\n    function getAllTransactions() public view returns (Transaction[] memory) {\r\n        return transactions;\r\n    }\r\n\r\n    function getAllowedUsers(uint256 fileID)\r\n        public\r\n        view\r\n        returns (string[] memory)\r\n    {\r\n        string[] memory gottenAllowedUsers;\r\n        return gottenAllowedUsers = files[fileID].allowedUsers;\r\n    }\r\n}\r\n",
  "sourcePath": "C:\\Users\\Shaun\\Desktop\\THESIS\\thesis- testing-FINAL\\contracts\\SimpleStorage.sol",
  "compiler": {
    "name": "solc",
    "version": "0.8.15+commit.e14f2714.Emscripten.clang"
  },
  "schemaVersion": "3.4.3",
  "updatedAt": "2022-06-18T10:42:46.888Z",
  "networkType": "ethereum",
  "devdoc": {
    "kind": "dev",
    "methods": {},
    "version": 1
  },
  "userdoc": {
    "kind": "user",
    "methods": {},
    "version": 1
  }
}