{
  "contractName": "SimpleStorage",
  "abi": [
    {
      "inputs": [],
      "stateMutability": "nonpayable",
      "type": "constructor"
    },
    {
      "anonymous": false,
      "inputs": [
        {
          "indexed": false,
          "internalType": "string",
          "name": "fileHash",
          "type": "string"
        },
        {
          "indexed": false,
          "internalType": "uint256",
          "name": "fileSize",
          "type": "uint256"
        },
        {
          "indexed": false,
          "internalType": "string",
          "name": "fileType",
          "type": "string"
        },
        {
          "indexed": false,
          "internalType": "string",
          "name": "fileName",
          "type": "string"
        },
        {
          "indexed": false,
          "internalType": "uint256",
          "name": "uploadTime",
          "type": "uint256"
        },
        {
          "indexed": false,
          "internalType": "address",
          "name": "uploader",
          "type": "address"
        }
      ],
      "name": "FileUpdated",
      "type": "event"
    },
    {
      "anonymous": false,
      "inputs": [
        {
          "indexed": false,
          "internalType": "uint256",
          "name": "fileId",
          "type": "uint256"
        },
        {
          "indexed": false,
          "internalType": "string",
          "name": "fileHash",
          "type": "string"
        },
        {
          "indexed": false,
          "internalType": "uint256",
          "name": "fileSize",
          "type": "uint256"
        },
        {
          "indexed": false,
          "internalType": "string",
          "name": "fileType",
          "type": "string"
        },
        {
          "indexed": false,
          "internalType": "string",
          "name": "fileName",
          "type": "string"
        },
        {
          "indexed": false,
          "internalType": "string",
          "name": "fileDescription",
          "type": "string"
        },
        {
          "indexed": false,
          "internalType": "uint256",
          "name": "uploadTime",
          "type": "uint256"
        },
        {
          "indexed": false,
          "internalType": "address",
          "name": "uploader",
          "type": "address"
        }
      ],
      "name": "FileUploaded",
      "type": "event"
    },
    {
      "inputs": [],
      "name": "fileIDs",
      "outputs": [
        {
          "internalType": "uint256",
          "name": "",
          "type": "uint256"
        }
      ],
      "stateMutability": "view",
      "type": "function",
      "constant": true
    },
    {
      "inputs": [],
      "name": "fileNum",
      "outputs": [
        {
          "internalType": "uint256",
          "name": "",
          "type": "uint256"
        }
      ],
      "stateMutability": "view",
      "type": "function",
      "constant": true
    },
    {
      "inputs": [
        {
          "internalType": "uint256",
          "name": "",
          "type": "uint256"
        }
      ],
      "name": "files",
      "outputs": [
        {
          "internalType": "uint256",
          "name": "fileId",
          "type": "uint256"
        },
        {
          "internalType": "string",
          "name": "fileHash",
          "type": "string"
        },
        {
          "internalType": "uint256",
          "name": "fileSize",
          "type": "uint256"
        },
        {
          "internalType": "string",
          "name": "fileType",
          "type": "string"
        },
        {
          "internalType": "string",
          "name": "fileName",
          "type": "string"
        },
        {
          "internalType": "string",
          "name": "fileDescription",
          "type": "string"
        },
        {
          "internalType": "uint256",
          "name": "uploadTime",
          "type": "uint256"
        },
        {
          "internalType": "address",
          "name": "uploader",
          "type": "address"
        }
      ],
      "stateMutability": "view",
      "type": "function",
      "constant": true
    },
    {
      "inputs": [],
      "name": "name",
      "outputs": [
        {
          "internalType": "string",
          "name": "",
          "type": "string"
        }
      ],
      "stateMutability": "view",
      "type": "function",
      "constant": true
    },
    {
      "inputs": [],
      "name": "transactionCount",
      "outputs": [
        {
          "internalType": "uint256",
          "name": "",
          "type": "uint256"
        }
      ],
      "stateMutability": "view",
      "type": "function",
      "constant": true
    },
    {
      "inputs": [
        {
          "internalType": "string",
          "name": "_fileHash",
          "type": "string"
        },
        {
          "internalType": "uint256",
          "name": "_fileSize",
          "type": "uint256"
        },
        {
          "internalType": "string",
          "name": "_fileType",
          "type": "string"
        },
        {
          "internalType": "string",
          "name": "_fileName",
          "type": "string"
        },
        {
          "internalType": "string",
          "name": "_fileDescription",
          "type": "string"
        }
      ],
      "name": "uploadFile",
      "outputs": [],
      "stateMutability": "nonpayable",
      "type": "function"
    },
    {
      "inputs": [
        {
          "internalType": "string",
          "name": "_fileHash",
          "type": "string"
        },
        {
          "internalType": "uint256",
          "name": "_fileSize",
          "type": "uint256"
        },
        {
          "internalType": "string",
          "name": "_fileType",
          "type": "string"
        },
        {
          "internalType": "string",
          "name": "_fileName",
          "type": "string"
        },
        {
          "internalType": "uint256",
          "name": "_fileID",
          "type": "uint256"
        },
        {
          "internalType": "uint256",
          "name": "_changeValue",
          "type": "uint256"
        }
      ],
      "name": "updateFile",
      "outputs": [],
      "stateMutability": "nonpayable",
      "type": "function"
    },
    {
      "inputs": [
        {
          "internalType": "uint256",
          "name": "_fileID",
          "type": "uint256"
        }
      ],
      "name": "getFile",
      "outputs": [
        {
          "components": [
            {
              "internalType": "uint256",
              "name": "fileId",
              "type": "uint256"
            },
            {
              "internalType": "string",
              "name": "fileHash",
              "type": "string"
            },
            {
              "internalType": "uint256",
              "name": "fileSize",
              "type": "uint256"
            },
            {
              "internalType": "string",
              "name": "fileType",
              "type": "string"
            },
            {
              "internalType": "string",
              "name": "fileName",
              "type": "string"
            },
            {
              "internalType": "string",
              "name": "fileDescription",
              "type": "string"
            },
            {
              "internalType": "uint256",
              "name": "uploadTime",
              "type": "uint256"
            },
            {
              "internalType": "address",
              "name": "uploader",
              "type": "address"
            }
          ],
          "internalType": "struct SimpleStorage.File",
          "name": "",
          "type": "tuple"
        }
      ],
      "stateMutability": "view",
      "type": "function",
      "constant": true
    },
    {
      "inputs": [
        {
          "internalType": "uint256[]",
          "name": "_fileID",
          "type": "uint256[]"
        }
      ],
      "name": "deleteFile",
      "outputs": [],
      "stateMutability": "nonpayable",
      "type": "function"
    },
    {
      "inputs": [
        {
          "internalType": "address",
          "name": "_address",
          "type": "address"
        },
        {
          "internalType": "string",
          "name": "_name",
          "type": "string"
        },
        {
          "internalType": "string",
          "name": "_password",
          "type": "string"
        }
      ],
      "name": "register",
      "outputs": [
        {
          "internalType": "bool",
          "name": "",
          "type": "bool"
        }
      ],
      "stateMutability": "nonpayable",
      "type": "function"
    },
    {
      "inputs": [
        {
          "internalType": "address",
          "name": "_address",
          "type": "address"
        },
        {
          "internalType": "string",
          "name": "_password",
          "type": "string"
        }
      ],
      "name": "login",
      "outputs": [
        {
          "internalType": "bool",
          "name": "",
          "type": "bool"
        }
      ],
      "stateMutability": "nonpayable",
      "type": "function"
    },
    {
      "inputs": [
        {
          "internalType": "address",
          "name": "_address",
          "type": "address"
        }
      ],
      "name": "checkIsUserLogged",
      "outputs": [
        {
          "internalType": "bool",
          "name": "",
          "type": "bool"
        }
      ],
      "stateMutability": "view",
      "type": "function",
      "constant": true
    },
    {
      "inputs": [
        {
          "internalType": "address",
          "name": "_address",
          "type": "address"
        }
      ],
      "name": "checkUserName",
      "outputs": [
        {
          "internalType": "string",
          "name": "",
          "type": "string"
        }
      ],
      "stateMutability": "view",
      "type": "function",
      "constant": true
    },
    {
      "inputs": [
        {
          "internalType": "address",
          "name": "_address",
          "type": "address"
        }
      ],
      "name": "logout",
      "outputs": [],
      "stateMutability": "nonpayable",
      "type": "function"
    },
    {
      "inputs": [],
      "name": "getAllTransactions",
      "outputs": [
        {
          "components": [
            {
              "internalType": "address",
              "name": "userAddress",
              "type": "address"
            },
            {
              "internalType": "string",
              "name": "userName",
              "type": "string"
            },
            {
              "internalType": "string",
              "name": "fileName",
              "type": "string"
            },
            {
              "internalType": "string",
              "name": "fileHash",
              "type": "string"
            },
            {
              "internalType": "uint256",
              "name": "fileSize",
              "type": "uint256"
            },
            {
              "internalType": "string",
              "name": "transactionType",
              "type": "string"
            },
            {
              "internalType": "uint256",
              "name": "changeLevel",
              "type": "uint256"
            },
            {
              "internalType": "uint256",
              "name": "uploadTime",
              "type": "uint256"
            }
          ],
          "internalType": "struct SimpleStorage.Transaction[]",
          "name": "",
          "type": "tuple[]"
        }
      ],
      "stateMutability": "view",
      "type": "function",
      "constant": true
    },
    {
      "inputs": [
        {
          "internalType": "uint256",
          "name": "x",
          "type": "uint256"
        }
      ],
      "name": "set",
      "outputs": [],
      "stateMutability": "nonpayable",
      "type": "function"
    },
    {
      "inputs": [],
      "name": "get",
      "outputs": [
        {
          "internalType": "uint256",
          "name": "",
          "type": "uint256"
        }
      ],
      "stateMutability": "view",
      "type": "function",
      "constant": true
    }
  ],
  "bytecode": "0x60806040526040518060400160405280600b81526020017f4172636853746f72616765000000000000000000000000000000000000000000815250600090805190602001906200005192919062000075565b506000600255600060035560006004553480156200006e57600080fd5b506200018a565b828054620000839062000154565b90600052602060002090601f016020900481019282620000a75760008555620000f3565b82601f10620000c257805160ff1916838001178555620000f3565b82800160010185558215620000f3579182015b82811115620000f2578251825591602001919060010190620000d5565b5b50905062000102919062000106565b5090565b5b808211156200012157600081600090555060010162000107565b5090565b7f4e487b7100000000000000000000000000000000000000000000000000000000600052602260045260246000fd5b600060028204905060018216806200016d57607f821691505b6020821081141562000184576200018362000125565b5b50919050565b61304c806200019a6000396000f3fe608060405234801561001057600080fd5b506004361061010b5760003560e01c80636d4ce63c116100a2578063af856eb611610071578063af856eb6146102ce578063b77bf600146102ea578063cc51f9b914610308578063e82d9d3314610324578063f4c714b4146103405761010b565b80636d4ce63c1461024657806370242ee4146102645780638d59cc02146102805780639fb8070a146102b05761010b565b80632bfda313116100de5780632bfda3131461019a5780632f19d50b146101ca57806360fe47b1146101fa57806361ea2388146102165761010b565b806306fdde031461011057806325c2e12c1461012e57806327506f531461014c578063297f7b391461016a575b600080fd5b610118610377565b6040516101259190612348565b60405180910390f35b610136610405565b6040516101439190612383565b60405180910390f35b61015461040b565b60405161016191906125bf565b60405180910390f35b610184600480360381019061017f9190612621565b610727565b6040516101919190612669565b60405180910390f35b6101b460048036038101906101af91906126b0565b610780565b6040516101c191906127a2565b60405180910390f35b6101e460048036038101906101df91906128f9565b610a6a565b6040516101f19190612669565b60405180910390f35b610214600480360381019061020f91906126b0565b610bbe565b005b610230600480360381019061022b9190612621565b610bc8565b60405161023d9190612348565b60405180910390f35b61024e610c9c565b60405161025b9190612383565b60405180910390f35b61027e60048036038101906102799190612a1d565b610ca6565b005b61029a60048036038101906102959190612a66565b6111e2565b6040516102a79190612669565b60405180910390f35b6102b8611414565b6040516102c59190612383565b60405180910390f35b6102e860048036038101906102e39190612af1565b61141a565b005b6102f2611948565b6040516102ff9190612383565b60405180910390f35b610322600480360381019061031d9190612621565b61194e565b005b61033e60048036038101906103399190612bd2565b6119ac565b005b61035a600480360381019061035591906126b0565b611e8e565b60405161036e989796959493929190612ccc565b60405180910390f35b6000805461038490612d95565b80601f01602080910402602001604051908101604052809291908181526020018280546103b090612d95565b80156103fd5780601f106103d2576101008083540402835291602001916103fd565b820191906000526020600020905b8154815290600101906020018083116103e057829003601f168201915b505050505081565b60035481565b60606007805480602002602001604051908101604052809291908181526020016000905b8282101561071e5783829060005260206000209060080201604051806101000160405290816000820160009054906101000a900473ffffffffffffffffffffffffffffffffffffffff1673ffffffffffffffffffffffffffffffffffffffff1673ffffffffffffffffffffffffffffffffffffffff1681526020016001820180546104b990612d95565b80601f01602080910402602001604051908101604052809291908181526020018280546104e590612d95565b80156105325780601f1061050757610100808354040283529160200191610532565b820191906000526020600020905b81548152906001019060200180831161051557829003601f168201915b5050505050815260200160028201805461054b90612d95565b80601f016020809104026020016040519081016040528092919081815260200182805461057790612d95565b80156105c45780601f10610599576101008083540402835291602001916105c4565b820191906000526020600020905b8154815290600101906020018083116105a757829003601f168201915b505050505081526020016003820180546105dd90612d95565b80601f016020809104026020016040519081016040528092919081815260200182805461060990612d95565b80156106565780601f1061062b57610100808354040283529160200191610656565b820191906000526020600020905b81548152906001019060200180831161063957829003601f168201915b505050505081526020016004820154815260200160058201805461067990612d95565b80601f01602080910402602001604051908101604052809291908181526020018280546106a590612d95565b80156106f25780601f106106c7576101008083540402835291602001916106f2565b820191906000526020600020905b8154815290600101906020018083116106d557829003601f168201915b50505050508152602001600682015481526020016007820154815250508152602001906001019061042f565b50505050905090565b6000600660008373ffffffffffffffffffffffffffffffffffffffff1673ffffffffffffffffffffffffffffffffffffffff16815260200190815260200160002060030160009054906101000a900460ff169050919050565b610788612116565b6005600083815260200190815260200160002060405180610100016040529081600082015481526020016001820180546107c190612d95565b80601f01602080910402602001604051908101604052809291908181526020018280546107ed90612d95565b801561083a5780601f1061080f5761010080835404028352916020019161083a565b820191906000526020600020905b81548152906001019060200180831161081d57829003601f168201915b505050505081526020016002820154815260200160038201805461085d90612d95565b80601f016020809104026020016040519081016040528092919081815260200182805461088990612d95565b80156108d65780601f106108ab576101008083540402835291602001916108d6565b820191906000526020600020905b8154815290600101906020018083116108b957829003601f168201915b505050505081526020016004820180546108ef90612d95565b80601f016020809104026020016040519081016040528092919081815260200182805461091b90612d95565b80156109685780601f1061093d57610100808354040283529160200191610968565b820191906000526020600020905b81548152906001019060200180831161094b57829003601f168201915b5050505050815260200160058201805461098190612d95565b80601f01602080910402602001604051908101604052809291908181526020018280546109ad90612d95565b80156109fa5780601f106109cf576101008083540402835291602001916109fa565b820191906000526020600020905b8154815290600101906020018083116109dd57829003601f168201915b50505050508152602001600682015481526020016007820160009054906101000a900473ffffffffffffffffffffffffffffffffffffffff1673ffffffffffffffffffffffffffffffffffffffff1673ffffffffffffffffffffffffffffffffffffffff16815250509050919050565b600081604051602001610a7d9190612e03565b60405160208183030381529060405280519060200120600660008573ffffffffffffffffffffffffffffffffffffffff1673ffffffffffffffffffffffffffffffffffffffff168152602001908152602001600020600201604051602001610ae59190612eae565b604051602081830303815290604052805190602001201415610bb3576001600660008573ffffffffffffffffffffffffffffffffffffffff1673ffffffffffffffffffffffffffffffffffffffff16815260200190815260200160002060030160006101000a81548160ff021916908315150217905550600660008473ffffffffffffffffffffffffffffffffffffffff1673ffffffffffffffffffffffffffffffffffffffff16815260200190815260200160002060030160009054906101000a900460ff169050610bb8565b600090505b92915050565b8060018190555050565b6060600660008373ffffffffffffffffffffffffffffffffffffffff1673ffffffffffffffffffffffffffffffffffffffff1681526020019081526020016000206001018054610c1790612d95565b80601f0160208091040260200160405190810160405280929190818152602001828054610c4390612d95565b8015610c905780601f10610c6557610100808354040283529160200191610c90565b820191906000526020600020905b815481529060010190602001808311610c7357829003601f168201915b50505050509050919050565b6000600154905090565b6000815111610cb457600080fd5b60005b81518110156111de57610cc8612171565b33816000019073ffffffffffffffffffffffffffffffffffffffff16908173ffffffffffffffffffffffffffffffffffffffff1681525050600660003373ffffffffffffffffffffffffffffffffffffffff1673ffffffffffffffffffffffffffffffffffffffff1681526020019081526020016000206001018054610d4d90612d95565b80601f0160208091040260200160405190810160405280929190818152602001828054610d7990612d95565b8015610dc65780601f10610d9b57610100808354040283529160200191610dc6565b820191906000526020600020905b815481529060010190602001808311610da957829003601f168201915b5050505050816020018190525060056000848481518110610dea57610de9612ec5565b5b602002602001015181526020019081526020016000206004018054610e0e90612d95565b80601f0160208091040260200160405190810160405280929190818152602001828054610e3a90612d95565b8015610e875780601f10610e5c57610100808354040283529160200191610e87565b820191906000526020600020905b815481529060010190602001808311610e6a57829003601f168201915b5050505050816040018190525060056000848481518110610eab57610eaa612ec5565b5b602002602001015181526020019081526020016000206001018054610ecf90612d95565b80601f0160208091040260200160405190810160405280929190818152602001828054610efb90612d95565b8015610f485780601f10610f1d57610100808354040283529160200191610f48565b820191906000526020600020905b815481529060010190602001808311610f2b57829003601f168201915b5050505050816060018190525060056000848481518110610f6c57610f6b612ec5565b5b60200260200101518152602001908152602001600020600201548160800181815250506040518060400160405280600681526020017f44454c45544500000000000000000000000000000000000000000000000000008152508160a0018190525060008160c0018181525050428160e0018181525050600781908060018154018082558091505060019003906000526020600020906008020160009091909190915060008201518160000160006101000a81548173ffffffffffffffffffffffffffffffffffffffff021916908373ffffffffffffffffffffffffffffffffffffffff16021790555060208201518160010190805190602001906110719291906121cc565b50604082015181600201908051906020019061108e9291906121cc565b5060608201518160030190805190602001906110ab9291906121cc565b506080820151816004015560a08201518160050190805190602001906110d29291906121cc565b5060c0820151816006015560e082015181600701555050600460008154809291906110fc90612f23565b91905055506005600084848151811061111857611117612ec5565b5b602002602001015181526020019081526020016000206000808201600090556001820160006111479190612252565b600282016000905560038201600061115f9190612252565b60048201600061116f9190612252565b60058201600061117f9190612252565b60068201600090556007820160006101000a81549073ffffffffffffffffffffffffffffffffffffffff021916905550506001600360008282546111c39190612f6c565b925050819055505080806111d690612f23565b915050610cb7565b5050565b60003373ffffffffffffffffffffffffffffffffffffffff16600660008673ffffffffffffffffffffffffffffffffffffffff1673ffffffffffffffffffffffffffffffffffffffff16815260200190815260200160002060000160009054906101000a900473ffffffffffffffffffffffffffffffffffffffff1673ffffffffffffffffffffffffffffffffffffffff16141561127f57600080fd5b83600660008673ffffffffffffffffffffffffffffffffffffffff1673ffffffffffffffffffffffffffffffffffffffff16815260200190815260200160002060000160006101000a81548173ffffffffffffffffffffffffffffffffffffffff021916908373ffffffffffffffffffffffffffffffffffffffff16021790555082600660008673ffffffffffffffffffffffffffffffffffffffff1673ffffffffffffffffffffffffffffffffffffffff16815260200190815260200160002060010190805190602001906113569291906121cc565b5081600660008673ffffffffffffffffffffffffffffffffffffffff1673ffffffffffffffffffffffffffffffffffffffff16815260200190815260200160002060020190805190602001906113ad9291906121cc565b506000600660008673ffffffffffffffffffffffffffffffffffffffff1673ffffffffffffffffffffffffffffffffffffffff16815260200190815260200160002060030160006101000a81548160ff021916908315150217905550600190509392505050565b60025481565b600086511161142857600080fd5b600084511161143657600080fd5b600083511161144457600080fd5b600073ffffffffffffffffffffffffffffffffffffffff163373ffffffffffffffffffffffffffffffffffffffff16141561147e57600080fd5b6000851161148b57600080fd5b60008211801561149d57506002548211155b6114a657600080fd5b60008110156114b457600080fd5b856005600084815260200190815260200160002060010190805190602001906114de9291906121cc565b50846005600084815260200190815260200160002060020181905550836005600084815260200190815260200160002060030190805190602001906115249291906121cc565b508260056000848152602001908152602001600020600401908051906020019061154f9291906121cc565b50426005600084815260200190815260200160002060060181905550336005600084815260200190815260200160002060070160006101000a81548173ffffffffffffffffffffffffffffffffffffffff021916908373ffffffffffffffffffffffffffffffffffffffff1602179055506115c8612171565b33816000019073ffffffffffffffffffffffffffffffffffffffff16908173ffffffffffffffffffffffffffffffffffffffff1681525050600660003373ffffffffffffffffffffffffffffffffffffffff1673ffffffffffffffffffffffffffffffffffffffff168152602001908152602001600020600101805461164d90612d95565b80601f016020809104026020016040519081016040528092919081815260200182805461167990612d95565b80156116c65780601f1061169b576101008083540402835291602001916116c6565b820191906000526020600020905b8154815290600101906020018083116116a957829003601f168201915b505050505081602001819052506005600084815260200190815260200160002060040180546116f490612d95565b80601f016020809104026020016040519081016040528092919081815260200182805461172090612d95565b801561176d5780601f106117425761010080835404028352916020019161176d565b820191906000526020600020905b81548152906001019060200180831161175057829003601f168201915b50505050508160400181905250868160600181905250858160800181815250506040518060400160405280600681526020017f55504441544500000000000000000000000000000000000000000000000000008152508160a00181905250818160c0018181525050428160e0018181525050600781908060018154018082558091505060019003906000526020600020906008020160009091909190915060008201518160000160006101000a81548173ffffffffffffffffffffffffffffffffffffffff021916908373ffffffffffffffffffffffffffffffffffffffff160217905550602082015181600101908051906020019061186e9291906121cc565b50604082015181600201908051906020019061188b9291906121cc565b5060608201518160030190805190602001906118a89291906121cc565b506080820151816004015560a08201518160050190805190602001906118cf9291906121cc565b5060c0820151816006015560e082015181600701555050600460008154809291906118f990612f23565b91905055507ff1c474703ef93b202fb8d4eba993e49fc4163d1017edb7983d39490bb3934b2387878787423360405161193796959493929190612fa0565b60405180910390a150505050505050565b60045481565b6000600660008373ffffffffffffffffffffffffffffffffffffffff1673ffffffffffffffffffffffffffffffffffffffff16815260200190815260200160002060030160006101000a81548160ff02191690831515021790555050565b60008551116119ba57600080fd5b60008351116119c857600080fd5b60008151116119d657600080fd5b60008251116119e457600080fd5b600073ffffffffffffffffffffffffffffffffffffffff163373ffffffffffffffffffffffffffffffffffffffff161415611a1e57600080fd5b60008411611a2b57600080fd5b60026000815480929190611a3e90612f23565b919050555060036000815480929190611a5690612f23565b919050555060405180610100016040528060025481526020018681526020018581526020018481526020018381526020018281526020014281526020013373ffffffffffffffffffffffffffffffffffffffff16815250600560006002548152602001908152602001600020600082015181600001556020820151816001019080519060200190611ae89291906121cc565b50604082015181600201556060820151816003019080519060200190611b0f9291906121cc565b506080820151816004019080519060200190611b2c9291906121cc565b5060a0820151816005019080519060200190611b499291906121cc565b5060c0820151816006015560e08201518160070160006101000a81548173ffffffffffffffffffffffffffffffffffffffff021916908373ffffffffffffffffffffffffffffffffffffffff160217905550905050611ba6612171565b33816000019073ffffffffffffffffffffffffffffffffffffffff16908173ffffffffffffffffffffffffffffffffffffffff1681525050600660003373ffffffffffffffffffffffffffffffffffffffff1673ffffffffffffffffffffffffffffffffffffffff1681526020019081526020016000206001018054611c2b90612d95565b80601f0160208091040260200160405190810160405280929190818152602001828054611c5790612d95565b8015611ca45780601f10611c7957610100808354040283529160200191611ca4565b820191906000526020600020905b815481529060010190602001808311611c8757829003601f168201915b50505050508160200181905250828160400181905250858160600181905250848160800181815250506040518060400160405280600381526020017f41444400000000000000000000000000000000000000000000000000000000008152508160a0018190525060008160c0018181525050428160e0018181525050600781908060018154018082558091505060019003906000526020600020906008020160009091909190915060008201518160000160006101000a81548173ffffffffffffffffffffffffffffffffffffffff021916908373ffffffffffffffffffffffffffffffffffffffff1602179055506020820151816001019080519060200190611daf9291906121cc565b506040820151816002019080519060200190611dcc9291906121cc565b506060820151816003019080519060200190611de99291906121cc565b506080820151816004015560a0820151816005019080519060200190611e109291906121cc565b5060c0820151816006015560e08201518160070155505060046000815480929190611e3a90612f23565b91905055507f6e95bbaa37a5fdec42a312e049dea2fe6160ebe659214d3409b4f91f164c2f5260025487878787874233604051611e7e989796959493929190612ccc565b60405180910390a1505050505050565b6005602052806000526040600020600091509050806000015490806001018054611eb790612d95565b80601f0160208091040260200160405190810160405280929190818152602001828054611ee390612d95565b8015611f305780601f10611f0557610100808354040283529160200191611f30565b820191906000526020600020905b815481529060010190602001808311611f1357829003601f168201915b505050505090806002015490806003018054611f4b90612d95565b80601f0160208091040260200160405190810160405280929190818152602001828054611f7790612d95565b8015611fc45780601f10611f9957610100808354040283529160200191611fc4565b820191906000526020600020905b815481529060010190602001808311611fa757829003601f168201915b505050505090806004018054611fd990612d95565b80601f016020809104026020016040519081016040528092919081815260200182805461200590612d95565b80156120525780601f1061202757610100808354040283529160200191612052565b820191906000526020600020905b81548152906001019060200180831161203557829003601f168201915b50505050509080600501805461206790612d95565b80601f016020809104026020016040519081016040528092919081815260200182805461209390612d95565b80156120e05780601f106120b5576101008083540402835291602001916120e0565b820191906000526020600020905b8154815290600101906020018083116120c357829003601f168201915b5050505050908060060154908060070160009054906101000a900473ffffffffffffffffffffffffffffffffffffffff16905088565b60405180610100016040528060008152602001606081526020016000815260200160608152602001606081526020016060815260200160008152602001600073ffffffffffffffffffffffffffffffffffffffff1681525090565b604051806101000160405280600073ffffffffffffffffffffffffffffffffffffffff168152602001606081526020016060815260200160608152602001600081526020016060815260200160008152602001600081525090565b8280546121d890612d95565b90600052602060002090601f0160209004810192826121fa5760008555612241565b82601f1061221357805160ff1916838001178555612241565b82800160010185558215612241579182015b82811115612240578251825591602001919060010190612225565b5b50905061224e9190612292565b5090565b50805461225e90612d95565b6000825580601f10612270575061228f565b601f01602090049060005260206000209081019061228e9190612292565b5b50565b5b808211156122ab576000816000905550600101612293565b5090565b600081519050919050565b600082825260208201905092915050565b60005b838110156122e95780820151818401526020810190506122ce565b838111156122f8576000848401525b50505050565b6000601f19601f8301169050919050565b600061231a826122af565b61232481856122ba565b93506123348185602086016122cb565b61233d816122fe565b840191505092915050565b60006020820190508181036000830152612362818461230f565b905092915050565b6000819050919050565b61237d8161236a565b82525050565b60006020820190506123986000830184612374565b92915050565b600081519050919050565b600082825260208201905092915050565b6000819050602082019050919050565b600073ffffffffffffffffffffffffffffffffffffffff82169050919050565b60006123f5826123ca565b9050919050565b612405816123ea565b82525050565b600082825260208201905092915050565b6000612427826122af565b612431818561240b565b93506124418185602086016122cb565b61244a816122fe565b840191505092915050565b61245e8161236a565b82525050565b60006101008301600083015161247d60008601826123fc565b5060208301518482036020860152612495828261241c565b915050604083015184820360408601526124af828261241c565b915050606083015184820360608601526124c9828261241c565b91505060808301516124de6080860182612455565b5060a083015184820360a08601526124f6828261241c565b91505060c083015161250b60c0860182612455565b5060e083015161251e60e0860182612455565b508091505092915050565b60006125358383612464565b905092915050565b6000602082019050919050565b60006125558261239e565b61255f81856123a9565b935083602082028501612571856123ba565b8060005b858110156125ad578484038952815161258e8582612529565b94506125998361253d565b925060208a01995050600181019050612575565b50829750879550505050505092915050565b600060208201905081810360008301526125d9818461254a565b905092915050565b6000604051905090565b600080fd5b600080fd5b6125fe816123ea565b811461260957600080fd5b50565b60008135905061261b816125f5565b92915050565b600060208284031215612637576126366125eb565b5b60006126458482850161260c565b91505092915050565b60008115159050919050565b6126638161264e565b82525050565b600060208201905061267e600083018461265a565b92915050565b61268d8161236a565b811461269857600080fd5b50565b6000813590506126aa81612684565b92915050565b6000602082840312156126c6576126c56125eb565b5b60006126d48482850161269b565b91505092915050565b6000610100830160008301516126f66000860182612455565b506020830151848203602086015261270e828261241c565b91505060408301516127236040860182612455565b506060830151848203606086015261273b828261241c565b91505060808301518482036080860152612755828261241c565b91505060a083015184820360a086015261276f828261241c565b91505060c083015161278460c0860182612455565b5060e083015161279760e08601826123fc565b508091505092915050565b600060208201905081810360008301526127bc81846126dd565b905092915050565b600080fd5b600080fd5b7f4e487b7100000000000000000000000000000000000000000000000000000000600052604160045260246000fd5b612806826122fe565b810181811067ffffffffffffffff82111715612825576128246127ce565b5b80604052505050565b60006128386125e1565b905061284482826127fd565b919050565b600067ffffffffffffffff821115612864576128636127ce565b5b61286d826122fe565b9050602081019050919050565b82818337600083830152505050565b600061289c61289784612849565b61282e565b9050828152602081018484840111156128b8576128b76127c9565b5b6128c384828561287a565b509392505050565b600082601f8301126128e0576128df6127c4565b5b81356128f0848260208601612889565b91505092915050565b600080604083850312156129105761290f6125eb565b5b600061291e8582860161260c565b925050602083013567ffffffffffffffff81111561293f5761293e6125f0565b5b61294b858286016128cb565b9150509250929050565b600067ffffffffffffffff8211156129705761296f6127ce565b5b602082029050602081019050919050565b600080fd5b600061299961299484612955565b61282e565b905080838252602082019050602084028301858111156129bc576129bb612981565b5b835b818110156129e557806129d1888261269b565b8452602084019350506020810190506129be565b5050509392505050565b600082601f830112612a0457612a036127c4565b5b8135612a14848260208601612986565b91505092915050565b600060208284031215612a3357612a326125eb565b5b600082013567ffffffffffffffff811115612a5157612a506125f0565b5b612a5d848285016129ef565b91505092915050565b600080600060608486031215612a7f57612a7e6125eb565b5b6000612a8d8682870161260c565b935050602084013567ffffffffffffffff811115612aae57612aad6125f0565b5b612aba868287016128cb565b925050604084013567ffffffffffffffff811115612adb57612ada6125f0565b5b612ae7868287016128cb565b9150509250925092565b60008060008060008060c08789031215612b0e57612b0d6125eb565b5b600087013567ffffffffffffffff811115612b2c57612b2b6125f0565b5b612b3889828a016128cb565b9650506020612b4989828a0161269b565b955050604087013567ffffffffffffffff811115612b6a57612b696125f0565b5b612b7689828a016128cb565b945050606087013567ffffffffffffffff811115612b9757612b966125f0565b5b612ba389828a016128cb565b9350506080612bb489828a0161269b565b92505060a0612bc589828a0161269b565b9150509295509295509295565b600080600080600060a08688031215612bee57612bed6125eb565b5b600086013567ffffffffffffffff811115612c0c57612c0b6125f0565b5b612c18888289016128cb565b9550506020612c298882890161269b565b945050604086013567ffffffffffffffff811115612c4a57612c496125f0565b5b612c56888289016128cb565b935050606086013567ffffffffffffffff811115612c7757612c766125f0565b5b612c83888289016128cb565b925050608086013567ffffffffffffffff811115612ca457612ca36125f0565b5b612cb0888289016128cb565b9150509295509295909350565b612cc6816123ea565b82525050565b600061010082019050612ce2600083018b612374565b8181036020830152612cf4818a61230f565b9050612d036040830189612374565b8181036060830152612d15818861230f565b90508181036080830152612d29818761230f565b905081810360a0830152612d3d818661230f565b9050612d4c60c0830185612374565b612d5960e0830184612cbd565b9998505050505050505050565b7f4e487b7100000000000000000000000000000000000000000000000000000000600052602260045260246000fd5b60006002820490506001821680612dad57607f821691505b60208210811415612dc157612dc0612d66565b5b50919050565b600081905092915050565b6000612ddd826122af565b612de78185612dc7565b9350612df78185602086016122cb565b80840191505092915050565b6000612e0f8284612dd2565b915081905092915050565b60008190508160005260206000209050919050565b60008154612e3c81612d95565b612e468186612dc7565b94506001821660008114612e615760018114612e7257612ea5565b60ff19831686528186019350612ea5565b612e7b85612e1a565b60005b83811015612e9d57815481890152600182019150602081019050612e7e565b838801955050505b50505092915050565b6000612eba8284612e2f565b915081905092915050565b7f4e487b7100000000000000000000000000000000000000000000000000000000600052603260045260246000fd5b7f4e487b7100000000000000000000000000000000000000000000000000000000600052601160045260246000fd5b6000612f2e8261236a565b91507fffffffffffffffffffffffffffffffffffffffffffffffffffffffffffffffff821415612f6157612f60612ef4565b5b600182019050919050565b6000612f778261236a565b9150612f828361236a565b925082821015612f9557612f94612ef4565b5b828203905092915050565b600060c0820190508181036000830152612fba818961230f565b9050612fc96020830188612374565b8181036040830152612fdb818761230f565b90508181036060830152612fef818661230f565b9050612ffe6080830185612374565b61300b60a0830184612cbd565b97965050505050505056fea2646970667358221220ff0519d3285cc84811a285aac8b0aa7dba8725dfa1cd0a8517c65b67b0ee8a2664736f6c634300080b0033",
  "immutableReferences": {},
  "source": "// SPDX-License-Identifier: MIT\npragma solidity ^0.8.0;\n\ncontract SimpleStorage {\n    // data\n    string public name = \"ArchStorage\";\n    uint256 storedData;\n\n    uint256 public fileIDs = 0;\n    uint256 public fileNum = 0;\n    uint256 public transactionCount = 0;\n    mapping(uint256 => File) public files;\n    mapping(address => UserDetail) user;\n\n    struct File {\n        uint256 fileId;\n        string fileHash;\n        uint256 fileSize;\n        string fileType;\n        string fileName;\n        string fileDescription;\n        uint256 uploadTime;\n        address uploader;\n    }\n\n    struct UserDetail {\n        address addr;\n        string name;\n        string password;\n        bool isUserLoggedIn;\n    }\n\n    struct Transaction {\n        address userAddress;\n        string userName;\n        string fileName;\n        string fileHash;\n        uint256 fileSize;\n        string transactionType;\n        uint256 changeLevel;\n        uint256 uploadTime;\n    }\n    Transaction[] transactions;\n\n    //events\n\n    // event transactionAdded(Transaction temp);\n\n    event FileUploaded(\n        uint256 fileId,\n        string fileHash,\n        uint256 fileSize,\n        string fileType,\n        string fileName,\n        string fileDescription,\n        uint256 uploadTime,\n        address uploader\n    );\n\n    event FileUpdated(\n        string fileHash,\n        uint256 fileSize,\n        string fileType,\n        string fileName,\n        uint256 uploadTime,\n        address uploader\n    );\n\n    constructor() public {}\n\n    function uploadFile(\n        string memory _fileHash,\n        uint256 _fileSize,\n        string memory _fileType,\n        string memory _fileName,\n        string memory _fileDescription\n    ) public {\n        // Make sure the file hash exists\n        require(bytes(_fileHash).length > 0);\n        // Make sure file type exists\n        require(bytes(_fileType).length > 0);\n        // Make sure file description exists\n        require(bytes(_fileDescription).length > 0);\n        // Make sure file fileName exists\n        require(bytes(_fileName).length > 0);\n        // Make sure uploader address exists\n        require(msg.sender != address(0));\n        // Make sure file size is more than 0\n        require(_fileSize > 0);\n\n        // Increment file id\n        fileIDs++;\n        fileNum++;\n\n        // Add File to the contract\n        files[fileIDs] = File(\n            fileIDs,\n            _fileHash,\n            _fileSize,\n            _fileType,\n            _fileName,\n            _fileDescription,\n            block.timestamp,\n            msg.sender\n        );\n\n        Transaction memory temp;\n        temp.userAddress = msg.sender;\n        temp.userName = user[msg.sender].name;\n        temp.fileName = _fileName;\n        temp.fileHash = _fileHash;\n        temp.fileSize = _fileSize;\n        temp.transactionType = \"ADD\";\n        temp.changeLevel = 0;\n        temp.uploadTime = block.timestamp;\n        transactions.push(temp);\n\n        transactionCount++;\n        // Trigger an event\n        emit FileUploaded(\n            fileIDs,\n            _fileHash,\n            _fileSize,\n            _fileType,\n            _fileName,\n            _fileDescription,\n            block.timestamp,\n            msg.sender\n        );\n    }\n\n    function updateFile(\n        string memory _fileHash,\n        uint256 _fileSize,\n        string memory _fileType,\n        string memory _fileName,\n        uint256 _fileID,\n        uint256 _changeValue\n    ) public {\n        // Make sure the file hash exists\n        require(bytes(_fileHash).length > 0);\n        // Make sure file type exists\n        require(bytes(_fileType).length > 0);\n        require(bytes(_fileName).length > 0);\n        // Make sure uploader address exists\n        require(msg.sender != address(0));\n        // Make sure file size is more than 0\n        require(_fileSize > 0);\n        require(_fileID > 0 && _fileID <= fileIDs);\n        require(_changeValue >= 0);\n\n        // update current file\n        files[_fileID].fileHash = _fileHash;\n        files[_fileID].fileSize = _fileSize;\n        files[_fileID].fileType = _fileType;\n        files[_fileID].fileName = _fileName;\n        files[_fileID].uploadTime = block.timestamp;\n        files[_fileID].uploader = msg.sender;\n\n        Transaction memory temp;\n        temp.userAddress = msg.sender;\n        temp.userName = user[msg.sender].name;\n        temp.fileName = files[_fileID].fileName;\n        temp.fileHash = _fileHash;\n        temp.fileSize = _fileSize;\n        temp.transactionType = \"UPDATE\";\n        temp.changeLevel = _changeValue;\n        temp.uploadTime = block.timestamp;\n        transactions.push(temp);\n\n        transactionCount++;\n        // Trigger an event\n        emit FileUpdated(\n            _fileHash,\n            _fileSize,\n            _fileType,\n            _fileName,\n            block.timestamp,\n            msg.sender\n        );\n    }\n\n    function getFile(uint256 _fileID) public view returns (File memory) {\n        return files[_fileID];\n    }\n\n    function deleteFile(uint256[] memory _fileID) public {\n        require(_fileID.length > 0);\n        for (uint256 i = 0; i < _fileID.length; i++) {\n            Transaction memory temp;\n            temp.userAddress = msg.sender;\n            temp.userName = user[msg.sender].name;\n            temp.fileName = files[_fileID[i]].fileName;\n            temp.fileHash = files[_fileID[i]].fileHash;\n            temp.fileSize = files[_fileID[i]].fileSize;\n            temp.transactionType = \"DELETE\";\n            temp.changeLevel = 0;\n            temp.uploadTime = block.timestamp;\n            transactions.push(temp);\n\n            transactionCount++;\n            delete files[_fileID[i]];\n            fileNum -= 1;\n        }\n    }\n\n    // user registration function\n    function register(\n        address _address,\n        string memory _name,\n        string memory _password\n    ) public returns (bool) {\n        require(user[_address].addr != msg.sender);\n        user[_address].addr = _address;\n        user[_address].name = _name;\n        user[_address].password = _password;\n        user[_address].isUserLoggedIn = false;\n        return true;\n    }\n\n    // user login function\n    function login(address _address, string memory _password)\n        public\n        returns (bool)\n    {\n        if (\n            keccak256(abi.encodePacked(user[_address].password)) ==\n            keccak256(abi.encodePacked(_password))\n        ) {\n            user[_address].isUserLoggedIn = true;\n            return user[_address].isUserLoggedIn;\n        } else {\n            return false;\n        }\n    }\n\n    // check the user logged In or not\n    function checkIsUserLogged(address _address) public view returns (bool) {\n        return (user[_address].isUserLoggedIn);\n    }\n\n    function checkUserName(address _address)\n        public\n        view\n        returns (string memory)\n    {\n        return (user[_address].name);\n    }\n\n    // logout the user\n    function logout(address _address) public {\n        user[_address].isUserLoggedIn = false;\n    }\n\n    // function addTransaction(\n    //     address _userAddress,\n    //     string memory _userName,\n    //     string memory _fileName,\n    //     string memory _fileHash,\n    //     string memory _transactionType,\n    //     uint256 _changeLevel\n    // ) public {\n    //     Transaction memory temp;\n    //     temp.userAddress = _userAddress;\n    //     temp.userName = _userName;\n    //     temp.fileName = _fileName;\n    //     temp.fileHash = _fileHash;\n    //     temp.transactionType = _transactionType;\n    //     temp.changeLevel = _changeLevel;\n    //     transactions.push(temp);\n\n    //     transactionCount++;\n    //     emit transactionAdded(temp);\n\n    // }\n\n    function getAllTransactions() public view returns (Transaction[] memory) {\n        return transactions;\n    }\n\n    function set(uint256 x) public {\n        storedData = x;\n    }\n\n    function get() public view returns (uint256) {\n        return storedData;\n    }\n}\n",
  "sourcePath": "C:\\Users\\Shaun\\Desktop\\THESIS\\eth-archive-test\\contracts\\SimpleStorage.sol",
  "compiler": {
    "name": "solc",
    "version": "0.8.11+commit.d7f03943.Emscripten.clang"
  },
  "schemaVersion": "3.4.3",
  "updatedAt": "2022-01-18T07:42:17.998Z",
  "networkType": "ethereum",
  "devdoc": {
    "kind": "dev",
    "methods": {},
    "version": 1
  },
  "userdoc": {
    "kind": "user",
    "methods": {},
    "version": 1
  }
}