{
  "contractName": "SimpleStorage",
  "abi": [
    {
      "inputs": [],
      "stateMutability": "nonpayable",
      "type": "constructor"
    },
    {
      "anonymous": false,
      "inputs": [
        {
          "indexed": false,
          "internalType": "uint256",
          "name": "fileId",
          "type": "uint256"
        },
        {
          "indexed": false,
          "internalType": "string",
          "name": "fileHash",
          "type": "string"
        },
        {
          "indexed": false,
          "internalType": "uint256",
          "name": "fileSize",
          "type": "uint256"
        },
        {
          "indexed": false,
          "internalType": "string",
          "name": "fileType",
          "type": "string"
        },
        {
          "indexed": false,
          "internalType": "string",
          "name": "fileName",
          "type": "string"
        },
        {
          "indexed": false,
          "internalType": "string",
          "name": "fileDescription",
          "type": "string"
        },
        {
          "indexed": false,
          "internalType": "uint256",
          "name": "uploadTime",
          "type": "uint256"
        },
        {
          "indexed": false,
          "internalType": "address",
          "name": "uploader",
          "type": "address"
        }
      ],
      "name": "FileUploaded",
      "type": "event"
    },
    {
      "anonymous": false,
      "inputs": [
        {
          "components": [
            {
              "internalType": "address",
              "name": "userAddress",
              "type": "address"
            },
            {
              "internalType": "string",
              "name": "userName",
              "type": "string"
            },
            {
              "internalType": "string",
              "name": "fileName",
              "type": "string"
            },
            {
              "internalType": "string",
              "name": "fileHash",
              "type": "string"
            },
            {
              "internalType": "string",
              "name": "transactionType",
              "type": "string"
            },
            {
              "internalType": "uint256",
              "name": "changeLevel",
              "type": "uint256"
            }
          ],
          "indexed": false,
          "internalType": "struct SimpleStorage.Transaction",
          "name": "temp",
          "type": "tuple"
        }
      ],
      "name": "transactionAdded",
      "type": "event"
    },
    {
      "inputs": [],
      "name": "fileCount",
      "outputs": [
        {
          "internalType": "uint256",
          "name": "",
          "type": "uint256"
        }
      ],
      "stateMutability": "view",
      "type": "function"
    },
    {
      "inputs": [
        {
          "internalType": "uint256",
          "name": "",
          "type": "uint256"
        }
      ],
      "name": "files",
      "outputs": [
        {
          "internalType": "uint256",
          "name": "fileId",
          "type": "uint256"
        },
        {
          "internalType": "string",
          "name": "fileHash",
          "type": "string"
        },
        {
          "internalType": "uint256",
          "name": "fileSize",
          "type": "uint256"
        },
        {
          "internalType": "string",
          "name": "fileType",
          "type": "string"
        },
        {
          "internalType": "string",
          "name": "fileName",
          "type": "string"
        },
        {
          "internalType": "string",
          "name": "fileDescription",
          "type": "string"
        },
        {
          "internalType": "uint256",
          "name": "uploadTime",
          "type": "uint256"
        },
        {
          "internalType": "address",
          "name": "uploader",
          "type": "address"
        }
      ],
      "stateMutability": "view",
      "type": "function"
    },
    {
      "inputs": [],
      "name": "name",
      "outputs": [
        {
          "internalType": "string",
          "name": "",
          "type": "string"
        }
      ],
      "stateMutability": "view",
      "type": "function"
    },
    {
      "inputs": [],
      "name": "transactionCount",
      "outputs": [
        {
          "internalType": "uint256",
          "name": "",
          "type": "uint256"
        }
      ],
      "stateMutability": "view",
      "type": "function"
    },
    {
      "inputs": [
        {
          "internalType": "string",
          "name": "_fileHash",
          "type": "string"
        },
        {
          "internalType": "uint256",
          "name": "_fileSize",
          "type": "uint256"
        },
        {
          "internalType": "string",
          "name": "_fileType",
          "type": "string"
        },
        {
          "internalType": "string",
          "name": "_fileName",
          "type": "string"
        },
        {
          "internalType": "string",
          "name": "_fileDescription",
          "type": "string"
        }
      ],
      "name": "uploadFile",
      "outputs": [],
      "stateMutability": "nonpayable",
      "type": "function"
    },
    {
      "inputs": [
        {
          "internalType": "address",
          "name": "_address",
          "type": "address"
        },
        {
          "internalType": "string",
          "name": "_name",
          "type": "string"
        },
        {
          "internalType": "string",
          "name": "_password",
          "type": "string"
        },
        {
          "internalType": "string",
          "name": "_cnic",
          "type": "string"
        }
      ],
      "name": "register",
      "outputs": [
        {
          "internalType": "bool",
          "name": "",
          "type": "bool"
        }
      ],
      "stateMutability": "nonpayable",
      "type": "function"
    },
    {
      "inputs": [
        {
          "internalType": "address",
          "name": "_address",
          "type": "address"
        },
        {
          "internalType": "string",
          "name": "_password",
          "type": "string"
        }
      ],
      "name": "login",
      "outputs": [
        {
          "internalType": "bool",
          "name": "",
          "type": "bool"
        }
      ],
      "stateMutability": "nonpayable",
      "type": "function"
    },
    {
      "inputs": [
        {
          "internalType": "address",
          "name": "_address",
          "type": "address"
        }
      ],
      "name": "checkIsUserLogged",
      "outputs": [
        {
          "internalType": "bool",
          "name": "",
          "type": "bool"
        }
      ],
      "stateMutability": "view",
      "type": "function"
    },
    {
      "inputs": [
        {
          "internalType": "address",
          "name": "_address",
          "type": "address"
        }
      ],
      "name": "logout",
      "outputs": [],
      "stateMutability": "nonpayable",
      "type": "function"
    },
    {
      "inputs": [
        {
          "internalType": "address",
          "name": "_userAddress",
          "type": "address"
        },
        {
          "internalType": "string",
          "name": "_userName",
          "type": "string"
        },
        {
          "internalType": "string",
          "name": "_fileName",
          "type": "string"
        },
        {
          "internalType": "string",
          "name": "_fileHash",
          "type": "string"
        },
        {
          "internalType": "string",
          "name": "_transactionType",
          "type": "string"
        },
        {
          "internalType": "uint256",
          "name": "_changeLevel",
          "type": "uint256"
        }
      ],
      "name": "addTransaction",
      "outputs": [],
      "stateMutability": "nonpayable",
      "type": "function"
    },
    {
      "inputs": [
        {
          "internalType": "uint256",
          "name": "x",
          "type": "uint256"
        }
      ],
      "name": "set",
      "outputs": [],
      "stateMutability": "nonpayable",
      "type": "function"
    },
    {
      "inputs": [],
      "name": "get",
      "outputs": [
        {
          "internalType": "uint256",
          "name": "",
          "type": "uint256"
        }
      ],
      "stateMutability": "view",
      "type": "function"
    }
  ],
  "bytecode": "0x60806040526040518060400160405280600b81526020017f4172636853746f72616765000000000000000000000000000000000000000000815250600090805190602001906200005192919062000070565b50600060025560006003553480156200006957600080fd5b5062000185565b8280546200007e906200014f565b90600052602060002090601f016020900481019282620000a25760008555620000ee565b82601f10620000bd57805160ff1916838001178555620000ee565b82800160010185558215620000ee579182015b82811115620000ed578251825591602001919060010190620000d0565b5b509050620000fd919062000101565b5090565b5b808211156200011c57600081600090555060010162000102565b5090565b7f4e487b7100000000000000000000000000000000000000000000000000000000600052602260045260246000fd5b600060028204905060018216806200016857607f821691505b602082108114156200017f576200017e62000120565b5b50919050565b61191a80620001956000396000f3fe608060405234801561001057600080fd5b50600436106100b45760003560e01c80636d4ce63c116100715780636d4ce63c146101a1578063b77bf600146101bf578063cc51f9b9146101dd578063d4e4b44f146101f9578063e82d9d3314610215578063f4c714b414610231576100b4565b8063063d93d8146100b957806306fdde03146100e9578063297f7b39146101075780632f19d50b14610137578063439535191461016757806360fe47b114610185575b600080fd5b6100d360048036038101906100ce91906110a3565b610268565b6040516100e09190611179565b60405180910390f35b6100f16104f2565b6040516100fe919061121c565b60405180910390f35b610121600480360381019061011c919061123e565b610580565b60405161012e9190611179565b60405180910390f35b610151600480360381019061014c919061126b565b6105d9565b60405161015e9190611179565b60405180910390f35b61016f61072d565b60405161017c91906112e0565b60405180910390f35b61019f600480360381019061019a9190611327565b610733565b005b6101a961073d565b6040516101b691906112e0565b60405180910390f35b6101c7610747565b6040516101d491906112e0565b60405180910390f35b6101f760048036038101906101f2919061123e565b61074d565b005b610213600480360381019061020e9190611354565b6107ab565b005b61022f600480360381019061022a9190611451565b61094c565b005b61024b60048036038101906102469190611327565b610b74565b60405161025f98979695949392919061154b565b60405180910390f35b60003373ffffffffffffffffffffffffffffffffffffffff16600560008773ffffffffffffffffffffffffffffffffffffffff1673ffffffffffffffffffffffffffffffffffffffff16815260200190815260200160002060000160009054906101000a900473ffffffffffffffffffffffffffffffffffffffff1673ffffffffffffffffffffffffffffffffffffffff16141561030557600080fd5b84600560008773ffffffffffffffffffffffffffffffffffffffff1673ffffffffffffffffffffffffffffffffffffffff16815260200190815260200160002060000160006101000a81548173ffffffffffffffffffffffffffffffffffffffff021916908373ffffffffffffffffffffffffffffffffffffffff16021790555083600560008773ffffffffffffffffffffffffffffffffffffffff1673ffffffffffffffffffffffffffffffffffffffff16815260200190815260200160002060010190805190602001906103dc929190610dfc565b5082600560008773ffffffffffffffffffffffffffffffffffffffff1673ffffffffffffffffffffffffffffffffffffffff1681526020019081526020016000206002019080519060200190610433929190610dfc565b5081600560008773ffffffffffffffffffffffffffffffffffffffff1673ffffffffffffffffffffffffffffffffffffffff168152602001908152602001600020600301908051906020019061048a929190610dfc565b506000600560008773ffffffffffffffffffffffffffffffffffffffff1673ffffffffffffffffffffffffffffffffffffffff16815260200190815260200160002060040160006101000a81548160ff02191690831515021790555060019050949350505050565b600080546104ff90611614565b80601f016020809104026020016040519081016040528092919081815260200182805461052b90611614565b80156105785780601f1061054d57610100808354040283529160200191610578565b820191906000526020600020905b81548152906001019060200180831161055b57829003601f168201915b505050505081565b6000600560008373ffffffffffffffffffffffffffffffffffffffff1673ffffffffffffffffffffffffffffffffffffffff16815260200190815260200160002060040160009054906101000a900460ff169050919050565b6000816040516020016105ec9190611682565b60405160208183030381529060405280519060200120600560008573ffffffffffffffffffffffffffffffffffffffff1673ffffffffffffffffffffffffffffffffffffffff168152602001908152602001600020600201604051602001610654919061172d565b604051602081830303815290604052805190602001201415610722576001600560008573ffffffffffffffffffffffffffffffffffffffff1673ffffffffffffffffffffffffffffffffffffffff16815260200190815260200160002060040160006101000a81548160ff021916908315150217905550600560008473ffffffffffffffffffffffffffffffffffffffff1673ffffffffffffffffffffffffffffffffffffffff16815260200190815260200160002060040160009054906101000a900460ff169050610727565b600090505b92915050565b60025481565b8060018190555050565b6000600154905090565b60035481565b6000600560008373ffffffffffffffffffffffffffffffffffffffff1673ffffffffffffffffffffffffffffffffffffffff16815260200190815260200160002060040160006101000a81548160ff02191690831515021790555050565b6107b3610e82565b86816000019073ffffffffffffffffffffffffffffffffffffffff16908173ffffffffffffffffffffffffffffffffffffffff1681525050858160200181905250848160400181905250838160600181905250828160800181905250818160a0018181525050600681908060018154018082558091505060019003906000526020600020906006020160009091909190915060008201518160000160006101000a81548173ffffffffffffffffffffffffffffffffffffffff021916908373ffffffffffffffffffffffffffffffffffffffff16021790555060208201518160010190805190602001906108a8929190610dfc565b5060408201518160020190805190602001906108c5929190610dfc565b5060608201518160030190805190602001906108e2929190610dfc565b5060808201518160040190805190602001906108ff929190610dfc565b5060a0820151816005015550507f897e76da2d94a69f1b5fe49fbfaad74b594c8f6ac305f0e001f46baeb92a0fc88160405161093b919061184a565b60405180910390a150505050505050565b600085511161095a57600080fd5b600083511161096857600080fd5b600081511161097657600080fd5b600082511161098457600080fd5b600073ffffffffffffffffffffffffffffffffffffffff163373ffffffffffffffffffffffffffffffffffffffff1614156109be57600080fd5b600084116109cb57600080fd5b600260008154809291906109de9061189b565b919050555060405180610100016040528060025481526020018681526020018581526020018481526020018381526020018281526020014281526020013373ffffffffffffffffffffffffffffffffffffffff16815250600460006002548152602001908152602001600020600082015181600001556020820151816001019080519060200190610a70929190610dfc565b50604082015181600201556060820151816003019080519060200190610a97929190610dfc565b506080820151816004019080519060200190610ab4929190610dfc565b5060a0820151816005019080519060200190610ad1929190610dfc565b5060c0820151816006015560e08201518160070160006101000a81548173ffffffffffffffffffffffffffffffffffffffff021916908373ffffffffffffffffffffffffffffffffffffffff1602179055509050507f6e95bbaa37a5fdec42a312e049dea2fe6160ebe659214d3409b4f91f164c2f5260025486868686864233604051610b6598979695949392919061154b565b60405180910390a15050505050565b6004602052806000526040600020600091509050806000015490806001018054610b9d90611614565b80601f0160208091040260200160405190810160405280929190818152602001828054610bc990611614565b8015610c165780601f10610beb57610100808354040283529160200191610c16565b820191906000526020600020905b815481529060010190602001808311610bf957829003601f168201915b505050505090806002015490806003018054610c3190611614565b80601f0160208091040260200160405190810160405280929190818152602001828054610c5d90611614565b8015610caa5780601f10610c7f57610100808354040283529160200191610caa565b820191906000526020600020905b815481529060010190602001808311610c8d57829003601f168201915b505050505090806004018054610cbf90611614565b80601f0160208091040260200160405190810160405280929190818152602001828054610ceb90611614565b8015610d385780601f10610d0d57610100808354040283529160200191610d38565b820191906000526020600020905b815481529060010190602001808311610d1b57829003601f168201915b505050505090806005018054610d4d90611614565b80601f0160208091040260200160405190810160405280929190818152602001828054610d7990611614565b8015610dc65780601f10610d9b57610100808354040283529160200191610dc6565b820191906000526020600020905b815481529060010190602001808311610da957829003601f168201915b5050505050908060060154908060070160009054906101000a900473ffffffffffffffffffffffffffffffffffffffff16905088565b828054610e0890611614565b90600052602060002090601f016020900481019282610e2a5760008555610e71565b82601f10610e4357805160ff1916838001178555610e71565b82800160010185558215610e71579182015b82811115610e70578251825591602001919060010190610e55565b5b509050610e7e9190610ece565b5090565b6040518060c00160405280600073ffffffffffffffffffffffffffffffffffffffff16815260200160608152602001606081526020016060815260200160608152602001600081525090565b5b80821115610ee7576000816000905550600101610ecf565b5090565b6000604051905090565b600080fd5b600080fd5b600073ffffffffffffffffffffffffffffffffffffffff82169050919050565b6000610f2a82610eff565b9050919050565b610f3a81610f1f565b8114610f4557600080fd5b50565b600081359050610f5781610f31565b92915050565b600080fd5b600080fd5b6000601f19601f8301169050919050565b7f4e487b7100000000000000000000000000000000000000000000000000000000600052604160045260246000fd5b610fb082610f67565b810181811067ffffffffffffffff82111715610fcf57610fce610f78565b5b80604052505050565b6000610fe2610eeb565b9050610fee8282610fa7565b919050565b600067ffffffffffffffff82111561100e5761100d610f78565b5b61101782610f67565b9050602081019050919050565b82818337600083830152505050565b600061104661104184610ff3565b610fd8565b90508281526020810184848401111561106257611061610f62565b5b61106d848285611024565b509392505050565b600082601f83011261108a57611089610f5d565b5b813561109a848260208601611033565b91505092915050565b600080600080608085870312156110bd576110bc610ef5565b5b60006110cb87828801610f48565b945050602085013567ffffffffffffffff8111156110ec576110eb610efa565b5b6110f887828801611075565b935050604085013567ffffffffffffffff81111561111957611118610efa565b5b61112587828801611075565b925050606085013567ffffffffffffffff81111561114657611145610efa565b5b61115287828801611075565b91505092959194509250565b60008115159050919050565b6111738161115e565b82525050565b600060208201905061118e600083018461116a565b92915050565b600081519050919050565b600082825260208201905092915050565b60005b838110156111ce5780820151818401526020810190506111b3565b838111156111dd576000848401525b50505050565b60006111ee82611194565b6111f8818561119f565b93506112088185602086016111b0565b61121181610f67565b840191505092915050565b6000602082019050818103600083015261123681846111e3565b905092915050565b60006020828403121561125457611253610ef5565b5b600061126284828501610f48565b91505092915050565b6000806040838503121561128257611281610ef5565b5b600061129085828601610f48565b925050602083013567ffffffffffffffff8111156112b1576112b0610efa565b5b6112bd85828601611075565b9150509250929050565b6000819050919050565b6112da816112c7565b82525050565b60006020820190506112f560008301846112d1565b92915050565b611304816112c7565b811461130f57600080fd5b50565b600081359050611321816112fb565b92915050565b60006020828403121561133d5761133c610ef5565b5b600061134b84828501611312565b91505092915050565b60008060008060008060c0878903121561137157611370610ef5565b5b600061137f89828a01610f48565b965050602087013567ffffffffffffffff8111156113a05761139f610efa565b5b6113ac89828a01611075565b955050604087013567ffffffffffffffff8111156113cd576113cc610efa565b5b6113d989828a01611075565b945050606087013567ffffffffffffffff8111156113fa576113f9610efa565b5b61140689828a01611075565b935050608087013567ffffffffffffffff81111561142757611426610efa565b5b61143389828a01611075565b92505060a061144489828a01611312565b9150509295509295509295565b600080600080600060a0868803121561146d5761146c610ef5565b5b600086013567ffffffffffffffff81111561148b5761148a610efa565b5b61149788828901611075565b95505060206114a888828901611312565b945050604086013567ffffffffffffffff8111156114c9576114c8610efa565b5b6114d588828901611075565b935050606086013567ffffffffffffffff8111156114f6576114f5610efa565b5b61150288828901611075565b925050608086013567ffffffffffffffff81111561152357611522610efa565b5b61152f88828901611075565b9150509295509295909350565b61154581610f1f565b82525050565b600061010082019050611561600083018b6112d1565b8181036020830152611573818a6111e3565b905061158260408301896112d1565b818103606083015261159481886111e3565b905081810360808301526115a881876111e3565b905081810360a08301526115bc81866111e3565b90506115cb60c08301856112d1565b6115d860e083018461153c565b9998505050505050505050565b7f4e487b7100000000000000000000000000000000000000000000000000000000600052602260045260246000fd5b6000600282049050600182168061162c57607f821691505b602082108114156116405761163f6115e5565b5b50919050565b600081905092915050565b600061165c82611194565b6116668185611646565b93506116768185602086016111b0565b80840191505092915050565b600061168e8284611651565b915081905092915050565b60008190508160005260206000209050919050565b600081546116bb81611614565b6116c58186611646565b945060018216600081146116e057600181146116f157611724565b60ff19831686528186019350611724565b6116fa85611699565b60005b8381101561171c578154818901526001820191506020810190506116fd565b838801955050505b50505092915050565b600061173982846116ae565b915081905092915050565b61174d81610f1f565b82525050565b600082825260208201905092915050565b600061176f82611194565b6117798185611753565b93506117898185602086016111b0565b61179281610f67565b840191505092915050565b6117a6816112c7565b82525050565b600060c0830160008301516117c46000860182611744565b50602083015184820360208601526117dc8282611764565b915050604083015184820360408601526117f68282611764565b915050606083015184820360608601526118108282611764565b9150506080830151848203608086015261182a8282611764565b91505060a083015161183f60a086018261179d565b508091505092915050565b6000602082019050818103600083015261186481846117ac565b905092915050565b7f4e487b7100000000000000000000000000000000000000000000000000000000600052601160045260246000fd5b60006118a6826112c7565b91507fffffffffffffffffffffffffffffffffffffffffffffffffffffffffffffffff8214156118d9576118d861186c565b5b60018201905091905056fea264697066735822122002a4c2cb193b9f2221f063e6042a331a503e3fffb36c9d04ad220b81b4bf910a64736f6c634300080b0033",
  "immutableReferences": {},
  "source": "// SPDX-License-Identifier: MIT\npragma solidity ^0.8.0;\n\ncontract SimpleStorage {\n    // data\n    string public name = \"ArchStorage\";\n    uint256 storedData;\n\n    uint256 public fileCount = 0;\n    uint256 public transactionCount = 0;\n    mapping(uint256 => File) public files;\n    mapping(address => UserDetail) user;\n\n    struct File {\n        uint256 fileId;\n        string fileHash;\n        uint256 fileSize;\n        string fileType;\n        string fileName;\n        string fileDescription;\n        uint256 uploadTime;\n        address uploader;\n    }\n\n    struct UserDetail {\n        address addr;\n        string name;\n        string password;\n        string CNIC;\n        bool isUserLoggedIn;\n    }\n\n    struct Transaction {\n        address userAddress;\n        string userName;\n        string fileName;\n        string fileHash;\n        string transactionType;\n        uint256 changeLevel;\n    }\n    Transaction[] transactions;\n\n    //events\n\n    event transactionAdded(Transaction temp);\n\n    event FileUploaded(\n        uint256 fileId,\n        string fileHash,\n        uint256 fileSize,\n        string fileType,\n        string fileName,\n        string fileDescription,\n        uint256 uploadTime,\n        address uploader\n    );\n\n    constructor() public {}\n\n    function uploadFile(\n        string memory _fileHash,\n        uint256 _fileSize,\n        string memory _fileType,\n        string memory _fileName,\n        string memory _fileDescription\n    ) public {\n        // Make sure the file hash exists\n        require(bytes(_fileHash).length > 0);\n        // Make sure file type exists\n        require(bytes(_fileType).length > 0);\n        // Make sure file description exists\n        require(bytes(_fileDescription).length > 0);\n        // Make sure file fileName exists\n        require(bytes(_fileName).length > 0);\n        // Make sure uploader address exists\n        require(msg.sender != address(0));\n        // Make sure file size is more than 0\n        require(_fileSize > 0);\n\n        // Increment file id\n        fileCount++;\n\n        // Add File to the contract\n        files[fileCount] = File(\n            fileCount,\n            _fileHash,\n            _fileSize,\n            _fileType,\n            _fileName,\n            _fileDescription,\n            block.timestamp,\n            msg.sender\n        );\n        // Trigger an event\n        emit FileUploaded(\n            fileCount,\n            _fileHash,\n            _fileSize,\n            _fileType,\n            _fileName,\n            _fileDescription,\n            block.timestamp,\n            msg.sender\n        );\n    }\n\n    // user registration function\n    function register(\n        address _address,\n        string memory _name,\n        string memory _password,\n        string memory _cnic\n    ) public returns (bool) {\n        require(user[_address].addr != msg.sender);\n        user[_address].addr = _address;\n        user[_address].name = _name;\n        user[_address].password = _password;\n        user[_address].CNIC = _cnic;\n        user[_address].isUserLoggedIn = false;\n        return true;\n    }\n\n    // user login function\n    function login(address _address, string memory _password)\n        public\n        returns (bool)\n    {\n        if (\n            keccak256(abi.encodePacked(user[_address].password)) ==\n            keccak256(abi.encodePacked(_password))\n        ) {\n            user[_address].isUserLoggedIn = true;\n            return user[_address].isUserLoggedIn;\n        } else {\n            return false;\n        }\n    }\n\n    // check the user logged In or not\n    function checkIsUserLogged(address _address) public view returns (bool) {\n        return (user[_address].isUserLoggedIn);\n    }\n\n    // logout the user\n    function logout(address _address) public {\n        user[_address].isUserLoggedIn = false;\n    }\n\n    function addTransaction(\n        address _userAddress,\n        string memory _userName,\n        string memory _fileName,\n        string memory _fileHash,\n        string memory _transactionType,\n        uint256 _changeLevel\n    ) public {\n        Transaction memory temp;\n        temp.userAddress = _userAddress;\n        temp.userName = _userName;\n        temp.fileName = _fileName;\n        temp.fileHash = _fileHash;\n        temp.transactionType = _transactionType;\n        temp.changeLevel = _changeLevel;\n        transactions.push(temp);\n\n        emit transactionAdded(temp);\n        /*\n        emit transactionAdded(\n            _userAddress,\n            _userName,\n            _fileName,\n            _fileHash,\n            _transactionType,\n            _changeLevel\n        );\n        */\n    }\n\n    function set(uint256 x) public {\n        storedData = x;\n    }\n\n    function get() public view returns (uint256) {\n        return storedData;\n    }\n}\n",
  "sourcePath": "C:\\Users\\Shaun\\Desktop\\THESIS\\eth-archive-test\\contracts\\SimpleStorage.sol",
  "compiler": {
    "name": "solc",
    "version": "0.8.11+commit.d7f03943.Emscripten.clang"
  },
  "schemaVersion": "3.4.3",
  "updatedAt": "2021-12-21T09:01:33.771Z",
  "devdoc": {
    "kind": "dev",
    "methods": {},
    "version": 1
  },
  "userdoc": {
    "kind": "user",
    "methods": {},
    "version": 1
  }
}