{
  "contractName": "SimpleStorage",
  "abi": [
    {
      "inputs": [],
      "stateMutability": "nonpayable",
      "type": "constructor"
    },
    {
      "anonymous": false,
      "inputs": [
        {
          "indexed": false,
          "internalType": "string",
          "name": "fileHash",
          "type": "string"
        },
        {
          "indexed": false,
          "internalType": "uint256",
          "name": "fileSize",
          "type": "uint256"
        },
        {
          "indexed": false,
          "internalType": "string",
          "name": "fileType",
          "type": "string"
        },
        {
          "indexed": false,
          "internalType": "string",
          "name": "fileName",
          "type": "string"
        },
        {
          "indexed": false,
          "internalType": "uint256",
          "name": "uploadTime",
          "type": "uint256"
        },
        {
          "indexed": false,
          "internalType": "address",
          "name": "uploader",
          "type": "address"
        },
        {
          "indexed": false,
          "internalType": "uint256",
          "name": "lastChange",
          "type": "uint256"
        },
        {
          "indexed": false,
          "internalType": "uint256",
          "name": "lastSize",
          "type": "uint256"
        }
      ],
      "name": "FileUpdated",
      "type": "event"
    },
    {
      "anonymous": false,
      "inputs": [
        {
          "indexed": false,
          "internalType": "uint256",
          "name": "fileId",
          "type": "uint256"
        },
        {
          "indexed": false,
          "internalType": "string",
          "name": "fileHash",
          "type": "string"
        },
        {
          "indexed": false,
          "internalType": "uint256",
          "name": "fileSize",
          "type": "uint256"
        },
        {
          "indexed": false,
          "internalType": "string",
          "name": "fileType",
          "type": "string"
        },
        {
          "indexed": false,
          "internalType": "string",
          "name": "fileName",
          "type": "string"
        },
        {
          "indexed": false,
          "internalType": "string",
          "name": "fileDescription",
          "type": "string"
        },
        {
          "indexed": false,
          "internalType": "uint256",
          "name": "uploadTime",
          "type": "uint256"
        },
        {
          "indexed": false,
          "internalType": "address",
          "name": "uploader",
          "type": "address"
        },
        {
          "indexed": false,
          "internalType": "uint256",
          "name": "lastChange",
          "type": "uint256"
        },
        {
          "indexed": false,
          "internalType": "uint256",
          "name": "lastSize",
          "type": "uint256"
        }
      ],
      "name": "FileUploaded",
      "type": "event"
    },
    {
      "inputs": [],
      "name": "fileIDs",
      "outputs": [
        {
          "internalType": "uint256",
          "name": "",
          "type": "uint256"
        }
      ],
      "stateMutability": "view",
      "type": "function"
    },
    {
      "inputs": [],
      "name": "fileNum",
      "outputs": [
        {
          "internalType": "uint256",
          "name": "",
          "type": "uint256"
        }
      ],
      "stateMutability": "view",
      "type": "function"
    },
    {
      "inputs": [
        {
          "internalType": "uint256",
          "name": "",
          "type": "uint256"
        }
      ],
      "name": "files",
      "outputs": [
        {
          "internalType": "uint256",
          "name": "fileId",
          "type": "uint256"
        },
        {
          "internalType": "string",
          "name": "fileHash",
          "type": "string"
        },
        {
          "internalType": "uint256",
          "name": "fileSize",
          "type": "uint256"
        },
        {
          "internalType": "string",
          "name": "fileType",
          "type": "string"
        },
        {
          "internalType": "string",
          "name": "fileName",
          "type": "string"
        },
        {
          "internalType": "string",
          "name": "fileDescription",
          "type": "string"
        },
        {
          "internalType": "uint256",
          "name": "uploadTime",
          "type": "uint256"
        },
        {
          "internalType": "address",
          "name": "uploader",
          "type": "address"
        },
        {
          "internalType": "uint256",
          "name": "lastChange",
          "type": "uint256"
        },
        {
          "internalType": "uint256",
          "name": "lastSize",
          "type": "uint256"
        }
      ],
      "stateMutability": "view",
      "type": "function"
    },
    {
      "inputs": [],
      "name": "name",
      "outputs": [
        {
          "internalType": "string",
          "name": "",
          "type": "string"
        }
      ],
      "stateMutability": "view",
      "type": "function"
    },
    {
      "inputs": [],
      "name": "transactionCount",
      "outputs": [
        {
          "internalType": "uint256",
          "name": "",
          "type": "uint256"
        }
      ],
      "stateMutability": "view",
      "type": "function"
    },
    {
      "inputs": [
        {
          "internalType": "string",
          "name": "_fileHash",
          "type": "string"
        },
        {
          "internalType": "uint256",
          "name": "_fileSize",
          "type": "uint256"
        },
        {
          "internalType": "string",
          "name": "_fileType",
          "type": "string"
        },
        {
          "internalType": "string",
          "name": "_fileName",
          "type": "string"
        },
        {
          "internalType": "string",
          "name": "_fileDescription",
          "type": "string"
        }
      ],
      "name": "uploadFile",
      "outputs": [],
      "stateMutability": "nonpayable",
      "type": "function"
    },
    {
      "inputs": [
        {
          "internalType": "string",
          "name": "_fileHash",
          "type": "string"
        },
        {
          "internalType": "uint256",
          "name": "_fileSize",
          "type": "uint256"
        },
        {
          "internalType": "string",
          "name": "_fileType",
          "type": "string"
        },
        {
          "internalType": "string",
          "name": "_fileName",
          "type": "string"
        },
        {
          "internalType": "uint256",
          "name": "_fileID",
          "type": "uint256"
        },
        {
          "internalType": "uint256",
          "name": "_changeValue",
          "type": "uint256"
        },
        {
          "internalType": "uint256",
          "name": "_lastSize",
          "type": "uint256"
        }
      ],
      "name": "updateFile",
      "outputs": [],
      "stateMutability": "nonpayable",
      "type": "function"
    },
    {
      "inputs": [
        {
          "internalType": "uint256",
          "name": "_fileID",
          "type": "uint256"
        }
      ],
      "name": "getFile",
      "outputs": [
        {
          "components": [
            {
              "internalType": "uint256",
              "name": "fileId",
              "type": "uint256"
            },
            {
              "internalType": "string",
              "name": "fileHash",
              "type": "string"
            },
            {
              "internalType": "uint256",
              "name": "fileSize",
              "type": "uint256"
            },
            {
              "internalType": "string",
              "name": "fileType",
              "type": "string"
            },
            {
              "internalType": "string",
              "name": "fileName",
              "type": "string"
            },
            {
              "internalType": "string",
              "name": "fileDescription",
              "type": "string"
            },
            {
              "internalType": "uint256",
              "name": "uploadTime",
              "type": "uint256"
            },
            {
              "internalType": "address",
              "name": "uploader",
              "type": "address"
            },
            {
              "internalType": "uint256",
              "name": "lastChange",
              "type": "uint256"
            },
            {
              "internalType": "uint256",
              "name": "lastSize",
              "type": "uint256"
            }
          ],
          "internalType": "struct SimpleStorage.File",
          "name": "",
          "type": "tuple"
        }
      ],
      "stateMutability": "view",
      "type": "function"
    },
    {
      "inputs": [
        {
          "internalType": "uint256[]",
          "name": "_fileID",
          "type": "uint256[]"
        }
      ],
      "name": "deleteFile",
      "outputs": [],
      "stateMutability": "nonpayable",
      "type": "function"
    },
    {
      "inputs": [
        {
          "internalType": "address",
          "name": "_address",
          "type": "address"
        },
        {
          "internalType": "string",
          "name": "_name",
          "type": "string"
        },
        {
          "internalType": "string",
          "name": "_password",
          "type": "string"
        }
      ],
      "name": "register",
      "outputs": [
        {
          "internalType": "bool",
          "name": "",
          "type": "bool"
        }
      ],
      "stateMutability": "nonpayable",
      "type": "function"
    },
    {
      "inputs": [
        {
          "internalType": "address",
          "name": "_address",
          "type": "address"
        },
        {
          "internalType": "string",
          "name": "_password",
          "type": "string"
        }
      ],
      "name": "login",
      "outputs": [
        {
          "internalType": "bool",
          "name": "",
          "type": "bool"
        }
      ],
      "stateMutability": "nonpayable",
      "type": "function"
    },
    {
      "inputs": [
        {
          "internalType": "address",
          "name": "_address",
          "type": "address"
        }
      ],
      "name": "checkIsUserLogged",
      "outputs": [
        {
          "internalType": "bool",
          "name": "",
          "type": "bool"
        }
      ],
      "stateMutability": "view",
      "type": "function"
    },
    {
      "inputs": [
        {
          "internalType": "address",
          "name": "_address",
          "type": "address"
        }
      ],
      "name": "checkUserName",
      "outputs": [
        {
          "internalType": "string",
          "name": "",
          "type": "string"
        }
      ],
      "stateMutability": "view",
      "type": "function"
    },
    {
      "inputs": [
        {
          "internalType": "address",
          "name": "_address",
          "type": "address"
        }
      ],
      "name": "logout",
      "outputs": [],
      "stateMutability": "nonpayable",
      "type": "function"
    },
    {
      "inputs": [],
      "name": "getAllTransactions",
      "outputs": [
        {
          "components": [
            {
              "internalType": "address",
              "name": "userAddress",
              "type": "address"
            },
            {
              "internalType": "string",
              "name": "userName",
              "type": "string"
            },
            {
              "internalType": "uint256",
              "name": "fileId",
              "type": "uint256"
            },
            {
              "internalType": "string",
              "name": "fileName",
              "type": "string"
            },
            {
              "internalType": "string",
              "name": "fileHash",
              "type": "string"
            },
            {
              "internalType": "uint256",
              "name": "fileSize",
              "type": "uint256"
            },
            {
              "internalType": "string",
              "name": "transactionType",
              "type": "string"
            },
            {
              "internalType": "uint256",
              "name": "changeLevel",
              "type": "uint256"
            },
            {
              "internalType": "uint256",
              "name": "uploadTime",
              "type": "uint256"
            },
            {
              "internalType": "uint256",
              "name": "lastSize",
              "type": "uint256"
            }
          ],
          "internalType": "struct SimpleStorage.Transaction[]",
          "name": "",
          "type": "tuple[]"
        }
      ],
      "stateMutability": "view",
      "type": "function"
    }
  ],
  "bytecode": "0x60806040526040518060400160405280600b81526020017f4172636853746f72616765000000000000000000000000000000000000000000815250600090805190602001906200005192919062000075565b506000600155600060025560006003553480156200006e57600080fd5b506200018a565b828054620000839062000154565b90600052602060002090601f016020900481019282620000a75760008555620000f3565b82601f10620000c257805160ff1916838001178555620000f3565b82800160010185558215620000f3579182015b82811115620000f2578251825591602001919060010190620000d5565b5b50905062000102919062000106565b5090565b5b808211156200012157600081600090555060010162000107565b5090565b7f4e487b7100000000000000000000000000000000000000000000000000000000600052602260045260246000fd5b600060028204905060018216806200016d57607f821691505b6020821081141562000184576200018362000125565b5b50919050565b6132e5806200019a6000396000f3fe608060405234801561001057600080fd5b50600436106100f55760003560e01c806361ea238811610097578063b77bf60011610066578063b77bf6001461029a578063cc51f9b9146102b8578063e82d9d33146102d4578063f4c714b4146102f0576100f5565b806361ea23881461020057806370242ee4146102305780638d59cc021461024c5780639fb8070a1461027c576100f5565b8063297f7b39116100d3578063297f7b39146101545780632bfda313146101845780632f19d50b146101b4578063567b6c13146101e4576100f5565b806306fdde03146100fa57806325c2e12c1461011857806327506f5314610136575b600080fd5b610102610329565b60405161010f9190612440565b60405180910390f35b6101206103b7565b60405161012d919061247b565b60405180910390f35b61013e6103bd565b60405161014b91906126e1565b60405180910390f35b61016e60048036038101906101699190612743565b6106ed565b60405161017b919061278b565b60405180910390f35b61019e600480360381019061019991906127d2565b610746565b6040516101ab91906128ee565b60405180910390f35b6101ce60048036038101906101c99190612a45565b610a44565b6040516101db919061278b565b60405180910390f35b6101fe60048036038101906101f99190612aa1565b610b98565b005b61021a60048036038101906102159190612743565b61112d565b6040516102279190612440565b60405180910390f35b61024a60048036038101906102459190612c5f565b611201565b005b61026660048036038101906102619190612ca8565b611788565b604051610273919061278b565b60405180910390f35b6102846119ba565b604051610291919061247b565b60405180910390f35b6102a26119c0565b6040516102af919061247b565b60405180910390f35b6102d260048036038101906102cd9190612743565b6119c6565b005b6102ee60048036038101906102e99190612d33565b611a24565b005b61030a600480360381019061030591906127d2565b611f5e565b6040516103209a99989796959493929190612e2d565b60405180910390f35b6000805461033690612f14565b80601f016020809104026020016040519081016040528092919081815260200182805461036290612f14565b80156103af5780601f10610384576101008083540402835291602001916103af565b820191906000526020600020905b81548152906001019060200180831161039257829003601f168201915b505050505081565b60025481565b60606006805480602002602001604051908101604052809291908181526020016000905b828210156106e457838290600052602060002090600a0201604051806101400160405290816000820160009054906101000a900473ffffffffffffffffffffffffffffffffffffffff1673ffffffffffffffffffffffffffffffffffffffff1673ffffffffffffffffffffffffffffffffffffffff16815260200160018201805461046b90612f14565b80601f016020809104026020016040519081016040528092919081815260200182805461049790612f14565b80156104e45780601f106104b9576101008083540402835291602001916104e4565b820191906000526020600020905b8154815290600101906020018083116104c757829003601f168201915b505050505081526020016002820154815260200160038201805461050790612f14565b80601f016020809104026020016040519081016040528092919081815260200182805461053390612f14565b80156105805780601f1061055557610100808354040283529160200191610580565b820191906000526020600020905b81548152906001019060200180831161056357829003601f168201915b5050505050815260200160048201805461059990612f14565b80601f01602080910402602001604051908101604052809291908181526020018280546105c590612f14565b80156106125780601f106105e757610100808354040283529160200191610612565b820191906000526020600020905b8154815290600101906020018083116105f557829003601f168201915b505050505081526020016005820154815260200160068201805461063590612f14565b80601f016020809104026020016040519081016040528092919081815260200182805461066190612f14565b80156106ae5780601f10610683576101008083540402835291602001916106ae565b820191906000526020600020905b81548152906001019060200180831161069157829003601f168201915b505050505081526020016007820154815260200160088201548152602001600982015481525050815260200190600101906103e1565b50505050905090565b6000600560008373ffffffffffffffffffffffffffffffffffffffff1673ffffffffffffffffffffffffffffffffffffffff16815260200190815260200160002060030160009054906101000a900460ff169050919050565b61074e6121f2565b60046000838152602001908152602001600020604051806101400160405290816000820154815260200160018201805461078790612f14565b80601f01602080910402602001604051908101604052809291908181526020018280546107b390612f14565b80156108005780601f106107d557610100808354040283529160200191610800565b820191906000526020600020905b8154815290600101906020018083116107e357829003601f168201915b505050505081526020016002820154815260200160038201805461082390612f14565b80601f016020809104026020016040519081016040528092919081815260200182805461084f90612f14565b801561089c5780601f106108715761010080835404028352916020019161089c565b820191906000526020600020905b81548152906001019060200180831161087f57829003601f168201915b505050505081526020016004820180546108b590612f14565b80601f01602080910402602001604051908101604052809291908181526020018280546108e190612f14565b801561092e5780601f106109035761010080835404028352916020019161092e565b820191906000526020600020905b81548152906001019060200180831161091157829003601f168201915b5050505050815260200160058201805461094790612f14565b80601f016020809104026020016040519081016040528092919081815260200182805461097390612f14565b80156109c05780601f10610995576101008083540402835291602001916109c0565b820191906000526020600020905b8154815290600101906020018083116109a357829003601f168201915b50505050508152602001600682015481526020016007820160009054906101000a900473ffffffffffffffffffffffffffffffffffffffff1673ffffffffffffffffffffffffffffffffffffffff1673ffffffffffffffffffffffffffffffffffffffff168152602001600882015481526020016009820154815250509050919050565b600081604051602001610a579190612f82565b60405160208183030381529060405280519060200120600560008573ffffffffffffffffffffffffffffffffffffffff1673ffffffffffffffffffffffffffffffffffffffff168152602001908152602001600020600201604051602001610abf919061302d565b604051602081830303815290604052805190602001201415610b8d576001600560008573ffffffffffffffffffffffffffffffffffffffff1673ffffffffffffffffffffffffffffffffffffffff16815260200190815260200160002060030160006101000a81548160ff021916908315150217905550600560008473ffffffffffffffffffffffffffffffffffffffff1673ffffffffffffffffffffffffffffffffffffffff16815260200190815260200160002060030160009054906101000a900460ff169050610b92565b600090505b92915050565b6000875111610ba657600080fd5b6000855111610bb457600080fd5b6000845111610bc257600080fd5b600073ffffffffffffffffffffffffffffffffffffffff163373ffffffffffffffffffffffffffffffffffffffff161415610bfc57600080fd5b60008611610c0957600080fd5b600083118015610c1b57506001548311155b610c2457600080fd5b6000821015610c3257600080fd5b86600460008581526020019081526020016000206001019080519060200190610c5c92919061225b565b5085600460008581526020019081526020016000206002018190555084600460008581526020019081526020016000206003019080519060200190610ca292919061225b565b5083600460008581526020019081526020016000206004019080519060200190610ccd92919061225b565b50426004600085815260200190815260200160002060060181905550336004600085815260200190815260200160002060070160006101000a81548173ffffffffffffffffffffffffffffffffffffffff021916908373ffffffffffffffffffffffffffffffffffffffff160217905550816004600085815260200190815260200160002060080181905550806004600085815260200190815260200160002060090181905550610d7c6122e1565b33816000019073ffffffffffffffffffffffffffffffffffffffff16908173ffffffffffffffffffffffffffffffffffffffff1681525050600560003373ffffffffffffffffffffffffffffffffffffffff1673ffffffffffffffffffffffffffffffffffffffff1681526020019081526020016000206001018054610e0190612f14565b80601f0160208091040260200160405190810160405280929190818152602001828054610e2d90612f14565b8015610e7a5780601f10610e4f57610100808354040283529160200191610e7a565b820191906000526020600020905b815481529060010190602001808311610e5d57829003601f168201915b5050505050816020018190525083816040018181525050600460008581526020019081526020016000206004018054610eb290612f14565b80601f0160208091040260200160405190810160405280929190818152602001828054610ede90612f14565b8015610f2b5780601f10610f0057610100808354040283529160200191610f2b565b820191906000526020600020905b815481529060010190602001808311610f0e57829003601f168201915b50505050508160600181905250878160800181905250868160a00181815250506040518060400160405280600681526020017f55504441544500000000000000000000000000000000000000000000000000008152508160c00181905250828160e00181815250504281610100018181525050818161012001818152505060068190806001815401808255809150506001900390600052602060002090600a020160009091909190915060008201518160000160006101000a81548173ffffffffffffffffffffffffffffffffffffffff021916908373ffffffffffffffffffffffffffffffffffffffff160217905550602082015181600101908051906020019061103892919061225b565b5060408201518160020155606082015181600301908051906020019061105f92919061225b565b50608082015181600401908051906020019061107c92919061225b565b5060a0820151816005015560c08201518160060190805190602001906110a392919061225b565b5060e08201518160070155610100820151816008015561012082015181600901555050600360008154809291906110d990613073565b91905055507f24ba57b53df673cdc28df08112002b7a30bbcd5d3da848543b98cf84174b7594888888884233898960405161111b9897969594939291906130bc565b60405180910390a15050505050505050565b6060600560008373ffffffffffffffffffffffffffffffffffffffff1673ffffffffffffffffffffffffffffffffffffffff168152602001908152602001600020600101805461117c90612f14565b80601f01602080910402602001604051908101604052809291908181526020018280546111a890612f14565b80156111f55780601f106111ca576101008083540402835291602001916111f5565b820191906000526020600020905b8154815290600101906020018083116111d857829003601f168201915b50505050509050919050565b600081511161120f57600080fd5b60005b8151811015611784576112236122e1565b33816000019073ffffffffffffffffffffffffffffffffffffffff16908173ffffffffffffffffffffffffffffffffffffffff1681525050600560003373ffffffffffffffffffffffffffffffffffffffff1673ffffffffffffffffffffffffffffffffffffffff16815260200190815260200160002060010180546112a890612f14565b80601f01602080910402602001604051908101604052809291908181526020018280546112d490612f14565b80156113215780601f106112f657610100808354040283529160200191611321565b820191906000526020600020905b81548152906001019060200180831161130457829003601f168201915b505050505081602001819052508282815181106113415761134061314f565b5b6020026020010151816040018181525050600460008484815181106113695761136861314f565b5b60200260200101518152602001908152602001600020600401805461138d90612f14565b80601f01602080910402602001604051908101604052809291908181526020018280546113b990612f14565b80156114065780601f106113db57610100808354040283529160200191611406565b820191906000526020600020905b8154815290600101906020018083116113e957829003601f168201915b505050505081606001819052506004600084848151811061142a5761142961314f565b5b60200260200101518152602001908152602001600020600101805461144e90612f14565b80601f016020809104026020016040519081016040528092919081815260200182805461147a90612f14565b80156114c75780601f1061149c576101008083540402835291602001916114c7565b820191906000526020600020905b8154815290600101906020018083116114aa57829003601f168201915b50505050508160800181905250600460008484815181106114eb576114ea61314f565b5b60200260200101518152602001908152602001600020600201548160a00181815250506040518060400160405280600681526020017f44454c45544500000000000000000000000000000000000000000000000000008152508160c0018190525060008160e0018181525050428161010001818152505060068190806001815401808255809150506001900390600052602060002090600a020160009091909190915060008201518160000160006101000a81548173ffffffffffffffffffffffffffffffffffffffff021916908373ffffffffffffffffffffffffffffffffffffffff16021790555060208201518160010190805190602001906115f192919061225b565b5060408201518160020155606082015181600301908051906020019061161892919061225b565b50608082015181600401908051906020019061163592919061225b565b5060a0820151816005015560c082015181600601908051906020019061165c92919061225b565b5060e082015181600701556101008201518160080155610120820151816009015550506003600081548092919061169290613073565b9190505550600460008484815181106116ae576116ad61314f565b5b602002602001015181526020019081526020016000206000808201600090556001820160006116dd919061234a565b60028201600090556003820160006116f5919061234a565b600482016000611705919061234a565b600582016000611715919061234a565b60068201600090556007820160006101000a81549073ffffffffffffffffffffffffffffffffffffffff0219169055600882016000905560098201600090555050600160026000828254611769919061317e565b9250508190555050808061177c90613073565b915050611212565b5050565b60003373ffffffffffffffffffffffffffffffffffffffff16600560008673ffffffffffffffffffffffffffffffffffffffff1673ffffffffffffffffffffffffffffffffffffffff16815260200190815260200160002060000160009054906101000a900473ffffffffffffffffffffffffffffffffffffffff1673ffffffffffffffffffffffffffffffffffffffff16141561182557600080fd5b83600560008673ffffffffffffffffffffffffffffffffffffffff1673ffffffffffffffffffffffffffffffffffffffff16815260200190815260200160002060000160006101000a81548173ffffffffffffffffffffffffffffffffffffffff021916908373ffffffffffffffffffffffffffffffffffffffff16021790555082600560008673ffffffffffffffffffffffffffffffffffffffff1673ffffffffffffffffffffffffffffffffffffffff16815260200190815260200160002060010190805190602001906118fc92919061225b565b5081600560008673ffffffffffffffffffffffffffffffffffffffff1673ffffffffffffffffffffffffffffffffffffffff168152602001908152602001600020600201908051906020019061195392919061225b565b506000600560008673ffffffffffffffffffffffffffffffffffffffff1673ffffffffffffffffffffffffffffffffffffffff16815260200190815260200160002060030160006101000a81548160ff021916908315150217905550600190509392505050565b60015481565b60035481565b6000600560008373ffffffffffffffffffffffffffffffffffffffff1673ffffffffffffffffffffffffffffffffffffffff16815260200190815260200160002060030160006101000a81548160ff02191690831515021790555050565b6000855111611a3257600080fd5b6000835111611a4057600080fd5b6000815111611a4e57600080fd5b6000825111611a5c57600080fd5b600073ffffffffffffffffffffffffffffffffffffffff163373ffffffffffffffffffffffffffffffffffffffff161415611a9657600080fd5b60008411611aa357600080fd5b60016000815480929190611ab690613073565b919050555060026000815480929190611ace90613073565b919050555060405180610140016040528060015481526020018681526020018581526020018481526020018381526020018281526020014281526020013373ffffffffffffffffffffffffffffffffffffffff168152602001600081526020016000815250600460006001548152602001908152602001600020600082015181600001556020820151816001019080519060200190611b6e92919061225b565b50604082015181600201556060820151816003019080519060200190611b9592919061225b565b506080820151816004019080519060200190611bb292919061225b565b5060a0820151816005019080519060200190611bcf92919061225b565b5060c0820151816006015560e08201518160070160006101000a81548173ffffffffffffffffffffffffffffffffffffffff021916908373ffffffffffffffffffffffffffffffffffffffff16021790555061010082015181600801556101208201518160090155905050611c426122e1565b33816000019073ffffffffffffffffffffffffffffffffffffffff16908173ffffffffffffffffffffffffffffffffffffffff1681525050600560003373ffffffffffffffffffffffffffffffffffffffff1673ffffffffffffffffffffffffffffffffffffffff1681526020019081526020016000206001018054611cc790612f14565b80601f0160208091040260200160405190810160405280929190818152602001828054611cf390612f14565b8015611d405780601f10611d1557610100808354040283529160200191611d40565b820191906000526020600020905b815481529060010190602001808311611d2357829003601f168201915b50505050508160200181905250600154816040018181525050828160600181905250858160800181905250848160a00181815250506040518060400160405280600381526020017f41444400000000000000000000000000000000000000000000000000000000008152508160c0018190525060008160e0018181525050600081610120018181525050428161010001818152505060068190806001815401808255809150506001900390600052602060002090600a020160009091909190915060008201518160000160006101000a81548173ffffffffffffffffffffffffffffffffffffffff021916908373ffffffffffffffffffffffffffffffffffffffff1602179055506020820151816001019080519060200190611e6492919061225b565b50604082015181600201556060820151816003019080519060200190611e8b92919061225b565b506080820151816004019080519060200190611ea892919061225b565b5060a0820151816005015560c0820151816006019080519060200190611ecf92919061225b565b5060e0820151816007015561010082015181600801556101208201518160090155505060036000815480929190611f0590613073565b91905055507f4ac95c3f22439238bd535f2f940912d5f3601ea973564b7a2d9d4547203af05c60015487878787874233600080604051611f4e9a999897969594939291906131f7565b60405180910390a1505050505050565b6004602052806000526040600020600091509050806000015490806001018054611f8790612f14565b80601f0160208091040260200160405190810160405280929190818152602001828054611fb390612f14565b80156120005780601f10611fd557610100808354040283529160200191612000565b820191906000526020600020905b815481529060010190602001808311611fe357829003601f168201915b50505050509080600201549080600301805461201b90612f14565b80601f016020809104026020016040519081016040528092919081815260200182805461204790612f14565b80156120945780601f1061206957610100808354040283529160200191612094565b820191906000526020600020905b81548152906001019060200180831161207757829003601f168201915b5050505050908060040180546120a990612f14565b80601f01602080910402602001604051908101604052809291908181526020018280546120d590612f14565b80156121225780601f106120f757610100808354040283529160200191612122565b820191906000526020600020905b81548152906001019060200180831161210557829003601f168201915b50505050509080600501805461213790612f14565b80601f016020809104026020016040519081016040528092919081815260200182805461216390612f14565b80156121b05780601f10612185576101008083540402835291602001916121b0565b820191906000526020600020905b81548152906001019060200180831161219357829003601f168201915b5050505050908060060154908060070160009054906101000a900473ffffffffffffffffffffffffffffffffffffffff1690806008015490806009015490508a565b60405180610140016040528060008152602001606081526020016000815260200160608152602001606081526020016060815260200160008152602001600073ffffffffffffffffffffffffffffffffffffffff16815260200160008152602001600081525090565b82805461226790612f14565b90600052602060002090601f01602090048101928261228957600085556122d0565b82601f106122a257805160ff19168380011785556122d0565b828001600101855582156122d0579182015b828111156122cf5782518255916020019190600101906122b4565b5b5090506122dd919061238a565b5090565b604051806101400160405280600073ffffffffffffffffffffffffffffffffffffffff1681526020016060815260200160008152602001606081526020016060815260200160008152602001606081526020016000815260200160008152602001600081525090565b50805461235690612f14565b6000825580601f106123685750612387565b601f016020900490600052602060002090810190612386919061238a565b5b50565b5b808211156123a357600081600090555060010161238b565b5090565b600081519050919050565b600082825260208201905092915050565b60005b838110156123e15780820151818401526020810190506123c6565b838111156123f0576000848401525b50505050565b6000601f19601f8301169050919050565b6000612412826123a7565b61241c81856123b2565b935061242c8185602086016123c3565b612435816123f6565b840191505092915050565b6000602082019050818103600083015261245a8184612407565b905092915050565b6000819050919050565b61247581612462565b82525050565b6000602082019050612490600083018461246c565b92915050565b600081519050919050565b600082825260208201905092915050565b6000819050602082019050919050565b600073ffffffffffffffffffffffffffffffffffffffff82169050919050565b60006124ed826124c2565b9050919050565b6124fd816124e2565b82525050565b600082825260208201905092915050565b600061251f826123a7565b6125298185612503565b93506125398185602086016123c3565b612542816123f6565b840191505092915050565b61255681612462565b82525050565b60006101408301600083015161257560008601826124f4565b506020830151848203602086015261258d8282612514565b91505060408301516125a2604086018261254d565b50606083015184820360608601526125ba8282612514565b915050608083015184820360808601526125d48282612514565b91505060a08301516125e960a086018261254d565b5060c083015184820360c08601526126018282612514565b91505060e083015161261660e086018261254d565b5061010083015161262b61010086018261254d565b5061012083015161264061012086018261254d565b508091505092915050565b6000612657838361255c565b905092915050565b6000602082019050919050565b600061267782612496565b61268181856124a1565b935083602082028501612693856124b2565b8060005b858110156126cf57848403895281516126b0858261264b565b94506126bb8361265f565b925060208a01995050600181019050612697565b50829750879550505050505092915050565b600060208201905081810360008301526126fb818461266c565b905092915050565b6000604051905090565b600080fd5b600080fd5b612720816124e2565b811461272b57600080fd5b50565b60008135905061273d81612717565b92915050565b6000602082840312156127595761275861270d565b5b60006127678482850161272e565b91505092915050565b60008115159050919050565b61278581612770565b82525050565b60006020820190506127a0600083018461277c565b92915050565b6127af81612462565b81146127ba57600080fd5b50565b6000813590506127cc816127a6565b92915050565b6000602082840312156127e8576127e761270d565b5b60006127f6848285016127bd565b91505092915050565b600061014083016000830151612818600086018261254d565b50602083015184820360208601526128308282612514565b9150506040830151612845604086018261254d565b506060830151848203606086015261285d8282612514565b915050608083015184820360808601526128778282612514565b91505060a083015184820360a08601526128918282612514565b91505060c08301516128a660c086018261254d565b5060e08301516128b960e08601826124f4565b506101008301516128ce61010086018261254d565b506101208301516128e361012086018261254d565b508091505092915050565b6000602082019050818103600083015261290881846127ff565b905092915050565b600080fd5b600080fd5b7f4e487b7100000000000000000000000000000000000000000000000000000000600052604160045260246000fd5b612952826123f6565b810181811067ffffffffffffffff821117156129715761297061291a565b5b80604052505050565b6000612984612703565b90506129908282612949565b919050565b600067ffffffffffffffff8211156129b0576129af61291a565b5b6129b9826123f6565b9050602081019050919050565b82818337600083830152505050565b60006129e86129e384612995565b61297a565b905082815260208101848484011115612a0457612a03612915565b5b612a0f8482856129c6565b509392505050565b600082601f830112612a2c57612a2b612910565b5b8135612a3c8482602086016129d5565b91505092915050565b60008060408385031215612a5c57612a5b61270d565b5b6000612a6a8582860161272e565b925050602083013567ffffffffffffffff811115612a8b57612a8a612712565b5b612a9785828601612a17565b9150509250929050565b600080600080600080600060e0888a031215612ac057612abf61270d565b5b600088013567ffffffffffffffff811115612ade57612add612712565b5b612aea8a828b01612a17565b9750506020612afb8a828b016127bd565b965050604088013567ffffffffffffffff811115612b1c57612b1b612712565b5b612b288a828b01612a17565b955050606088013567ffffffffffffffff811115612b4957612b48612712565b5b612b558a828b01612a17565b9450506080612b668a828b016127bd565b93505060a0612b778a828b016127bd565b92505060c0612b888a828b016127bd565b91505092959891949750929550565b600067ffffffffffffffff821115612bb257612bb161291a565b5b602082029050602081019050919050565b600080fd5b6000612bdb612bd684612b97565b61297a565b90508083825260208201905060208402830185811115612bfe57612bfd612bc3565b5b835b81811015612c275780612c1388826127bd565b845260208401935050602081019050612c00565b5050509392505050565b600082601f830112612c4657612c45612910565b5b8135612c56848260208601612bc8565b91505092915050565b600060208284031215612c7557612c7461270d565b5b600082013567ffffffffffffffff811115612c9357612c92612712565b5b612c9f84828501612c31565b91505092915050565b600080600060608486031215612cc157612cc061270d565b5b6000612ccf8682870161272e565b935050602084013567ffffffffffffffff811115612cf057612cef612712565b5b612cfc86828701612a17565b925050604084013567ffffffffffffffff811115612d1d57612d1c612712565b5b612d2986828701612a17565b9150509250925092565b600080600080600060a08688031215612d4f57612d4e61270d565b5b600086013567ffffffffffffffff811115612d6d57612d6c612712565b5b612d7988828901612a17565b9550506020612d8a888289016127bd565b945050604086013567ffffffffffffffff811115612dab57612daa612712565b5b612db788828901612a17565b935050606086013567ffffffffffffffff811115612dd857612dd7612712565b5b612de488828901612a17565b925050608086013567ffffffffffffffff811115612e0557612e04612712565b5b612e1188828901612a17565b9150509295509295909350565b612e27816124e2565b82525050565b600061014082019050612e43600083018d61246c565b8181036020830152612e55818c612407565b9050612e64604083018b61246c565b8181036060830152612e76818a612407565b90508181036080830152612e8a8189612407565b905081810360a0830152612e9e8188612407565b9050612ead60c083018761246c565b612eba60e0830186612e1e565b612ec861010083018561246c565b612ed661012083018461246c565b9b9a5050505050505050505050565b7f4e487b7100000000000000000000000000000000000000000000000000000000600052602260045260246000fd5b60006002820490506001821680612f2c57607f821691505b60208210811415612f4057612f3f612ee5565b5b50919050565b600081905092915050565b6000612f5c826123a7565b612f668185612f46565b9350612f768185602086016123c3565b80840191505092915050565b6000612f8e8284612f51565b915081905092915050565b60008190508160005260206000209050919050565b60008154612fbb81612f14565b612fc58186612f46565b94506001821660008114612fe05760018114612ff157613024565b60ff19831686528186019350613024565b612ffa85612f99565b60005b8381101561301c57815481890152600182019150602081019050612ffd565b838801955050505b50505092915050565b60006130398284612fae565b915081905092915050565b7f4e487b7100000000000000000000000000000000000000000000000000000000600052601160045260246000fd5b600061307e82612462565b91507fffffffffffffffffffffffffffffffffffffffffffffffffffffffffffffffff8214156130b1576130b0613044565b5b600182019050919050565b60006101008201905081810360008301526130d7818b612407565b90506130e6602083018a61246c565b81810360408301526130f88189612407565b9050818103606083015261310c8188612407565b905061311b608083018761246c565b61312860a0830186612e1e565b61313560c083018561246c565b61314260e083018461246c565b9998505050505050505050565b7f4e487b7100000000000000000000000000000000000000000000000000000000600052603260045260246000fd5b600061318982612462565b915061319483612462565b9250828210156131a7576131a6613044565b5b828203905092915050565b6000819050919050565b6000819050919050565b60006131e16131dc6131d7846131b2565b6131bc565b612462565b9050919050565b6131f1816131c6565b82525050565b60006101408201905061320d600083018d61246c565b818103602083015261321f818c612407565b905061322e604083018b61246c565b8181036060830152613240818a612407565b905081810360808301526132548189612407565b905081810360a08301526132688188612407565b905061327760c083018761246c565b61328460e0830186612e1e565b6132926101008301856131e8565b6132a06101208301846131e8565b9b9a505050505050505050505056fea26469706673582212204345b472cb40d40408fc43a1079e7843d5c8f24d86bb8f5c6fc0806960f9215c64736f6c634300080b0033",
  "immutableReferences": {},
  "source": "// SPDX-License-Identifier: MIT\r\npragma solidity ^0.8.0;\r\n\r\ncontract SimpleStorage {\r\n    // data\r\n    string public name = \"ArchStorage\";\r\n\r\n    uint256 public fileIDs = 0;\r\n    uint256 public fileNum = 0;\r\n    uint256 public transactionCount = 0;\r\n    mapping(uint256 => File) public files;\r\n    mapping(address => UserDetail) user;\r\n\r\n    struct File {\r\n        uint256 fileId;\r\n        string fileHash;\r\n        uint256 fileSize;\r\n        string fileType;\r\n        string fileName;\r\n        string fileDescription;\r\n        uint256 uploadTime;\r\n        address uploader;\r\n        uint256 lastChange;\r\n        uint256 lastSize;\r\n    }\r\n\r\n    struct UserDetail {\r\n        address addr;\r\n        string name;\r\n        string password;\r\n        bool isUserLoggedIn;\r\n    }\r\n\r\n    struct Transaction {\r\n        address userAddress;\r\n        string userName;\r\n        uint256 fileId;\r\n        string fileName;\r\n        string fileHash;\r\n        uint256 fileSize;\r\n        string transactionType;\r\n        uint256 changeLevel;\r\n        uint256 uploadTime;\r\n        uint256 lastSize;\r\n    }\r\n    Transaction[] transactions;\r\n\r\n    //events\r\n\r\n    // event transactionAdded(Transaction temp);\r\n\r\n    event FileUploaded(\r\n        uint256 fileId,\r\n        string fileHash,\r\n        uint256 fileSize,\r\n        string fileType,\r\n        string fileName,\r\n        string fileDescription,\r\n        uint256 uploadTime,\r\n        address uploader,\r\n        uint256 lastChange,\r\n        uint256 lastSize\r\n    );\r\n\r\n    event FileUpdated(\r\n        string fileHash,\r\n        uint256 fileSize,\r\n        string fileType,\r\n        string fileName,\r\n        uint256 uploadTime,\r\n        address uploader,\r\n        uint256 lastChange,\r\n        uint256 lastSize\r\n    );\r\n\r\n    constructor() public {}\r\n\r\n    function uploadFile(\r\n        string memory _fileHash,\r\n        uint256 _fileSize,\r\n        string memory _fileType,\r\n        string memory _fileName,\r\n        string memory _fileDescription\r\n    ) public {\r\n        // Make sure the file hash exists\r\n        require(bytes(_fileHash).length > 0);\r\n        // Make sure file type exists\r\n        require(bytes(_fileType).length > 0);\r\n        // Make sure file description exists\r\n        require(bytes(_fileDescription).length > 0);\r\n        // Make sure file fileName exists\r\n        require(bytes(_fileName).length > 0);\r\n        // Make sure uploader address exists\r\n        require(msg.sender != address(0));\r\n        // Make sure file size is more than 0\r\n        require(_fileSize > 0);\r\n\r\n        // Increment file id\r\n        fileIDs++;\r\n        fileNum++;\r\n\r\n        // Add File to the contract\r\n        files[fileIDs] = File(\r\n            fileIDs,\r\n            _fileHash,\r\n            _fileSize,\r\n            _fileType,\r\n            _fileName,\r\n            _fileDescription,\r\n            block.timestamp,\r\n            msg.sender,\r\n            0,\r\n            0\r\n        );\r\n\r\n        Transaction memory temp;\r\n        temp.userAddress = msg.sender;\r\n        temp.userName = user[msg.sender].name;\r\n        temp.fileId = fileIDs;\r\n        temp.fileName = _fileName;\r\n        temp.fileHash = _fileHash;\r\n        temp.fileSize = _fileSize;\r\n        temp.transactionType = \"ADD\";\r\n        temp.changeLevel = 0;\r\n        temp.lastSize = 0;\r\n        temp.uploadTime = block.timestamp;\r\n        transactions.push(temp);\r\n\r\n        transactionCount++;\r\n        // Trigger an event\r\n        emit FileUploaded(\r\n            fileIDs,\r\n            _fileHash,\r\n            _fileSize,\r\n            _fileType,\r\n            _fileName,\r\n            _fileDescription,\r\n            block.timestamp,\r\n            msg.sender,\r\n            0,\r\n            0\r\n        );\r\n    }\r\n\r\n    function updateFile(\r\n        string memory _fileHash,\r\n        uint256 _fileSize,\r\n        string memory _fileType,\r\n        string memory _fileName,\r\n        uint256 _fileID,\r\n        uint256 _changeValue,\r\n        uint256 _lastSize\r\n    ) public {\r\n        // Make sure the file hash exists\r\n        require(bytes(_fileHash).length > 0);\r\n        // Make sure file type exists\r\n        require(bytes(_fileType).length > 0);\r\n        require(bytes(_fileName).length > 0);\r\n        // Make sure uploader address exists\r\n        require(msg.sender != address(0));\r\n        // Make sure file size is more than 0\r\n        require(_fileSize > 0);\r\n        require(_fileID > 0 && _fileID <= fileIDs);\r\n        require(_changeValue >= 0);\r\n\r\n        // update current file\r\n        files[_fileID].fileHash = _fileHash;\r\n        files[_fileID].fileSize = _fileSize;\r\n        files[_fileID].fileType = _fileType;\r\n        files[_fileID].fileName = _fileName;\r\n        files[_fileID].uploadTime = block.timestamp;\r\n        files[_fileID].uploader = msg.sender;\r\n        files[_fileID].lastChange = _changeValue;\r\n        files[_fileID].lastSize = _lastSize;\r\n\r\n        Transaction memory temp;\r\n        temp.userAddress = msg.sender;\r\n        temp.userName = user[msg.sender].name;\r\n        temp.fileId = _fileID;\r\n        temp.fileName = files[_fileID].fileName;\r\n        temp.fileHash = _fileHash;\r\n        temp.fileSize = _fileSize;\r\n        temp.transactionType = \"UPDATE\";\r\n        temp.changeLevel = _changeValue;\r\n        temp.uploadTime = block.timestamp;\r\n        temp.lastSize = _lastSize;\r\n        transactions.push(temp);\r\n\r\n        transactionCount++;\r\n        // Trigger an event\r\n        emit FileUpdated(\r\n            _fileHash,\r\n            _fileSize,\r\n            _fileType,\r\n            _fileName,\r\n            block.timestamp,\r\n            msg.sender,\r\n            _changeValue,\r\n            _lastSize\r\n        );\r\n    }\r\n\r\n    function getFile(uint256 _fileID) public view returns (File memory) {\r\n        return files[_fileID];\r\n    }\r\n\r\n    function deleteFile(uint256[] memory _fileID) public {\r\n        require(_fileID.length > 0);\r\n        for (uint256 i = 0; i < _fileID.length; i++) {\r\n            Transaction memory temp;\r\n            temp.userAddress = msg.sender;\r\n            temp.userName = user[msg.sender].name;\r\n            temp.fileId = _fileID[i];\r\n            temp.fileName = files[_fileID[i]].fileName;\r\n            temp.fileHash = files[_fileID[i]].fileHash;\r\n            temp.fileSize = files[_fileID[i]].fileSize;\r\n            temp.transactionType = \"DELETE\";\r\n            temp.changeLevel = 0;\r\n            temp.uploadTime = block.timestamp;\r\n            transactions.push(temp);\r\n\r\n            transactionCount++;\r\n            delete files[_fileID[i]];\r\n            fileNum -= 1;\r\n        }\r\n    }\r\n\r\n    // user registration function\r\n    function register(\r\n        address _address,\r\n        string memory _name,\r\n        string memory _password\r\n    ) public returns (bool) {\r\n        require(user[_address].addr != msg.sender);\r\n        user[_address].addr = _address;\r\n        user[_address].name = _name;\r\n        user[_address].password = _password;\r\n        user[_address].isUserLoggedIn = false;\r\n        return true;\r\n    }\r\n\r\n    // user login function\r\n    function login(address _address, string memory _password)\r\n        public\r\n        returns (bool)\r\n    {\r\n        if (\r\n            keccak256(abi.encodePacked(user[_address].password)) ==\r\n            keccak256(abi.encodePacked(_password))\r\n        ) {\r\n            user[_address].isUserLoggedIn = true;\r\n            return user[_address].isUserLoggedIn;\r\n        } else {\r\n            return false;\r\n        }\r\n    }\r\n\r\n    // check the user logged In or not\r\n    function checkIsUserLogged(address _address) public view returns (bool) {\r\n        return (user[_address].isUserLoggedIn);\r\n    }\r\n\r\n    function checkUserName(address _address)\r\n        public\r\n        view\r\n        returns (string memory)\r\n    {\r\n        return (user[_address].name);\r\n    }\r\n\r\n    // logout the user\r\n    function logout(address _address) public {\r\n        user[_address].isUserLoggedIn = false;\r\n    }\r\n\r\n    function getAllTransactions() public view returns (Transaction[] memory) {\r\n        return transactions;\r\n    }\r\n}\r\n",
  "sourcePath": "C:\\Users\\MyComputer\\Downloads\\THESIS\\GithubPushes\\contracts\\SimpleStorage.sol",
  "compiler": {
    "name": "solc",
    "version": "0.8.11+commit.d7f03943.Emscripten.clang"
  },
  "schemaVersion": "3.4.4",
  "updatedAt": "2022-02-05T06:15:36.034Z",
  "devdoc": {
    "kind": "dev",
    "methods": {},
    "version": 1
  },
  "userdoc": {
    "kind": "user",
    "methods": {},
    "version": 1
  }
}